:020000040800F2
:1080000000000220D191010805A4000809A400087D
:108010000DA4000811A4000815A400080000000029
:1080200000000000000000000000000019A400088B
:108030001DA400080000000021A4000825A40008D9
:108040001D9201081D9201081D9201081D92010850
:108050001D9201081D9201081D9201081D92010840
:108060001D9201081D9201081D9201081D92010830
:108070001D9201081D92010831CD00081D920108D2
:108080001D9201081D9201081D9201081D92010810
:108090001D9201081D9201081D9201081D92010800
:1080A0001D9201081D9201081D9201081D920108F0
:1080B0001D9201081D9201081D9201081D920108E0
:1080C0001D9201081D9201081D9201081D920108D0
:1080D0001D9201081D9201081D9201081D920108C0
:1080E0001D9201081D9201081D9201081D920108B0
:1080F0001D9201081D9201081D9201081D920108A0
:108100001D9201081D9201081D9201081D9201088F
:108110001D9201081D9201081D9201081D9201087F
:108120001D9201081D9201081D9201081D9201086F
:108130001D9201081D9201081D9201081D9201085F
:108140001D9201081D9201081D9201081D9201084F
:108150001D9201081D9201081D9201081D9201083F
:108160001D9201081D9201081D9201081D9201082F
:108170001D9201081D9201081D9201081D9201081F
:108180001D9201081D92010800000000000000007F
:10819000844641EA000313F003036DD1403A41D312
:1081A00051F8043B40F8043B51F8043B40F8043BD1
:1081B00051F8043B40F8043B51F8043B40F8043BC1
:1081C00051F8043B40F8043B51F8043B40F8043BB1
:1081D00051F8043B40F8043B51F8043B40F8043BA1
:1081E00051F8043B40F8043B51F8043B40F8043B91
:1081F00051F8043B40F8043B51F8043B40F8043B81
:1082000051F8043B40F8043B51F8043B40F8043B70
:1082100051F8043B40F8043B51F8043B40F8043B60
:10822000403ABDD2303211D351F8043B40F8043B00
:1082300051F8043B40F8043B51F8043B40F8043B40
:1082400051F8043B40F8043B103AEDD20C3205D310
:1082500051F8043B40F8043B043AF9D2043208D008
:10826000D2071CBF11F8013B00F8013B01D30B887A
:1082700003806046704700BF082A13D38B078DD058
:1082800010F003038AD0C3F10403D21ADB071CBF2A
:1082900011F8013B00F8013B80D331F8023B20F894
:1082A000023B7BE7043AD9D3013A11F8013B00F8CD
:1082B000013BF9D20B7803704B7843708B78837055
:1082C0006046704781F0004102E000BF83F0004348
:1082D00030B54FEA41044FEA430594EA050F08BF61
:1082E00090EA020F1FBF54EA000C55EA020C7FEA25
:1082F000645C7FEA655C00F0E2804FEA5454D4EBA2
:108300005555B8BF6D420CDD2C4480EA020281EA6B
:10831000030382EA000083EA010180EA020281EAA3
:108320000303362D88BF30BD11F0004F4FEA0131F5
:108330004FF4801C4CEA113102D0404261EB410104
:1083400013F0004F4FEA03334CEA133302D052428A
:1083500063EB430394EA050F00F0A780A4F1010446
:10836000D5F1200E0DDB02FA0EFC22FA05F2801880
:1083700041F1000103FA0EF2801843FA05F3594166
:108380000EE0A5F120050EF1200E012A03FA0EFCE5
:1083900028BF4CF0020C43FA05F3C01851EBE3710F
:1083A00001F0004507D54FF0000EDCF1000C7EEB2C
:1083B00000006EEB0101B1F5801F1BD3B1F5001F6A
:1083C0000CD349085FEA30004FEA3C0C04F1010489
:1083D0004FEA445212F5800F80F09A80BCF1004FB2
:1083E00008BF5FEA500C50F1000041EB045141EA34
:1083F000050130BD5FEA4C0C404141EB010111F435
:10840000801FA4F10104E9D191F0000F04BF0146DF
:108410000020B1FA81F308BF2033A3F10B03B3F1BD
:1084200020020CDA0C3208DD02F1140CC2F10C024D
:1084300001FA0CF021FA02F10CE002F11402D8BFAB
:10844000C2F1200C01FA02F120FA0CFCDCBF41EA77
:108450000C019040E41AA2BF01EB0451294330BD46
:108460006FEA04041F3C1CDA0C340EDC04F1140423
:10847000C4F1200220FA04F001FA02F340EA0300FA
:1084800021FA04F345EA030130BDC4F10C04C4F140
:10849000200220FA02F001FA04F340EA0300294620
:1084A00030BD21FA04F0294630BD94F0000F83F46A
:1084B000801306BF81F480110134013D4EE77FEA4D
:1084C000645C18BF7FEA655C29D094EA050F08BF99
:1084D00090EA020F05D054EA000C04BF194610467A
:1084E00030BD91EA030F1EBF0021002030BD5FEABE
:1084F000545C05D14000494128BF41F0004130BDE6
:1085000014F580043CBF01F5801130BD01F0004539
:1085100045F0FE4141F470014FF0000030BD7FEAAC
:10852000645C1ABF194610467FEA655C1CBF0B46A7
:10853000024650EA013406BF52EA033591EA030FBE
:1085400041F4002130BD00BF90F0000F04BF0021B6
:10855000704730B54FF4806404F132044FF00005E9
:108560004FF0000150E700BF90F0000F04BF002162
:10857000704730B54FF4806404F1320410F00045C8
:1085800048BF40424FF000013EE700BF42004FEAC3
:10859000E2014FEA31014FEA02701FBF12F07F4340
:1085A00093F07F4F81F06051704792F0000F14BF3D
:1085B00093F07F4F704730B54FF4607401F0004581
:1085C00021F0004120E700BF50EA010208BF7047D8
:1085D00030B54FF000050AE050EA010208BF7047CD
:1085E00030B511F0004502D5404261EB41014FF436
:1085F000806404F132045FEA915C3FF4DCAE4FF03A
:1086000003025FEADC0C18BF03325FEADC0C18BF20
:10861000033202EBDC02C2F1200300FA03FC20FA71
:1086200002F001FA03FE40EA0E0021FA02F11444BE
:10863000C1E600BF70B54FF0FF0C4CF4E06C1CEAD3
:1086400011541DBF1CEA135594EA0C0F95EA0C0F48
:1086500000F0DEF82C4481EA030621EA4C5123EABB
:108660004C5350EA013518BF52EA033541F48011EA
:1086700043F4801338D0A0FB02CE4FF00005E1FB9D
:1086800002E506F00042E0FB03E54FF00006E1FBE7
:1086900003569CF0000F18BF4EF0010EA4F1FF042A
:1086A000B6F5007F64F5407404D25FEA4E0E6D416A
:1086B00046EB060642EAC62141EA55514FEAC5207B
:1086C00040EA5E504FEACE2EB4F1FD0C88BFBCF5F7
:1086D000E06F1ED8BEF1004F08BF5FEA500E50F1A8
:1086E000000041EB045170BD06F0004646EA01016E
:1086F00040EA020081EA0301B4EB5C04C2BFD4EBA0
:108700000C0541EA045170BD41F480114FF0000E98
:10871000013C00F3AB8014F1360FDEBF002001F006
:10872000004170BDC4F10004203C35DA0C341BDC80
:1087300004F11404C4F1200500FA05F320FA04F052
:1087400001FA05F240EA020001F0004221F0004186
:1087500010EBD37021FA04F642EB06015EEA430EF9
:1087600008BF20EAD37070BDC4F10C04C4F1200529
:1087700000FA04F320FA05F001FA04F240EA0200DC
:1087800001F0004110EBD37041F100015EEA430EAD
:1087900008BF20EAD37070BDC4F1200500FA05F2CD
:1087A0004EEA020E20FA04F301FA05F243EA02034C
:1087B00021FA04F001F0004121FA04F220EA02005B
:1087C00000EBD3705EEA430E08BF20EAD37070BDA1
:1087D00094F0000F0FD101F00046400041EB010181
:1087E00011F4801F08BF013CF7D041EA060195F063
:1087F000000F18BF704703F00046520043EB03031D
:1088000013F4801F08BF013DF7D043EA0603704709
:1088100094EA0C0F0CEA135518BF95EA0C0F0CD014
:1088200050EA410618BF52EA4306D1D181EA03015A
:1088300001F000414FF0000070BD50EA410606BF54
:108840001046194652EA430619D094EA0C0F02D199
:1088500050EA013613D195EA0C0F05D152EA0336DE
:108860001CBF104619460AD181EA030101F00041FC
:1088700041F0FE4141F470014FF0000070BD41F045
:10888000FE4141F4780170BD70B54FF0FF0C4CF41F
:10889000E06C1CEA11541DBF1CEA135594EA0C0F3E
:1088A00095EA0C0F00F0A7F8A4EB050481EA030E8B
:1088B00052EA03354FEA013100F088804FEA033372
:1088C0004FF0805545EA131343EA12634FEA022240
:1088D00045EA111545EA10654FEA00260EF0004101
:1088E0009D4208BF964244F1FD0404F5407402D253
:1088F0005B084FEA3202B61A65EB03055B084FEAE4
:1089000032024FF480104FF4002CB6EB020E75EBE0
:10891000030E22BFB61A754640EA0C005B084FEA08
:108920003202B6EB020E75EB030E22BFB61A754685
:1089300040EA5C005B084FEA3202B6EB020E75EBD0
:10894000030E22BFB61A754640EA9C005B084FEA48
:108950003202B6EB020E75EB030E22BFB61A754655
:1089600040EADC0055EA060E18D04FEA051545EA44
:1089700016754FEA06164FEAC30343EA52734FEAED
:10898000C2025FEA1C1CC0D111F4801F0BD141EA66
:1089900000014FF000004FF0004CB6E711F4801FCB
:1089A00004BF01430020B4F1FD0C88BFBCF5E06FAB
:1089B0003FF6AFAEB5EB030C04BFB6EB020C5FEABB
:1089C000500C50F1000041EB045170BD0EF0004E10
:1089D0004EEA113114EB5C04C2BFD4EB0C0541EA42
:1089E000045170BD41F480114FF0000E013C90E63F
:1089F00045EA060E8DE60CEA135594EA0C0F08BF03
:108A000095EA0C0F3FF43BAF94EA0C0F0AD150EA01
:108A100001347FF434AF95EA0C0F7FF425AF104694
:108A200019462CE795EA0C0F06D152EA03353FF4BC
:108A3000FDAE1046194622E750EA410618BF52EA39
:108A400043067FF4C5AE50EA41047FF40DAF52EA0D
:108A500043057FF4EBAE12E74FF0FF3C06E000BFAA
:108A60004FF0010C02E000BF4FF0010C4DF804CDB7
:108A70004FEA410C7FEA6C5C4FEA430C18BF7FEA77
:108A80006C5C1BD001B050EA410C0CBF52EA430CA5
:108A900091EA030F02BF90EA020F0020704710F125
:108AA000000F91EA030F58BF994208BF90422CBFB4
:108AB000D8176FEAE37040F0010070474FEA410CAD
:108AC0007FEA6C5C02D150EA013C07D14FEA430CCB
:108AD0007FEA6C5CD6D152EA033CD3D05DF8040B3C
:108AE000704700BF8446104662468C46194663466E
:108AF00000E000BF01B5FFF7B7FF002848BF10F145
:108B0000000F01BD4DF808EDFFF7F4FF0CBF012089
:108B100000205DF808FB00BF4DF808EDFFF7EAFF05
:108B200034BF012000205DF808FB00BF4DF808EDC0
:108B3000FFF7E0FF94BF012000205DF808FB00BFB5
:108B40004DF808EDFFF7CEFF94BF012000205DF83F
:108B500008FB00BF4DF808EDFFF7C4FF34BF01204C
:108B600000205DF808FB00BF4FEA4102B2F1E0438C
:108B700024BFB3F5001CDCF1FE5C0DD901F0004C04
:108B80004FEAC0024CEA5070B2F1004F40EB830054
:108B900008BF20F00100704711F0804F21D113F180
:108BA0003872BCBF01F00040704741F480114FEAB9
:108BB0005252C2F11802C2F1200C10FA0CF320FA42
:108BC00002F018BF40F001004FEAC1234FEAD3235F
:108BD00003FA0CFC40EA0C0023FA02F34FEA4303C9
:108BE000CCE77FEA625307D150EA01331EBF4FF052
:108BF000FE4040F44000704701F0004040F0FE406D
:108C000040F40000704700BFF0B5044683B0C16275
:108C1000002503F03FFA04F1300004F095F9C4F8A0
:108C2000A850A566E56625676567A567E567C4F88A
:108C30008050C4F88450C4F88850C4F88C50C4F8EC
:108C40009050C4F89450C4F89850C4F89C50C4F89C
:108C5000A050C4F8A4500420012110F0A9F8002667
:108C600001274FF480736946154800938DF804700E
:108C70008DF806608DF805608DF807600FF0AEFD89
:108C8000104B1148114965654FF07C5284F86060C3
:108C9000656384F84060656484F85060C4F8AC5043
:108CA00084F8BC7084F8BD6084F8BE7084F8BF603E
:108CB000E063A163E265E264A365A36403B0F0BD71
:108CC000000802400AD7233C6666663FCDCC4C3D87
:108CD0002DE9F0030231002A00F046810C88A4F14E
:108CE0003306B7B2551EB7F5B56FC5F3C1064FF0E1
:108CF000000340F2928004F2DB581FFA88F9B9F5BC
:108D0000B56F98BF4FF0FF330824A24240F28C8029
:108D1000002E70D0012E24D0022E10D0B1F820C029
:108D2000ACF13307BDB2B5F5B56F40F21B810CF263
:108D3000DB56B7B2B7F5B56F00D8013B083431F850
:108D40002480A8F133051FFA85F9B9F5B56F40F213
:108D5000078108F2DB56B7B2B7F5B56F00D8013B13
:108D6000083431F824C0ACF133051FFA85F8B8F5A2
:108D7000B56F40F2F3800CF2DB56B7B2B7F5B56FC2
:108D800000D8013B0834A24235D84DE00133083405
:108D900031F82480A8F133051FFA85F9B9F5B56FCC
:108DA00000F2CE80013304F1080C31F82C80A8F1D8
:108DB00033051FFA85F9B9F5B56F40F2BF8008F2A7
:108DC000DB56B7B2B7F5B56F00D8013B04F1100C14
:108DD00031F82C80A8F133051FFA85F9B9F5B56F84
:108DE0001DD908F2DB56B7B2B7F5B56F00D8013B15
:108DF0001834A24218D931F82490A9F133051FFA8A
:108E000085FCBCF5B56FC1D909F2DB56B7B2B7F531
:108E1000B56F98BF03F1FF33B9E7012374E7183446
:108E2000A24203F10103E6D805EE903AB8EEE56AF6
:108E3000D50807EE105AB8EE470A90F86560D0EDF5
:108E4000157AD0ED166A90F8607090ED173AC6EE7C
:108E5000000A002EB7EE001AFFEE001AB0EE672AE5
:108E600008BFF0EE411A91EEA02AE6EE827AC0ED3C
:108E7000157A002F6DD19FED3E4A74EE034AF4EE51
:108E8000E47AF1EE10FAB4BF0023012380F86030D9
:108E9000002B50D0002A4ED092000423101F4FF018
:108EA000000C9342C0F38204A1F800C043D034B355
:108EB000012C1FD0022C1AD0032C13D0042C0CD060
:108EC000052C07D0062C02D000258D800823002613
:108ED000CE5204330027CF5204334FF0000821F85C
:108EE000038004334FF0000921F80390043300207D
:108EF000C85204330024CC52043393421BD00020C8
:108F0000C8521C1D03F1080903F10C0803F1100CF1
:108F100003F1140703F1180603F11C0520339342F3
:108F2000085321F8090021F8080021F80C00C85363
:108F300088534853E3D1BDE8F0037047013345E758
:108F400008F2DB56B7B2B7F5B56F3FF62CAF013B71
:108F500029E7DFED083A23EE234A8EE7013311E7D4
:108F60000133FDE60133E9E69FED016A60E700BFEA
:108F700000000000CDCC4CBD70B5044604215C4817
:108F800094F864500FF076FDD0F1010038BF002056
:108F9000D4ED0D7AD4ED0E6A94F84030D4ED0F0A7A
:108FA000A8420CBFB7EE007ABFEE007A37EE670A30
:108FB000E6EE807AC4ED0D7A002B40F08980DFED7B
:108FC0004D1A6289E66A9FED4C3AD6ED073A02EEF9
:108FD000902AB8EE624A31EEA02AD4EE033A94F811
:108FE0006420F4EEC27AF1EE10FAFEEE005AB4BF3D
:108FF00000210121FFEE004A002AB7EE005AF4EEEC
:10900000E53A0CBFB0EE456AB0EE646AF1EE10FAD4
:1090100084F8401022DDF6EE007AF4EEE73AF1EE45
:1090200010FA1BD594ED110AD4ED121A94F85000E1
:1090300094ED131AF5EEC03AF1EE10FAB0EE402AB4
:1090400048BFB0EE645A96EE052AA1EE820A84ED7E
:10905000110A002843D1DFED273A14E094ED110AFC
:109060009FED247AD4ED120A94F85050F0EE406A45
:10907000D6EE076AA0EEA60A84ED110A6DBB94ED48
:10908000131AF0EE473A1D491D4E08681D4B94F81F
:10909000BE5084F8652033EE814A06FB00FEB4EE34
:1090A000C40A7344F1EE10FAB4BF4FF0000C4FF055
:1090B000010CDA0F84F850C00B6084F864200DB9FD
:1090C00094F8BF20104C7AB94FF48071618370BD61
:1090D0009FED0E1A60EE811A73E794ED131A9FED5F
:1090E0000B3A61EE033ACEE74FF48076268370BDEB
:1090F00000000240000000000000803758060020F9
:109100000D6619005FF36E3C00080240CDCC4CBDEB
:109110008B79012B12D00FD3022B0BD14879042865
:109120000ED0012A0ED0022A0ED0032A14BF172017
:1091300010207047002070470B20704711207047A7
:10914000122070470F207047152070472DE9F84313
:109150002DED028B994693F835305371904699F86E
:10916000372088F8062099F8364088F81D4099F88D
:10917000385088F81E50044699F8390088F81F00C6
:10918000514DA01E04F1680600275EE0022B14D1A9
:10919000B6EE000A75EE400AF1EE007A60EEA06AC3
:1091A0009FED4A6A26EEA71AF5EEC00A61EE011A93
:1091B000F1EE10FA21EE865A6DD4D6ED005A95EDF7
:1091C000018A75EE658A0835E8EE285A6B780CF14D
:1091D0000200E6EC015ABCF8022005EE102A07F165
:1091E000010CBBEEC85A33B1E36A03EB870797ED76
:1091F000037A37EE455A2A78012A4FD0022A14D131
:10920000B6EE000A75EE400AF1EE007A60EEA06A52
:109210009FED2E6A26EEA71AF5EEC00A61EE011A3E
:10922000F1EE10FA21EE865A4BD4D6ED005A95EDA8
:10923000018A75EE658A0CF10107E8EE285A102FB5
:1092400005F10805E6EC015A5ED043886A7805EE20
:10925000103A00F1020CBBEEC85A32B1E06A00EBE2
:10926000870E9EED027A37EE455A2B78012B8DD171
:10927000B6EE002A75EE422AB1EE003A62EEA23A4C
:109280009FED124A63EE834AF5EEC02AF1EE10FA22
:1092900024EE845A91D5B1EE455A8EE7B6EE002AF7
:1092A00075EE422AB1EE003A62EEA23A9FED074A0D
:1092B00063EE834AF5EEC02AF1EE10FA24EE845AEA
:1092C000B3D5B1EE455AB0E7000000203333534028
:1092D0003BDF7F3FCDCC4C3F000040C20AD7A33CD0
:1092E0009A9999BE9A99993E00008037CDCCCCBD11
:1092F000CDCCCC3D00007442CFF7DF40000070427F
:10930000000040420000000094ED1B7A94ED260A14
:10931000D4ED210AE0EE070AF5EEC00AF1EE10FAEC
:1093200000F1B6811FED161AF4EE410AF1EE10FAC3
:10933000D8BFB0EE601AD4ED1C6A94ED276AD4ED64
:10934000227A81ED001AE6EE267AF5EEC07AF1EE89
:1093500010FA00F19781F7EE001AF4EE617AF1EE5F
:1093600010FAD8BFF0EE671A94ED1D2AD4ED282A22
:1093700094ED233AC1ED011AA2EE823AB5EEC03A5D
:10938000F1EE10FA00F17B81F7EE003AB4EE633AA9
:10939000F1EE10FAD8BFF0EE433A94ED1E4AD4ED48
:1093A000294A94ED245AC1ED023AA4EE845AB5EE4E
:1093B000C05AF1EE10FA00F16881F7EE005AB4EEEF
:1093C000655AF1EE10FACCBFB0EE658AB0EE458A70
:1093D000D4ED1A8A1FED360A94ED2B7A5FED430A1D
:1093E000D4ED257A5FED441A81ED038A28EE801AC8
:1093F00071EE476AB0EEE66AB4EEE06AF1EE10FA9A
:10940000BEBF1FED4A1AA6EE817AB0EE471A21EED2
:10941000272A84ED2B1AB4EEE12AF1EE10FA40F17E
:109420000781C8ED041A2046FFF7A6FD94F83130F5
:1094300094F8401094F8606094F8505088F8045004
:1094400088F8031088F802601BB194F8300080F0AF
:10945000010388F8003094F8BC7094F831E088F883
:1094600001E027B199F83420002A40F0A48094F854
:10947000BD700026D4ED208A1FED610A1FED618AC0
:10948000002028EE800A84F8BC0068EE888A0FF07D
:1094900027FF002F40F0B380D4ED2A0A1FED707A29
:1094A0001FED701A78EEE06AF5EEC06AF1EE10FA80
:1094B000C8BFB0EE471A4DB931EE286AF6EE007A11
:1094C00036EE270A0FF00CFFF0EE408AC4ED2A8A30
:1094D00099F83430002B40F0C380191C18BF0121CB
:1094E00084F8BD1088F81C1094F8BD701FB1D4F832
:1094F0008000C8F81400002E40F0BD80B2EE083A9B
:1095000078EE833AC8ED023A002D00F09D800023EA
:10951000E56AC8F80C3066881FED8D0AD5ED030AA0
:1095200094ED267A94ED218A99F830205FED918AA6
:1095300005EE906AB8EE651A4146E1EE400A204613
:10954000A7EE208AFFF7E4FD411E06EE901AD4ED47
:109550002E7A5FED991AB8EEE66AF8EEE72A26EE63
:10956000082AB6EE003A72EE623AF5EEC03AF1EE33
:1095700010FAC8BFF0EE681A31EE824A74EE034A60
:10958000BDEEE45A15EE102A002AC0F28480904203
:10959000C6BFC4F8B8201146C4F8B8102046C8F8B1
:1095A000181002F035FDBDEC028B04F13000BDE86F
:1095B000F84303F0E7BC012A56D899ED0B3AFFEEC9
:1095C000003AB4EEE33AF1EE10FA4DD41FEDB74A8B
:1095D000B4EEC43AF1EE10FA46DCD4ED204A1FEDA9
:1095E000BA5A5FEDBA5A0121002624EE850A84F8A2
:1095F000BD1084F8BC6064EEA58A0FF071FE99F886
:109600003430002B3FF448AF98F805C0D9ED0B8AF1
:10961000ACF1020E5FFA8EF2012A7FF65EAFF0EE39
:10962000081A30EE612AF2EE082AE2EE228A54E7A6
:109630005FEDCD2AB4EEE22AF1EE10FAC8BFB0EE2B
:10964000622A88ED042AEEE6E56A94ED1F4AD5ED1C
:10965000004A95ED015AE4EE054AC8ED034A5AE77F
:10966000C9ED0B8A012638E7002689F8346094F8A2
:10967000BD700126FEE6484601F0D4FA3EE75FEDF4
:10968000DF3A8AE65FEDE11A6EE61FEDE28A9FE6B9
:109690001FEDE41A4FE60021C4F8B8107EE700BFC2
:1096A0002DE9F04F0546524F524891B00C462946DD
:1096B0001646FFF70DFB08AA3B4604A94D48FFF7E5
:1096C00045FD97F83220002A40F0A480002E00F0DB
:1096D00086864948494BD0ED007A4FEA86085FEA12
:1096E000487131D4B5F902109FED455ADFED455A66
:1096F0009FED456A07EE101ABAEEE87AF0EE676A57
:10970000D7EE076A0422F5EEC06AF1EE10FAC8BF80
:10971000F0EE455AE5EEA67AF4EEC67AF1EE10FACE
:109720009ABFDFED3A6A67EEA66AF7EE006A26EEA8
:10973000870A83ED000A364B06E027EEA51A61EE94
:10974000246A0432E3EC016A05EB0209F0EE672AB1
:10975000B9F90270DFED2A4A9FED2A1ADFED2A1AC5
:109760009FED2A4A9FED263ADFED263A9FED265AD5
:10977000DFED265A00EE907AFAEEE80AB7EE002AFC
:10978000D0EEA02A043205EB020AF5EEC02AF1EE73
:1097900010FAC8BFB0EE641AE1EE227AF4EEE17A74
:1097A000F1EE10FA98BF27EE842A424522EE207A85
:1097B000A3EC017A00F04F82BAF902E004EE90EADD
:1097C000FAEEE84AF0EE670AD4EEA40AF5EEC00A13
:1097D000F1EE10FAC8BFF0EE433AE3EEA07AF4EEF1
:1097E000C57AF1EE10FAA8D9B7EE001AA7E700BFC4
:1097F00028EA0120D0060020A4FB012070060020EA
:10980000CDCCCC3D17B7D13882A8FB3756350247AF
:1098100074060020002E00F0CE80B5F90210E54A53
:1098200001EE901A4FEA860BFAEEE81A0423ABF128
:1098300004075B45E2EC011AC7F3820000F0BB802D
:10984000002857D0012848D002283BD003282FD029
:10985000042823D0052816D0062809D0B5F906A07B
:1098600004EE10AABAEEE84A082382ED004AD24A72
:1098700005EB030C0433BCF9028002EE108ABAEE49
:10988000E82AA2EC012A05EB03090433B9F902E046
:1098900002EE90EAFAEEE82AE2EC012AE918043333
:1098A000B1F9027006EE107ABAEEE86AA2EC016A2B
:1098B000E8180433B0F902A005EE10AABAEEE85A8F
:1098C000A2EC015A05EB030C0433BCF9028005EE4F
:1098D000908AFAEEE85AE2EC015A05EB03090433E8
:1098E000B9F902E003EE10EABAEEE83A5B45A2EC01
:1098F000013A60D0E818191D844605EB010AB0F959
:109900000200BAF90680BCF90E10BCF91690DFED22
:10991000AB7A03EE900ABAF9020005EB030A00EEF7
:10992000100ABCF91200BAF91A7005EB030C00EE2C
:10993000908ABCF91EE001EE101A01EE900A06EEC4
:10994000909A07EE107A02EE10EAB8EEE34AF8EECB
:10995000C04AF8EEE02AF8EEC15AB8EEE16AB8EE75
:10996000E63AB8EEC70AF8EEC23A64EE270A904625
:1099700024EEA71A22EEA75A65EEA71A26EE274A6A
:1099800063EE276A20EE277A203363EEA77AE8ECAD
:10999000010A5B4582ED011A88ED015A02F12002AD
:1099A00042ED051A02ED044A42ED036A02ED027A25
:1099B00042ED017A9ED1824D9DF82320D5ED004ADB
:1099C000A9689DED0B2A62B19DF824309DF8220014
:1099D000002B00F0C284002840F0FC848DF82000A9
:1099E00089006B687648002B40F0AF849DF82070AA
:1099F00007B141607348744B02968DE8090008A9CD
:109A000004AA72486B4B85ED002A0CF04FFD002E26
:109A100000F00F816B4F6C4D9FED6D3A3846294633
:109A2000B0EC010AF1EC013A60EE030A23EE831A6E
:109A3000B6000423BDEEE05AFDEEC11AA6F10409FA
:109A4000B34215EE102A02F30F0211EE90AA0AF3A8
:109A50000F0C2280A4F802C0C9F3810200F0E98053
:109A6000002A5DD0012A3BD0022A1DD090ED004A89
:109A700091ED007A64EE036AA646FDEEE67A67EEA3
:109A8000034A17EE901A01F30F08BDEEE42A2EF8F0
:109A9000048F07F1080005F1080112EE107A07F3B0
:109AA0000F070823AEF80270F0EC012AB1EC016A4E
:109AB000DFED475A22EEA53A26EE250A04EB030B0A
:109AC000FDEEC33AFDEEC00A13EE905A05F30F0205
:109AD00010EE909A09F30F07E252ABF802700433CC
:109AE000B0EC011A9FED3A5AF1EC011A21EE054A49
:109AF00061EE856ABDEEC47A04EB030917EE10AA85
:109B00000AF30F0CFDEEE67A24F803C00433B342E7
:109B100017EE90CA0CF30F0EA9F802E000F089804E
:109B200080468B46B8EC012AFBEC014ADFED282A7F
:109B300098ED013AD0ED015A91ED016A9BED010AD1
:109B4000D0ED030AD1ED033A22EE221A64EEA21AF6
:109B500023EE225A25EEA22A26EE223A60EE226A4F
:109B600020EEA27A63EEA27ABDEEC14A1A1D03F17D
:109B7000080703F10C0504EB030904EB020A04EBEC
:109B8000070E04EB050C14EE108A08F30F0BFDEE24
:109B9000E14A24F803B0FDEEC52A1033FDEEC25AA7
:109BA000BDEEC36ABDEEE60AFDEEC70AFDEEE73A7A
:109BB000B3420FE070060020780600200000003855
:109BC00094F9012034F9012074EA012060F10120A8
:109BD0000000004714EE908A08F30F0B00F110000C
:109BE000A9F802B015EE908A08F30F0B12EE909AC6
:109BF00009F30F0924F802B016EE108A08F30F0BD0
:109C000010EE102A02F30F08AAF802B001F11001B9
:109C100024F80790AEF8028010EE909A09F30F072F
:109C2000675313EE905A05F30F05ACF802507FF41A
:109C300077AF9DF820405CB18C4ED6F8A40083101D
:109C4000322BA8BF32230021C6F8A030C6F8A410DA
:109C500011B0BDE8F08F8649864D11ED010A95EDF2
:109C6000056AC0ED007AF0EEC07A77EEC66A771E1C
:109C7000F5EEC06AF1EE10FA05F1740C07F0030E70
:109C800040F39A83D5ED034AF0EE460AE6EEA40AC5
:109C90007849794A95ED061A70EE816A01F17803E8
:109CA000C0EE261A07F1FF3A4CED011A002F00F022
:109CB000E580BEF1000F00F0AF80BEF1010F3CD097
:109CC000BEF1020F1CD012ED014A95ED063AB0EE3E
:109CD000C42A72EE602A0AF1FF3AF5EEC02AF1EECC
:109CE00010FAD4BF95ED046A95ED036AE2EE860A98
:109CF0000432043370EE833A84EE235A03ED025AA1
:109D000052ED015AD5ED067AB0EEE57A37EE600AEB
:109D10000AF1FF3AB5EEC00AF1EE10FAD4BF95EDA4
:109D2000046A95ED036AE0EE060A0432043370EE2D
:109D3000A76AC5EEA64A43ED024A12ED011A4D4943
:109D4000F0EEC11A31EEE04A0AF1FF3AB5EEC04A30
:109D5000F1EE10FAD4BF95ED046A95ED036AE4EED6
:109D6000060ABAF1FF3F02F1040295ED066A70EEB1
:109D7000866A03F1040381EE262A03ED022A4BD101
:109D80007CE0D5ED034AE6EEA40A00F10408ABF14D
:109D9000030A95ED061AD2ED001AD2ED013A3549C3
:109DA00030EE814AB0EEE16A80EE042A00F1080943
:109DB00000F10C030C3276EE602A00ED012AF5EE7C
:109DC000C02AF1EE10FAD4BF95ED042A95ED032ACE
:109DD00095ED063AE2EE820AB0EEE30A30EE835ADF
:109DE00030EE607AC1EE855AB5EEC07A48ED015A80
:109DF000F1EE10FAD4BFD5ED045AD5ED035AD5EDE6
:109E0000067AE7EE250ABAF1FF3F70EEA76AC3EEC5
:109E1000A64A49ED014A31D052ED012A95ED065A84
:109E2000B2EC010AB0EEE23A73EE603AB0EEC07AFC
:109E3000F5EEC03AF1EE10FACCBFD5ED036AD5EDE0
:109E4000046AE3EEA60A0AF1FF3B181D70EE855A7C
:109E500077EE606AC2EEA57AF5EEC06AF1EE10FA0E
:109E600043ED017A8DDCD5ED044A8CE790070020A4
:109E70007406002094F9012078060020DFF854E4ED
:109E8000C1ED050AAEF1840C91ED0E7AD1ED0D7A9B
:109E9000D5ED0B1A5CED200A95ED0C1AE7EE217A50
:109EA000AEF5BA7000F1F40AE1EE470A00F5BC71B4
:109EB00007F0030B4AED017A30EEE74A7B1EA1EE74
:109EC000847A0EED014A002F00F0A380BBF1000F51
:109ED00049D0BBF1010F2DD0BBF1020F16D095ED8B
:109EE0000B6A5AED202A95ED0C2AE7EE067A00F16E
:109EF000F80A013BE2EE472A4AED017A32EEE73AF0
:109F0000A6EE037A01ED013A00F5BE71D5ED0B3AEC
:109F100095ED0C5A1AED200AE7EE237A013B043145
:109F2000A5EE470AEAEC017A70EE675AA3EEA57A2D
:109F300041ED025AD5ED0B4AD5ED0C0A5AED206AD7
:109F4000DE48E7EE247A013BB3F1FF3FE0EEC76A5B
:109F500001F10401EAEC017A36EEE71A01ED021A8A
:109F6000A4EE817A55D0D5ED0B1A95ED0C4A1AED79
:109F7000206AD248E7EE217A52468E46A4EE476A1E
:109F80000AF10C09043BE2EC017A36EE672A9046AE
:109F9000A1EE827A0AF1100AB3F1FF3F01ED012A26
:109FA000D5ED0B3AD5ED0C2A12ED203AE7EE237AE7
:109FB00001F11001A2EEC73AE8EC017A33EE675ADC
:109FC000A3EE857AAEEC015AD5ED0B4A95ED0C0A5D
:109FD00058ED205AE7EE247AE0EE475A49ED017A2F
:109FE00075EEE70AA4EEA07ACEED000AD5ED0B1AC5
:109FF00095ED0C1A59ED206AE7EE217AE1EE476AF9
:10A000004AED017A36EEE74A01ED024AA1EE847A82
:10A01000A9D1AB49C0ED0D7A80ED0E7AD0ED097A69
:10A0200090ED0A7A95ED076AD5ED082A91ED002AA0
:10A03000E7EE067A8C4607F00300A2EEC72A07F186
:10A04000FF3B41ED207A32EE673AA6EE037AACECA4
:10A05000013A002F00F09A80002844D001282BD02C
:10A06000022815D0D5ED073A95ED085A9CED000A67
:10A07000E7EE237A0BF1FF3BA5EE470A4CED207A81
:10A0800070EE675A01F1080CA3EEA57A4CED015A67
:10A09000D5ED074AD5ED080A9CED001AE7EE247AC3
:10A0A0000BF1FF3BA0EEC71A4CED207A71EE676A08
:10A0B000A4EEA67AECEC016AD5ED071A95ED084AF4
:10A0C0009CED002AE7EE217A0BF1FF3B1BF1010129
:10A0D000A4EE472A4CED207A72EE672AA1EEA27A0E
:10A0E000ECEC012A52D095ED076A95ED083ADCEDCB
:10A0F000003AE7EE067AE246ABF1040BE3EE473AAC
:10A100000CF10C071BF101004CED207A33EEE75AFD
:10A110000CF1100CA6EE057AAAEC015AD5ED074A0F
:10A1200095ED080A5CED035AE7EE247A5346E0EE1B
:10A13000475A4AED207A75EEE70AA4EEA07AE3ECDE
:10A14000010AD5ED071A95ED081ADAED016AE7EE76
:10A15000217AE1EE476A43ED207A36EEE74A5CED7C
:10A16000012A0CED024AA1EE847A95ED076A95ED7D
:10A17000082AE7EE067AE2EE472A47ED207A32EE29
:10A18000E73AA6EE037A0CED013AACD1DFED4D5A79
:10A190004D4AC5ED097AB0EE655A85ED0A7A02F1AD
:10A1A00010084FF0000C042141FA0CF9F2EC017A8E
:10A1B000DFED444AF6B14FEA890EC34600209BED1D
:10A1C000007AF0EE673AD7EE073A00EB090AF3445B
:10A1D0005046F5EEC03AF1EE10FAB0EE630ACCBF8D
:10A1E00052ED0A3A52ED073AE0EE237A564574EE04
:10A1F000A74AE4D800EE909AF1EEE46AB8EEE01ACD
:10A2000052ED041A42ED017A26EE814A0CF1010C5E
:10A2100034EE612ABCF1030FF0EEC22A32EE226A5C
:10A2200008F1800875EE845A02ED044A35EE065AAC
:10A23000B9D195ED1B3ADFED257AD5ED7D3A95ED57
:10A240007E7A95ED7C0A1D4F75EE434AF0EE476A23
:10A25000A4EEA73A33EE631A85ED1B3AD1EE016AFC
:10A26000E1EE003AA0EE267AF1EEC71AB4EEE11A5A
:10A27000F1EE10FAC5ED7D3A85ED7E7A2CDD9FED8D
:10A28000144AB4EEC41AF1EE10FA25DD97ED7F2AD8
:10A29000D7F80832B4EEE52AF1EE10FA20D8002BF8
:10A2A00040F08D80B7EE085A65EE855AD7F8041253
:10A2B000C7ED7F5AC7F8081201271CE094F9012066
:10A2C00084FA012000000000F4F90120CDCC4C3DBF
:10A2D0000AD7233C08FB012095ED7F2AD5F80832E8
:10A2E000D5ED802AA2EE622A85ED7F2A13B15A1E8F
:10A2F000C5F8082200279DF823009DED0B3AD5ED07
:10A30000007AA96850B19DF824309DF82220002BD6
:10A3100038D0002A5AD18DF8207089006B68334AF2
:10A32000002B42D19DF8207007B151603048314B6D
:10A3300002968DE8090008A904AA2F482F4B85ED45
:10A34000003A07F061FDFFF762BB5A1E4FF0000BA9
:10A3500042608DF820B0FFF74DBB72EE642ADFED4E
:10A36000285A6B682148B0EEE26AB4EEE56AF1EE75
:10A3700010FAD4BF002201228DF82020002B3FF4D8
:10A3800035ABE2E773EE673A9FED1D0A6B68174A3B
:10A39000B0EEE37AB4EEC07AF1EE10FAD4BF00204A
:10A3A00001208DF82000002BBCD0581E4FF0000972
:10A3B00050608DF82090B9E7D5ED044A64E497ED3C
:10A3C000806AA2EE462A87ED7F2A90E700278DF863
:10A3D0002070A3E700278DF82070FFF702BB034D24
:10A3E000D5ED097A95ED0A7AD0E600BF94F90120FF
:10A3F00034F9012074EA01204C0800207006002086
:10A40000CDCCCC3E704700BFFEE700BFFEE700BFEB
:10A41000FEE700BFFEE700BF704700BF704700BF08
:10A42000704700BF094810B500F002FE084B1878CD
:10A4300018B1084C21888B0600D410BDA2880348AF
:10A44000D1B201F00DFDA08010BD00BF900700202B
:10A4500028EA0120001001402DE9F04F87B003A841
:10A46000012102F053FD022001210EF0A1FC002584
:10A4700001244B48049404A98DF815408DF8174029
:10A480008DF814508DF816500EF0A8F9454B46493A
:10A49000DFF84491DFF844A1DFF844C1DFF844E17C
:10A4A0004248434F434EC3F818A00022C3F81CC0D3
:10A4B000C3F82CE04FF0804C4FF00D0EC3F80002B3
:10A4C0001961C3F8F0113C483C49DFF81CA1C3F8FE
:10A4D00020C04FF07D5BC3F830C0C3F804E2C3F87E
:10A4E00008E05A619A625A629A635A631A665A6617
:10A4F0009A665A659A65DA65C3F8F421C3F8F821BB
:10A50000C3F8FC21DA66C3F80852C3F80CB0DF6365
:10A510001F645F649E64DE641E655D60C3F800A016
:10A5200004F006FC2549DFF8C48048460AF0FCFF29
:10A53000234800F067F823482349FEF765FB214ACA
:10A540001F491D4BCDF80090404600F043FC2146CA
:10A5500013480EF08FFA411B18BF01211B484FF41E
:10A56000FA4202F013FA10B9092488F89C401748FF
:10A57000174A182102F034FA10B9092588F89C50BE
:10A580001248162102F0A8FA0D4B187810B11148A4
:10A5900002F0F2FB03A802F0C1FC07B0BDE8F08FA7
:10A5A0000004024094F9012090C2753B9A99993DAC
:10A5B0000AD7A33B6F1283384C080020000000101C
:10A5C00028EA0120D00600202CEA0120D4EA01204C
:10A5D000A196000824EA012060F10120CDCCCC3CFA
:10A5E000FDAD003D7CD9A03E00008A4290070020CE
:10A5F00008B5FFF731FF024801F0C0FBFBE700BFE1
:10A60000900700202DE9F04F064683B0002306F89E
:10A61000043BCF4C019000F14805E227214644223B
:10A620003046FDF7B5FD3346F14313F8012B2944BD
:10A63000AB4201F007004ED048B3012821D00228D8
:10A640001BD0032815D004280FD0052809D00628D0
:10A6500003D013F8018B424492B213F8019B4A4491
:10A6600092B213F801AB524492B213F801BB5A44B0
:10A6700092B213F801CB624492B213F801EB724428
:10A6800092B213F8011B0A44AB4292B223D018468F
:10A6900093F8029010F801AB93F8038090F800B0A3
:10A6A00093F804C093F805E0987952441BFA82F1BC
:10A6B00019FA81F218FA82F108331CFA81F91EFAAC
:10A6C00089FA13F8018C10FA8AF018FA80FBAB4271
:10A6D0001FFA8BF2DBD16FEA020CB4F84430B4F805
:10A6E00046E01FFA8CF2934200F04A819949483CB7
:10A6F0008C4207F1FF3791D1DDF80480964B9748E3
:10A700009749DFF87492C8F80C304FF0000B4FF007
:10A71000010C4FF0000A4FF07D54C8F81030C8F813
:10A720001430C8F81830C8F81C30C8F80400C8F84D
:10A730000890C8F82CA088F800C088F830C0C8F885
:10A740002810A8F848B088F831B088F832B088F8F6
:10A7500033B088F834B088F835B088F836B088F867
:10A7600037B088F838B088F839B0C8F820400DF014
:10A770006FFFF3200DF07CFF019A7A4BB2F848701E
:10A78000794807EBC7094FEAC90A5344834200F2EC
:10A79000D081002F00F0D181744FDFF8E0810AF101
:10A7A000006E5744D0440EF58044C4EB06092046A1
:10A7B00059F804100DF0D2FF04F1440A043404F1F6
:10A7C000040B59F8041020460DF0C8FF59F80B107F
:10A7D00058460DF0C3FF04F1080059F800100DF0C1
:10A7E000BDFF04F10C0059F800100DF0B7FF04F1A3
:10A7F000100059F800100DF0B1FF04F1140059F8E1
:10A8000000100DF0ABFF04F1180059F800100DF026
:10A81000A5FF04F11C00203459F800100DF09EFF34
:10A820005445CCD13346F64313F8012B2E44AB42AA
:10A8300006F007014CD049B3012921D002291BD0D1
:10A84000032915D004290FD0052909D0062903D0E2
:10A8500013F801CB624492B213F8010B024492B296
:10A8600013F801EB724492B213F8019B4A4492B27E
:10A8700013F801AB524492B213F801BB5A4492B29E
:10A8800013F8014B2244AB4292B221D0194693F8FF
:10A8900002E011F8019BDE7891F800C093F804A063
:10A8A00058799C794A441CFA82FB1EFA8BF216FAFC
:10A8B00082F108331AFA81F610FA86FE13F8010CB9
:10A8C00014FA8EF410FA84F9AB421FFA89F2DDD142
:10A8D000D543A9B240460DF061FF3846019BB3F85D
:10A8E00048100DF05BFFDDF80480B8F8489009F1DE
:10A8F0000102A8F8482001989FED1D7AD0ED087A52
:10A90000F4EEC77AF1EE10FA06D49FED1A0AF4EECF
:10A91000C07AF1EE10FA05DDDDF804E04FF07D5766
:10A92000CEF82070DDF804B09BF83060002E40F0C7
:10A930000D8101218BF83010DDF804C09CF83150F6
:10A94000052D84BF05258CF8315003B0BDE8F08F8C
:10A95000907F0008B83F0008AE47013F0A57854284
:10A96000AFEF780F48400008FF7F0008464000081E
:10A970003333333FCDCC4C3F1F85A8C24440000841
:10A98000BE457FF4B3AEDDF804807C4BD8F82820B8
:10A9900001379A42A8F84870ADD0DDF804C0784F6E
:10A9A000CCF828304FF0000A00210120CCF82C1000
:10A9B0008CF830008CF831A08CF832A08CF833A0E1
:10A9C0008CF834A08CF835A08CF836A08CF837A021
:10A9D0008CF838A08CF839A00DF03AFEF3200DF079
:10A9E00047FE019C6749B4F8482002EBC20B4FEACE
:10A9F000CB031F448F4200F2B280002A00F0B380E4
:10AA0000DFF88481DFF8889103F1006E984499445F
:10AA10000EF58044371B204639590DF09FFE04F196
:10AA2000440B043404F1040A395920460DF096FE13
:10AA300057F80A1050460DF091FE04F108003958FD
:10AA40000DF08CFE04F10C0039580DF087FE04F176
:10AA5000100039580DF082FE04F1140039580DF041
:10AA60007DFE04F1180039580DF078FE04F11C0049
:10AA7000203439580DF072FE5C45D3D13346F6438D
:10AA800013F8012B2E44AB4206F007004AD048B31E
:10AA9000012821D002281BD0032815D004280FD06C
:10AAA000052809D0062803D013F801CB624492B2DE
:10AAB00013F8011B0A4492B213F801EB724492B2EC
:10AAC00013F8017B3A4492B213F801BB5A4492B294
:10AAD00013F801AB524492B213F8014B2244AB423B
:10AAE00092B21FD018469F7810F801CBDE7890F80C
:10AAF00000E093F804B099795C7962441EFA82FA16
:10AB000017FA8AF216FA82F008331BFA80F714FA61
:10AB100087F613F8014C11FA86FC14FA8CF1AB425B
:10AB20008AB2DFD1D543A9B248460DF037FE404680
:10AB3000D4E6DDF80480A8F848B0082002210DF022
:10AB4000D1FDDFF84C80104F104C2EE6042E7FF61E
:10AB5000F3AEDDF804A004248AF83040ECE6DDF81A
:10AB60000490A9F848A0082002210DF0BBFDDFF8F1
:10AB70002090DFF81480054C4CE700BFAFEF780F52
:10AB800048400008FF7F00084640000800400008D9
:10AB90004440000890F83520094B02F1010C83FB7A
:10ABA0000C13590801EB8102C2EB0C0C5FFA8CF319
:10ABB000191F4A42514180F8353080F832107047F1
:10ABC0006766666690F83630054A03F1010C82FB31
:10ABD0000C1202EB4201C1EB0C0380F836307047D7
:10ABE0005655555590F83730054A03F1010C82FB54
:10ABF0000C1202EB4201C1EB0C0380F837307047B6
:10AC00005655555590F83830591C01F0010280F81E
:10AC10003820704790F83930591C01F0010280F853
:10AC2000392070472DE9F84F06460DF011FDF3204D
:10AC30000DF01EFDB6F84810614B624801EBC102F1
:10AC4000D5002B44834206F1040940F2AB80002773
:10AC5000A6F84870082002210DF044FD5A4FDFF895
:10AC600070815A4CC4EB0905204629590DF076FD38
:10AC700004F1440A043404F1040B295920460DF070
:10AC80006DFD55F80B1058460DF068FD04F10800F5
:10AC900029580DF063FD04F10C0029580DF05EFDFC
:10ACA00004F1100029580DF059FD04F11400295841
:10ACB0000DF054FD04F1180029580DF04FFD04F17A
:10ACC0001C00203429580DF049FD5445D3D14B4682
:10ACD00006F1480013F8012B6FEA090C8444834203
:10ACE0000CF007014DD049B3012921D002291BD016
:10ACF000032915D004290FD0052909D0062903D02E
:10AD000013F801EB724492B213F8019B4A4492B2D9
:10AD100013F8015B2A4492B213F801AB524492B289
:10AD200013F801BB5A4492B213F8014B224492B279
:10AD300013F801CB6244834292B222D0194693F8B1
:10AD400002B011F801AB93F803E091F800901D797F
:10AD500093F805C09C79524419FA82F21BFA82F1E9
:10AD60001EFA81FB083315FA8BF51CFA85FA13F8E5
:10AD700001EC14FA8AF41EFA84F983421FFA89F26C
:10AD8000DCD1D34399B238460DF008FD4046B6F801
:10AD900048100DF003FDB6F84800471CA6F84870AF
:10ADA000BDE8F88F00293FF455AFDFF82480064F47
:10ADB00005F10064A8442F4404F5804452E700BF25
:10ADC00048400008FF7F0008444000080040000899
:10ADD00046400008F8B504468C300E4617461D461E
:10ADE00002F00EF804F1900002F048F80023069AF1
:10ADF000C4F8AC60C4F8B070C4F8B450C4F8B8205B
:10AE000084F89C307D484FF480710DF033FE70B9AA
:10AE1000D4F8AC1091F83360012E16BF012681F8EA
:10AE2000330081F83360D4F8AC00FFF7FBFED4F8B0
:10AE3000AC00D4F8B43090F830101A690429A8BFD7
:10AE400004218A4219614CDA06EE102A03F5E73C28
:10AE50009CED2F7ADFED6A7AF8EEC66A02F5E74ECE
:10AE6000A6EEA77A0EF12E07561C03EB8705B1421A
:10AE700085ED017A35DD00EE106A9CED2F1AF8EEB3
:10AE8000C00A02F5E74EA0EEA71A0EF12F07961C96
:10AE900003EB8705B14285ED011A22DD01EE906AD0
:10AEA000DCED2F2AB8EEE12A02F5E74EE2EE272A82
:10AEB0000EF13007D61C03EB8705B142C5ED012A20
:10AEC0000FDD03EE106A9CED2F4AF8EEC33A02F54F
:10AED000E741A3EEA74A01F1310203EB820C8CEDAE
:10AEE000014A01275F7090F831509E78AE4200D041
:10AEF0009D70D4F8B83090F83010D3F8902604291B
:10AF0000A8BF04218A42C3F890164CDA05EE902AB5
:10AF100003F5906EDEED004A9FED3A5AB8EEE57A01
:10AF200002EB021CE7EE054A03EB8C07561C07F503
:10AF30009065B142C5ED004A35DD07EE906ADEED61
:10AF4000006AB8EEE76A06EB0617E6EE056A03EB61
:10AF5000870C961C0CF59065B142C5ED006A22DDA8
:10AF600000EE106A9EED001AF8EEC00A06EB061716
:10AF7000A0EE851A03EB870C03320CF59065914225
:10AF800085ED001A0FDD01EE902ADEED002AB8EE05
:10AF9000E12A02EB0216E2EE052A03EB860E0EF51D
:10AFA0009067C7ED002AD3F88826914202DC002181
:10AFB000C3F8881690F8317093F89826124883F8F1
:10AFC0009876A0FB076CA0FB02614FEA5C054E0877
:10AFD00006EB460E05EB4501781ACEEB0202D5B220
:10AFE0005FFA80FCAC4518BF01254FF0000618BF82
:10AFF00083F8D05784F89C60F8BD00BF000402407D
:10B00000CDCC4C3D0AD7233CABAAAAAAD0F8B42099
:10B01000D0F8AC30116983F83010D0F8B420D0F8F3
:10B02000AC30917883F83110D0F8AC00FFF7FABD5E
:10B030002DE9F04FB54F3B6800F1900A044687B008
:10B04000591C5046396001F03BFF94F89CB0CDF894
:10B0500000A0D046D1462546002618F8013B802B9B
:10B060004BD00BBBD5F8940020B33968DFF89CC2F5
:10B070000A1AB2F52F6F49DDD4F8881004F1040ED6
:10B080004FF0050A0EF831A00EEBC100013101F0BE
:10B090000F0142604680C4F88810DCF8002022606E
:10B0A000C5F8943018F8013C7F2B03D1D5F89430C3
:10B0B000002B64D10136022E05F1040509F1FF3998
:10B0C000CBD139683B6801F07F02DBB2402A94BFE4
:10B0D00000220122802B94BF00230123BBF1090F22
:10B0E00046D8DFE81BF01D01770187018300B2001D
:10B0F000E100EB00F500FF000901BBF1020F5BD09E
:10B100003968C5F8941018F8013CAAE7C82AD1DDBF
:10B11000BBF1000FCED1009BC4EB090A9A441AF888
:10B120008F0C0028C6D14FF0010B84F89CB018F8A2
:10B13000013CB9E7002800F0DF81012800F05882C7
:10B14000022800F0B481032800F08882042800F06F
:10B150008B82052800F08E82062800F09082072856
:10B1600000F09382082803D184F88D2084F88F2082
:10B1700004F18C0001F064FE07B0BDE8F08F39687F
:10B18000D4F88820201D00EBC20A01F1010C511CEB
:10B19000C3EB0C0301F00F0E4FF0040C00F832C0AB
:10B1A000CAF80430AAF80260C4F888E03A6822605D
:10B1B0000020C5F894007DE7009AC4EB0900104414
:10B1C00010F88F3C002B9BD1204601934FF0040BCD
:10B1D000FFF71CFF019A3868C4F89820C4F894203F
:10B1E000206084F89CB018F8013C3AE73E68484972
:10B1F0003868484B3F68A1FB00AECEEB00050EEB74
:10B200005508C8F384020F2AA3FB07E0C0F304111A
:10B2100084BFC2F11F02D2B20F2988BFC1F11F0142
:10B2200006F00F0688BFC9B2B24294BF00220122C5
:10B23000B14294BF0021012184F88C2084F88F2032
:10B2400084F88E1084F88D1092E73868324A396895
:10B25000324BA2FB0057C7F344050F2DA3FB01623D
:10B26000C2F3840384BFC5F11F05EDB20F2B84BF69
:10B27000C3F11F03DBB2062D8CBF00200120072D78
:10B2800094BF00250125072B94BF00210121062B27
:10B290008CBF0023012384F88C0084F88E5084F83E
:10B2A0008D1084F88F3063E7002184F88C2084F8B7
:10B2B0008E2084F88D1084F88F1059E7002584F8CB
:10B2C0008D2084F88F2084F88C5084F88E504FE7BE
:10B2D000002684F88C3084F88D3084F88E6084F8F1
:10B2E0008F6045E7002084F88E3084F88F3084F832
:10B2F0008C0084F88D003BE7002784F88C2084F8CC
:10B300008D2084F88E7084F88F7031E7ACFB0120BB
:10B3100025499224F1F0F0F0398EE3384FECC44E19
:10B320003A683E68D4F8AC50C6F344130F2B02F0D1
:10B330000F0B95F8332084BFC3F11F03DBB2012A42
:10B3400000F0E280D4F8B400016982780129D4BF0A
:10B350004FF0000E4FF0010E0229CCBF002701274D
:10B3600012F1000818BF4FF00108012A8CBF002617
:10B370000126032984F88CE084F88E7084F88D808F
:10B3800084F88F6000F0AD80022A0FD9032A00F004
:10B390001E815B4594BF00210121042A00F0188121
:10B3A0004FF0000C84F88D1084F88FC0D4F8A410EE
:10B3B000D4F8A0704B1CC4F8A430002F3FF4D8AED2
:10B3C0004FF0000B781EC4F8A00084F88CB084F80D
:10B3D0008EB0CDE6D4F8AC3093F83400002877D0A6
:10B3E000002784F88E2084F88F2084F88C7084F8ED
:10B3F0008D70BDE694F8A81000295ED0012900F0F8
:10B40000ED80022900F0FB80032900F00A81042965
:10B4100000F0148100203D68A04FA14EA7FB05EC71
:10B420004FEA5C3942F2107707FB195E42F2283589
:10B43000AE452CD9D6F800B09A4D3768D6F80080C2
:10B44000DFF868A2A5FB076CCCEB07060CEB5609EE
:10B45000C9F384060F2EAAFB087ECEF3041584BF21
:10B46000C6F11F06F6B20F2D88BFC5F11F050BF000
:10B470000F0B88BFEDB25E4594BF002601265D45E7
:10B4800094BF0025012584F88C6084F88E50002933
:10B490007FF450AE80B301283FF401AF022800F0E2
:10B4A000A780032800F0D58004287FF461AE01272F
:10B4B00084F88D7084F88F705AE64FF0010AD4F842
:10B4C000AC5084F88C1084F88EA095F83500A2E773
:10B4D00084F88C2084F88E0084F88D2084F88F0006
:10B4E00046E65B454FF0010794BF0021012184F837
:10B4F0008C7084F88E1047E700214FF0010A84F821
:10B500008D1084F88FA033E63D686748D4F8B460A6
:10B510008DF80C304FEAD519A0FB097E4FEADE0A00
:10B520000AEB4A073169A9EB8700B1EB600F4FF0D6
:10B53000000502958DF80A20C4BF00F00102013217
:10B540004FF00F0E4FEAE3074FEA63084FF0040C89
:10B55000CCBFD200082201290495ADF814508DF813
:10B5600009E08DF814308DF811E08DF80D708DF82C
:10B5700013808DF810C04CDD0429B4BF91464FF004
:10B580000009042957D0B07806AE3044934510F82E
:10B59000085C10F810AC2CBF00220122CB452CBF58
:10B5A0004FF000094FF001095D4594BF00200120D4
:10B5B000DA4594BF4FF0000B4FF0010B84F88C205C
:10B5C00084F88E9084F88F0084F88DB0EEE6002128
:10B5D0005B457FF6E5AE4FF0010CE3E60026D4F8BC
:10B5E000AC0084F88C1084F88E6090F8360012E776
:10B5F0000126002584F88D6084F88F50B8E5012677
:10B60000D4F8AC5084F88C6084F88E6095F83800DB
:10B6100001E708BF00233ED1C2F38709C3F3C70285
:10B62000B1E70026D4F8AC0084F88E3084F88C6042
:10B6300090F83700EFE613464A46EDE74FF0000B6F
:10B64000D4F8AC5084F88C3084F88EB095F839007A
:10B65000E1E684F88D3084F88F1089E5002084F8C5
:10B660008F3084F88D0083E5002284F88D3084F8D3
:10B670008F207DE584F88D3084F88F3078E50021C7
:10B6800084F88F2084F88D1072E5002384F88D20D3
:10B6900084F88F306CE59146002272E75917B7D1D4
:10B6A000ACFB012025499224ABAAAAAAF1F0F0F044
:10B6B00070B54B88C21A044692F8910088B9002BE5
:10B6C00000F0FC8094F89C60052E00F000814FF0A3
:10B6D000050C84F89CC00020C4F89800C4F89400BD
:10B6E00070BD002B40F0BB80D4F8B4201369032553
:10B6F000022B15614BDC06EE103A02F5E73E9EED9B
:10B700002F7ADFED787AF8EEC66A03F5E74CA6EEFD
:10B71000A77A0CF12E005E1C02EB8001032E81ED56
:10B72000017A34D000EE106A9EED2F1AF8EEC00AAE
:10B7300003F5E745A0EEA71A05F12F0C991C02EBC3
:10B740008C00032980ED011A21D001EE901ADEED64
:10B750002F2AB8EEE12A03F5E746E2EE272A06F1A2
:10B76000300502EB850CD81CCCED012A03EE100A43
:10B770006BB19EED2F4AF8EEC33A03F5E743A3EE13
:10B78000A74A03F1310102EB810E8EED014AD4F894
:10B79000B860D6F8903601250320022B5570C6F804
:10B7A00090064CDC05EE903A06F59062D2ED004A28
:10B7B0009FED4D5AB8EEE57A03EB0311E7EE054A2B
:10B7C00006EB810C5D1C0CF5906E032DCEED004A4E
:10B7D00035D007EE905AD2ED006AB8EEE76A05EB75
:10B7E0000510E6EE056A06EB80019D1C01F5906CE4
:10B7F000032DCCED006A22D000EE105A92ED001A13
:10B80000F8EEC00A05EB051EA0EE851A06EB8E00C9
:10B8100000F5906103F1030C81ED001A7BB101EE9C
:10B8200090CAD2ED002AB8EEE12A0CEB0C13E2EE3E
:10B83000052A06EB830202F59065C5ED002AD6F8CD
:10B840008806022802DD0021C6F888162046FFF788
:10B85000DDFB0020C4F89800C4F8940070BDD4F853
:10B86000B4108D78022DCCBFEB1EEB1CDBB29D42D9
:10B8700002D001268B704E70D4F8B8201B4D92F880
:10B8800098C682F89836A5FB0C60A5FB036E4108AC
:10B890004FEA5E0601EB410506EB460ECEEB0300D8
:10B8A000C5EB0C0C5FFA8CF1C6B28E421CBF0121B5
:10B8B00082F8D0172046FFF7A9FBCAE7002003252E
:10B8C00084F89C50C4F89800C4F8940070BDD4F873
:10B8D000B030072283F8BE0083F8BF0084F89C20B4
:10B8E000F9E600BFCDCC4C3D0AD7233CABAAAAAAAF
:10B8F000D0F8B030DFED1D7A5A8993ED2C7ADFED68
:10B900001C6A06EE102AF1EE470AB8EE460AF0EE7F
:10B91000605AE0EE275A10B5F4EEE65AF1EE10FA4E
:10B9200004461BDDDFED131AF4EEE15AF1EE10FAD6
:10B9300014D5B3EE082AC2EE252ADB6AD0F8AC0093
:10B94000B2EE083AA0EEA23AC3ED012A83ED003A26
:10B95000FFF768F9002284F89C2010BD012109201E
:10B9600083F8BE1084F89C0010BD00BF0000803733
:10B97000CDCCCCBECDCCCCBDD0F8B0309FED1A6ACA
:10B980005A89D3ED2D7A9FED197A05EE902AB8EEFB
:10B99000650AF6EE006AE0EE067A10B567EEA60AD2
:10B9A0000446F4EEC70AF1EE10FA15DB9FED101A0B
:10B9B000F4EEC10AF1EE10FA0ED5DA6AD0F8AC0056
:10B9C000C2ED070A012183F8BE10FFF72BF94FF0F3
:10B9D000000C84F89CC010BD0121092083F8BE1022
:10B9E00084F89C0010BD00BF000080373333333F24
:10B9F000CDCC4C3F4B8870B40BBB90F89C305A1E9A
:10BA0000072A00F2DF80DFE802F0575C18186A436B
:10BA1000464090F890504DB9D0F8AC4094F834605E
:10BA2000D6F1010538BF002584F834500021C0F854
:10BA30009810C0F8941080F89C1070BC704790F873
:10BA40009C104A1E032A00F28A8001A151F822F0BC
:10BA500013BA000861BA00083BBA00083BBA0008F4
:10BA600090F8A840002C00F06981012C00F06B8157
:10BA7000022C00F06D81032C00F06F81042CDCD1CE
:10BA8000D0F8AC0070BCFFF7C5B870BCFFF774BF4E
:10BA900070BCFFF72DBFD0F8B040668907EE906A02
:10BAA000FBEEC87A4FF0010C0821C4ED2D7A84F822
:10BAB000BFC080F89C10C0E790F89130002BABD04D
:10BAC000B4E790F8A830A74C5E1C84FB0615690803
:10BAD00001EB810CCCEB060280F8A820ADE7D0F892
:10BAE000B0309FEDA10A5D891A885C889E88D9884C
:10BAF000B3F808C005EE105A05EE902A06EE104A7B
:10BB000006EE906A07EE101A04EE90CAF8EE450AA7
:10BB1000B8EE651AF8EE461AB8EE662AF8EE472A2D
:10BB2000B8EE643ADD6A60EE803A21EE004A21EE1A
:10BB3000805A62EE005A22EE806A63EE007A062294
:10BB4000C3ED2C3A85ED024A85ED035AC5ED045A42
:10BB500085ED056AC5ED067A80F89C206DE7D0F882
:10BB6000B460B178022925DDCD1EEBB2994202D036
:10BB70000121B3707170D0F8B8207C4D92F898C64E
:10BB800082F89836A5FB0C61A5FB036464084E0897
:10BB900006EB460504EB4406C5EB0C0C9C1B5FFA58
:10BBA0008CF1E5B28D421CBF012182F8D01770BC28
:10BBB000FFF72CBA6E4B4A1C83FB025C0CEB4C0467
:10BBC000151BD2E7D0F8B4100A69032A00F0B4803C
:10BBD0005300052BA8BF012393420B614CDD06EEF9
:10BBE000902A01F5E73C9CED2F0ADFED624AB8EEA2
:10BBF000E67A02F5E744A7EE240A04F12E06541C67
:10BC000001EB8605A34285ED010A35DD00EE904A81
:10BC1000DCED2F1AB8EEE01A02F5E746E1EE241A41
:10BC200006F12F05961C01EB8504B342C4ED011A01
:10BC300022DD02EE106A9CED2F3AF8EEC22A02F5E0
:10BC4000E745A2EEA43A05F13004D61C01EB8405C9
:10BC5000B34285ED013A0FDD03EE906A9CED2F5A59
:10BC6000B8EEE34A02F5E742A4EE245A02F13104A9
:10BC700001EB840C8CED015AD0F8B820D2F8904634
:10BC80000125A3424D70C2F890364CDD06EE104AF5
:10BC900002F59061D1ED005ADFED377AB8EEC60AB1
:10BCA00004EB0416E0EE275A02EB860C651C0CF53B
:10BCB0009066AB42C6ED005A35DD04EE905A91ED28
:10BCC000007AF8EEE46A05EB0516A6EEA77A02EB19
:10BCD000860CA51C0CF590669D4286ED007A22DA52
:10BCE00000EE905AD1ED001AB8EEE01A05EB0516F9
:10BCF000E1EE271A02EB860C03340CF59065A342A3
:10BD0000C5ED001A0FDD02EE104A91ED003AF8EE93
:10BD1000C22A04EB0411A2EEA73A02EB810606F553
:10BD2000906C8CED003AD2F88846A3423FF73FAFC3
:10BD30000023C2F888363AE704234DE7D0F8AC0078
:10BD400070BCFEF727BFD0F8AC0070BCFEF73ABF5E
:10BD5000D0F8AC0070BCFEF755BFD0F8AC0070BC9A
:10BD6000FEF740BF6766666600008037ABAAAAAAE6
:10BD700056555555CDCC4C3D0AD7233C30B5D0F85F
:10BD80008820D0F884300446D01A83B0020718BF48
:10BD90006D4609D125E0052A1ED0D4F88810D4F8C4
:10BDA00084000A1A13071CD0D4F8843004EBC301B2
:10BDB00001F1040C9CE8030085E803009DF80020D5
:10BDC000581C00F00F03042AC4F88430E3D1204645
:10BDD0006946FFF70FFEE0E720466946FFF768FC7B
:10BDE000DBE71E4D20682B68191AB1F5487F11D981
:10BDF00094F89C20092A2BD0032A0FD0042A1AD0A9
:10BE00002D68164B281AB0F57A7F01D91968216080
:10BE100003B030BD94F89C20032AEFD12D680F4B5E
:10BE2000281AB0F5966FF3D919682160022284F8B8
:10BE30009C2003B030BD2D68084B281AB0F5966FD2
:10BE4000E6D919682160002284F89C2003B030BD37
:10BE50004FF0000C84F89CC0D2E700BFACFB01207F
:10BE60004B1110B501F01F010446052B00F2C680EE
:10BE7000DFE803F0111117222A030129D0F8B000DE
:10BE800000F0B780C0F0A180022925D190F8504081
:10BE90006142C8B210BDD0F8B00030F81140200A9D
:10BEA00010BD022900F08C80014491F89030D3F14C
:10BEB000010038BF002010BDD0F8B4400A1C18BFE4
:10BEC00001222270002010BD052900F29780DFE8D2
:10BED00001F072302C210F0890F860205342D8B244
:10BEE00010BDFFF749FD464B19682160002010BDC9
:10BEF000D0F8B000B0F80AC000EE90CAFBEEC80A55
:10BF000001230822C0ED2D0A80F8BF30002084F8FC
:10BF10009C2010BDD0F8B0100723002081F8BE008F
:10BF200081F8BF0084F89C3010BDFFF7E1FC0020D1
:10BF300010BDD0F8B0009FED331AB0F80AC00288E7
:10BF40004188838805EE10CA05EE902AB0F806C035
:10BF5000028906EE101A01EE903A02EE10CA04EEC3
:10BF6000902AF8EE452AB8EE653AF8EE463AB8EE71
:10BF7000614AB8EE427AF8EE647AC36A22EE810A28
:10BF800063EE010A23EE815A64EE016A67EE015AFC
:10BF900027EE811A062180ED2C0AC3ED020A83EDFB
:10BFA000035AC3ED046AC3ED055A83ED061A002057
:10BFB00084F89C1010BD052084F89C00002010BD62
:10BFC000D0F8B01091F8310010BDD0ED2B6A9FED84
:10BFD0000E7ADFED0E7A26EE870AB4EEE70AF1EE6E
:10BFE00010FAD4BF4FF0000C6FF0000C5FFA8CF029
:10BFF00010BD90F840004242D0B210BD002010BDEC
:10C00000ACFB01200000803733335340CDCC4C3F94
:10C0100038B504461B480CF001FA94F828303BB3BD
:10C02000206A1949194BCD6C00F10802411C0729FF
:10C03000C8BF002124F812505D5C60622162144880
:10C04000802105F001020CF01DFD05F002021048F0
:10C0500040210CF017FD05F004020D4820210CF0E2
:10C0600011FD94F8280080F0010284F8282038BDE2
:10C0700005480CF0D3F994F8280080F0010284F808
:10C08000282038BD00200140002101408000002010
:10C09000000402402DE9F04F01219DB007464FF406
:10C0A00080000CF085FE012001460CF081FE02208C
:10C0B00001210CF07DFE042001210CF079FE4FF4EB
:10C0C000807001210CF090FE4FF4007001210024DB
:10C0D0000CF08AFE4FF0030AF323DFF8AC816648C8
:10C0E000019301A98DF80B408DF808A00CF076FBA8
:10C0F0000E2201A9614801920125E0268DF80B402E
:10C100008DF808A00CF06AFB01A9404601968DF855
:10C110000A408DF809408DF80B408DF808500CF05E
:10C120005DFB404631460CF0ABFCA8F563414FF493
:10C13000806C4FF400534FF400324FF008094FF475
:10C14000006BA1F1B4084E48CDF84CC00DA94FF4D6
:10C15000807615931792CDF8388016960D94494E37
:10C160000F9710941294189419951A941B94CDF863
:10C170004490CDF850B00CF003FA294640480CF03A
:10C180003BFA4FF4403103A808F1B408049103943A
:10C19000059406940CF0CCF8304607A907948DF866
:10C1A00020508DF821400A940994CDF82CB08DF8D8
:10C1B00030900CF08FF807A94046CDF82CB00794CA
:10C1C0008DF820408DF821400A9409948DF8305064
:10C1D0000CF080F830462A46042107230CF0CAF8F8
:10C1E00030460621022207230CF0C4F830462146CF
:10C1F000524607230CF0BEF83046052104220723DF
:10C200000CF0B8F8072130460B4605220CF0B2F8C6
:10C2100030462946062207230CF0ACF807223046A8
:10C2200013460D210CF0A6F830464A460C21072390
:10C230000CF0A0F82A46072340460B210CF09AF890
:10C24000304629460CF0FAF8304629460CF088F8BA
:10C25000404629460CF084F8304629460CF0E4F8B4
:10C26000072038627C6287F828403846FFF7D0FE06
:10C270001DB0BDE8F08F00BF000002400008024082
:10C280001064024000200140000402402DE9F0410A
:10C290002A4C2B4F82B0062001210CF089FD02258B
:10C2A0004FF440630026204669464FF00108009392
:10C2B0008DF804508DF805508DF806808DF80760D4
:10C2C0000CF08CFA20460A2104220CF0E1FB2046F7
:10C2D0000B2104220CF0DCFB4FF47042204669462F
:10C2E00000928DF804508DF805508DF806608DF899
:10C2F000076040250CF072FA6946384600950CF04C
:10C300006DFA20460C2105220CF0C2FB20460D21BF
:10C3100005220CF0BDFB20460F2105220CF0B8FBD6
:10C3200020460E2105220CF0B3FB384606210522DB
:10C330000CF0AEFB404602B0BDE8F08100040240C4
:10C3400000080240F0B5154C85B001214FF4800083
:10C350000CF03CFD20460CF0B3FB04A9104B41F857
:10C36000103D4FF480624FF4804C20466946002710
:10C370004BF6FF763325ADF80A20ADF80CC0ADF8CA
:10C380000470ADF80660ADF808500CF0CFFB204605
:10C3900001210CF045FC012005B0F0BD0058004023
:10C3A000A086010070B5002084B014460E460CF043
:10C3B000F9FC00200CF0A6FC4BF680339C420CD01C
:10C3C0004AF64440844261D0B4F5FA4F64D035490E
:10C3D0008C4255D0002004B070BD4FF48170032111
:10C3E0000CF086FC01200CF08DFC3B200CF026FDAF
:10C3F0004FF4805510BB3B200CF020FDF0B93B20E2
:10C400000CF01CFDD0B93B200CF018FDB0B93B205E
:10C410000CF014FD90B93B200CF010FD70B93B20DE
:10C420000CF00CFD50B93B200CF008FD30B93B205E
:10C430000CF004FD10B9083DDDD1CBE74FF480408E
:10C4400001210CF0C3FC18480CF012FD00220294EC
:10C45000ADF80220ADF80420ADF80C200EB14FF479
:10C46000007669461048ADF80060ADF806600CF043
:10C4700067FD69460D480CF0F9FD012004B070BD60
:10C4800040F2891004210CF033FCABE740F20F10AE
:10C4900006210CF02DFCA5E74FF4D57004210CF01B
:10C4A00027FC9FE70077010000380040003400407F
:10C4B00070B573480E464FF4003115460CF0FAFB88
:10C4C0004FF4961498B34FF400316D480CF0F2FB22
:10C4D0004FF4003158B36A480CF0ECFB4FF40031D4
:10C4E00028B367480CF0E6FB4FF40031F8B164481C
:10C4F0000CF0E0FB4FF40031C8B161480CF0DAFBFE
:10C500004FF4003198B15E480CF0D4FB4FF4003189
:10C5100068B15B480CF0CEFB4FF4003138B158489D
:10C520000CF0C8FB18B1083CCDD1002070BD5448B8
:10C5300001210CF085FB524852490CF0ADFB4FF441
:10C54000805450BB4F494E480CF0A6FB4D4920BBD0
:10C550004B480CF0A1FB4B49F8B949480CF09CFB47
:10C560004849D0B946480CF097FB4649A8B9444819
:10C570000CF092FB434980B941480CF08DFB4149D6
:10C5800058B93F480CF088FB3E4930B93C480CF0A4
:10C5900083FB10B9083CD5D1C7E7394834210022C4
:10C5A0000CF06EFB364838490CF076FB4FF48054A3
:10C5B00050BB354932480CF06FFB334920BB304843
:10C5C0000CF06AFB3049F8B92D480CF065FB2E4998
:10C5D000D0B92B480CF060FB2B49A8B928480CF0C7
:10C5E0005BFB294980B926480CF056FB264958B90F
:10C5F00023480CF051FB244930B921480CF04CFB86
:10C6000010B9083CD5D190E7C5F3002141EA4600B6
:10C61000C1B21B480CF03EFB19481C490CF03CFB16
:10C620004FF48054002833D1184915480CF034FBDE
:10C63000164968BB12480CF02FFB144940BB104848
:10C640000CF02AFB114918BB0D480CF025FB0F49D3
:10C65000F0B90B480CF020FB0C49C8B908480CF0A5
:10C660001BFB0A49A0B906480CF016FB074978B92C
:10C6700003480CF011FB58B9083CD5D155E700BF71
:10C6800000580040010003008200070080000700FE
:10C69000E9B236480CF0FEFA344835490CF0FCFAA1
:10C6A0004FF4805650BB324930480CF0F5FA30490F
:10C6B00020BB2E480CF0F0FA2D49F8B92B480CF0AD
:10C6C000EBFA2B49D0B929480CF0E6FA2849A8B969
:10C6D00026480CF0E1FA264980B924480CF0DCFA2F
:10C6E000234958B921480CF0D7FA214930B91F48DD
:10C6F0000CF0D2FA10B9083ED5D116E71B481D49F7
:10C700000CF0D8FA4FF4961450BB1A4917480CF0A5
:10C71000D1FA184920BB15480CF0CCFA1549F8B9E4
:10C7200012480CF0C7FA1349D0B910480CF0C2FAFD
:10C730001049A8B90D480CF0BDFA0E4980B90B4854
:10C740000CF0B8FA0B4958B908480CF0B3FA09498B
:10C7500030B906480CF0AEFA10B9083CD5D1E4E681
:10C76000024801210CF07CFA012070BD0058004005
:10C77000800007000400001070B50C4616460F211B
:10C7800000220546FFF794FE00283BD028460021F2
:10C790001722FFF78DFE002834D0284601211722EA
:10C7A000FFF786FE70B3284602210022FFF780FEC5
:10C7B00040B3284603210022FFF77AFE10B3284633
:10C7C00004211222FFF774FEE0B100222846052161
:10C7D000FFF76EFE002C14BF62224222D0B1284621
:10C7E0000621FFF765FE002C0CBF42220222B8B9D9
:10C7F000E4B14AF644439E420CBF2022002218BBFB
:10C80000002070BD002C4FF0000014BF62224222B5
:10C810000028E4D1002C0CBF422202220028E7D0DD
:10C8200028460721FFF744FE002CE2D1B6F5FA4F67
:10C8300019D01ADD4AF64442964212D00E498E4271
:10C8400018D11C220028DBD028460821FFF730FE33
:10C850000028D5D0284609210022BDE87040FFF706
:10C8600027BE2022CBE71822C9E7B6F5FA5F01D12F
:10C870000C22C4E70022C2E7007701002DE9F04F47
:10C880003B4F3C4E044683B001214FF400100CF0A6
:10C890008FFA384600210BF0AFFE38460BF0D8FD7A
:10C8A000354BA36100254FF480634FF6FE724FF4C1
:10C8B000006B4FF4005A4FF480794FF40038402158
:10C8C000E362626221626561E561A5622564656477
:10C8D000A564E564C4F830B0C4F834A0C4F8389056
:10C8E000C4F83C80384604F11401009301920BF027
:10C8F00047FE294630460BF07FFE30460BF0A8FD80
:10C900001E4F0199009AA5654FF0C060E56521664C
:10C910006566A266C4F86CB0C4F870A0C4F87490E0
:10C92000C4F87880E567C4F88050C4F88450C4F82F
:10C9300088502065676504F1500130460BF020FEF9
:10C9400030460F4E182101224FF480440BF05EFE5A
:10C950000C483460022101220CF0B2FB01210A468E
:10C9600009480CF0ADFB012003B0BDE8F08F00BF1B
:10C9700070600240586002400C3800400C340040A7
:10C9800000E100E0003800400034004070B5134B77
:10C9900004461546002245601860026121700E466B
:10C9A000FFF774FC08B9002070BD2046FFF7CAFCF1
:10C9B0000028F8D0204631462A46FFF7F3FC00282D
:10C9C000F1D031462A462046FFF7D6FE0028EAD0AD
:10C9D0002046BDE87040FFF751BF00BFA8FB012013
:10C9E000F8B50E461746092101220446FFF760FDFF
:10C9F000054600283DD0182E53D82378002B3AD076
:10CA00002F482761818B4A0552D52E48828B5305CA
:10CA10004AD5207804F18C0704F56373E761A365B8
:10CA200068B960684BF6803C604545D0264A904224
:10CA300044D0B0F5FA4F0CBF0321012100E00121E1
:10CA4000B70001FB07F363622366E1601F48A6603D
:10CA500004F114010BF094FD04F150011C480BF09B
:10CA60008FFD1A4801210BF0C7FD194801210BF079
:10CA7000C3FD2846F8BD17484FF480510BF0FAFF6C
:10CA80000028F8D113484FF480510BF0F3FF002831
:10CA9000B6D110484FF480510BF0ECFF0028F1D0D4
:10CAA000AEE700252846F8BD01210CF0CFFAB0E72B
:10CAB00001210CF0CBFAA8E70221C1E70421BFE76E
:10CAC00000380040003400400077010070600240F0
:10CAD000586002400004024038B58CB22246002162
:10CAE0000546FFF7E5FC00B938BD2846224601217E
:10CAF000BDE83840FFF7DCBCD0F810C02DE9F041AC
:10CB00000646BCF1000F00F00A818268C56805FB8B
:10CB100002F7780001FB00F101F5E27306EB430830
:10CB200006EB410404F18C0708F10400002D6FD0DE
:10CB3000510001296CD96D0008F1020E0EEB820E36
:10CB4000441908F10603C0EB0E01B4F80080A0F808
:10CB5000028002397345C1F342012C4458D069B3B5
:10CB6000012924D002291ED0032917D0042911D06D
:10CB700005290AD0062904D0B4F8008023F8028FD2
:10CB80002C44218823F8021F2C44B4F8008023F899
:10CB9000028F2C44218823F8021F2C44B4F8008013
:10CBA00023F8028F2C44218823F8021F2C44B4F868
:10CBB000008023F8028F73452C4429D01946B4F81D
:10CBC000008021F8028F34F8058021F8028F04EBF1
:10CBD000050834F815404C8038F815101981A84420
:10CBE00008EB050138F815405C8131F81580A3F891
:10CBF0000C8029444C1931F81510D98134F815806E
:10CC0000A3F81080103304EB450473452C44D5D1B0
:10CC10003946E047F268002A00F08380B06845009A
:10CC200007EB80034FEA420E6E1E0EFB067706F1FD
:10CC3000FF3C33F8024D3C806046CEEB07020CF01F
:10CC4000070100286FD0C9B3012930D0022927D0AD
:10CC500003291ED0042916D005290ED0062906D096
:10CC600033F8025D15800CF1FF30CEEB020233F891
:10CC7000026D16800138CEEB020233F8027D178078
:10CC80000138CEEB020233F8024D14800138CEEBAE
:10CC9000020233F8028DA2F800800138CEEB0202C6
:10CCA00033F802CDA2F800C00138CEEB020233F80F
:10CCB000021D11800138CEEB020236D01F46CEEBAA
:10CCC000020537F8026D16803C46CEEB050834F8B5
:10CCD000021D298034F802CCA8F800C0CEEB08026F
:10CCE00033F8087C1780CEEB020533F80A6C2E80EF
:10CCF000CEEB050433F80C8CA4F80080CEEB040CCA
:10CD000033F80E1CACF80010CEEB0C0233F8107C9C
:10CD100017800838CEEB0202A3F11003CED1BDE894
:10CD2000F081BDE8F081BDE8F081BDE8F08100BF91
:10CD300008B50F4B1A6812F0C05F0FD10C4B1A6880
:10CD400012F0A05F00D108BD0A484FF0A0519960D1
:10CD500000680021BDE80840FFF7CEBE05484FF04F
:10CD6000C051996000680121FFF7C6FEE6E700BFE9
:10CD700000600240A8FB012070B5102086B00121A0
:10CD80000CF032F81C4D1D4E012001460CF010F83D
:10CD90000024022328464FF4C06269468DF805300E
:10CDA0008DF8043000928DF806408DF807400BF0A6
:10CDB00015FD2846092107220BF06AFE28460A21A4
:10CDC00007220BF065FE4FF416550C22304602A9DF
:10CDD000ADF81220ADF80C40ADF80E40ADF81040A3
:10CDE000ADF8144002950CF077F9304601210CF0B3
:10CDF000DFF906B070BD00BF000002400010014026
:10CE000030B5012183B0054604200BF0D1FF00248A
:10CE100041F6014201230948009269468DF8043029
:10CE20008DF806408DF805408DF807400BF0D6FCD4
:10CE3000EC706C70AC702C7003B030BD0008024018
:10CE400038B50D4D027804464FF4805128460BF05A
:10CE500019FE2846A2784FF400610BF013FE284615
:10CE6000627801210BF00EFE2846E2784FF48061D3
:10CE7000BDE838400BF006BE0008024010B50121A5
:10CE800082B0044602200BF093FF4FF44071002360
:10CE90000122009109488DF8043069468DF806306A
:10CEA0008DF805308DF807200BF098FC2046FF2404
:10CEB00000F8014B047002B010BD00BF0004024036
:10CEC00070B5104B0678104D82B00446186801907A
:10CED0007200BDF804102846D6B20BF0CBFD94F8D2
:10CEE00001C0BDF8061040EA0603237028464FEA49
:10CEF0004C050BF0BFFDEEB240EA0601617002B0D6
:10CF000070BD00BFB09F01080004024001B9704726
:10CF10004FF000604FF400410BF0D2B9074B0848C6
:10CF2000084A10B4F0245A60002180F823400722F8
:10CF300099605DF8044B1A60704700BF10E000E094
:10CF400000ED00E03F90020030B50546012083B0BF
:10CF500001460BF02DFF0024042201230848009213
:10CF600069468DF804408DF806408DF807408DF82D
:10CF700005300BF033FC6C702C7003B030BD00BF7B
:10CF800000000240437810B50421044603700448B1
:10CF90000BF070FDD0F1010038BF0020607010BDB3
:10CFA0000000024090ED023ADFED723ADFED727A56
:10CFB000DFED724ADFED725A9FED725A9FED727A81
:10CFC000DFED726A7249E3EE237A2DE9F00F77EE16
:10CFD000A40A704D704EFDEEE01A8046F8EEE12A8C
:10CFE00011EE909A30EEE23A05EB890B63EE257A6A
:10CFF0006A4898ED014A98ED0C6ADBED003AD8F8E2
:10D0000034403768FDEEE75A24EE050A15EE905AD3
:10D0100000EB850090ED004A26EE071A23EE845AB5
:10D02000FCEEC14ABCEEC02A25EE266A14EE90CA78
:10D0300012EE10AABCEEC67A01EB4C05D9074FEAF6
:10D040004A4A17EE10BA67D4C146C4F31001544ED1
:10D05000DFED544ADFF854C103EE901A524906FB43
:10D0600007F6600C314405EB40085E1E002B49D0EA
:10D07000614535F91070B8F90200DFED4A0AD04673
:10D0800088BF04EB0B084FEA584C05EB4C0435F90C
:10D090001C3007EE907AB4F90270444C05EE900A09
:10D0A00006EE903A00EE107AB8EEE74AB8EEE55A8E
:10D0B000C8F3100CF8EEE61AB8EEC01A02EE90CAE9
:10D0C000FAEEE73A35EE446A31EE612AFAEEE72AE3
:10D0D000A6EE234A3248344FE2EE221A00FB01F159
:10D0E0000F4424EE247A21EEA03AA2EC017AA74262
:10D0F00006F1FF33A2EC013A01D85446A5E708EB4C
:10D100000B04A2E7244AC9F8344000231760C9F889
:10D110002C30BDE8F00F7047610C4E0005EB06099E
:10D12000A85FB9F90210DFED1F0A204E06EE900A43
:10D1300000EE101AC4F3100CF8EEE61AB8EEC01A9E
:10D1400002EE90CA31EE612AFAEEE72A1448164937
:10D15000E2EE221A00FB07F73944B14221EEA03A71
:10D1600003F1FF33A2EC013A94BF54465C440F46EE
:10D17000C1466AE700009042000070C20000004310
:10D180000000804300FEFF4600000046000000480B
:10D190002CF6050898620708580600209C660708C8
:10D1A0000D661900000000385FF36E3C275C8F02AB
:10D1B000D0ED017AB7EE007A37EE676AF2EE006AD8
:10D1C00026EE260A2DE9F00FFDEEC05A82B015EECC
:10D1D000904A082C00F0C281B8EEE57A661C30EE69
:10D1E000477AA71C90ED023ADFEDE73ADFEDE70A58
:10D1F0009FEDE71A9FEDE74AE74DDFF8B88355F852
:10D2000027C055F8266055F82470DFF8AC93DFEDA1
:10D21000E31AD0ED084A9FEDE25A446BE3EE230A8D
:10D2200001F001050CF1FF3AB1EE0C2A70EE822AF2
:10D23000002D72EE816AC6EB0A0CBDEEE66A06F1BD
:10D24000FF3BB8EEC60A16EE105A76EEC05A08EB4F
:10D25000850865EE843A98ED003AFDEEE30A08BFD2
:10D26000B0EE645A10EE90AA09EB8A0999ED001A03
:10D2700023EE014A18BF002464EE211A4907BCEED0
:10D28000E12AC7EB0B0512EE108A09D4B7EE002A8B
:10D2900032EE455ADFEDC34AA5EE642AB0EE425A9B
:10D2A000591E002B00F0DB801FFA84FB07EE90BABA
:10D2B000230C9D42FAEEC87A01F0010B40F2538133
:10D2C000DFF8E89203EB070ACDF800A009EB4A0A61
:10D2D000CDF804A0DDF800A039F91AA002EE10AADA
:10D2E000DDF804A0BAF902A002EE90AAF8EEC26A34
:10D2F000B8EEE26A9C4536EE660AE0EE276A00F276
:10D30000FE809FEDA73A444433EE664ADFEDA61A4D
:10D31000E4EE076A01F1FF3926EEA12AA2EC012A08
:10D32000002900F09A80BBF1000F34D01FFA84FA74
:10D3300004EE90AA230CF8EEE47A9D4227EEA12A8F
:10D3400000F2F1809C45DFED966A40F21381974927
:10D35000334401EB430A31F91330BAF9021000EEFD
:10D36000903A05EE901AF8EEE03AB8EEE51A31EE92
:10D37000634AE4EE023A444473EEE61ADFED8A4A69
:10D38000E1EE876A09F1FF39B9F1FF3F26EEA42AE1
:10D39000A2EC012A61D0AA461FFA84FB230C07EEF7
:10D3A00090BA9A45FAEEC87A73D89C459FED7C2ACC
:10D3B00040F2E3807D49334401EB430B31F91330F4
:10D3C000BBF9021003EE903A00EE901AF8EEE32A51
:10D3D000F8EEE05A35EEE21AE1EE272A444432EE46
:10D3E000C24AA5B2A4EE072A230C9A45DFED6E1AB5
:10D3F00004EE905A22EE212AF8EEE42A09F1FF31D8
:10D40000A2EC012A62EEA17A5DD89C459FED640AE8
:10D4100040F2B680654D334405EB430935F91330CE
:10D42000B9F9025001EE103A05EE905AF8EEC10A31
:10D43000B8EEE54A74EE601AE1EEA70A444470EED5
:10D44000C04ADFED592AA4EE870A01F1FF3920EE28
:10D45000222AA2EC012A00299ED1D0ED017ADFED2B
:10D46000546A4463F4EEE67AF1EE10FAA3BFF9EEE3
:10D47000006AB1EE042AE7EE826ADFED496A80EDC8
:10D48000085A26EE856A80ED0B6A02B0BDE8F00FFF
:10D4900070474649DD1901EB450B31F9155006EE91
:10D4A000905ABBF9025006EE105AB8EEE62AB8EED2
:10D4B000C60A9C4530EE423AA3EE272A3FF67BAFE0
:10D4C000DFED372A8AE7394D03EB070905EB490BF6
:10D4D00035F91990BBF902B006EE909A06EE10BA33
:10D4E000B8EEE60AB8EEC63A9C4573EE403AA3EEB3
:10D4F000A70A90D8DFED2A0AA0E7DFF8B0903344FE
:10D5000009EB430A39F9133003EE903ABAF90230C5
:10D5100005EE903AB8EEE33AF8EEE50A30EEC31ABB
:10D52000A1EE273AEFE6214903EB070A01EB4A0B8C
:10D5300031F91AA0BBF902B002EE90AA06EE10BAB9
:10D54000F8EEE26AB8EEC60A9C4530EE663AE3EEC3
:10D55000026A3FF6FDAEDFED123A0CE715EE906A77
:10D56000092707243EE69C45DFED0D6AC5D8B0EEDD
:10D57000663AC9E6F0EE663AFEE6F0EE422A2EE79B
:10D58000F0EE400A5BE700BF00009042000010C2CE
:10D590000000004300008043EC9305080000804732
:10D5A000000000003333733F00008037CCA7010830
:10D5B000CDCC4C3F986207089C66070802EB8303BA
:10D5C0009A4270B445D01446002644F8046B9D1A64
:10D5D000A5F1040CA342CCF382053AD01DB3012D72
:10D5E0001CD0022D16D0032D11D0042D0CD0052DEA
:10D5F00006D0062D18BF44F8046B002644F8046BCF
:10D600004FF0000C44F804CB002544F8045B0026DE
:10D6100044F8046B4FF0000C44F804CB002544F8A8
:10D62000045BA34215D026464FF0000C46F804CB0D
:10D63000203444F81CCCC6F804C044F814CC44F898
:10D6400010CC44F80CCC44F808CC44F804CCA342E9
:10D65000E9D1CC0711D590ED027ADFED167A164CA0
:10D6600027EE270A0023FCEEC00A036210EE905A50
:10D6700004EB850CDCF8006016604B0717D4D0ED86
:10D68000086A9FED0E1AF7EE001A31EEE62AE2EE76
:10D69000411AC0ED081AD0ED012AB7EE003A73EE38
:10D6A000623A70BC23EEA14A80ED0B4A7047D0ED80
:10D6B000081AF0E7000080431C9A05083333733FD3
:10D6C000D0ED026A9FED8B7AD0ED087A26EE870ABC
:10D6D00030B4FCEEC00A884C10EE905AC90704EB37
:10D6E000850C9CED001A40F1CE8090ED016ADFEDD3
:10D6F000835AD0ED0C4A9FED825ADFED821A26EE56
:10D70000252AE4EE851A66EE022A21EE617ABCEE45
:10D71000E23A13EE101A01F14004C463591E002BC3
:10D7200000F0848011F0030373D0C56B002D40F02E
:10D73000AD80DFED753A67EEA37A012BA2EC017A9A
:10D7400001F1FF319FED717A63D0022B0CD0C36BD6
:10D75000002B40F0AC809FED6C0A67EE807AA2EC63
:10D76000017A9FED6A7A0139C46B002C40F0B080D9
:10D77000DFED654A67EEA47AC56BA2EC017A013948
:10D780009FED627A002D47D0B7EE003A73EE673A0C
:10D790009FED5F4AA3EEC43A6C1E002C08BFB0EEAA
:10D7A000417AC463F0EE437AA2EC017A01F1FF3CC6
:10D7B00000293BD0C16BDFED556A00295ED0F7EE42
:10D7C000000A70EEE77A9FED526AE7EEC60A4B1E3A
:10D7D000002B08BFF0EE416AC363C56BDFED4B4A17
:10D7E000C2ED006A002D3AD1DFED475A60EEA51A6E
:10D7F000C16BDFED462AC2ED014A09BB9FED423AFB
:10D8000061EE837A0C329FED417A42ED012AACF150
:10D810000301C56B002DB7D1DFED3B2AA2EC017AE5
:10D8200067EEA27A01F1FF3C0029C3D1B6EE007A7F
:10D8300027EE871AC0ED087A80ED0B1A30BC7047CE
:10D84000F7EE007A4B1E77EEE13A9FED314AC36363
:10D85000002BE3EEC47A08BFF0EE412AD2E7F7EEE0
:10D86000001A6C1E31EEE02A9FED295AC463002C89
:10D87000E2EE451A08BFF0EE414AB9E79FED220AF1
:10D8800067EE800AA9E79FED217A47E7B7EE004AE5
:10D8900074EE677ADFED1E6AA7EEE64A6C1E002C76
:10D8A00008BFB0EE417AF0EE447AC46345E7F7EE84
:10D8B000000A30EEE76ADFED165AE6EE650A5D1EF5
:10D8C000002D08BFB0EE417AF0EE607AC56346E7FE
:10D8D000B7EE005A75EE671A9FED0D2AA1EEC25AF7
:10D8E000631E002B08BFB0EE417AF0EE457AC363A9
:10D8F00042E700BF000080431C9A050800008045F5
:10D90000CDCC4C3ECDCC4C3D6666663F0000000061
:10D91000643B7F3FD0ED016ADFED937A26EEA67A75
:10D92000C90726EE870A48BF4FF07C5166EE800A91
:10D93000B4EE006A48BF4162F0B4E0EE867A591E48
:10D94000002B00F00F81894E11F00307346800F0BE
:10D95000CD80874B874D9FED881AD0ED092A03FBB8
:10D9600004F4254405EE105AF8EE451AF6EE005A76
:10D9700021EE812A0139F4EEC27AF1EE10FA32EE8C
:10D98000653AC8BFF1EE622A73EE623AC8BFC0EDD5
:10D99000092AE3EEA02A012F2C46E2EC012A00F02E
:10D9A000A580022F23D0724F724C9FED734A90EDE9
:10D9B000090A07FB05FC644404EE904AF8EE646A29
:10D9C000B6EE006A26EE847A0139F4EEC77AF1EEFB
:10D9D00010FA37EE461AC8BFB1EE400A31EE405A8F
:10D9E000C8BF80ED090AA5EE200AA2EC010A604B2F
:10D9F000604DDFED611AD0ED093A03FB04F42544D4
:10DA000002EE105AF8EE422AF6EE005A22EEA13A41
:10DA10000139F4EEC37AF1EE10FA33EE654AC8BF6D
:10DA2000F1EE633A74EE634AC8BFC0ED093AE4EE22
:10DA3000A03A2C46E2EC013A58E0D0ED095AF1EE5A
:10DA4000654AC0ED094AF6EE006A494B49499FED27
:10DA50004A0A484FDFED483A34EE667A03FB04FC8D
:10DA600037EE646A614401EE101AE6EE204A404C3B
:10DA7000B8EE415AC2ED004A65EE001A90ED092A4F
:10DA8000F4EEE17AF6EE002AF1EE10FA31EEE23A27
:10DA9000C8BFB1EE422A04FB01F31F4433EE424AF1
:10DAA00004EE907AC8BF80ED092AA4EE202A0C3239
:10DAB000E91EF8EE645A02ED022A25EEA37AD0EDB3
:10DAC000096AF4EEC77AB6EE000AF1EE10FA37EE04
:10DAD000406AC8BFF1EE666A36EE661AC8BFC0ED8E
