:020000040800F2
:1080000000800020BD910208BD840008C1840008E2
:10801000C5840008C9840008CD8400080000000061
:10802000000000000000000000000000D1840008F3
:10803000D584000800000000D98400080D920208D1
:108040000D9202080D9202080D9202080D9202088C
:108050000D9202080D9202080D9202080D9202087C
:108060000D9202080D9202080D9202080D9202086C
:108070000D9202080D9202080D92020861B10008EB
:108080000D9202080D9202080D9202080D9202084C
:108090000D9202080D9202080D9202080D9202083C
:1080A0000D9202080D9202080D9202080D9202082C
:1080B0000D9202080D9202080D9202080D9202081C
:1080C0000D9202080D9202080D9202080D9202080C
:1080D0000D9202080D9202080D9202080D920208FC
:1080E0000D9202080D9202080D9202080D920208EC
:1080F0000D9202080D92020800000000000000002E
:1081000000000000000000000D9202080D9202081D
:1081100000000000000000000D9202080D9202080D
:108120000D9202080D9202080D9202080D920208AB
:108130000D9202080D9202080D9202080D9202089B
:108140000D92020800000000000000000000000086
:10815000000000000000000000000000000000001F
:1081600000000000000000000D9202080D920208BD
:108170000D920208000000000D92020800000000AD
:108180000D92020800000000000000000000000046
:1081900010B5054C237833B9044B13B10448AFF341
:1081A00000800123237010BD30000020000000007B
:1081B0009081000808B5064B1BB106480649AFF38D
:1081C00000800648036813B1054B03B1984708BD0A
:1081D00000000000908100083400002030000020E2
:1081E00000000000704700BF30B442F2480541F67D
:1081F0000C7441F6DC61154A4251C0F81C2EC0F8DF
:10820000B82DC0F81C2DC0F8D82BC0F8B42AC0F87F
:10821000FC29C0F8B828C0F86C27C0F88C26C0F834
:108220000C26C0F8F825C0F85424C0F8C422C0F8C1
:108230007C22C0F8C021C0F83C21C0F80421C0F85D
:10824000B02002600251425030BC7047A093020837
:10825000704700BF704700BF704700BF704700BF46
:108260002DE9F0478D4C82B00746884620F0D0FCBF
:10827000204602F01BFB8A4A92F8213083B9894DCF
:108280003B46CDF8008087488749854A42F29417DB
:1082900003F000FDED59C4F8C45102B0BDE8F08709
:1082A000824D92ED040A284602F00CFE05280CD0FF
:1082B000022820D00428E2D17D497A4D207040F276
:1082C000DC562167C4F8AC61DAE795ED522AD5EDAA
:1082D000512AF8EE426AB8EE623AF7EE003A86EEBC
:1082E000834AB4EE634AF1EE10FA25D06D4D6F4823
:1082F00002F0D2FDC4E795ED527AD5ED517AB8EE91
:10830000470AF8EE670AF7EE001A80EE201A0420FA
:108310002070B4EE611AF1EE10FA84ED1C1A08D048
:10832000B5EEC01AF1EE10FA03D40022C4F8AC2165
:10833000A5E740F2DC52F9E7D5F84091594D99F89C
:10834000FE1F42F2941A55F80A308B42C0F2978011
:1083500099F8FF6FB34200F3928003F120004FF0D1
:10836000550C544E89F8FF0F89F8FECF53E0304684
:1083700059F8041B043620F07BFAC6F30A010029E1
:1083800077D03046D9F8001006F1040A20F070FAD0
:10839000CAF30A03002B66D05046D9F8041006F140
:1083A000080A20F065FACAF30A00002855D05046A2
:1083B000D9F8081006F10C0A20F05AFACAF30A029A
:1083C000002A44D05046D9F80C1006F1100A20F0CB
:1083D0004FFACAF30A01A1B35046D9F8101006F1BA
:1083E000140A20F045FACAF30A0323B35046D9F819
:1083F000141006F1180A20F03BFACAF30A00A0B1E3
:1084000009F11C09504659F8041C20F031FA2A4A97
:108410001C3696423CD0C6F30A02002AA7D120F0AF
:1084200067F9304620F006FAA1E720F061F95046DE
:1084300020F000FAE4E720F05BF9504620F0FAF96A
:10844000D4E720F055F9504620F0F4F9C4E720F0C5
:108450004FF9504620F0EEF9B4E720F049F95046C4
:1084600020F0E8F9A3E720F043F9504620F0E2F9C4
:1084700092E720F03DF9304620F0DCF981E7042056
:108480000B4A207040F2DC562267C4F8AC612EE73C
:1084900042F2901101236B5429E700BF4C000020E9
:1084A000486800206403002014680020180200209F
:1084B000000080BF0070000800800008704700BF07
:1084C000FEE700BFFEE700BFFEE700BFFEE700BF1C
:1084D000704700BF704700BF704700BFFEE700BF96
:1084E00010B54FF4004186B04FF0006020F0A0FBC3
:1084F00045F2555020F080FB194C022020F082FB01
:108500004FF480431748059302A9049303940294FF
:1085100003F0ECF9144804F540514FF4805202F096
:1085200081FC1248019001994A1E01920029FAD15A
:108530000F4800F0E7F80E4B0E480F490F4A00F0C5
:10854000FBFE0C220E484BF6803102F0E9FD0C4890
:108550000C4902F0FDFD20F063FB06B010BD00BF2A
:1085600010280020640300201802002040420F0061
:10857000802700204C00002014680020486800205C
:10858000B82600206182000808B5FFF7A9FFFEE7C2
:108590002DE9F84F384C394939483A4EDFF840B1A7
:1085A000DFF840A1DFF84091374DDFF84081374FC9
:1085B000224620F02DFE22463549364820F028FE7E
:1085C00022463549354820F023FE224634493548B5
:1085D00020F01EFE22463449344820F019FE344B68
:1085E000344AC3F85464344EDFF804C133481A6087
:1085F000C3F8B0B0C3F804A141F60C7B42F2480ABC
:10860000C3F83C91C3F8F855DFF8E8902C4DC3F857
:108610001C6D224641F6DC662A4C2B49C3F8C0810A
:10862000C3F87CC2DFF8D080C3F8C472C3F80C066C
:10863000264F2748C3F8B898C3F8D84BDFF8BC904A
:10864000C3F8B85D234C244DDFF8B4C0C3F88C16D2
:10865000C3F86C07C3F8FC891846C3F8B4CAC3F85A
:108660001C7E9C5143F80B5043F80A901B49BDE80F
:10867000F84F20F0CDBD00BF00000020E5810008CC
:10868000B8260020A8BF0308D8BF030898BE030877
:108690005182000880270020558200084C000020ED
:1086A00059820008106800205D820008180200202E
:1086B0006403002008C0030818C2030860BF030851
:1086C00098C0030830BF030878BF0308B0C0030890
:1086D000C0BF030830C20308D0C10308E981000805
:1086E00020C0030800BF030818BF0308A8BD030883
:1086F00038C0030848BF0308C0BD030850C00308C2
:1087000090BF03082DE9F04F0446C64BDFF868C35D
:10871000DFF868E3C4492360C44BC54EDFF860B39B
:10872000C44DC548C4F804C00022C4F80CE0A362DC
:10873000A16400234FF27F41C04FC4F854B043F20C
:108740005F5A45F29B394FF008084FF0800C4FF00C
:10875000FF0E2661E661A26162622263E263226724
:10876000A4F850A0A4F85C9084F8748084F876C0D3
:1087700084F877E02381A382A38584F8753084F898
:10878000793084F87A3084F87B3084F87C30218426
:108790002187A4F8441065632564E064A06584F82B
:1087A0007E3084F87D3084F87F3084F880303E68F5
:1087B000A34AC4F8844004F1700B964285B0C4F813
:1087C00088B000F095811FF093FF9C4820F032F8AC
:1087D0009C4820F02FF89C4820F02CF89B4820F073
:1087E00029F89B4820F026F89A4820F023F8D4F87E
:1087F0008480702608EB060B4346ADF80C60002120
:108800001A469F7812F8019B93F803E0167893F8C4
:1088100004C05D799879494416FA81F117FA81F21A
:1088200008331EFA82F71CFA87F615FA86F513F854
:1088300001AC10FA85F01AFA80F95B451FFA89F14C
:10884000DED1CA4347467E497C48ADF80E2020F071
:108850000FF803998048814E20F00AF8C8EB0B0806
:1088600057F8041B7E48A8F10403C3F382051FF0E8
:10887000FFFFBB456BD0002D38D0012D2DD0022D30
:1088800025D0032D1DD0042D15D0052D0DD0062D7E
:1088900005D0304657F8041B724E1FF0E9FF3046F2
:1088A00057F8041B1FF0E4FF0436304657F8041B4A
:1088B0001FF0DEFF0436304657F8041B1FF0D8FFC8
:1088C0000436304657F8041B1FF0D2FF04363046FA
:1088D00057F8041B1FF0CCFF043657F8041B304632
:1088E0001FF0C6FFBB4506F1040630D0BA4630463D
:1088F0005AF8041B06F104091FF0BAFF79684846CC
:108900001FF0B6FFDAF8041006F108001FF0B0FF00
:10891000F96806F10C001FF0ABFF396906F1100091
:108920001FF0A6FF796906F114001FF0A1FFB969D5
:1089300006F118001FF09CFF203757F8041C06F1C1
:108940001C001FF095FFBB4506F12006CED1D4F8E0
:10895000885014202F182B46ADF80C0000219B46A0
:1089600093F802901BF801AB93F803809BF800B0DA
:1089700093F804C093F805E09E79DA79187A5144A7
:108980001BFA81F119FA81F918FA89FA1CFA8AF8A6
:108990001EFA88FB0A3316FA8BF612FA86FC13F8D5
:1089A00001EC10FA8CF21EFA82F0BB4281B2D6D1F1
:1089B0006FEA01092C482D49ADF80E901FF058FFC1
:1089C0002B4803992B4E1FF053FF55F8041B3046DC
:1089D0001FF04EFFBD4206F10406F6D10225A4F8B1
:1089E0008C50002094F8747094F87830D4ED1C7A90
:1089F000172F84BF172784F87470BFEE007A012BFD
:108A000088BF0123F4EEC77A88BF84F87830F1EE8E
:108A100010FA37D4B7EE007AF4EEC77AF1EE10FA16
:108A200032DD2FE0CDCCCC3CCDCCCC3E000080BFA5
:108A3000000070C2CDCCCCBF9A9919BF004000088D
:108A400043414C4900480008005000080058000805
:108A50000060000800680008044000080C4000089E
:108A60000840000810400008784000085354415462
:108A70007C400008804000080AD783BF14AECD4177
:108A800048E1FA3E84ED1C7A94F87A2094F87B1041
:108A900094F87C6094F87D5094F87E7094F87F3060
:108AA000022A84BF022284F87A20022984BF02218C
:108AB00084F87B10012E84BF012684F87C60022D8F
:108AC00084BF022584F87D50022F84BF022784F8DA
:108AD0007E7094F88020022B84BF022384F87F30BC
:108AE000012A02D9012184F8801005B0BDE8F08F79
:108AF000BD88702D7FF467AE504A104692F802A0F0
:108B000010F8019BD77890F8008092F804C056794D
:108B100092F806E04A494B4418FA83F31AFA83F5AF
:108B200017FA85F008321CFA80F716FA87F612F861
:108B300001AC1EFA86F31AFA83F58A42ABB2DCD195
:108B40004049D843B1F8069082B291457FF43BAEDC
:108B500020463A497022012520F096FBA4F88C505B
:108B6000CDF804B08DB16F1EC7EBC706344B364D40
:108B70004FEA860B5B441968A9420BD0B4F88C50BD
:108B8000012D3FF420AE01202CE72E4B2E4D19680D
:108B9000A942F3D198881428F0D103F1080E724647
:108BA00003F11C050021944690781CF801AB92F863
:108BB00003809CF8009092F804B05679977951445C
:108BC00019FA81F110FA81F018FA80FC1BFA8CF185
:108BD00092F807A092F8088016FA81F00A3217FA84
:108BE00080F61AFA86F912F8017C18FA89F117FA58
:108BF00081F0AA4281B2D6D1B3F806B0CD43ABB270
:108C00009B45BBD1BEE80F00019E0D4F30607160E7
:108C1000F360B260DEF800203261B4F88CC00B491A
:108C20000CF1010085B2C5EBC5034FEA830A574436
:108C30008F42A4F88C5095D9A2E700BF08400008E5
:108C40007840000800400008535441540070000868
:108C50002DE9F04F83B006461FF04AFD8B481FF008
:108C6000E9FD8B481FF0E6FD8A481FF0E3FD8A48C6
:108C70001FF0E0FD89481FF0DDFD89481FF0DAFD97
:108C8000D6F88480702208EB02074346ADF8042032
:108C90000021184693F802E010F8019BDD7890F867
:108CA00000C01C7993F805A093F806B049441CFA5B
:108CB00081F11EFA81F2083315FA82F014FA80F578
:108CC0001AFA85F413F801EC1BFA84F91EFA89FCF0
:108CD000BB421FFA8CF1DCD1CA43C24671496B48D2
:108CE000ADF806201FF0C4FD01996F486F4D1FF0CD
:108CF000BFFDC8EB07085AF8041B6D48A8F1040330
:108D0000C3F382041FF0B4FDBA4571D0002C38D0F3
:108D1000012C2DD0022C25D0032C1DD0042C15D0D5
:108D2000052C0DD0062C05D028465AF8041B614DA1
:108D30001FF09EFD28465AF8041B1FF099FD0435CC
:108D400028465AF8041B1FF093FD043528465AF8AC
:108D5000041B1FF08DFD043528465AF8041B1FF034
:108D600087FD043528465AF8041B1FF081FD0435A1
:108D70005AF8041B28461FF07BFDBA4505F104058F
:108D800036D0D34628465BF8041B05F104091FF0D2
:108D90006FFDDAF8041048461FF06AFDDBF8041096
:108DA00005F108001FF064FDDAF80C1005F10C0065
:108DB0001FF05EFDDAF8101005F110001FF058FDED
:108DC000DAF8141005F114001FF052FDDAF818104B
:108DD00005F118001FF04CFD0AF1200A5AF8041C96
:108DE00005F11C001FF044FDBA4505F12005C8D16E
:108DF000D6F88840142027182346ADF80400002137
:108E00009E4693F802901EF801AB93F803809EF8FB
:108E100000B093F804C093F805E09D79DA79187AE8
:108E200051441BFA81F119FA81F918FA89FA1CFAEE
:108E30008AF81EFA88FB0A3315FA8BF512FA85FCBC
:108E400013F801EC10FA8CF21EFA82F0BB4281B2E8
:108E5000D6D16FEA010918481849ADF806901FF0FD
:108E600007FD17480199174D1FF002FD54F8041B28
:108E700028461FF0FDFCBC4205F10405F6D1022492
:108E8000A6F88C4003B0BDE8F08F00BF004000089A
:108E90000048000800500008005800080060000862
:108EA0000068000843414C49044000080C40000899
:108EB000084000081040000878400008535441540E
:108EC0007C40000880400008B0F88C20D14BD2498B
:108ED0002DE9F04F0646C2EBC200840023448B42CA
:108EE00083B040F218811FF003FCCC481FF0A2FCB5
:108EF000CB481FF09FFCCB481FF09CFCCA481FF0DA
:108F000099FCCA481FF096FCC9481FF093FCD6F89C
:108F100084A070200AEB00075346ADF8040000213E
:108F20009C4693F802E01CF8019BDD789CF80080D9
:108F30001C7993F805B09879494418FA81F11EFA22
:108F400081F2083315FA82F514FA85F41BFA84FCD1
:108F500013F801EC10FA8CF01EFA80F9BB421FFAEC
:108F600089F1DDD1CA43D346B249AC48ADF80620F9
:108F70001FF07EFC0199B048B04D1FF079FCCAEBA0
:108F8000070A5BF8041BAE48AAF10403C3F382048A
:108F90001FF06EFCBB4571D0002C38D0012C2DD0B9
:108FA000022C25D0032C1DD0042C15D0052C0DD05F
:108FB000062C05D028465BF8041BA24D1FF058FC78
:108FC00028465BF8041B1FF053FC043528465BF869
:108FD000041B1FF04DFC043528465BF8041B1FF0F2
:108FE00047FC043528465BF8041B1FF041FC0435A0
:108FF00028465BF8041B1FF03BFC04355BF8041BA0
:1090000028461FF035FCBB4505F1040536D0D8468F
:10901000284658F8041B05F104091FF029FCDBF869
:10902000041048461FF024FCD8F8041005F108008D
:109030001FF01EFCDBF80C1005F10C001FF018FCF3
:10904000DBF8101005F110001FF012FCDBF8141013
:1090500005F114001FF00CFCDBF8181005F11800E6
:109060001FF006FC0BF1200B5BF8041C05F11C0043
:109070001FF0FEFBBB4505F12005C8D1D6F888409E
:10908000142027182346ADF8040000219C4693F8CD
:1090900002901CF801AB93F803809CF800B093F8A1
:1090A00004C093F805E09D79DA79187A51441BFAE7
:1090B00081F119FA81F918FA89FA1CFA8AF81EFA6C
:1090C00088FB0A3315FA8BF512FA85FC13F801ECCC
:1090D00010FA8CF21EFA82F0BB4281B2D6D16FEA4E
:1090E00001094C485849ADF806901FF0C1FB57489C
:1090F0000199574D1FF0BCFB54F8041B28461FF084
:10910000B7FBBC4205F10405F6D10224A6F88C4059
:1091100003B0BDE8F08F1FF0EBFAD6F88850B6F830
:109120008C704FF0140805EB08042B46ADF8048052
:1091300000219B4693F802901BF801AB93F8038043
:109140009BF800B093F804C0587993F806E0DA79F8
:1091500051441BFA81F119FA81F918FA89FA1CFABB
:109160008AF80A3313F802CC10FA88FB1EFA8BF047
:1091700012FA80FE13F8012C1CFA8EF112FA81F01B
:10918000A34281B2D5D1CC43ADF80640002F36D0F2
:10919000013FC7EBC7031F482B494FEA83094844E7
:1091A0001FF066FB2948019948441FF061FB09F153
:1091B000006A0AF581442D1B04F104082959204650
:1091C0001FF056FB55F8081040461FF051FB04F104
:1091D000080029581FF04CFB04F10C0029581FF01F
:1091E00047FB04F1100029581FF042FBB6F88CB081
:1091F0000BF10102A6F88C2003B0BDE8F08F1249F4
:1092000006480F4C1FF034FB01990B481FF030FB50
:10921000D1E700BF78400008007000080040000857
:1092200000480008005000080058000800600008CE
:109230000068000843414C49044000080C40000805
:109240000840000810400008535441547C40000876
:109250008040000830B4D0F88C31C26F93F874109D
:10926000D16193F87540DFED337A07EE104AB8EE1E
:10927000470A60EE270AC2ED090A93F8765001EE1C
:10928000105AF8EE411A21EEA72A82ED082A93F827
:1092900077C002EE90CAB8EE623A63EE273AC0EDAC
:1092A0001E3A93F87810C1B190F888C01D6F0CF188
:1092B000FF34E1B201290DD9D0F8904054B1BCF18E
:1092C000030CDCF1000151EB0C0C012480F889C087
:1092D00080F88840D0F88C100D6093F8795004EE37
:1092E000105ABBEECC4A82ED0A4A93F87A4082F8D3
:1092F0002C40C26F93F87BC082F82DC0C56F93F8E5
:109300007C1085F82E10C46F93F87D2084F82F20F0
:10931000C56F93F87EC085F830C0C46F93F87F1096
:1093200084F83110C06F93F8803080F8323030BC50
:10933000704700BF0000803B2DE9F04F044685B028
:10934000C0F88020C0F88C31E16704300E4601F08F
:109350003BFF04F1340002F067F904F1440002F02D
:109360003BF804F1640002F057FA06F1040906F133
:10937000280006F1080C04F1740104F178080025B6
:109380000023984ADFF864E2C4F88C104FF080475D
:109390009549C4F8900006F1240B4FF07E5006F179
:1093A0000C0AC4F8B090C4F8B48006F1200906F1A4
:1093B0001408C4F8D4C006F1100C1836C4F8942070
:1093C000C4F8B820C4F89830C4F89C30C4F8A03071
:1093D000C4F8BC30C4F8C030C4F8C430C4F8CC30D1
:1093E000C4F8E030C4F8E430C4F8E830C4F8F03031
:1093F000C4F8DCE0C4F8A810C4F8D8B0C4F8A4706D
:10940000C4F8C800C4F8EC00A566E566257084F8C9
:10941000885084F8895084F8AC5084F8AD5084F8B2
:10942000D05084F8D15084F8F450C4F840C1C4F846
:1094300000E1C4F80431C4F80831C4F80C31C4F8B0
:109440001431C4F82421C4F82831C4F82C31C4F8EC
:109450003031C4F84821C4F84C31C4F85031C4F854
:109460005431C4F83811C4F85C11C4F8F8A0C4F839
:109470001001C4F83471C4F85871C4F81C81C4F8E0
:109480006461204684F8F55084F8185184F8195125
:10949000C4F8205184F83C5184F83D51C4F844513B
:1094A00084F8605184F86151C4F86851C4F8FC90A4
:1094B000C4F86C21C4F87031C4F87431C4F8783140
:1094C000C4F87C71C4F88011FFF7C4FE4FF400307B
:1094D0000121C4F89051C4F8A8511FF0B9FC04A9A7
:1094E0004FF4007241F8082D02234FF090400127FD
:1094F0008DF80E508DF80F508DF80C708DF80D30E2
:109500001FF0EAF904F5DE7104F5E07A01916FEAE3
:109510000A0B04F5E27804F2C11C0198C4F89451D6
:10952000C344C445C4F89851C4F89C51C4F8A05130
:10953000C4F8A451C4F8AC51C4F8B051C4F8B45143
:10954000C4F8B8510BF007060560AA4684F8C0516C
:109550003DD02EB3012E1DD0022E17D0032E12D0D7
:10956000042E0DD0052E08D0062E1CBF8CF80050FE
:1095700004F5E17C00250CF8015B00220CF8012BBE
:1095800000270CF8017B00230CF8013B4FF0000989
:109590000CF8019B4FF0000A0CF801ABC44516D043
:1095A000E34600210BF8011B0CF1080C0CF8071C1A
:1095B0008BF801100CF8051C0CF8041C0CF8031CAB
:1095C0000CF8021C0CF8011CC4458A46E8D10026A0
:1095D000C4F8C4A1C4F88461C4F88861266705B0E2
:1095E000BDE8F08F0AD7A33B000080BF0AD7233C19
:1095F000C26FD0F88C31D16983F87410C26FDFED7F
:10960000317A92ED097A27EE270AFCEEC00A10EEB5
:10961000901A83F87510C26F92ED081A61EE271A3E
:10962000BCEEE12A12EE101A83F87610D0ED1E2A55
:1096300022EEA73AFCEEC33A13EE90CA83F877C045
:10964000D0F88C201168196790F888C00CF1FF32AF
:10965000D1B201298CBF0021012183F87810C26F9B
:1096600092ED0A4A64EE274ABCEEE45A15EE101A4F
:1096700083F87910C26F92F82C1083F87A10C26FB9
:1096800092F82D1083F87B10C26F92F82E1083F899
:109690007C10C26F92F82F1083F87D10C26F92F881
:1096A000301083F87E10C26F92F8311083F87F106B
:1096B000C26F92F8321083F88010D0F88C01FFF757
:1096C00003BC00BF000080432DE9F043044600F1D5
:1096D0004405284685B001F005FFD4F8AC31217867
:1096E0000133C3F304120F2AC4F8AC3103F00F00A6
:1096F000C8BFC2F11F02092949D8DFE811F00A00EA
:1097000033026000A500AF00D500D5006E017501E1
:109710004E00E36FB74FD3F81CE00EEA0707002FA7
:10972000C0F2F0828242B44E40F3C18296E8070054
:10973000BEF1000F0DF1040989E80700B8BF0EF172
:10974000070E4FEAEE0004A901EB800252F80C8CE0
:1097500096E80700D4F8C461002E3346B8BFF31D65
:1097600089E80700D810A34B0DF1100E0EEB800C0A
:109770001E40002E5CF80C1CC0F2BE8204EB86007A
:1097800004EB87044164676C47EA08036364284676
:1097900005B0BDE8F04301F0B5BE8242F7DD4FF4FD
:1097A0007F0128466164A164E16421656165A1656A
:1097B000E165216605B0BDE8F04301F0A3BE94ED7C
:1097C0001E4AF2EE044A24EE246A5210FDEEC61A36
:1097D00011EE903A002B00F09D81092B874A00F092
:1097E0003782012B0CBF91464FF00009022B14BFAA
:1097F0004FF0000E9646032B14BF4FF0000C94461A
:10980000042B14BF00271746052B14BF002616464D
:10981000062B14BF00201046072B14BF0021114651
:10982000082BC4F84490C4F848E0C4F84CC027653D
:109830006665A065E16518BF00222846226605B06E
:10984000BDE8F04301F05EBE94F8888008F1FF3671
:10985000F7B2012FA3D94FF47F41A2E7D4ED1C7AD0
:10986000B7EE007AF4EE477AF1EE10FA40F0CC80D1
:1098700052104FF47F4600F0F681012A666400F032
:109880002782022AA66440F0F08100202665E06469
:109890004FF47F41052A616540F0EF810022E165C8
:1098A0000F46A26527662DE1E76FE06E97F82C2042
:1098B00004F14008002A00F05982032A00F0D08108
:1098C000012A00F03382042A00F03382022A4B4935
:1098D00006D0052A18BF002113F0800F18BF002101
:1098E00018B113F0070F18BF002148F8041F012218
:1098F000002A00F02382012A08BF97F82D6014D0B7
:10990000022A08BF97F82E600FD0032A08BF97F8E5
:109910002F600AD0042A08BF97F8306005D0052AC6
:109920000CBF97F8316097F83260002E00F01B8270
:10993000032E00F0B681012E00F0C181042E00F04C
:10994000C481022E2D4906D0052E18BF002113F028
:10995000800F18BF0021824203D013F0070F18BFF9
:1099600000210132C8F8041008F1040400F0E98174
:10997000012A00F0E981022A00F0EC81032A00F0BC
:10998000E681042A00F0E981052A14BF97F83260C5
:1099900097F83160002E00F0E381032E00F08481FF
:1099A000012E00F08981042E00F08C81022E1349D3
:1099B00006D0052E18BF002113F0800F18BF00211C
:1099C000824203D013F0070F18BF00210132072A8B
:1099D000616004F104088BD1D9E682427FF7D7AEEB
:1099E0004FF47F476764D2E682427FF7D0AE034EE2
:1099F0006664CCE6070000807093020800FFFF0059
:109A00006F12833A00000043F5EEC07AF1EE10FACF
:109A100000F13B815FED066A1FED060A77EEE60A6C
:109A2000B4EE001A70EEC15A06EE100A75EEC14A85
:109A3000F8EEC61A34EEC12A20EE804A32EE415AC0
:109A400065EE803A75EE412AF4EEC41A24EE803AAF
:109A5000F1EE10FA62EE007AF4EEE31A32EEC17A19
:109A60004CBF4FF47F494FF0000965EE000AF1EE5C
:109A700010FAF4EEC31A4CBF4FF47F4E4FF0000EB5
:109A800062EE805AF1EE10FA77EE416AF4EEE71AD0
:109A90004CBF4FF47F4C4FF0000C27EE001AF1EE54
:109AA00010FAF4EEE01A4CBF4FF47F47002726EE81
:109AB000800AF1EE10FAF4EEE51A4CBF4FF47F463F
:109AC0000026F1EE10FAF4EEC11A4CBF4FF47F40BD
:109AD0000020F1EE10FAF4EEC01A4CBF4FF47F41B3
:109AE0000021F1EE10FA4CBF4FF47F420022C4F87F
:109AF0004490C4F848E0C4F84CC027656665A0658A
:109B0000E165226640F6B83083427FF740AE00231D
:109B100023703CE6002A00F09980964F6764012A82
:109B200000F0FC80934EA664022A00F0F580914874
:109B3000E064032A00F0EE808E492165042A00F0DB
:109B4000E7808C4F6765052A00F0EE80894EA66598
:109B5000062A00F0E780874BE365072A00F0E080E3
:109B6000844A6AE6E16F9FED842AD1ED093A91EDCE
:109B7000085ADFED822A7F4B33EEC23AB5EE007A07
:109B800073EE470A07EE900A30EEC71A75EE426A86
:109B9000F8EEE71A23EE220A20EEA26A76EEC75A02
:109BA00071EE474AF4EEC01A21EE224AF1EE10FAA5
:109BB00024EEA22AF4EEC61A75EEC73A4CBF9846B8
:109BC0004FF0000826EEA25AF1EE10FAF4EEC41A95
:109BD0004CBF99464FF0000925EEA23AF1EE10FA7B
:109BE00033EEC77AF4EEC21A4CBF1F46002763EE6D
:109BF000A20AF1EE10FAF4EEC51A4CBF1E4600267A
:109C000067EE222AF1EE10FAF4EEC31A4CBF1846A2
:109C10000020F1EE10FAF4EEE01A4CBF19460021D4
:109C2000F1EE10FAF4EEE21A4CBF1A460022F1EE01
:109C300010FA58BF0023C4F84480C4F84890E76481
:109C400026656065A1652366E265A0E5626469E753
:109C50006264A264E26422656265A265E265ECE585
:109C60004FF47F4138E66264A6644FF47F47032ACD
:109C7000E76430D10026676526654FF47F47062AE2
:109C8000A76531D10022E2650CE6824254DD4FF433
:109C90007F076764A764E76427656765A765E7656D
:109CA00000E64FF47F4152E64FF47F4184E64FF0E7
:109CB00000080DF104094BE54FF47F0180E64FF4F5
:109CC0007F0148E64FF47F0176E64FF47F013EE6E0
:109CD0000021E664A1644FF47F46042A26657FF4E0
:109CE000D7AD0020A66560654FF47F41072A14BFF9
:109CF0000F460027E165D5E5721E62F0070909F1FC
:109D000001063BE57E1E66F0070C0CF1010709E534
:109D100063651BE7236514E7E3640DE7A36406E7C7
:109D200000228AE5E3651BE7A36514E74FF47F0192
:109D3000D6E54FF47F01CFE50027AAE797F82C601E
:109D4000F3E597F82C6025E697F82D6022E697F862
:109D50002F601FE697F82E601CE697F8306019E632
:109D60004FF47F412CE64FF47F41F4E54FF47F41FF
:109D7000B6E500BF00FFFF006F12833A000080428B
:109D80000123002210B480F8C33180F8C23180F87A
:109D9000C13180F8C03180F8AC2080F8D02080F844
:109DA000F420032913D8DFE801F0221C1602C26F49
:109DB000124CD16901F1170C84FB0C144FEAEC71C1
:109DC000C1EBA40303EB4304ACEBC401D1615DF828
:109DD000044BFFF70DBCC26F084CD36903F1080CAC
:109DE000EAE7C26F054CD16901F1100CE4E7C26FDC
:109DF000024CD36903F1010CDEE700BFABAAAA2A2B
:109E0000C368D0F88C21D0F8A811F0B400EB43045B
:109E1000B2F92050B4F92470BD424FEAD176D4BFD4
:109E200000270127B74204D0D0F894315D1CC0F858
:109E300094514469B2F9387000EB440CBCF92430F9
:109E40009F42D4BF00230123B34204D0D0F89851DD
:109E50006C1CC0F898418769B2F9443000EB470C9C
:109E6000BCF92450AB42D4BF00250125B54204D033
:109E7000D0F89C41671CC0F89C71C369B2F950C00E
:109E800000EB4305B5F92440A445D4BF00240124C8
:109E9000B44204D0D0F8A0717B1CC0F8A031046A91
:109EA000B2F95CC000EB4402B2F92450AC45D4BF17
:109EB00000250125B54204D0D0F8A461771CC0F874
:109EC000A471D0F890315C1C202CC0F8904111D0C6
:109ED0002A4F07FB01F101F5405606F13905002D27
:109EE000C0F8A85141DB4FF090404FF40074048556
:109EF000F0BC7047D0F89431D0F89871D0F89C61DC
:109F0000D0F8A051D0F8A441D0F88020012BD4BFC4
:109F10004FF0000C4FF0010C012FD4BF0027012798
:109F2000012ED4BF00260126012DD4BF0025012516
:109F3000012C4FF00003D4BF00240124C0F890315D
:109F400082F820C0C0F8943182F82170C0F89831AE
:109F500082F82260C0F89C3182F82350C0F8A0310A
:109F600082F82440C0F8A431B2E74FF0904C4FF48F
:109F70000072CCF81820F0BC704700BF6D4EC6418F
:109F800030B4D0F88C21051D0121002302E00133FB
:109F900001310C32012BFAD055F8234092ED017AB1
:109FA00000EB440C0829BCF9244007EE904AFAEE75
:109FB000E87A27EEC70A82ED000AE8D1D0F88831A6
:109FC0000170C0F8C83130BC704700BF90ED727AA4
:109FD000D0ED627ADFED226A10B537EEC70A82B0A3
:109FE000B4EEE60AF1EE10FA044606DDDFED1D0AD6
:109FF000B4EEE00AF1EE10FA1ED4092323704FF4F8
:10A00000003001211EF024FF02AA4FF40074002347
:10A0100042F8084D4FF0010C022269464FF0904083
:10A020008DF804C08DF806308DF807308DF80520C6
:10A030001EF052FC02B010BDB3EE081AC1EE001AB9
:10A04000D0F88C110846B2EE082AA7EE612AC1EDBD
:10A05000041A81ED032AFEF7FBFD00202070CEE7F5
:10A060009A9919BFCDCC4CBE70B5044682B064300D
:10A0700001F00CFC2378092B00F2B580DFE813F027
:10A08000D700F000F0002C01B30058018E019E01B2
:10A09000B5003C01002B00F0CE8294F86560002EE4
:10A0A00000F001820020C4F8B00184F8C0013046FD
:10A0B0000025C4F8B051802E00F04983002E00F036
:10A0C000EC820026C4F8B46194F86610802900F090
:10A0D0004483002900F0F0820025C4F8B851802B99
:10A0E00000F0E182002B40F0E382D4F8BC6101363D
:10A0F000C4F8BC61802A00F0E882802894F8F4005B
:10A1000000F01083802994F8AC2000F0F782022838
:10A1100000F0D88294F8D000022800F0D382022AFE
:10A1200008BF2270B5F5FA6F29DBD4F8BC51B5F53C
:10A13000FA6F24DB00260DF1080C07224FF40073A0
:10A140006946C4F8BC61C4F8B86184F8886084F8D2
:10A15000AC6084F8D06084F8F460227002254FF07F
:10A1600090404CF8083D8DF804608DF806608DF83D
:10A1700007608DF805501EF0AFFB94F86730D4F8F7
:10A18000B001B0F5FA6F80F25982D4F8B411B1F58C
:10A19000FA6F80F25382D4F8B861B6F5FA6F0ADB31
:10A1A00000220225C4F8B821C4F8B421C4F8B021B3
:10A1B000C4F8BC2125707F2B00F0D58294F8640090
:10A1C0007F2800F0E28294F865107F2900F0008378
:10A1D00094F866207F2A06D194F8C2511DB9204612
:10A1E0000221FFF7CDFD02B070BD94F86400802815
:10A1F00000F00E8394F86510802900F00B8394F82A
:10A200006620802A00F00A8394F86750802D08BFEA
:10A210000325E8D105F16C0625440023012144F80B
:10A220002630204685F8C011FFF7D0FEDBE794F812
:10A23000642094F86730802A3FF42CAF802B00F024
:10A24000F78194F86560802E00F02A813046002A5C
:10A250007FF42EAFD4F8B051691CC4F8B0112AE7CE
:10A2600094F864207F2A00F0618194F865107F29BA
:10A2700000F0BB8194F866307F2B00F0938194F856
:10A2800067207F2AAFD194F8D060022E00F0FD81C4
:10A2900094F8D110002940F0F88184F8D01094F897
:10A2A000F430022B00F0ED8194F8F550002D40F0D1
:10A2B000E88184F8F45094F8AC60022E00F0E98153
:10A2C00094F8AD10002940F0E48184F8AC1000232C
:10A2D000C4F8BC31237086E794F864007F2804D06A
:10A2E00094F865307F2B7FF47EAF0025C4F8B4511D
:10A2F000C4F8B051257076E794F86430802B00F0F4
:10A30000488194F86520802A00F03B8194F866002B
:10A31000802800F02E8194F86720802A7FF463AFB4
:10A3200000260121C4F8BC61267084F8C3115AE7E5
:10A3300094F86730002B3FF456AF94F86420002A5D
:10A340003FF451AF7F2A02D07F2B7FF44CAF94F8BB
:10A35000D050022D00F0E68094F8D160002E40F03D
:10A36000E18084F8D06094F8F400022800F0D680F0
:10A3700094F8F530002B40F0D18084F8F43094F854
:10A38000AC50022D00F0C68094F8AD60002E40F075
:10A39000C18084F8AC600620207024E794F8670040
:10A3A00080BB94F864508DBB012084F8C00184F810
:10A3B000C3012046FFF71CF9257014E794F86400E8
:10A3C000802800F0238294F86520802A00F02482FF
:10A3D00094F86650802D00F0238294F86760802EF8
:10A3E00008BF03267FF4FFAE06F16C03264400216C
:10A3F0004FF0010C44F82310204686F8C0C1FFF747
:10A40000BFFDF0E67F2835D094F864507F2D44D00E
:10A4100094F865207F2A00F0148194F866107F2953
:10A420007FF4E1AE4FF0010CE36E002B00F01481DD
:10A43000012B00F0B781022B00F0D881032B00F034
:10A44000F181042B00F00482052B00F01782062B0B
:10A450007FF4C9AEE06F90F832E00EF10205AC4433
:10A4600080F832C0E46F94F8326006F0010284F89C
:10A470003220B8E64FF0060EE66EC84AB6448EFBB0
:10A4800002230EEB03014FEAEE73C3EBA100C0EB16
:10A49000C005C5EB0E06E666BAE74FF0080EEBE71F
:10A4A000002A7FF4D3AE94F8D0004FF0010E0228BA
:10A4B00084F8C0E184F8C1E100F0CA8094F8D1309A
:10A4C000002B40F0C58084F8D03094F8F460022E60
:10A4D00000F0BA8094F8F520002A40F0B58084F8A6
:10A4E000F42094F88800431ED9B2012940F2458136
:10A4F000D4F8906046B1C21E554255EB02000123CC
:10A5000084F8890084F88830032222702046FFF7FF
:10A510006FF868E6032184F8AC103CE7032284F866
:10A52000F4202CE7032184F8D0101CE794F8D060C5
:10A53000022E02D094F8D11001B1032194F8F40056
:10A5400084F8D010022802D094F8F53003B1032328
:10A5500094F8AC5084F8F430022D02D094F8AD2079
:10A5600002B10322002684F8AC20C4F8B061267042
:10A570007BE600230125C4F8B831237084F8C2516A
:10A58000C9E600260121C4F8B461267084F8C1111F
:10A59000BCE600254FF0010EC4F8B051257084F8D8
:10A5A000C0E1AEE694F8D050022D02D094F8D1204C
:10A5B00002B1032294F8F46084F8D020022E02D075
:10A5C00094F8F51001B1032194F8AC0084F8F4106C
:10A5D000022802D094F8AD3003B10323002584F89B
:10A5E000AC30C4F8B851257049E694F8D000022880
:10A5F00002D094F8D13003B1032394F8F45084F8D6
:10A60000D030022D02D094F8F52002B1032294F844
:10A61000AC6084F8F420022E02D094F8AD1001B1A1
:10A620000321002084F8AC10C4F8B401207021E6A6
:10A63000002A7FF406AE05252570D4E50022012509
:10A64000B0E54FF0FF3CEFE6032584F8F45048E70F
:10A65000032184F8D01038E7E66F514996F82C00B2
:10A66000C21C944486F82CC0E46F94F82C30A1FBF3
:10A6700003054FEA550C0CEB4C06991B84F82C1083
:10A68000B1E5032284F8F42015E6032084F8D00015
:10A6900005E6032084F8AC0019E6D4F8B461711C17
:10A6A000C4F8B41110E50026C4F8BC6184F8C36195
:10A6B0000026C4F8BC611DE5D4F8B8510135C4F8D2
:10A6C000B8510CE50121217029E594F8D0C00CF1B6
:10A6D000FF32D6B2012E7FF610ADD4F8D820002A72
:10A6E0003FF40BADBCF1030EDEF1000656EB0E0C91
:10A6F000012284F8D1C084F8D020FEE4511ECEB2ED
:10A70000012E7FF604ADD4F8B41000293FF4FFAC5D
:10A71000033A564256EB020E012284F8ADE084F86B
:10A72000AC20F4E4461EF2B2012A7FF6EBACD4F87A
:10A73000FC60002E3FF4E6AC0338D0F1000E5EEB77
:10A74000000C012084F8F5C084F8F400DAE4002558
:10A75000C4F8B45184F8C151B3E40026C4F8B86118
:10A7600084F8C261B8E494F8C331002B7FF426ADBD
:10A7700020460321FFF704FB35E5022832D094F888
:10A78000891079BB84F88810BEE694F8C0110029BE
:10A790007FF419AD2046FFF7F3FA24E5932449929C
:10A7A000ABAAAAAAE56F404E95F82D00C11C8C44B7
:10A7B00085F82DC0E46F94F82DC0A6FB0C024FEA7B
:10A7C000520E0EEB4E03C3EB0C0584F82D500AE538
:10A7D00094F8C161002E7FF4FBAC20460121FFF705
:10A7E000CFFA00E5032684F888608DE6E06F90F8E4
:10A7F0002E1001F1020EF44480F82EC0E46F94F89C
:10A800002E2002F0010384F82E30ECE40026EBE564
:10A810000025FFE40125FDE40126E5E50225F9E434
:10A820000226E1E5E66F204996F82F0000F1030EBD
:10A83000F44486F82FC0E46F94F82F20A1FB0203A4
:10A840004FEA530C0CEB4C05561B84F82F60CAE4FE
:10A85000E56F154995F8300000F1030EF44485F8D2
:10A8600030C0E46F94F83060A1FB06024FEA520C4E
:10A870000CEB4C03F51A84F83050B4E4E36F0A494A
:10A8800093F8310000F1030EF44483F831C0E56F12
:10A8900095F83140A1FB04064FEA560C0CEB4C0234
:10A8A000A31A85F831309EE4ABAAAAAAD0ED267A85
:10A8B0009FEDD47A2DE9F0410446808ED4ED256ACF
:10A8C00094F8883006EE100AB8EEC60AB0EE674A71
:10A8D00090EE074AE6EE847AC4ED267A4BB994ED01
:10A8E000291AD4ED2A1AD4F88C10E7EE811AC1ED9A
:10A8F000001AE28ED4ED2F2A9FEDC23AD4ED2E3A03
:10A9000094F8AC5002EE102AF8EEC24AB0EE625A49
:10A9100094EE835AE3EE852AC4ED2F2A4DB9D4ED87
:10A92000327A94ED336AD4F8B060A2EEA76A86ED6D
:10A93000006A278FD4ED380A9FEDB27AD4ED376ADA
:10A9400094F8D00000EE107AB8EEC01AB0EE604A6B
:10A9500091EE074AE6EE840AC4ED380A48B994ED50
:10A960003B2AD4ED3C2AD4F8D430E0EE822AC3ED61
:10A97000002A618FD4ED413ADFEDA24A94ED405AAE
:10A9800094F8F42003EE101AF8EEC35AF0EE637A4E
:10A99000D5EEA47AE5EE273AC4ED413A4AB994EDF2
:10A9A000440AD4ED450AD4F8F850E3EE800AC5ED28
:10A9B000000AA68FD4ED4A1A9FED927AD4ED496A27
:10A9C00094F8187101EE106AB8EEC12AB0EE614A2F
:10A9D00092EE074AE6EE841AC4ED4A1A4FB994ED96
:10A9E0004D3AD4ED4E3AD4F81C01E1EE833AC0ED75
:10A9F000003AE38F94ED535ADFED825AD4ED527A48
:10AA000094F83C1104EE903AB8EEE46AB0EE450AD0
:10AA100096EE250AA7EE805A84ED535A49B994ED73
:10AA2000561AD4ED571AD4F84021E5EE011AC2EDBA
:10AA3000001AB4F84050D4ED5C2A9FED727AD4ED40
:10AA40005B6A94F8606102EE105AB8EEC23AB0EE5A
:10AA5000624A93EE074AE6EE842AC4ED5C2A4EB9B8
:10AA6000D4ED5F4A94ED605AD4F86471A2EEA45A12
:10AA700087ED005A6768A668D4F88C31DFED627AFA
:10AA800093ED010AD3ED000AE568D4F880209FED2C
:10AA9000621ADFED5E1A5E4904EB470704EB4606D7
:10AAA000B7F92470B6F9246006EE107AB8EEC62A1B
:10AAB00005EE906A62EE272A04EB4505E0EE220AD5
:10AAC00004F1100898E80151F8EEE54AB5F9247050
:10AAD000C2ED000A93ED044A93ED037A64EEA76A8F
:10AAE00003EE907AA4EE267A04EB400004EB4808CB
:10AAF000B8EEE35AB0F9246082ED017A93ED070ACB
:10AB0000D3ED060AB8F9245025EE276A03EE106A41
:10AB1000E0EE060A04EB4C0C04EB4E0EF8EEC32AF2
:10AB2000BCF92400C2ED020A93ED0A4AD3ED096A8A
:10AB3000BEF9247062EEA73A05EE905AE4EE236A5D
:10AB4000B8EEE50AC2ED036A93ED0D3AD3ED0C0AB7
:10AB500060EE275A02EE100AE3EE250AB8EEC22A8A
:10AB6000C2ED040AD3ED102AD3ED0F3A22EE276A84
:10AB700005EE107AE2EE863AB8EEC55AC2ED053A15
:10AB8000266A93ED134AD3ED126A04EB460825EECC
:10AB9000270AB8F924C0E4EE006A05EE90CAB8EEC0
:10ABA000E52AC2ED066A93ED163AD3ED150AA36EB7
:10ABB00022EE276A5D1CE3EE060A05EA0107002F74
:10ABC000C2ED070AD4ED622AD4ED613AB0EE625AC2
:10ABD00094EEA75A77EE634AE5EE012AB0EE631AC7
:10ABE000A4EEA11AC4ED622A84ED611A82ED011A65
:10ABF000C0F2F880A766032F21D8DFE807F0E2DE75
:10AC0000481D00BF00008037000000383333333F59
:10AC100003000080C520803FCDCCCC3D000000006B
:10AC20000AD7A33B8FC2F53CE17A41C20000404203
:10AC3000000070426F12833A2046FFF7E1F8201DB2
:10AC400000F0B0FA04F1340000F0E0FDD4ED1E2A6B
:10AC5000F2EE043A22EEA35AFDEEC57A17EE902AE0
:10AC6000002A00F0B280092A00F0C180B8EEE71A8D
:10AC7000B2EE087AD4ED1D6AE46F21EE074AB1EE18
:10AC80000C0AA6EE804A84ED004ABDE8F08104F18A
:10AC9000A80E07231EF8206C032E0CD8DFE806F060
:10ACA000077002105EF8185C5EF8101C29605EF8F0
:10ACB000105C4EF8085C013B0EF1240EEAD1BEE7B1
:10ACC0005EED041A1EED027A1FED2B4A71EEC76A83
:10ACD000B0EEE60AB4EEC40AF1EE10FAEBDDF5EEE2
:10ACE000C06AF1EE10FA1EED033A40F38D805FED7D
:10ACF000372A72EEC73A32EEC35A85EE236A5FED09
:10AD00003A7AB4EEE76AF1EE10FA08D4F2EE047A79
:10AD1000B4EE676AF1EE10FAD8BFF0EE467AA6EE0E
:10AD2000A73A5FED424AB4EEE43AF1EE10FA74D479
:10AD3000B7EE001AB4EEC13AF1EE10FAD2BF0EED42
:10AD4000033AB0EE413A0EED031A1EED010ADEEDB4
:10AD5000000A1FED4D4A5EF81C0C4EED021A33EE50
:10AD6000617AE0EE030AF0EEC76AF4EEC46AF1EE2F
:10AD700010FA44BF00260EF8206CC0ED000A9AE7D6
:10AD80005EED041A1EED023A1FED5A2A71EEC35A07
:10AD9000B0EEE56AB4EEC26AF1EE10FA8BDD5EF851
:10ADA000187C0EED033AC7ED001A5EF8106C4EF8F1
:10ADB000086C02200EF8200C7DE72046FFF754F9BE
:10ADC0003DE72046FEF780FC39E794ED1D2A5FED54
:10ADD000685A1FED6B6AE76FA2EE256A87ED006A7D
:10ADE000BDE8F0817A1E62F003014F1C02E7D4ED4A
:10ADF0001D0A5FED721A1FED723AE16FA0EEA13AE3
:10AE000081ED003ABDE8F0815FED760A37EE202A49
:10AE100073EE205A85EE826A71E74EED034AB0EE7A
:10AE2000643A92E72DE9F00100230024DFF8608006
:10AE3000164FDFF860C0C0F84011FF26202504211E
:10AE400046708570C0F82481C0F82C71C0F810419C
:10AE5000C0F81441C0F81841C0F81C41C0F84421A2
:10AE6000C0F83811C0F828C180F83C31A0F80E3184
:10AE70000370838080F83431C0F83031C0F8483135
:10AE800080F82031BDE8F001704700BF09D7233AB0
:10AE90006F12833A0AD7A33B002310B42021FF246A
:10AEA000042244708170C0F83821A0F80E3103707C
:10AEB000838080F83431C0F83031C0F848315DF813
:10AEC000044B704738B590F8203190ED477AD0EDBB
:10AED0004A6A80ED470A002BB7EE006AFFEE007A5F
:10AEE00008BFF0EE467A66EEA70A30EE470A90F801
:10AEF0003411B4EEE00AF1EE10FA0446D4BF00209B
:10AF00000120814284F8200131D0D4F8301184F836
:10AF10003401062929D8022994BF00210121D4F83F
:10AF200038511DB16B1EC4F8383102210025C4F818
:10AF3000305120461DF03CF9022884F83C011ED017
:10AF400012D304283AD8FF2120220423A4F80E515A
:10AF50002570A58084F83451C4F83051C4F84851A4
:10AF60006170A270C4F8383138BD0221D7E7D4F837
:10AF7000303194F83C015D1CC4F8305138BDD4F830
:10AF80004831D4F84451AB4209D24FF48072D4F81E
:10AF90004051E11D9AB903F58071C4F84811FF25AD
:10AFA0002021002304226570A1702370A38084F8FF
:10AFB0003431C4F83031C4F8382138BD38BDE81810
:10AFC0001EF06BF9D4F8483194F83C01E3E700BF78
:10AFD00000B54FF4003083B001211DF039FF02A904
:10AFE0004FF450634FF0000C41F8083D02226946CF
:10AFF0004FF090408DF806C08DF807C08DF8042002
:10B000008DF805201DF068FC4FF0904008210522C6
:10B010001DF0DAFD4FF090400A2105221DF0D4FD0D
:10B020004FF090400B2105221DF0CEFD03B05DF8DE
:10B0300004FB00BF30B5114C85B00D464FF4804085
:10B0400001211DF021FF20461DF0BAFF00234FF41F
:10B05000007220466946ADF80020ADF80230ADF828
:10B060000430ADF80630ADF80C3002951EF01AF839
:10B07000204601211EF086F805B030BD00380040A2
:10B080002DE9F043224CDFF89480064601208DB074
:10B090000D4601461DF0DCFE204600211DF010FB90
:10B0A00020461DF05DFA06F1080100234FF0100C58
:10B0B0004FF0800E4FEA8509204602914FF400526E
:10B0C00001A94FF480754FF480672026CDF80CC09D
:10B0D00005930B93CDF818E00A92ADF81090CDF8D7
:10B0E00004800795089709961DF0BCFA20460621B2
:10B0F0000122084C1DF0F2FA4FF40041216006488D
:10B10000022101221EF04EF80DB0BDE8F08300BF11
:10B110005800024000E100E0003800400C380040D8
:10B1200070B50A4B15460022044618600E46426070
:10B130000560FFF74DFF20463146FFF77BFF2046B5
:10B140002946BDE87040FFF79BBF00BF7068002034
:10B150004160024801211DF0B3BA00BF580002400F
:10B1600008B50E4B1A684FF4C021596091030AD4F8
:10B17000530300D408BD0A48026892E80A0002F1AD
:10B180000800984708BD064B1B6893E8060001F1CC
:10B19000020C03EB8C00904708BD00BF000002408A
:10B1A0007068002008B505481DF0E6FE04481DF053
:10B1B000E3FE0448BDE808401DF0DEBE006001402B
:10B1C00000640140006801402DE9F04F012193B077
:10B1D00081464FF080501DF057FE4FF40070012162
:10B1E0001DF030FD4FF4806001211DF02BFD4FF468
:10B1F000006001211DF026FD4FF0807001211DF03F
:10B2000035FE4FF0007001211DF030FE01214FF09E
:10B2100080601DF02BFE4FF028401DF02DFD022018
:10B2200001211DF015FE4FF4802001211DF010FEBC
:10B230004FF4801001211DF00BFE01214FF400108E
:10B240001DF006FE634D00201DF080FE0027032147
:10B250004FF040624FF0804305F1080405F1B40A55
:10B260008DF80B708DF80A70049706978DF808100A
:10B270000392059354F8080C01211DF053FE54F875
:10B28000080C4FF400411DF095FE0128F7D0A86886
:10B2900000280FDD2E464FF00008318B70690191B8
:10B2A00001A91DF019FBAA6808F10108424506F141
:10B2B0001006F2DC54F8080C01211DF03DFE54F894
:10B2C000080C4FF000411DF075FE0028F7D054F82F
:10B2D000083CA968ADF8281007F1100B03F16002D3
:10B2E000802109EB4B0300264FF4806E54F8040CC8
:10B2F0000792089320224FF400530C914FF480786A
:10B3000007A9CDF838E00F92109309960B96119685
:10B31000CDF834801DF0A6F954F8080C314603AA84
:10B320001DF0DCFDA868B042B34614DDA84698F8CD
:10B330000CC058F8103F54F8080C49F82C70002243
:10B3400019464BEA030B1DF0DBFDAA680136B24239
:10B3500007F10107EBDC594654F8080C1DF012FE0A
:10B3600054F8080C00211DF011FE54F8080C0421BB
:10B370001DF0F6FD54F8080C00211DF0DDFD54F819
:10B38000080C4FF000411DF015FE0128F7D054F8CD
:10B39000080C1DF0EBFD54F8080C01211DF00AFE0D
:10B3A0000028F8D054F8040C01211DF089F93C352F
:10B3B00054F8080C4FF4803101221DF0F1FD554581
:10B3C00004F13C047FF456AF4846FFF7EBFE13B0A0
:10B3D000BDE8F08FACB703082DE9F041012188B03A
:10B3E00005464FF480001DF033FD4FF4003001217D
:10B3F0001DF02EFD08AF4FF4805001211DF036FDE9
:10B40000802347F81C3D002402264FF001083946EE
:10B4100032488DF808808DF809608DF80A408DF863
:10B420000B401DF059FA394640222C488DF808602F
:10B430008DF8096001928DF80A408DF80B401DF0DF
:10B440004BFA0522254806211DF0BEFB39464FF078
:10B4500090404FF480578DF808608DF809608DF8A2
:10B460000A408DF80B4001971DF036FA4FF09040DE
:10B470000C2106221DF0A8FB4FF400764FF4827ECB
:10B480004FF4706C3822072303A91548ADF80EE07D
:10B49000ADF810C0ADF81820ADF81C30ADF80C4078
:10B4A000ADF81240ADF81440ADF81A40ADF8166092
:10B4B0001DF0BCFD4146A84609481DF053FE48F862
:10B4C000044B48F8044BC8F80040EC602C616C61F8
:10B4D000AC61EC6108B0BDE8F08100BF0014004829
:10B4E000003001400246002370B442F8043B42F8A9
:10B4F000043B70BC1360C360036143618361C3613B
:10B50000704700BFD0F800C08169426903692DE926
:10B51000F0031CF47F0F47688668C568C469DFF8CC
:10B5200000810CBF4FF000094FF001091CF47F4F60
:10B530000CBF0020022017F47F0F49EA00090CBF5E
:10B540000020012017F47F4F40EA890C0CBF002730
:10B55000022716F47F0F4CEA07090CBF00200120D8
:10B5600016F47F4F40EA89070CBF0026022615F427
:10B570007F0F47EA060C0CBF0020012015F47F4F17
:10B5800040EA8C070CBF0025022514F47F0F47EA20
:10B5900005060CBF0020012014F47F4F40EA860707
:10B5A0000CBF0024022411F47F0F47EA04050CBFEE
:10B5B0000026012611F47F4F46EA85090CBF0021C1
:10B5C000022112F47F0F49EA010C0CBF0020012078
:10B5D00012F47F4F0CBF0027022740EA8C0213F4BD
:10B5E0007F0F0CBF0025012542EA070413F47F4FAB
:10B5F00045EA84060CBF4FF000094FF00209802392
:10B6000046EA0900C8F8183000BF054A4FF0800824
:10B61000A2F8288000BF0349BDE8F0038881704785
:10B6200000140048003001402DE9F043012193B09F
:10B6300007464FF400701DF019FC4FF440401DF018
:10B640000FFB4FF4003001211DF002FC01200146E8
:10B650001DF0FEFB00257F234FF003084FF09040C4
:10B6600001A907240193DFF8A0918DF80B504FF446
:10B6700080668DF80A508DF808801DF02DF94FF086
:10B68000800C4FF4807E4FF4005320225C48CDF8AC
:10B6900030C007A9CDF834E010930F92CDF81C907C
:10B6A0000E96089709950B951195ADF828401CF05A
:10B6B000D9FF534801211DF003F84FF001094FF461
:10B6C00000625048059203A94FF460268DF80D5092
:10B6D0008DF818408DF80C9004961CF09DFE2946BC
:10B6E0004A46234647481CF0CFFE02210A4623461D
:10B6F00044481CF0C9FE41464246234641481CF0DE
:10B70000C3FE494623463F4804221CF0BDFE2346A3
:10B710003C48062105221CF0B7FE23463948052186
:10B7200006221CF0B1FE22462346364804211CF0B6
:10B73000ABFE344849461CF091FE32481CF09EFE98
:10B7400030481CF009FF0028FAD12E481CF090FE6A
:10B750002C481CF0FDFE0028FAD12A4801211CF0DB
:10B76000EDFE38464FF4004120F8021B0E378742A9
:10B770004FF006053ED03DB3012D1FD0022D19D04C
:10B78000032D13D0042D0DD0052D07D0062D18BF85
:10B7900020F8021B4FF4004420F8024B4FF4004302
:10B7A00020F8023B4FF4004620F8026B4FF40048AB
:10B7B00020F8028B4FF4004C20F802CB4FF4004EDF
:10B7C00020F802EB874215D081464FF4004229F859
:10B7D000022B103020F80E2CA9F8022020F80A2C99
:10B7E00020F8082C20F8062C20F8042C20F8022C35
:10B7F0008742E9D103481CF09BFE13B0BDE8F083FB
:10B8000008000240002401404C24014001481CF083
:10B810008FBE00BF0024014070B5012182B00546F3
:10B820004FF480201DF014FB174C0023A288E05831
:10B8300000924FF0010C694602268DF807C08DF882
:10B8400004308DF806308DF805601DF045F8A189AB
:10B85000A068009169461DF03FF8A38A2069009313
:10B8600069461DF039F8A28BA069009269461DF067
:10B8700033F82846FF2400F8014B00F8014B047010
:10B88000EC7002B070BD00BF60B803082DE9F04154
:10B89000154C05460746A188206815F8038B1DF056
:10B8A0008DF93E4640EA480006F8010BA068A189E0
:10B8B00096F800801DF082F940EA480106F8011B65
:10B8C0002069A18A36781DF079F940EA460205F828
:10B8D000012CA18BA0692C781DF070F940EA44037B
:10B8E000FB70BDE8F08100BF60B803082DE9F84F98
:10B8F000054600F5085342F230283033DFEDDC7A9C
:10B90000DC4A9FEDDD7A05F61C5A05F552690C46B6
:10B9100005F6245145F808A000264FF07E5E05F696
:10B92000B85B05F6BC5A85F8286DC9F800E0C1F887
:10B9300000E0C3F804B005F55C6185F8C46D05F559
:10B94000626BCAED007A05F6246AC1ED007A05F64D
:10B950001C690121C3F80890C3F80C9000F5F85C4D
:10B9600085F8281E05F5F658CBF800E0CAF800E087
:10B9700005F5F75A00F501570CF10C0B08F11C08FE
:10B98000C3F81090C3F8148007F108098AF808601A
:10B99000CAED007ACAED017AC3F818B005F1B00A11
:10B9A0004FF07C5B8CF81860CCF81020CCF8142099
:10B9B000B248C3F81C9005F59E7CC7F80CB0C7F8D8
:10B9C00010B03E7505F582791D6205F5E0782E739D
:10B9D0006A60AA6005F51F77C3F824A005F5317BDE
:10B9E00005F2544A85F8BC60C5ED2D7AC5F8B8005B
:10B9F000C3F82890C5F80801C5F80C0185F8106156
:10BA000005F25C49C3F82CC0C5F8440185F84861CB
:10BA1000C5ED507A05F58B6CC3F8308085F8CC61A4
:10BA2000C5F8C421C5F8C8215F63C5F88002C5F810
:10BA3000840285F8886205F2FC57C3F838B085F8AF
:10BA4000D062C5F8C822C5F8CC22C3F83CA005F5E1
:10BA5000C06A85F8606405F5BF688CED007ADFF890
:10BA60002CB2C9F8002005F20C6CC3F8408085F8B0
:10BA70000466C7F800B0CAF800E005F5D267C3F85D
:10BA800044C005F2946CBFEE000A05F5C26005F2F1
:10BA9000146805F28C694FF0404B85F8186605F282
:10BAA000747A80ED000A05F26C7088ED000AC3F824
:10BAB000489005F5EE6885F89866C7F800B0CCF8B0
:10BAC00000E005F50C6CD86405F6B80785F8781722
:10BAD00005F6BC0988ED000A05F6FC1E05F5206098
:10BAE00005F60428CAF800201F6505F6BC2A85F86B
:10BAF000C41805F6B82789ED000ACCF80020C3F871
:10BB000054E005F6DC3C05F53E6E85F8081A05F6AE
:10BB1000B42B026005F6D839C8F80020182005F5C6
:10BB20000A58C3F858B085F8C01A08F1100B3A60EB
:10BB3000CAF800201F1FC3F85C9085F8E41BCCF8FE
:10BB40000020CEF80020186657F8040F63680268DA
:10BB5000E16823601368A16021469847DBF8003054
:10BB60000136B342F0DC5C1E05EE904A05F5055E39
:10BB700042F27C180022DFF818B1CEF83420F7EE3C
:10BB8000001AB8EEE51ACEF83820CEF82820CEF804
:10BB90002C20CEF83020CEED091A002445F80830CC
:10BBA00042F29019CEF840B042F2941C05F5085BC1
:10BBB000CEF848208EED111ACEF84C4005F506510E
:10BBC000DE4605F507569FED2E6ADFED2E6ADFEDA6
:10BBD0002E0A05F809404FF0FF3745F80C70D9469A
:10BBE000F046F4468A61F2638BED006ACBED016AA0
:10BBF000CBED020ACBF81020CBF80C204FF07C5B89
:10BC0000C6F838B006F11003CEF818208EED076A9A
:10BC100042F2A01AC9ED086AC9ED090AC9F82C2038
:10BC20008E46C8F82820CCF814B08A63C1ED101AEB
:10BC3000CA63C1F844B08A6481F84C4006F130010F
:10BC40008B4205F80A40CEF81C2073630AD01E46CA
:10BC500046F8042B46F8042B3260DA601A615A6108
:10BC60009A61DA6142F2F01400222A51BDE8F88F9D
:10BC70003333333FCDCC4C3F333333BF9A99193FE5
:10BC800022BA003D0AD7233CCAAA7F3F000040C029
:10BC9000CDCC4C3D2DE9F04F054642F2F01600F5B3
:10BCA000075055F806E0D2F818A09FEDE47ADFEDD2
:10BCB000E46A00F130080EF10704D8F8040004F03B
:10BCC000070400EB8E0B04F1050904F1060C09F0E2
:10BCD000070E0CF007082DED0C8B174692F8232069
:10BCE000CBF800A000EB8E0A00EB8800DAED007ABA
:10BCF00090ED006AD7ED04BAAC5136EE670A8FB00A
:10BD0000E0EE077A0E46039397ED05BA97ED03CA66
:10BD1000D7ED078A97ED01AAF4EEE67AF1EE10FA74
:10BD2000F0EE670AD4BF00210121002A00F05585FA
:10BD300096F8320042F2A019012815F809A001F086
:10BD4000498496F82E0097F824400494012896ED33
:10BD5000081A01F03584B0EEE8DAB5EEC01AF1EE5B
:10BD600010FA01F11181B7EE009AB4EE491AF1EE22
:10BD700010FAD8BFB0EE419A96F82D00D6ED091A08
:10BD8000012804BFD7ED006A71EEA61AF5EEC01ABD
:10BD9000F1EE10FA01F1F480B7EE008AF4EE481AE1
:10BDA000F1EE10FAD8BFB0EE618ABAF1000F40F0A0
:10BDB0006582002900F06A8242F2A010049C0123EF
:10BDC0002B5424B942F2CC12AB5497F8232005F53A
:10BDD000065BDE460BF13809D7F800804FF07E5144
:10BDE000C9F800109346CEF8188022B905F5065C14
:10BDF0003868CCF8180096F82D30D6ED072A002BBD
:10BE000040F0E78405F50654D4ED065A05F50552D1
:10BE100002F13C0E9EED023ADEED033A9EED045A2D
:10BE20009EED014AE5EE833A42F27C11F8EEE24AD9
:10BE3000F8EEC59A73EEA4AAFFEE00CAF4EEE9AAE2
:10BE4000F1EE10FAF7EE00DAC8BFF0EE6CDAE4EECD
:10BE50002DAAB6EE007A7AEE876AFDEEE67A17EE44
:10BE6000904A002CC1F201846858844200DB441ED1
:10BE700042F2941305F50858EA58CEF8104008F13C
:10BE8000300CA2425CF8248000F04E866D4B1A788C
:10BE9000552A00F05486A31E022B01F2ED806A4A57
:10BEA00052F82310D8F80000836840469847D8F825
:10BEB000001040464A68904705F5075C05F5055BAC
:10BEC0004FF07C50CCF83800002342F2941242F23A
:10BED0009010CBF82830CBF82C30CBF83030CBF8A2
:10BEE0003430CBF838304FF07E510023CBF824109B
:10BEF000AC5097F823B02B5442F2A01196F83100C1
:10BF00006A5C8DF83400002A00F060848AF0010A2F
:10BF100005F5065C9CED076A8CED07AA3AEE060A69
:10BF2000F6EE000A60EE20CABBF1000F00F04A8472
:10BF3000002A0CBF0021042141EA0A0007909FED6E
:10BF4000431A9FED43AADFED431A9FED432ADFED2D
:10BF50003C2A424A4249DFED485A99ED003AA9EE9F
:10BF600001AA68EE828AFDEECA3A3DEE22DAB8EE08
:10BF7000E34AC8EE8D9A7AEE444A13EE903A64EEA4
:10BF8000A1AA02EB830EFDEEEA6A9EED005A16EEC0
:10BF9000900A01EB800ADAED007A25EE276AB7EE07
:10BFA000007A26EE25AAF0EE00DAF1EE4A8AB0EE2B
:10BFB000470AA8EEAD0AF5EEC09A60EE03AAF1EECC
:10BFC00010FAC9ED00AA00F1CC87F4EE479AF1EE21
:10BFD00010FAC8BFF0EE479AD6ED010A049B9FED18
:10BFE000211A3CEE20CA002BB5EEC0CA18BFB0EE35
:10BFF000691AF1EE10FA4FF000028DED0C1A00F103
:10C00000B887F7EE001AB4EEE1CAF1EE10FAC8BF35
:10C01000B0EE61CA8DED0BCA0F2C00F05685072CCF
:10C0200001F04681F7EE00DA97F8214097F820A05A
:10C0300097F82290B0EE6DDA2AE000BF0000000011
:10C040009A99993EFE7F0008E4D202080000C0C21F
:10C0500000000043000080436666A63F24F5030805
:10C0600028F90308CDCC4C3FCFF7DF400000404219
:10C070000000EEC20000F042CDCC4C3D6666863F2B
:10C0800000000000000000C30000FE42CDCCCC3D0B
:10C0900096F82C20002A40F08183D6ED0A6A1FED25
:10C0A0000E7A26EE870A1DF013F9F0EE087A30EECC
:10C0B000676AB2EE080AE6EE00CAD6ED040A1FED82
:10C0C000121A1FED12CAD6ED001AD7ED023AB0EEE1
:10C0D000E02A72EE412A2DEE2ADAF4EEC12AF1EEC0
:10C0E00010FA58BFB0EE621A60EE815A7CEEA1CA17
:10C0F00025EE8C3ABAF1000F09D1BBF1000F00F028
:10C10000D0842DEE2A4A5FED274A64EE243AE3EE0E
:10C1100023CA1FED295AF4EEC5CAF1EE10FA00F158
:10C120003A835FED2C6AF4EE66CAF1EE10FAC8BFEE
:10C13000F0EE66CA96ED057A5FED317A1FED310AB1
:10C14000CDED08CAB0EEC76A76EE670A96ED021A20
:10C15000F4EEE70AF1EE10FA58BFF0EE607A27EE3F
:10C1600027CA6CEE001A2CB9BBF1000F00F09584C1
:10C170006DEEAABAF0EE41AAE1EEABAAF5EEC0AAC6
:10C18000F1EE10FA00F1F886F7EE00BAF4EE6BAAC1
:10C19000F1EE10FACCBFF0EE6BDAF0EE6ADA96ED63
:10C1A000062A5FED4B2A5FED4B5ACDED09DAB0EE72
:10C1B000C23A73EE623A96ED034AF4EEE23AF1EED9
:10C1C00010FA58BFF0EE632A62EE224A24EEA55A16
:10C1D000B9F1000F06D11FED56BABBF1000F18BF21
:10C1E000B0EE4DBAB0EE44DAA5EE0BDAB5EEC0DA39
:10C1F000F1EE10FA00F1B986B7EE00BAB4EE4BDA00
:10C20000F1EE10FAC8BFB0EE4BDAD8F80010249B5C
:10C2100098F80CA0009305F50B5E0DF11B0405F5D5
:10C220000A5B0EF1340901940BF1140B4B46CC68F8
:10C230008DED0ADA5A468DF81BA0404607A9A047A3
:10C2400096F82F3053B3DDED086A5FED72CAB2EE97
:10C25000027A76EEC77AF4EEEC7AF1EE10FA01F19A
:10C2600053801FED770AF4EEC07AF1EE10FA41F335
:10C27000C7814FF0000CFF2201F049B81FED7D2A65
:10C28000F4EEC20AF1EE10FA00F10F8405F5065C37
:10C290000CF138099346A8E5CEED00BA249B591E4F
:10C2A00096F82D0096F82C20B0F1020EDEF1000475
:10C2B00054EB0E03022A00F06082002B00F0E580B0
:10C2C000F6EE001AD7ED006A71EEA61AF5EEC01A66
:10C2D000F1EE10FA00F15C82F7EE00BAF4EE6B1AA0
:10C2E000F1EE10FAC8BFF0EE6B1A249B002B00F0A1
:10C2F000CB8059ED18DA99ED00BA24987BEE6D7A6F
:10C3000005EB800AE1EEA7DA0AF50B5C0CF1340EBE
:10C310004C46C9EB0E02E4EC01DA131F7445C3F37B
:10C32000820000F0B180002853D0012845D00228B7
:10C3300039D003282DD0042821D0052815D006286F
:10C3400009D054ED18AAD4ED002A32EEEA3AE1EE13
:10C3500083AAE4EC01AA54ED183AD4ED005A35EE64
:10C36000E34AE1EE843AE4EC013A14ED187A94EDF4
:10C37000002A72EE474AA1EEA47AA4EC017A14EDE9
:10C38000185A94ED00DA7DEE45CAA1EEAC5AA4EC41
:10C39000015A14ED180AD4ED000A30EEC0CAA1EE1D
:10C3A0008C0AA4EC010A14ED186A94ED001A71EEDF
:10C3B000466AA1EEA66AA4EC016A54ED18BAD4ED5F
:10C3C00000DA3DEEEBBAE1EE8BBAE4EC01BA74456B
:10C3D0005AD0CDF8148054ED187AD4ED00AA7AEE34
:10C3E000E72AA046E1EEA27A04F11C0C2034E8EC26
:10C3F000017A18ED183A54ED073A73EEC35AC24663
:10C40000A1EEA53AAAEC013A1AED184A98ED012AD4
:10C4100014ED1D7A14ED055A14ED1CDA14ED040A1E
:10C4200054ED1B0A14ED036A14ED1A1A54ED19DACF
:10C4300054ED02BA14ED01BA72EE444A75EE47CAE1
:10C4400030EE4DCA76EE606AA1EEA44AA1EEAC7A57
:10C45000A1EE8CDAE1EEA60A7BEEC17A7BEE6DAA44
:10C46000A1EEA71AE1EEAADA04ED064A04ED057A78
:10C4700004ED04DA44ED030A74450CED011A44EDB1
:10C4800001DAA8D1DDF8148001239DF81B2042B900
:10C49000049C002C40F0B88197F82370002F40F0E6
:10C4A000B38105F50650DFEDD2CA0022B7EE000ACF
:10C4B000B6EE009A012780F84C20C0ED0FCAC0EDFF
:10C4C00012CA80ED100A80ED119A3C46D8ED010A9F
:10C4D000F5EEC00AF1EE10FA00F1118201F1E380ED
:10C4E000DFEDC49A20EEA9CAF0EE6C8AB0EE49BA2C
:10C4F000F0EE40AA002C00F0C285249C002C00F035
:10C500008D80BBEC019A039A6CEE09CA01F0030618
:10C51000BDEEEC0A481E10EE103A03F1010C0CF3CC
:10C520000F0E22F804EB131D002977D0AEB3012EB5
:10C5300021D0022E0FD0BBEC01DA2CEE0D5A0138BF
:10C54000FDEEC50A043310EE90AA0AF1010404F3CB
:10C550000F0223F8082CFBEC019A2CEE296A013813
:10C56000BDEEC61A043311EE106A06F1010C0CF38D
:10C570000F0E23F808ECFBEC01BA6CEE2BDA013855
:10C58000FDEEED6A043316EE90AA0AF1010404F3FD
:10C590000F02441C23F8082C40D05E46F6EC017ACA
:10C5A000DBED021A96ED00AA9BED033A0BF1100B9E
:10C5B0006CEE0A2A2CEE278ABDEEE22A2CEE034A04
:10C5C000FDEEC83A2CEE217A12EE10EAFDEEC45AC6
:10C5D0009A4613EE90CAFDEEC74A0EF1010215EE1F
:10C5E00090EA02F30F060CF10104043804F30F047F
:10C5F00014EE90CA23F8044C2AF8046B0EF10104DF
:10C6000004F30F06441C0CF1010203F1100302F3C2
:10C610000F02AAF8002023F8086CBED1D8ED02CA98
:10C62000F5EEC0CAF1EE10FA00F1B68200F17783A0
:10C630009FED709A6CEE89DA002F00F07583249DCF
:10C64000002D00F09580B9EC01BA03986DEE8BAA2D
:10C6500001F00307FDEEEA8A00F10A0318EE90AA42
:10C6600001F1FF3E0AF1010606F30F08A0F802806F
:10C6700000297DD0D7B3012F23D0022F10D0B9ECE1
:10C68000013A6DEE837A0EF1FF3EFDEEE7CA1CEE35
:10C69000901A4C1C04F30F0523F8045C039B0E3323
:10C6A000B9EC019A2DEE89AA0EF1FF3EFDEECA3AD1
:10C6B000043313EE90BA0BF1010707F30F0023F8D0
:10C6C000080CF9EC012A6DEEA26A0EF1FF3EBDEEF8
:10C6D000E67A1EF1010717EE10CA03F104030CF10C
:10C6E000010202F30F0623F8086C41D0CA46BAECE7
:10C6F000018A99ED024A9AED002AD9ED030A09F15F
:10C7000010096DEE884A2DEE82DAFDEEE45AFDEE58
:10C71000CD9A2DEE841A2DEEA05A194619EE905A94
:10C7200015EE908AFDEEC1BABDEEC5CA08F101044E
:10C730006F1C04F30F0207F30F0B23F8042C1BEEFE
:10C7400090CA21F804BB1CEE100AAEF1040E0CF1E5
:10C75000010606F30F0AA1F800A01EF1010100F185
:10C76000010503F1100305F30F0423F8084CBDD1B4
:10C770000FB0BDEC0C8BBDE8F08FD6ED0A1A002B84
:10C780007FF4A0ADF5EEC01AF1EE10FA7FF5A4AD7E
:10C79000DFED171AA9E5F0EE45CACBE4012A7FF4D4
:10C7A0008CAC96ED0A3ADFED143A23EE230A1CF026
:10C7B0008FFDB1EE084A70EE444AB1EE0C5AE4EE39
:10C7C00085CA7AE402230793FFF7B9BB9246FFF7C5
:10C7D0009FBBDFED075AFFF719BB42F2A01397F892
:10C7E0002440049415F803A096ED081AFFF7B3BA95
:10C7F0000000000000FEFFC6E7FB4F41000090C2B2
:10C80000000000430000804396F82F60002E40F0A7
:10C8100057810027F2EE081A68EE212A1FED093A27
:10C820005FED093A1FED094ACA4BCB4ADFEDCB5AFF
:10C83000049CE9EE032A32EEA39ABDEEC92AB8EEB3
:10C84000C27A12EE10EA79EE474A03EB8E0024EE2C
:10C8500084DA90ED005AFDEECDCA1CEE90AA02EBF0
:10C860008A0C9CED000A65EE000AE0EEA58A002C19
:10C8700000F08E8305F5065E0EF13C0A9AED000A83
:10C88000DFEDB75A9FEDB7DAD8ED010AF7EE002ACF
:10C8900032EEC04A39EEC03A60EE003A24EE047A35
:10C8A00023EEA32AB5EEC03AF1EE10FAB7EE009AE5
:10C8B000D8BF72EEC22A79EE474A9FEDAB9ACCBF41
:10C8C0009FEDAAAAA8EEA2AA0024A8EE247AA2EEBE
:10C8D000259AA3EE0A0A28EE075AA8EE0D9A68EEEA
:10C8E00005CAF5EEC00AF1EE10FA8AED000A8AEDEB
:10C8F000010ACAED03CA8AED029A7FF5EFAD249BC7
:10C90000B1EE60CA002B00F0CE865A46B2EC016A46
:10C910009FED9B1ADFED9BBA05F5075C0CF1380E15
:10C920006CEE06DADEED006AB0EEEDBA7BEE667A0A
:10C93000F7EE00AAF5EEC07AF1EE10FAC8BFF0EEFD
:10C9400041BAE7EEAB6A01F00100F4EEEA6AF1EEFB
:10C9500010FACEED006A01D9CAEEA6AA4E1E6DEEFF
:10C96000AA8ADFED891A28EEA1AA02ED01AA002900
:10C9700000F0888060B3B2EC018ADEED002A9FED02
:10C98000803ADFED803A9FED80DA2CEE082AB7EE90
:10C99000007AB0EEC24A74EE624A013EF5EEC04A39
:10C9A000F1EE10FAC8BFF0EE433AE4EEA32AF4EE3B
:10C9B000C72AF1EE10FA88BF87EE227A701CCEEDFE
:10C9C000002A62EE075A25EE8D5A02ED015A59D01F
:10C9D0009246FAEC010ADEED009A9FED696A9FED3E
:10C9E000691ADFED697ADFED66AADFED668A6CEE23
:10C9F00020BAF7EE00DAF0EEEB6A36EEE9BA52460C
:10CA0000B5EEC0BAF1EE10FAC8BFB0EE461AEBEEC2
:10CA1000019A731EB7EE007AF4EEED9AF1EE10FA79
:10CA200088BFCDEEA9DACEED009A6BEEAD1A21EEFD
:10CA3000A7AA0AED01AAB2EC018ADEED002A2CEECB
:10CA4000083AF0EEC33A33EEE22AB5EEC02AF1EE30
:10CA500010FAC8BFF0EE6A8AE2EE282AF4EEC72A7E
:10CA6000F1EE10FACEED002A01D987EE227A5E1E91
:10CA70009FED454A63EE074A64EE845A42ED015A3F
:10CA8000002BA5D105F5075CE6469CED01BADCED6F
:10CA9000028ADCED00AA00F00CBEDFED35BAFFF72C
:10CAA00069BBF7EE003AFFF732BB42F2A014002157
:10CAB00005F50659295509F138099346FFF795B947
:10CAC000002B7FF4A6AE0127A4E69DED0B2AF1EE24
:10CAD000082AF0EE005AE2EE625AF5EEC05AF1EE84
:10CAE00010FA00F12386B7EE00DAF4EE4D5AF1EEBB
:10CAF00010FAD8BFB0EE65DABBF1000F00F04C853C
:10CB000097F82030002B40F01E86346997F82200F9
:10CB100005F5BE610C60002840F010869A468146FB
:10CB2000D6F818E000F042BD42F29011685C00288F
:10CB30003FF4E2A90F4B1A78552A7FF4ACA90E49AD
:10CB4000087804F1200B58457FF4A5A90B49FFF79D
:10CB5000A9B900BF24F5030828F903080AD7A33BA5
:10CB60009A99993E0AD7233DA69B443B9A99193F2F
:10CB700000000000FE7F0008FF7F00080070000832
:10CB8000CDCC4C3DACC5A737CDCC4C3F00FEFFC64D
:10CB9000D7573941DB0F4940249BF1EE6CDA002B6B
:10CBA00000F0BD80CC46BCEC01AA5FED0B3A5FED16
:10CBB0000B2A05F5085808F1140B6DEE8A6A9BEDF7
:10CBC000007AB0EEE68A38EE474AB7EE002AB5EEB4
:10CBD000C04AF1EE10FAC8BFF0EE632AA4EE227A42
:10CBE00001F00106B4EEC27AF1EE10FA8BED007A94
:10CBF00001D982EE072A4C1E66EE825A5FED1E4A6C
:10CC000025EEA4DA0CED01DA002900F0888066B385
:10CC1000FCEC010ADBED009A1FED271A1FED275AE5
:10CC20001FED273A6DEEA0BAB7EE006AB0EEEBCA80
:10CC30003CEE690A013CB5EEC00AF1EE10FAC8BF3D
:10CC4000B0EE415AE0EE059AF4EEC69AF1EE10FA13
:10CC500088BF86EE296A661CCBED009A6BEE861AB9
:10CC600061EE837A4CED017A59D0E646FEEC01CABA
:10CC70009BED009A1FED3EAA5FED3E3A1FED3E4A46
:10CC80001FED412A5FED414A6DEEAC2AF7EE006AD6
:10CC9000B0EEE27A37EE498AF446B5EEC08AF1EE9C
:10CCA00010FAC8BFF0EE4A3AA8EE239A621EB7EE19
:10CCB00000CAB4EEE69AF1EE10FA88BFC6EE896AB1
:10CCC0008BED009A62EEA65A25EE84DA0EED01DABB
:10CCD000FCEC010ADBED009A2DEEA01AB0EEC15A71
:10CCE00075EE69BAF5EEC0BAF1EE10FAC8BFF0EE13
:10CCF000424AEBEEA49AF4EECC9AF1EE10FACBEDA8
:10CD0000009A01D98CEE29CA541E1FED616A21EEEA
:10CD10000C0A60EE061A4CED011A002AA5D15FED4F
:10CD200065DA002F7FF48BAC1FED676A1FED670A91
:10CD30006BEE061AF7EE00CAA1EE8B0A05F5085E47
:10CD40000EF11804B0EE043A20EE0BBAB0EE6C9A75
:10CD5000ABEE039A05F5085303F11C08D4ED006A05
:10CD600088ED00BAABEE0B9AB0EE66AACCEE893A2B
:10CD70009DEEAAAADDED24DAC8ED023AF8EE6DAA1E
:10CD80001DEE907A88ED013ACAEE2A2A002F00F0B3
:10CD9000E180039D01F0010605F10A074A1E98EDA6
:10CDA000037AB9EC018A98ED042A76EEA26A63EE62
:10CDB000477AB1EE4BDAE8EE267AEDEE077A37EEF7
:10CDC000C24A63EE844AABEE247AABEE072AF0EE59
:10CDD000470AF0EE425AD8EE265AB0EE421AA5EEB5
:10CDE000A82AEBEE240AABEE071ABDEEC25A88ED74
:10CDF000041A15EE10BAC8ED030A0BF1010CF0EE9F
:10CE000060CA0CF30F0AF0EE41DAA5F802A000297F
:10CE100000F0A080BEB3B9EC01CA039876EEA26A16
:10CE200063EE60BAF0EE601AECEE26BA013AB0EEAC
:10CE3000413AEDEE20BA3BEEC16A23EE860AEBEEF4
:10CE4000001AABEE213AF0EE61CAB0EE439A9CEEC6
:10CE5000269AF0EE43DAA9EE283AEBEE00CAEBEEA2
:10CE600021DAFDEEC3AAC8ED04DA1AEE901AC8ED75
:10CE700003CA01F1010E0EF30F0327F8043C531C03
:10CE800000F10E0766D0B0EE047AF9EC014A36EEF6
:10CE9000A22A27EE6C8A72EE226AA4EE828A3E46AD
:10CEA000023AADEE2C8A78EE6D7A23EEA74AEBEECD
:10CEB00004CAEBEE2CDAF0EE6C0AB0EE6D5AEBEE33
:10CEC000040AABEE2C5AC8ED030A88ED045AF9ECBB
:10CED00001BA67EE605AF0EE609AEBEEA65AB0EE39
:10CEE0006D1AEDEE205A94EE821A35EEC56AE1EE27
:10CEF00028DA63EE861ABDEEED0AEBEE219A10EE0B
:10CF0000105AABEE295A05F1010B0BF30F0CB0EEE2
:10CF1000693AB0EE459A9BEEA69A27F804CCF0EE5B
:10CF200045DAA9EE285AABEE213AEBEE29DABDEE4E
:10CF3000C5AAC8ED04DA1AEE10AA88ED033A0AF180
:10CF4000010101F30F0326F8043B371D561CF0EED8
:10CF500043CA98D1C4ED006A0FB0BDEC0C8BBDE89C
:10CF6000F08FDFEDDF9AFFF737B89FEDDDDAFFF7DF
:10CF70004CB90B92FFF750B8DFEDD9DAFFF70FB9D4
:10CF80009FEDD78AFEF711BF9FEDD59AFEF7F4BE4D
:10CF9000DDED089A9FEDD3CAB2EE026A39EEC61AE9
:10CFA000B4EECC1AF1EE10FA00F15083DFEDCE6A48
:10CFB000B4EEE61AF1EE10FA40F3F684049E4FF058
:10CFC000FF0E05F5065303F13C0AC848C84B9AF812
:10CFD000104000EB8E0203EB860CD2ED002A9CED94
:10CFE000003A002C00F0898362EE830ADFEDC19ADB
:10CFF000DAED003A20EEA9CAB2EE086A2CEE061A63
:10D00000F0EE006AE1EE263AF7EE00CAF4EEEC3AF2
:10D01000F1EE10FACAED003AC0F22A8300269FED25
:10D02000B69A9FEDAFDA8AF81060B0EE6C5AF0EE67
:10D030006C3ABFEE000AF7EE007A77EEC5AAA8EECA
:10D04000AAAA0024A8EE2CDADFEDAC8AEAEE003AB8
:10D05000A8EE289A68EE0D1AB0EE630A28EE218A2F
:10D06000CAED003AF0EE48CA8AED038ACAED013AE9
:10D070008AED029AFFF72ABA0021FEF713BF9FED4F
:10D08000A0DA9FEDA05A69EE0D0AB7EE006AA0EE95
:10D09000895A05F5075000F13C0CF0EE049A25EE94
:10D0A000099AB0EE461AA9EE291A05F50853DCEDE7
:10D0B000006A83ED009AA9EE091AF0EE66BAC6EE90
:10D0C00001DADCEE00BA9DED24CAC3ED02DAB8EE57
:10D0D0004C0A1CEE104AC3ED019A8BEE80AA002C7C
:10D0E00000F0E280039A01F0010001F1FF3ED3ED70
:10D0F000031AFBEC012A93ED043A76EE8A6A69EE94
:10D10000E17AF1EE493AE2EEA67AE3EEA17A37EE61
:10D11000C38A2DEE887AE9EE071AA9EE213AB0EE1D
:10D12000612AB0EE434A92EEA64AF0EE435AA4EECC
:10D130002C3AA9EE072AE9EE215ABDEEC3DAC3ED77
:10D14000045A1DEE10AA83ED032A0AF1010606F324
:10D150000F0622F8046BB0EE42CAF0EE652A161DE7
:10D16000002900F0A180B0B3FBEC010A76EE8A6AD8
:10D1700029EEC25AF0EE42BAA0EEA65A0EF1FF3ED8
:10D180000436B0EE656AA3EE825A75EE659A2DEE0E
:10D19000A91AE9EE01BAA9EE2B6AB0EE6BCAB0EE9D
:10D1A000460A90EEA60AF0EE462AA0EE2C6AA9EEF8
:10D1B00001CAE9EE2B2ABDEEC63AC3ED042A13EEEE
:10D1C000104A83ED03CA621C02F30F0026F8080C14
:10D1D0001EF1010068D0F0EE047ABBEC014A36EE95
:10D1E0008A7A27EECC8A77EE0A6AA4EE078A34465A
:10D1F000AEF1020EA3EE8C8A38EE622A6DEE825AF0
:10D20000A9EE25CAE9EE0C2AF0EE4C4AB0EE625ABD
:10D21000E9EE254AA9EE0C5AC3ED034A83ED045A00
:10D22000FBEC019A67EEE40AB0EE64DAE9EEA60AD6
:10D23000B0EE621AE3EEA40A94EE071A30EEC56A65
:10D24000E1EE2C2A2DEE860ABDEEE2CAA9EE00DA46
:10D250001CEE10AAA9EE0D5A0AF1010202F30F000A
:10D26000F0EE4D1AB0EE453A99EEA63A26F8040CC7
:10D27000F0EE452AA3EE2C5AE9EE001AE9EE0D2A4B
:10D28000FDEEC57AC3ED042A17EE906AC3ED031ACA
:10D29000721C02F30F0024F8040B1EF10100B0EE23
:10D2A00061CA04F1040696D1CCED006AFFF7B6B965
:10D2B00097F82140BBF1000F00F0B881002C40F03E
:10D2C000B48105F5055C706997F820A0DFED04DAFC
:10D2D000CCF8180097F82290B7EE00DAFEF7D8BE27
:10D2E00000000000000000C30000FE4224F5030817
:10D2F00028F9030851969639D1229B3E0AD7233D3F
:10D30000D7573941DB0F49404FF0000C6246EB48DC
:10D31000EB4996F83040DFEDEB5A00EB820E01EB63
:10D320008C0A9EED002ADAED002A22EE223A012C28
:10D3300063EE253A00F0DC81022C04BFF5EE005AC2
:10D3400063EEA53A012B00F00182022B7EF4A6AF1A
:10D35000F5EE004AF4EEE43AF1EE10FA80F236838C
:10D360009FEDD95A9FEDD9BA23EE85DAF0EE00CAC7
:10D370006DEE0B6AEDEE66CA2DEE2C0A05F505532F
:10D3800003F1240494ED01BAD4ED007A9DED246AF2
:10D390006BEE0B0A05F5055CE7EEA70A0CF12C0A0B
:10D3A00005F505529AED007A92ED0C2AF6EE001A78
:10D3B00030EE47CAB8EE461AF4EEE10A02F1300C3C
:10D3C000F1EE10FACCEE01AA06D9F0EE00BAF4EEB6
:10D3D000EB0AF1EE10FA1CDB10EE900A4108C1F1E5
:10D3E000BE4E0EF55D1303F5CE52F6EE00DA02F1F5
:10D3F0001F0003EE100A60EEAD2AF7EE085A63EE46
:10D40000223AE3EE635A23EE254A67EE847A2BEE46
:10D4100004BA249B591E002B00F0B48037EE2A7A00
:10D42000CE46E7EE0B7A01F007004A1EA7EE67BA78
:10D43000EEEC017A002900F0A58000284CD00128EC
:10D440003FD0022834D0032829D004281ED0052834
:10D4500013D0062808D037EE2A7A013AE7EE0B7A85
:10D46000A7EE67BAEEEC017A37EE2A7A013AE7EED8
:10D470000B7AA7EE67BAEEEC017A37EE2A7A013A18
:10D48000E7EE0B7AA7EE67BAEEEC017A37EE2A7A6E
:10D49000013AE7EE0B7AA7EE67BAEEEC017A37EEC7
:10D4A0002A7A013AE7EE0B7AA7EE67BAEEEC017A38
:10D4B00037EE2A7A013AE7EE0B7AA7EE67BAEEEC7E
:10D4C000017A37EE2A7A013AE7EE0B7A501CA7EE82
:10D4D00067BAEEEC017A55D077EE2A4A7346E4EE4D
:10D4E0008B7A083A0EF1200E34EEAA5AA4EEE7BA6F
:10D4F000501CF0EE67CAE5EE0BCA35EE2ADAA5EE4F
:10D500006CBAB0EE6CCAADEE0BCA3DEE2A0AADEEB7
:10D510004CBAF0EE4C6AE0EE0B6A70EE2A0AA0EE0E
:10D5200066BAE3EC017AF0EE667AE0EE8B7AF0EE22
:10D530004B1AE0EEE71A30EEAA6AF0EE67DAE6EE92
:10D5400021DAB0EE61BAA6EE6DBA36EE2A1AC3ED54
:10D5500000CA4EED047AF0EE6D7AE1EE0B7A31EE10
:10D560002A7AA1EE67BA4EED027AE7EE0B7A0EED5B
:10D5700006CA4EED056A4EED03DAA7EE67BA4EED28
:10D58000017AA9D1C4ED007A84ED01BA8CED002AAC
:10D590008AED007AFEF784BE05F5BE624FF0000EFC
:10D5A00097F820A097F82290C2F800E005F2F45C0A
:10D5B00097F82140CCF800E0F7EE00DAFEF768BDFE
:10D5C0009FED49DA002331EE281A0493F0EE4D8ADC
:10D5D000FEF7C3BB05F5065CE346E646E046634658
:10D5E000BAF1000F35D1A1B3CCED09BA8CED0ABA6E
:10D5F0008CED0BCACCED0C8A8CED0DAAFEF7A1BB0D
:10D600009FED336ADFED330A37EE86CABDEECC1AE2
:10D61000F8EEC11A11EE102A7CEE61AA6AEEA0BAE9
:10D62000FDEEEBDA1DEE90CA71E65C4605F5055994
:10D63000F7EE00DA4FF0804197F820A0C9F81810F3
:10D64000B0EE6DDA97F82290FEF722BD049EB64642
:10D65000B7E4DCED09BA9BED0ABA9EED0BCAD8ED32
:10D660000C8A93ED0DAAFEF76CBB0024FEF700BCFC
:10D6700063EEA3BA3CEEE3BADFED19DA9FED199A37
:10D680002BEEAB5A2BEE0BDAA5EE2D9A33EEE30A16
:10D690007CEECDCAB5EEC00AF1EE10FA7FF7CBAC46
:10D6A0009FED0DAACDE4F0EE6C8AB0EE49BAF0EE33
:10D6B00040AA9FED0ACAFEF71DBF00BF24F503086C
:10D6C00028F9030851969639DB0F49400AD7A33E43
:10D6D00000000043000080439A99193F00FEFFC6F6
:10D6E0009A99993EA69B443B00000000C937B53F7C
:10D6F000B6EE004A63EE843A24E6DAED003A1FED16
:10D70000084A1FED089A1FED082AF7EE005A23EE8B
:10D71000A37A75EEE34A27EE075A24EEA4DAA5EEC3
:10D72000049A75EECDCA32EE630AB3E71FED12DA42
:10D73000BBF1000F3FF430AFFFF7E2B94FF0000E3E
:10D740009A46D94632E70024FFF7E0B905F50551BE
:10D75000F6EE00AAF4EE6A3A01F1380E9DED243A95
:10D76000DEED00BAF1EE10FAB8BFF0EE63AA13EEE8
:10D77000101A7AEEEB2AF8EE433A05F50B5011F049
:10D780000304C2EEA35A00F1380300F0CF8005F580
:10D79000055202F1340A2499043301399AED004A02
:10D7A0007BEEA5BAB7EE002A3BEE847AF6EE004A8D
:10D7B000B4EEC27AF1EE10FAA8BF37EE427AB4EEB8
:10D7C000E47AF1EE10FA8AED007A5ABF4FF03F4A40
:10D7D00043F808AC43ED024A012C00F0A780022C6C
:10D7E00023D005F5055C0CF1340090ED005A7BEE7A
:10D7F000A5BAF7EE00CA3BEE85DAB6EE000AB4EE43
:10D80000ECDAF1EE10FAA8BF3DEE6CDA0139B4EEB5
:10D81000C0DAF1EE10FA80ED00DA5ABF4FF03F4067
:10D8200043F8040C03ED010A043305F5055404F133
:10D83000340ADAED000A7BEEA5BAB7EE006A3BEED9
:10D84000A0CAB6EE001AB4EEC6CAF1EE10FAA8BF2E
:10D850003CEE46CA0139B4EEC1CAF1EE10FA8AEDC7
:10D8600000CA5ABF4FF03F4A43F804AC03ED011A17
:10D8700004335BE07AEEC7AACAED00AAB6EE002A2E
:10D88000F4EEC2AAF1EE10FA58BF4FF03F4A05F588
:10D89000055154BF43F804AC03ED012A01F13402F1
:10D8A000D2ED007A7CEEA54AF7EE000A34EEA74AE4
:10D8B000B6EE005AB4EEE04AF1EE10FAA8BF34EE2C
:10D8C000604A181DB4EEC54AF1EE10FA82ED004A26
:10D8D00005F505545ABF4FF03F4240F8042C00EDC7
:10D8E000015A04F1340A9AED001A74EEA5BAB7EEA3
:10D8F000006A3BEE81CAB6EE000AB4EEC6CAF1EE8B
:10D9000010FAA8BF3CEE46CAACF10301B4EEC0CA9F
:10D9100003F1080CF1EE10FA8AED00CA5ABF4FF07D
:10D920003F4A4CF804AC0CED010A0C3301F1FF3C0A
:10D9300000293EF4B1AC05F5055202F13400D0EDFA
:10D94000003A3BEEA5BAB7EE00DA7BEE232AF6EEFC
:10D95000006AF4EECD2AF1EE10FAA8BF72EECD2ADD
:10D9600005F50554F4EEE62AF1EE10FAC0ED002AB2
:10D9700056BF4FF03F4043ED016A43F8040C04F1F9
:10D98000340A7BEE25CADAED00DA7CEEADAAB7EEFA
:10D99000007AF4EEC7AAF1EE10FA03F10403BFF621
:10D9A00069AFCAED00AA69E771EE23BAFDEEEBDAC2
:10D9B000B8EEEDBA1DEE90EA7BEECB7A67EE84AA64
:10D9C000FDEEEA1A11EE906AFFF7FBBA1FEDB90AF5
:10D9D000D4E400BF2DE9F0070A9BD1ED007A04EEF4
:10D9E000103AB6EE007AF8EE446AF4EEC77AB7EE73
:10D9F000006AF1EE10FA86EE260A00F3EB80DFED06
:10DA0000770A27EEA01AFCEEC11A11EE906A92ED89
:10DA1000002AD0ED017AD0F80080F1EE002AB4EEB1
:10DA2000E22AF1EE10FAD4BFF0EE424AF0EE624A7A
:10DA300034EEE73A03F1FF3923EE000A002B00F041
:10DA4000C2800899DFED665AF1EC013A9FED656AF4
:10DA5000654ADFED666A099B33EEA55A08EB0604BA
:10DA600025EE064A09F0010CBCEEC47A17EE107AD6
:10DA700004EB871A4FEA4A274FEADA5500EE907A0C
:10DA800002EB850A9AED001ADAED011AB8EE602A67
:10DA900071EEC12A62EE264A09F1FF35A4EEA21A00
:10DAA00027EE813A77EE807AA3EC013AB9F1000FC4
:10DAB00000F08680BCF1000F29D0F1EC013A73EE42
:10DAC000A55A344425EE866A013DBCEEC65A15EED1
:10DAD00010CA04EB8C1A4FEA4A2C4FEADA5704EECC
