:020000040800F2
:108000000080002031920208BD840008C18400086D
:10801000C5840008C9840008CD8400080000000061
:10802000000000000000000000000000D1840008F3
:10803000D584000800000000D9840008819202085D
:1080400081920208819202088192020881920208BC
:1080500081920208819202088192020881920208AC
:10806000819202088192020881920208819202089C
:1080700081920208819202088192020865B100088B
:10808000819202088192020881920208819202087C
:10809000819202088192020881920208819202086C
:1080A000819202088192020881920208819202085C
:1080B000819202088192020881920208819202084C
:1080C000819202088192020881920208819202083C
:1080D000819202088192020881920208819202082C
:1080E000819202088192020881920208819202081C
:1080F0008192020881920208000000000000000046
:108100000000000000000000819202088192020835
:108110000000000000000000819202088192020825
:1081200081920208819202088192020881920208DB
:1081300081920208819202088192020881920208CB
:108140008192020800000000000000000000000012
:10815000000000000000000000000000000000001F
:1081600000000000000000008192020881920208D5
:1081700081920208000000008192020800000000C5
:1081800081920208000000000000000000000000D2
:1081900010B5054C237833B9044B13B10448AFF341
:1081A00000800123237010BD30000020000000007B
:1081B0009081000808B5064B1BB106480649AFF38D
:1081C00000800648036813B1054B03B1984708BD0A
:1081D00000000000908100083400002030000020E2
:1081E00000000000704700BF30B442F2480541F67D
:1081F0000C7441F6DC61154A4251C0F81C2EC0F8DF
:10820000B82DC0F81C2DC0F8D82BC0F8B42AC0F87F
:10821000FC29C0F8B828C0F86C27C0F88C26C0F834
:108220000C26C0F8F825C0F85424C0F8C422C0F8C1
:108230007C22C0F8C021C0F83C21C0F80421C0F85D
:10824000B02002600251425030BC704710940208C6
:10825000704700BF704700BF704700BF704700BF46
:108260002DE9F0478D4C82B00746884620F00AFD84
:10827000204602F01DFB8A4A92F8213083B9894DCD
:108280003B46CDF8008087488749854A42F29417DB
:1082900003F002FDED59C4F8C45102B0BDE8F08707
:1082A000824D92ED040A284602F00EFE05280CD0FD
:1082B000022820D00428E2D17D497A4D207040F276
:1082C000DC562167C4F8AC61DAE795ED522AD5EDAA
:1082D000512AF8EE426AB8EE623AF7EE003A86EEBC
:1082E000834AB4EE634AF1EE10FA25D06D4D6F4823
:1082F00002F0D4FDC4E795ED527AD5ED517AB8EE8F
:10830000470AF8EE670AF7EE001A80EE201A0420FA
:108310002070B4EE611AF1EE10FA84ED1C1A08D048
:10832000B5EEC01AF1EE10FA03D40022C4F8AC2165
:10833000A5E740F2DC52F9E7D5F84091594D99F89C
:10834000FE1F42F2941A55F80A308B42C0F2978011
:1083500099F8FF6FB34200F3928003F120004FF0D1
:10836000550C544E89F8FF0F89F8FECF53E0304684
:1083700059F8041B043620F0B5FAC6F30A010029A7
:1083800077D03046D9F8001006F1040A20F0AAFA96
:10839000CAF30A03002B66D05046D9F8041006F140
:1083A000080A20F09FFACAF30A00002855D0504668
:1083B000D9F8081006F10C0A20F094FACAF30A0260
:1083C000002A44D05046D9F80C1006F1100A20F0CB
:1083D00089FACAF30A01A1B35046D9F8101006F180
:1083E000140A20F07FFACAF30A0323B35046D9F8DF
:1083F000141006F1180A20F075FACAF30A00A0B1A9
:1084000009F11C09504659F8041C20F06BFA2A4A5D
:108410001C3696423CD0C6F30A02002AA7D120F0AF
:10842000A1F9304620F040FAA1E720F09BF9504630
:1084300020F03AFAE4E720F095F9504620F034FABB
:10844000D4E720F08FF9504620F02EFAC4E720F050
:1084500089F9504620F028FAB4E720F083F9504615
:1084600020F022FAA3E720F07DF9504620F01CFA14
:1084700092E720F077F9304620F016FA81E70420E1
:108480000B4A207040F2DC562267C4F8AC612EE73C
:1084900042F2901101236B5429E700BF4C000020E9
:1084A000486800206403002014680020180200209F
:1084B000000080BF0070000800800008704700BF07
:1084C000FEE700BFFEE700BFFEE700BFFEE700BF1C
:1084D000704700BF704700BF704700BFFEE700BF96
:1084E00010B54FF4004186B04FF0006020F0DAFB89
:1084F00045F2555020F0BAFB194C022020F0BCFB8D
:108500004FF480431748059302A9049303940294FF
:1085100003F0EEF9144804F540514FF4805202F094
:1085200083FC1248019001994A1E01920029FAD158
:108530000F4800F0E7F80E4B0E480F490F4A00F0C5
:10854000FBFE0C220E484BF6803102F0EBFD0C488E
:108550000C4902F0FFFD20F09DFB06B010BD00BFEE
:1085600010280020640300201802002040420F0061
:10857000802700204C00002014680020486800205C
:10858000B82600206182000808B5FFF7A9FFFEE7C2
:108590002DE9F84F384C394939483A4EDFF840B1A7
:1085A000DFF840A1DFF84091374DDFF84081374FC9
:1085B000224620F067FE22463549364820F062FE0A
:1085C00022463549354820F05DFE2246344935487B
:1085D00020F058FE22463449344820F053FE344BF4
:1085E000344AC3F85464344EDFF804C133481A6087
:1085F000C3F8B0B0C3F804A141F60C7B42F2480ABC
:10860000C3F83C91C3F8F855DFF8E8902C4DC3F857
:108610001C6D224641F6DC662A4C2B49C3F8C0810A
:10862000C3F87CC2DFF8D080C3F8C472C3F80C066C
:10863000264F2748C3F8B898C3F8D84BDFF8BC904A
:10864000C3F8B85D234C244DDFF8B4C0C3F88C16D2
:10865000C3F86C07C3F8FC891846C3F8B4CAC3F85A
:108660001C7E9C5143F80B5043F80A901B49BDE80F
:10867000F84F20F007BE00BF00000020E581000891
:10868000B826002018C0030848C0030808BF030824
:108690005182000880270020558200084C000020ED
:1086A00059820008106800205D820008180200202E
:1086B0006403002078C0030888C20308D0BF030801
:1086C00008C10308A0BF0308E8BF030820C10308CE
:1086D00030C00308A0C2030840C20308E9810008B3
:1086E00090C0030870BF030888BF030818BE0308C2
:1086F000A8C00308B8BF030830BE0308C0C0030801
:1087000000C003082DE9F04F0446C64BDFF868C3EC
:10871000DFF868E3C4492360C44BC54EDFF860B39B
:10872000C44DC548C4F804C00022C4F80CE0A362DC
:10873000A16400234FF27F41C04FC4F854B043F20C
:108740005F5A45F29B394FF008084FF0800C4FF00C
:10875000FF0E2661E661A26162622263E263226724
:10876000A4F850A0A4F85C9084F8748084F876C0D3
:1087700084F877E02381A382A38584F8753084F898
:10878000793084F87A3084F87B3084F87C30218426
:108790002187A4F8441065632564E064A06584F82B
:1087A0007E3084F87D3084F87F3084F880303E68F5
:1087B000A34AC4F8844004F1700B964285B0C4F813
:1087C00088B000F095811FF0CDFF9C4820F06CF838
:1087D0009C4820F069F89C4820F066F89B4820F0FF
:1087E00063F89B4820F060F89A4820F05DF8D4F8D0
:1087F0008480702608EB060B4346ADF80C60002120
:108800001A469F7812F8019B93F803E0167893F8C4
:1088100004C05D799879494416FA81F117FA81F21A
:1088200008331EFA82F71CFA87F615FA86F513F854
:1088300001AC10FA85F01AFA80F95B451FFA89F14C
:10884000DED1CA4347467E497C48ADF80E2020F071
:1088500049F803998048814E20F044F8C8EB0B0892
:1088600057F8041B7E48A8F10403C3F3820520F0E7
:1088700039F8BB456BD0002D38D0012D2DD0022DFD
:1088800025D0032D1DD0042D15D0052D0DD0062D7E
:1088900005D0304657F8041B724E20F023F83046BE
:1088A00057F8041B20F01EF80436304657F8041B16
:1088B00020F018F80436304657F8041B20F012F860
:1088C0000436304657F8041B20F00CF804363046C6
:1088D00057F8041B20F006F8043657F8041B3046FE
:1088E00020F000F8BB4506F1040630D0BA46304609
:1088F0005AF8041B06F104091FF0F4FF7968484692
:108900001FF0F0FFDAF8041006F108001FF0EAFF8C
:10891000F96806F10C001FF0E5FF396906F1100057
:108920001FF0E0FF796906F114001FF0DBFFB96961
:1089300006F118001FF0D6FF203757F8041C06F187
:108940001C001FF0CFFFBB4506F12006CED1D4F8A6
:10895000885014202F182B46ADF80C0000219B46A0
:1089600093F802901BF801AB93F803809BF800B0DA
:1089700093F804C093F805E09E79DA79187A5144A7
:108980001BFA81F119FA81F918FA89FA1CFA8AF8A6
:108990001EFA88FB0A3316FA8BF612FA86FC13F8D5
:1089A00001EC10FA8CF21EFA82F0BB4281B2D6D1F1
:1089B0006FEA01092C482D49ADF80E901FF092FF87
:1089C0002B4803992B4E1FF08DFF55F8041B3046A2
:1089D0001FF088FFBD4206F10406F6D10225A4F877
:1089E0008C50002094F8747094F87830D4ED1C7A90
:1089F000172F84BF172784F87470BFEE007A012BFD
:108A000088BF0123F4EEC77A88BF84F87830F1EE8E
:108A100010FA37D4B7EE007AF4EEC77AF1EE10FA16
:108A200032DD2FE0CDCCCC3CCDCCCC3E000080BFA5
:108A3000000070C2CDCCCCBF9A9919BF004000088D
:108A400043414C4900480008005000080058000805
:108A50000060000800680008044000080C4000089E
:108A60000840000810400008784000085354415462
:108A70007C400008804000080AD783BF14AECD4177
:108A800048E1FA3E84ED1C7A94F87A2094F87B1041
:108A900094F87C6094F87D5094F87E7094F87F3060
:108AA000022A84BF022284F87A20022984BF02218C
:108AB00084F87B10012E84BF012684F87C60022D8F
:108AC00084BF022584F87D50022F84BF022784F8DA
:108AD0007E7094F88020022B84BF022384F87F30BC
:108AE000012A02D9012184F8801005B0BDE8F08F79
:108AF000BD88702D7FF467AE504A104692F802A0F0
:108B000010F8019BD77890F8008092F804C056794D
:108B100092F806E04A494B4418FA83F31AFA83F5AF
:108B200017FA85F008321CFA80F716FA87F612F861
:108B300001AC1EFA86F31AFA83F58A42ABB2DCD195
:108B40004049D843B1F8069082B291457FF43BAEDC
:108B500020463A497022012520F0D0FBA4F88C5021
:108B6000CDF804B08DB16F1EC7EBC706344B364D40
:108B70004FEA860B5B441968A9420BD0B4F88C50BD
:108B8000012D3FF420AE01202CE72E4B2E4D19680D
:108B9000A942F3D198881428F0D103F1080E724647
:108BA00003F11C050021944690781CF801AB92F863
:108BB00003809CF8009092F804B05679977951445C
:108BC00019FA81F110FA81F018FA80FC1BFA8CF185
:108BD00092F807A092F8088016FA81F00A3217FA84
:108BE00080F61AFA86F912F8017C18FA89F117FA58
:108BF00081F0AA4281B2D6D1B3F806B0CD43ABB270
:108C00009B45BBD1BEE80F00019E0D4F30607160E7
:108C1000F360B260DEF800203261B4F88CC00B491A
:108C20000CF1010085B2C5EBC5034FEA830A574436
:108C30008F42A4F88C5095D9A2E700BF08400008E5
:108C40007840000800400008535441540070000868
:108C50002DE9F04F83B006461FF084FD8B481FF0CE
:108C600023FE8B481FF020FE8A481FF01DFE8A4815
:108C70001FF01AFE89481FF017FE89481FF014FEE6
:108C8000D6F88480702208EB02074346ADF8042032
:108C90000021184693F802E010F8019BDD7890F867
:108CA00000C01C7993F805A093F806B049441CFA5B
:108CB00081F11EFA81F2083315FA82F014FA80F578
:108CC0001AFA85F413F801EC1BFA84F91EFA89FCF0
:108CD000BB421FFA8CF1DCD1CA43C24671496B48D2
:108CE000ADF806201FF0FEFD01996F486F4D1FF093
:108CF000F9FDC8EB07085AF8041B6D48A8F10403F6
:108D0000C3F382041FF0EEFDBA4571D0002C38D0B9
:108D1000012C2DD0022C25D0032C1DD0042C15D0D5
:108D2000052C0DD0062C05D028465AF8041B614DA1
:108D30001FF0D8FD28465AF8041B1FF0D3FD043558
:108D400028465AF8041B1FF0CDFD043528465AF872
:108D5000041B1FF0C7FD043528465AF8041B1FF0FA
:108D6000C1FD043528465AF8041B1FF0BBFD04352D
:108D70005AF8041B28461FF0B5FDBA4505F1040555
:108D800036D0D34628465BF8041B05F104091FF0D2
:108D9000A9FDDAF8041048461FF0A4FDDBF8041022
:108DA00005F108001FF09EFDDAF80C1005F10C002B
:108DB0001FF098FDDAF8101005F110001FF092FD79
:108DC000DAF8141005F114001FF08CFDDAF8181011
:108DD00005F118001FF086FD0AF1200A5AF8041C5C
:108DE00005F11C001FF07EFDBA4505F12005C8D134
:108DF000D6F88840142027182346ADF80400002137
:108E00009E4693F802901EF801AB93F803809EF8FB
:108E100000B093F804C093F805E09D79DA79187AE8
:108E200051441BFA81F119FA81F918FA89FA1CFAEE
:108E30008AF81EFA88FB0A3315FA8BF512FA85FCBC
:108E400013F801EC10FA8CF21EFA82F0BB4281B2E8
:108E5000D6D16FEA010918481849ADF806901FF0FD
:108E600041FD17480199174D1FF03CFD54F8041BB4
:108E700028461FF037FDBC4205F10405F6D1022457
:108E8000A6F88C4003B0BDE8F08F00BF004000089A
:108E90000048000800500008005800080060000862
:108EA0000068000843414C49044000080C40000899
:108EB000084000081040000878400008535441540E
:108EC0007C40000880400008B0F88C20D14BD2498B
:108ED0002DE9F04F0646C2EBC200840023448B42CA
:108EE00083B040F218811FF03DFCCC481FF0DCFC41
:108EF000CB481FF0D9FCCB481FF0D6FCCA481FF066
:108F0000D3FCCA481FF0D0FCC9481FF0CDFCD6F8EE
:108F100084A070200AEB00075346ADF8040000213E
:108F20009C4693F802E01CF8019BDD789CF80080D9
:108F30001C7993F805B09879494418FA81F11EFA22
:108F400081F2083315FA82F514FA85F41BFA84FCD1
:108F500013F801EC10FA8CF01EFA80F9BB421FFAEC
:108F600089F1DDD1CA43D346B249AC48ADF80620F9
:108F70001FF0B8FC0199B048B04D1FF0B3FCCAEB2C
:108F8000070A5BF8041BAE48AAF10403C3F382048A
:108F90001FF0A8FCBB4571D0002C38D0012C2DD07F
:108FA000022C25D0032C1DD0042C15D0052C0DD05F
:108FB000062C05D028465BF8041BA24D1FF092FC3E
:108FC00028465BF8041B1FF08DFC043528465BF82F
:108FD000041B1FF087FC043528465BF8041B1FF0B8
:108FE00081FC043528465BF8041B1FF07BFC04352C
:108FF00028465BF8041B1FF075FC04355BF8041B66
:1090000028461FF06FFCBB4505F1040536D0D84655
:10901000284658F8041B05F104091FF063FCDBF82F
:10902000041048461FF05EFCD8F8041005F1080053
:109030001FF058FCDBF80C1005F10C001FF052FC7F
:10904000DBF8101005F110001FF04CFCDBF81410D9
:1090500005F114001FF046FCDBF8181005F11800AC
:109060001FF040FC0BF1200B5BF8041C05F11C0009
:109070001FF038FCBB4505F12005C8D1D6F8884063
:10908000142027182346ADF8040000219C4693F8CD
:1090900002901CF801AB93F803809CF800B093F8A1
:1090A00004C093F805E09D79DA79187A51441BFAE7
:1090B00081F119FA81F918FA89FA1CFA8AF81EFA6C
:1090C00088FB0A3315FA8BF512FA85FC13F801ECCC
:1090D00010FA8CF21EFA82F0BB4281B2D6D16FEA4E
:1090E00001094C485849ADF806901FF0FBFB574862
:1090F0000199574D1FF0F6FB54F8041B28461FF04A
:10910000F1FBBC4205F10405F6D10224A6F88C401F
:1091100003B0BDE8F08F1FF025FBD6F88850B6F8F5
:109120008C704FF0140805EB08042B46ADF8048052
:1091300000219B4693F802901BF801AB93F8038043
:109140009BF800B093F804C0587993F806E0DA79F8
:1091500051441BFA81F119FA81F918FA89FA1CFABB
:109160008AF80A3313F802CC10FA88FB1EFA8BF047
:1091700012FA80FE13F8012C1CFA8EF112FA81F01B
:10918000A34281B2D5D1CC43ADF80640002F36D0F2
:10919000013FC7EBC7031F482B494FEA83094844E7
:1091A0001FF0A0FB2948019948441FF09BFB09F1DF
:1091B000006A0AF581442D1B04F104082959204650
:1091C0001FF090FB55F8081040461FF08BFB04F190
:1091D000080029581FF086FB04F10C0029581FF0E5
:1091E00081FB04F1100029581FF07CFBB6F88CB00D
:1091F0000BF10102A6F88C2003B0BDE8F08F1249F4
:1092000006480F4C1FF06EFB01990B481FF06AFBDC
:10921000D1E700BF78400008007000080040000857
:1092200000480008005000080058000800600008CE
:109230000068000843414C49044000080C40000805
:109240000840000810400008535441547C40000876
:109250008040000830B4D0F88C31C26F93F874109D
:10926000D16193F87540DFED337A07EE104AB8EE1E
:10927000470A60EE270AC2ED090A93F8765001EE1C
:10928000105AF8EE411A21EEA72A82ED082A93F827
:1092900077C002EE90CAB8EE623A63EE273AC0EDAC
:1092A0001E3A93F87810C1B190F888C01D6F0CF188
:1092B000FF34E1B201290DD9D0F8904054B1BCF18E
:1092C000030CDCF1000151EB0C0C012480F889C087
:1092D00080F88840D0F88C100D6093F8795004EE37
:1092E000105ABBEECC4A82ED0A4A93F87A4082F8D3
:1092F0002C40C26F93F87BC082F82DC0C56F93F8E5
:109300007C1085F82E10C46F93F87D2084F82F20F0
:10931000C56F93F87EC085F830C0C46F93F87F1096
:1093200084F83110C06F93F8803080F8323030BC50
:10933000704700BF0000803B2DE9F04F044685B028
:10934000C0F88020C0F88C31E16704300E4601F08F
:109350003DFF04F1340002F069F904F1440002F029
:109360003DF804F1640002F059FA06F1040906F12F
:10937000280006F1080C04F1740104F178080025B6
:109380000023984ADFF864E2C4F88C104FF080475D
:109390009549C4F8900006F1240B4FF07E5006F179
:1093A0000C0AC4F8B090C4F8B48006F1200906F1A4
:1093B0001408C4F8D4C006F1100C1836C4F8942070
:1093C000C4F8B820C4F89830C4F89C30C4F8A03071
:1093D000C4F8BC30C4F8C030C4F8C430C4F8CC30D1
:1093E000C4F8E030C4F8E430C4F8E830C4F8F03031
:1093F000C4F8DCE0C4F8A810C4F8D8B0C4F8A4706D
:10940000C4F8C800C4F8EC00A566E566257084F8C9
:10941000885084F8895084F8AC5084F8AD5084F8B2
:10942000D05084F8D15084F8F450C4F840C1C4F846
:1094300000E1C4F80431C4F80831C4F80C31C4F8B0
:109440001431C4F82421C4F82831C4F82C31C4F8EC
:109450003031C4F84821C4F84C31C4F85031C4F854
:109460005431C4F83811C4F85C11C4F8F8A0C4F839
:109470001001C4F83471C4F85871C4F81C81C4F8E0
:109480006461204684F8F55084F8185184F8195125
:10949000C4F8205184F83C5184F83D51C4F844513B
:1094A00084F8605184F86151C4F86851C4F8FC90A4
:1094B000C4F86C21C4F87031C4F87431C4F8783140
:1094C000C4F87C71C4F88011FFF7C4FE4FF400307B
:1094D0000121C4F89051C4F8A8511FF0F3FC04A96D
:1094E0004FF4007241F8082D02234FF090400127FD
:1094F0008DF80E508DF80F508DF80C708DF80D30E2
:109500001FF024FA04F5DE7104F5E07A01916FEAA8
:109510000A0B04F5E27804F2C11C0198C4F89451D6
:10952000C344C445C4F89851C4F89C51C4F8A05130
:10953000C4F8A451C4F8AC51C4F8B051C4F8B45143
:10954000C4F8B8510BF007060560AA4684F8C0516C
:109550003DD02EB3012E1DD0022E17D0032E12D0D7
:10956000042E0DD0052E08D0062E1CBF8CF80050FE
:1095700004F5E17C00250CF8015B00220CF8012BBE
:1095800000270CF8017B00230CF8013B4FF0000989
:109590000CF8019B4FF0000A0CF801ABC44516D043
:1095A000E34600210BF8011B0CF1080C0CF8071C1A
:1095B0008BF801100CF8051C0CF8041C0CF8031CAB
:1095C0000CF8021C0CF8011CC4458A46E8D10026A0
:1095D000C4F8C4A1C4F88461C4F88861266705B0E2
:1095E000BDE8F08F0AD7A33B000080BF0AD7233C19
:1095F000C26FD0F88C31D16983F87410C26FDFED7F
:10960000317A92ED097A27EE270AFCEEC00A10EEB5
:10961000901A83F87510C26F92ED081A61EE271A3E
:10962000BCEEE12A12EE101A83F87610D0ED1E2A55
:1096300022EEA73AFCEEC33A13EE90CA83F877C045
:10964000D0F88C201168196790F888C00CF1FF32AF
:10965000D1B201298CBF0021012183F87810C26F9B
:1096600092ED0A4A64EE274ABCEEE45A15EE101A4F
:1096700083F87910C26F92F82C1083F87A10C26FB9
:1096800092F82D1083F87B10C26F92F82E1083F899
:109690007C10C26F92F82F1083F87D10C26F92F881
:1096A000301083F87E10C26F92F8311083F87F106B
:1096B000C26F92F8321083F88010D0F88C01FFF757
:1096C00003BC00BF000080432DE9F043044600F1D5
:1096D0004405284685B001F007FFD4F8AC31217865
:1096E0000133C3F304120F2AC4F8AC3103F00F00A6
:1096F000C8BFC2F11F02092949D8DFE811F00A00EA
:1097000033026000A500AF00D500D5006E017501E1
:109710004E00E36FB74FD3F81CE00EEA0707002FA7
:10972000C0F2F0828242B44E40F3C18296E8070054
:10973000BEF1000F0DF1040989E80700B8BF0EF172
:10974000070E4FEAEE0004A901EB800252F80C8CE0
:1097500096E80700D4F8C461002E3346B8BFF31D65
:1097600089E80700D810A34B0DF1100E0EEB800C0A
:109770001E40002E5CF80C1CC0F2BE8204EB86007A
:1097800004EB87044164676C47EA08036364284676
:1097900005B0BDE8F04301F0B7BE8242F7DD4FF4FB
:1097A0007F0128466164A164E16421656165A1656A
:1097B000E165216605B0BDE8F04301F0A5BE94ED7A
:1097C0001E4AF2EE044A24EE246A5210FDEEC61A36
:1097D00011EE903A002B00F09D81092B874A00F092
:1097E0003782012B0CBF91464FF00009022B14BFAA
:1097F0004FF0000E9646032B14BF4FF0000C94461A
:10980000042B14BF00271746052B14BF002616464D
:10981000062B14BF00201046072B14BF0021114651
:10982000082BC4F84490C4F848E0C4F84CC027653D
:109830006665A065E16518BF00222846226605B06E
:10984000BDE8F04301F060BE94F8888008F1FF366F
:10985000F7B2012FA3D94FF47F41A2E7D4ED1C7AD0
:10986000B7EE007AF4EE477AF1EE10FA40F0CC80D1
:1098700052104FF47F4600F0F681012A666400F032
:109880002782022AA66440F0F08100202665E06469
:109890004FF47F41052A616540F0EF810022E165C8
:1098A0000F46A26527662DE1E76FE06E97F82C2042
:1098B00004F14008002A00F05982032A00F0D08108
:1098C000012A00F03382042A00F03382022A4B4935
:1098D00006D0052A18BF002113F0800F18BF002101
:1098E00018B113F0070F18BF002148F8041F012218
:1098F000002A00F02382012A08BF97F82D6014D0B7
:10990000022A08BF97F82E600FD0032A08BF97F8E5
:109910002F600AD0042A08BF97F8306005D0052AC6
:109920000CBF97F8316097F83260002E00F01B8270
:10993000032E00F0B681012E00F0C181042E00F04C
:10994000C481022E2D4906D0052E18BF002113F028
:10995000800F18BF0021824203D013F0070F18BFF9
:1099600000210132C8F8041008F1040400F0E98174
:10997000012A00F0E981022A00F0EC81032A00F0BC
:10998000E681042A00F0E981052A14BF97F83260C5
:1099900097F83160002E00F0E381032E00F08481FF
:1099A000012E00F08981042E00F08C81022E1349D3
:1099B00006D0052E18BF002113F0800F18BF00211C
:1099C000824203D013F0070F18BF00210132072A8B
:1099D000616004F104088BD1D9E682427FF7D7AEEB
:1099E0004FF47F476764D2E682427FF7D0AE034EE2
:1099F0006664CCE607000080E493020800FFFF00E5
:109A00006F12833A00000043F5EEC07AF1EE10FACF
:109A100000F13B815FED066A1FED060A77EEE60A6C
:109A2000B4EE001A70EEC15A06EE100A75EEC14A85
:109A3000F8EEC61A34EEC12A20EE804A32EE415AC0
:109A400065EE803A75EE412AF4EEC41A24EE803AAF
:109A5000F1EE10FA62EE007AF4EEE31A32EEC17A19
:109A60004CBF4FF47F494FF0000965EE000AF1EE5C
:109A700010FAF4EEC31A4CBF4FF47F4E4FF0000EB5
:109A800062EE805AF1EE10FA77EE416AF4EEE71AD0
:109A90004CBF4FF47F4C4FF0000C27EE001AF1EE54
:109AA00010FAF4EEE01A4CBF4FF47F47002726EE81
:109AB000800AF1EE10FAF4EEE51A4CBF4FF47F463F
:109AC0000026F1EE10FAF4EEC11A4CBF4FF47F40BD
:109AD0000020F1EE10FAF4EEC01A4CBF4FF47F41B3
:109AE0000021F1EE10FA4CBF4FF47F420022C4F87F
:109AF0004490C4F848E0C4F84CC027656665A0658A
:109B0000E165226640F6B83083427FF740AE00231D
:109B100023703CE6002A00F09980964F6764012A82
:109B200000F0FC80934EA664022A00F0F580914874
:109B3000E064032A00F0EE808E492165042A00F0DB
:109B4000E7808C4F6765052A00F0EE80894EA66598
:109B5000062A00F0E780874BE365072A00F0E080E3
:109B6000844A6AE6E16F9FED842AD1ED093A91EDCE
:109B7000085ADFED822A7F4B33EEC23AB5EE007A07
:109B800073EE470A07EE900A30EEC71A75EE426A86
:109B9000F8EEE71A23EE220A20EEA26A76EEC75A02
:109BA00071EE474AF4EEC01A21EE224AF1EE10FAA5
:109BB00024EEA22AF4EEC61A75EEC73A4CBF9846B8
:109BC0004FF0000826EEA25AF1EE10FAF4EEC41A95
:109BD0004CBF99464FF0000925EEA23AF1EE10FA7B
:109BE00033EEC77AF4EEC21A4CBF1F46002763EE6D
:109BF000A20AF1EE10FAF4EEC51A4CBF1E4600267A
:109C000067EE222AF1EE10FAF4EEC31A4CBF1846A2
:109C10000020F1EE10FAF4EEE01A4CBF19460021D4
:109C2000F1EE10FAF4EEE21A4CBF1A460022F1EE01
:109C300010FA58BF0023C4F84480C4F84890E76481
:109C400026656065A1652366E265A0E5626469E753
:109C50006264A264E26422656265A265E265ECE585
:109C60004FF47F4138E66264A6644FF47F47032ACD
:109C7000E76430D10026676526654FF47F47062AE2
:109C8000A76531D10022E2650CE6824254DD4FF433
:109C90007F076764A764E76427656765A765E7656D
:109CA00000E64FF47F4152E64FF47F4184E64FF0E7
:109CB00000080DF104094BE54FF47F0180E64FF4F5
:109CC0007F0148E64FF47F0176E64FF47F013EE6E0
:109CD0000021E664A1644FF47F46042A26657FF4E0
:109CE000D7AD0020A66560654FF47F41072A14BFF9
:109CF0000F460027E165D5E5721E62F0070909F1FC
:109D000001063BE57E1E66F0070C0CF1010709E534
:109D100063651BE7236514E7E3640DE7A36406E7C7
:109D200000228AE5E3651BE7A36514E74FF47F0192
:109D3000D6E54FF47F01CFE50027AAE797F82C601E
:109D4000F3E597F82C6025E697F82D6022E697F862
:109D50002F601FE697F82E601CE697F8306019E632
:109D60004FF47F412CE64FF47F41F4E54FF47F41FF
:109D7000B6E500BF00FFFF006F12833A000080428B
:109D80000122002310B480F8C32180F8C22180F89A
:109D9000C12180F8C02180F8883080F8AC3080F88C
:109DA000D03080F8F430032913D8DFE801F0221C0A
:109DB0001602C26F124CD16901F1170C84FB0C140E
:109DC0004FEAEC71C1EBA40303EB4304ACEBC40119
:109DD000D1615DF8044BFFF70BBCC26F084CD3692F
:109DE00003F1080CEAE7C26F054CD16901F1100CD0
:109DF000E4E7C26F024CD36903F1010CDEE700BF58
:109E0000ABAAAA2AC368D0F88C21D0F8A811F0B464
:109E100000EB4304B2F92050B4F92470BD424FEA7C
:109E2000D176D4BF00270127B74204D0D0F89431AF
:109E30005D1CC0F894514469B2F9387000EB440CD1
:109E4000BCF924309F42D4BF00230123B34204D085
:109E5000D0F898516C1CC0F898418769B2F9443029
:109E600000EB470CBCF92450AB42D4BF00250125C0
:109E7000B54204D0D0F89C41671CC0F89C71C369FE
:109E8000B2F950C000EB4305B5F92440A445D4BF56
:109E900000240124B44204D0D0F8A0717B1CC0F887
:109EA000A031046AB2F95CC000EB4402B2F924505C
:109EB000AC45D4BF00250125B54204D0D0F8A4613B
:109EC000771CC0F8A471D0F890315C1C202CC0F82D
:109ED000904111D02A4F07FB01F101F5405606F1E0
:109EE0003905002DC0F8A85141DB4FF090404FF4E8
:109EF00000740485F0BC7047D0F89431D0F89871A4
:109F0000D0F89C61D0F8A051D0F8A441D0F88020BE
:109F1000012BD4BF4FF0000C4FF0010C012FD4BF28
:109F200000270127012ED4BF00260126012DD4BF12
:109F300000250125012C4FF00003D4BF002401248B
:109F4000C0F8903182F820C0C0F8943182F82170B6
:109F5000C0F8983182F82260C0F89C3182F8235012
:109F6000C0F8A03182F82440C0F8A431B2E74FF025
:109F7000904C4FF40072CCF81820F0BC704700BF32
:109F80006D4EC64130B4D0F88C21051D012100234F
:109F900002E0013301310C32012BFAD055F8234095
:109FA00092ED017A00EB440C0829BCF9244007EE3D
:109FB000904AFAEEE87A27EEC70A82ED000AE8D165
:109FC000D0F888310170C0F8C83130BC704700BF8C
:109FD00090ED727AD0ED627ADFED226A10B537EE3D
:109FE000C70A82B0B4EEE60AF1EE10FA044606DDC6
:109FF000DFED1D0AB4EEE00AF1EE10FA1ED40923DB
:10A0000023704FF4003001211EF05CFF02AA4FF4D0
:10A010000074002342F8084D4FF0010C02226946FB
:10A020004FF090408DF804C08DF806308DF8073061
:10A030008DF805201EF08AFC02B010BDB3EE081AA0
:10A04000C1EE001AD0F88C110846B2EE082AA7EE2D
:10A05000612AC1ED041A81ED032AFEF7F9FD002003
:10A060002070CEE79A9919BFCDCC4CBE70B504468E
:10A0700082B0643001F00CFC2378092B00F2B5802B
:10A08000DFE813F0D700F000F0002C01B300580116
:10A090008E019E01B5003C01002B00F0CE8294F8A9
:10A0A0006560002E00F001820020C4F8B00184F841
:10A0B000C00130460025C4F8B051802E00F049831D
:10A0C000002E00F0EC820026C4F8B46194F866100B
:10A0D000802900F04483002900F0F0820025C4F8B4
:10A0E000B851802B00F0E182002B40F0E382D4F8DD
:10A0F000BC610136C4F8BC61802A00F0E882802887
:10A1000094F8F40000F01083802994F8AC2000F05B
:10A11000F782022800F0D88294F8D000022800F0DC
:10A12000D382022A08BF2270B5F5FA6F29DBD4F872
:10A13000BC51B5F5FA6F24DB00260DF1080C07229F
:10A140004FF400736946C4F8BC61C4F8B86184F880
:10A15000886084F8AC6084F8D06084F8F460227081
:10A1600002254FF090404CF8083D8DF804608DF8C2
:10A1700006608DF807608DF805501EF0E7FB94F837
:10A180006730D4F8B001B0F5FA6F80F25982D4F894
:10A19000B411B1F5FA6F80F25382D4F8B861B6F514
:10A1A000FA6F0ADB00220225C4F8B821C4F8B421F2
:10A1B000C4F8B021C4F8BC2125707F2B00F0D582F3
:10A1C00094F864007F2800F0E28294F865107F29FB
:10A1D00000F0008394F866207F2A06D194F8C251DB
:10A1E0001DB920460221FFF7CBFD02B070BD94F8E7
:10A1F0006400802800F00E8394F86510802900F038
:10A200000B8394F86620802A00F00A8394F8675044
:10A21000802D08BF0325E8D105F16C0625440023F5
:10A22000012144F82630204685F8C011FFF7D0FE02
:10A23000DBE794F8642094F86730802A3FF42CAF71
:10A24000802B00F0F78194F86560802E00F02A8161
:10A250003046002A7FF42EAFD4F8B051691CC4F800
:10A26000B0112AE794F864207F2A00F0618194F805
:10A2700065107F2900F0BB8194F866307F2B00F0D9
:10A28000938194F867207F2AAFD194F8D060022E92
:10A2900000F0FD8194F8D110002940F0F88184F895
:10A2A000D01094F8F430022B00F0ED8194F8F550C2
:10A2B000002D40F0E88184F8F45094F8AC60022E50
:10A2C00000F0E98194F8AD10002940F0E48184F8B1
:10A2D000AC100023C4F8BC31237086E794F8640006
:10A2E0007F2804D094F865307F2B7FF47EAF002563
:10A2F000C4F8B451C4F8B051257076E794F86430CE
:10A30000802B00F0488194F86520802A00F03B8182
:10A3100094F86600802800F02E8194F86720802A47
:10A320007FF463AF00260121C4F8BC61267084F875
:10A33000C3115AE794F86730002B3FF456AF94F8F6
:10A340006420002A3FF451AF7F2A02D07F2B7FF494
:10A350004CAF94F8D050022D00F0E68094F8D16014
:10A36000002E40F0E18084F8D06094F8F4000228D8
:10A3700000F0D68094F8F530002B40F0D18084F8BE
:10A38000F43094F8AC50022D00F0C68094F8AD6023
:10A39000002E40F0C18084F8AC600620207024E7D5
:10A3A00094F8670080BB94F864508DBB012084F85A
:10A3B000C00184F8C3012046FFF71AF9257014E79D
:10A3C00094F86400802800F0238294F86520802AA5
:10A3D00000F0248294F86650802D00F0238294F8D7
:10A3E0006760802E08BF03267FF4FFAE06F16C0382
:10A3F000264400214FF0010C44F82310204686F833
:10A40000C0C1FFF7BFFDF0E67F2835D094F8645057
:10A410007F2D44D094F865207F2A00F0148194F8B1
:10A4200066107F297FF4E1AE4FF0010CE36E002B44
:10A4300000F01481012B00F0B781022B00F0D881CD
:10A44000032B00F0F181042B00F00482052B00F0B7
:10A450001782062B7FF4C9AEE06F90F832E00EF160
:10A460000205AC4480F832C0E46F94F8326006F024
:10A47000010284F83220B8E64FF0060EE66EC84AB4
:10A48000B6448EFB02230EEB03014FEAEE73C3EBDF
:10A49000A100C0EBC005C5EB0E06E666BAE74FF0BB
:10A4A000080EEBE7002A7FF4D3AE94F8D0004FF00B
:10A4B000010E022884F8C0E184F8C1E100F0CA80EE
:10A4C00094F8D130002B40F0C58084F8D03094F857
:10A4D000F460022E00F0BA8094F8F520002A40F0D3
:10A4E000B58084F8F42094F88800431ED9B201297D
:10A4F00040F24581D4F8906046B1C21E554255EBFA
:10A500000200012384F8890084F888300322227035
:10A510002046FFF76DF868E6032184F8AC103CE7AD
:10A52000032284F8F4202CE7032184F8D0101CE7E0
:10A5300094F8D060022E02D094F8D11001B103211A
:10A5400094F8F40084F8D010022802D094F8F53082
:10A5500003B1032394F8AC5084F8F430022D02D0F8
:10A5600094F8AD2002B10322002684F8AC20C4F890
:10A57000B06126707BE600230125C4F8B831237052
:10A5800084F8C251C9E600260121C4F8B4612670DE
:10A5900084F8C111BCE600254FF0010EC4F8B0519B
:10A5A000257084F8C0E1AEE694F8D050022D02D0B8
:10A5B00094F8D12002B1032294F8F46084F8D020FA
:10A5C000022E02D094F8F51001B1032194F8AC00EA
:10A5D00084F8F410022802D094F8AD3003B10323BC
:10A5E000002584F8AC30C4F8B851257049E694F8D9
:10A5F000D000022802D094F8D13003B1032394F89C
:10A60000F45084F8D030022D02D094F8F52002B135
:10A61000032294F8AC6084F8F420022E02D094F85F
:10A62000AD1001B10321002084F8AC10C4F8B401CE
:10A63000207021E6002A7FF406AE05252570D4E5BA
:10A6400000220125B0E54FF0FF3CEFE6032584F83A
:10A65000F45048E7032184F8D01038E7E66F5149F9
:10A6600096F82C00C21C944486F82CC0E46F94F831
:10A670002C30A1FB03054FEA550C0CEB4C06991B43
:10A6800084F82C10B1E5032284F8F42015E60320A9
:10A6900084F8D00005E6032084F8AC0019E6D4F86D
:10A6A000B461711CC4F8B41110E50026C4F8BC6193
:10A6B00084F8C3610026C4F8BC611DE5D4F8B85124
:10A6C0000135C4F8B8510CE50121217029E594F851
:10A6D000D0C00CF1FF32D6B2012E7FF610ADD4F807
:10A6E000D820002A3FF40BADBCF1030EDEF10006CA
:10A6F00056EB0E0C012284F8D1C084F8D020FEE481
:10A70000511ECEB2012E7FF604ADD4F8B41000294C
:10A710003FF4FFAC033A564256EB020E012284F896
:10A72000ADE084F8AC20F4E4461EF2B2012A7FF6D4
:10A73000EBACD4F8FC60002E3FF4E6AC0338D0F16B
:10A74000000E5EEB000C012084F8F5C084F8F400E4
:10A75000DAE40025C4F8B45184F8C151B3E400260A
:10A76000C4F8B86184F8C261B8E494F8C331002B2E
:10A770007FF426AD20460321FFF702FB35E50228D2
:10A7800032D094F8891079BB84F88810BEE694F82A
:10A79000C01100297FF419AD2046FFF7F1FA24E536
:10A7A00093244992ABAAAAAAE56F404E95F82D00D2
:10A7B000C11C8C4485F82DC0E46F94F82DC0A6FB15
:10A7C0000C024FEA520E0EEB4E03C3EB0C0584F85D
:10A7D0002D500AE594F8C161002E7FF4FBAC2046B1
:10A7E0000121FFF7CDFA00E5032684F888608DE6A5
:10A7F000E06F90F82E1001F1020EF44480F82EC0A4
:10A80000E46F94F82E2002F0010384F82E30ECE47B
:10A810000026EBE50025FFE40125FDE40126E5E542
:10A820000225F9E40226E1E5E66F204996F82F00BB
:10A8300000F1030EF44486F82FC0E46F94F82F2043
:10A84000A1FB02034FEA530C0CEB4C05561B84F89A
:10A850002F60CAE4E56F154995F8300000F1030E4A
:10A86000F44485F830C0E46F94F83060A1FB060230
:10A870004FEA520C0CEB4C03F51A84F83050B4E458
:10A88000E36F0A4993F8310000F1030EF44483F8B2
:10A8900031C0E56F95F83140A1FB04064FEA560C34
:10A8A0000CEB4C02A31A85F831309EE4ABAAAAAA9D
:10A8B000D0ED267A9FEDD47A2DE9F0410446808EC2
:10A8C000D4ED256A94F8883006EE100AB8EEC60A70
:10A8D000B0EE674A90EE074AE6EE847AC4ED267A37
:10A8E0004BB994ED291AD4ED2A1AD4F88C10E7EE5E
:10A8F000811AC1ED001AE28ED4ED2F2A9FEDC23AE3
:10A90000D4ED2E3A94F8AC5002EE102AF8EEC24A7A
:10A91000B0EE625A94EE835AE3EE852AC4ED2F2AF4
:10A920004DB9D4ED327A94ED336AD4F8B060A2EE2A
:10A93000A76A86ED006A278FD4ED380A9FEDB27AB8
:10A94000D4ED376A94F8D00000EE107AB8EEC01A51
:10A95000B0EE604A91EE074AE6EE840AC4ED380A8A
:10A9600048B994ED3B2AD4ED3C2AD4F8D430E0EE3B
:10A97000822AC3ED002A618FD4ED413ADFEDA24A6D
:10A9800094ED405A94F8F42003EE101AF8EEC35AEE
:10A99000F0EE637AD5EEA47AE5EE273AC4ED413ABB
:10A9A0004AB994ED440AD4ED450AD4F8F850E3EEE0
:10A9B000800AC5ED000AA68FD4ED4A1A9FED927A5F
:10A9C000D4ED496A94F8187101EE106AB8EEC12A04
:10A9D000B0EE614A92EE074AE6EE841AC4ED4A1AD6
:10A9E0004FB994ED4D3AD4ED4E3AD4F81C01E1EE56
:10A9F000833AC0ED003AE38F94ED535ADFED825A6B
:10AA0000D4ED527A94F83C1104EE903AB8EEE46A30
:10AA1000B0EE450A96EE250AA7EE805A84ED535A09
:10AA200049B994ED561AD4ED571AD4F84021E5EE01
:10AA3000011AC2ED001AB4F84050D4ED5C2A9FED23
:10AA4000727AD4ED5B6A94F8606102EE105AB8EE47
:10AA5000C23AB0EE624A93EE074AE6EE842AC4EDAB
:10AA60005C2A4EB9D4ED5F4A94ED605AD4F8647113
:10AA7000A2EEA45A87ED005A6768A668D4F88C3114
:10AA8000DFED627A93ED010AD3ED000AE568D4F8B0
:10AA900080209FED621ADFED5E1A5E4904EB4707E6
:10AAA00004EB4606B7F92470B6F9246006EE107A76
:10AAB000B8EEC62A05EE906A62EE272A04EB450539
:10AAC000E0EE220A04F1100898E80151F8EEE54A98
:10AAD000B5F92470C2ED000A93ED044A93ED037AB0
:10AAE00064EEA76A03EE907AA4EE267A04EB4000A7
:10AAF00004EB4808B8EEE35AB0F9246082ED017A1D
:10AB000093ED070AD3ED060AB8F9245025EE276A1B
:10AB100003EE106AE0EE060A04EB4C0C04EB4E0E5A
:10AB2000F8EEC32ABCF92400C2ED020A93ED0A4AEA
:10AB3000D3ED096ABEF9247062EEA73A05EE905A89
:10AB4000E4EE236AB8EEE50AC2ED036A93ED0D3A2E
:10AB5000D3ED0C0A60EE275A02EE100AE3EE250A46
:10AB6000B8EEC22AC2ED040AD3ED102AD3ED0F3A93
:10AB700022EE276A05EE107AE2EE863AB8EEC55A62
:10AB8000C2ED053A266A93ED134AD3ED126A04EB3F
:10AB9000460825EE270AB8F924C0E4EE006A05EE5F
:10ABA00090CAB8EEE52AC2ED066A93ED163AD3EDE7
:10ABB000150AA36E22EE276A5D1CE3EE060A05EA7B
:10ABC0000107002FC2ED070AD4ED622AD4ED613AE5
:10ABD000B0EE625A94EEA75A77EE634AE5EE012A88
:10ABE000B0EE631AA4EEA11AC4ED622A84ED611AD4
:10ABF00082ED011AC0F2F880A766032F21D8DFE8A2
:10AC000007F0E2DE481D00BF00008037000000387A
:10AC10003333333F03000080C520803FCDCCCC3D93
:10AC2000000000000AD7A33B8FC2F53CE17A41C285
:10AC300000004042000070426F12833A2046FFF746
:10AC4000E1F8201D00F0B0FA04F1340000F0E0FD5E
:10AC5000D4ED1E2AF2EE043A22EEA35AFDEEC57A96
:10AC600017EE902A002A00F0B280092A00F0C18075
:10AC7000B8EEE71AB2EE087AD4ED1D6AE46F21EE61
:10AC8000074AB1EE0C0AA6EE804A84ED004ABDE800
:10AC9000F08104F1A80E07231EF8206C032E0CD8B7
:10ACA000DFE806F0077002105EF8185C5EF8101C12
:10ACB00029605EF8105C4EF8085C013B0EF1240E32
:10ACC000EAD1BEE75EED041A1EED027A1FED2B4AB3
:10ACD00071EEC76AB0EEE60AB4EEC40AF1EE10FAFD
:10ACE000EBDDF5EEC06AF1EE10FA1EED033A40F32B
:10ACF0008D805FED372A72EEC73A32EEC35A85EE89
:10AD0000236A5FED3A7AB4EEE76AF1EE10FA08D4FE
:10AD1000F2EE047AB4EE676AF1EE10FAD8BFF0EE04
:10AD2000467AA6EEA73A5FED424AB4EEE43AF1EE77
:10AD300010FA74D4B7EE001AB4EEC13AF1EE10FA7C
:10AD4000D2BF0EED033AB0EE413A0EED031A1EEDFE
:10AD5000010ADEED000A1FED4D4A5EF81C0C4EEDB7
:10AD6000021A33EE617AE0EE030AF0EEC76AF4EEFF
:10AD7000C46AF1EE10FA44BF00260EF8206CC0ED54
:10AD8000000A9AE75EED041A1EED023A1FED5A2AF8
:10AD900071EEC35AB0EEE56AB4EEC26AF1EE10FA93
:10ADA0008BDD5EF8187C0EED033AC7ED001A5EF8F5
:10ADB000106C4EF8086C02200EF8200C7DE720463F
:10ADC000FFF754F93DE72046FEF77EFC39E794EDA6
:10ADD0001D2A5FED685A1FED6B6AE76FA2EE256AC8
:10ADE00087ED006ABDE8F0817A1E62F003014F1C16
:10ADF00002E7D4ED1D0A5FED721A1FED723AE16FA2
:10AE0000A0EEA13A81ED003ABDE8F0815FED760A4F
:10AE100037EE202A73EE205A85EE826A71E74EEDF6
:10AE2000034AB0EE643A92E72DE9F00100230024D2
:10AE3000DFF86080164FDFF860C0C0F84011FF26D1
:10AE40002025042146708570C0F82481C0F82C713B
:10AE5000C0F81041C0F81441C0F81841C0F81C41B6
:10AE6000C0F84421C0F83811C0F828C180F83C313E
:10AE7000A0F80E310370838080F83431C0F830318F
:10AE8000C0F8483180F82031BDE8F001704700BFBC
:10AE900009D7233A6F12833A0AD7A33B002310B491
:10AEA0002021FF24042244708170C0F83821A0F8CA
:10AEB0000E310370838080F83431C0F83031C0F82F
:10AEC00048315DF8044B704738B590F8203190ED6B
:10AED000477AD0ED4A6A80ED470A002BB7EE006A48
:10AEE000FFEE007A08BFF0EE467A66EEA70A30EE73
:10AEF000470A90F83411B4EEE00AF1EE10FA044675
:10AF0000D4BF00200120814284F8200131D0D4F840
:10AF1000301184F83401062929D8022994BF002170
:10AF20000121D4F838511DB16B1EC4F8383102210B
:10AF30000025C4F8305120461DF074F9022884F829
:10AF40003C011ED012D304283AD8FF21202204232A
:10AF5000A4F80E512570A58084F83451C4F83051FE
:10AF6000C4F848516170A270C4F8383138BD02216C
:10AF7000D7E7D4F8303194F83C015D1CC4F8305167
:10AF800038BDD4F84831D4F84451AB4209D24FF41B
:10AF90008072D4F84051E11D9AB903F58071C4F86C
:10AFA0004811FF252021002304226570A170237021
:10AFB000A38084F83431C4F83031C4F8382138BD66
:10AFC00038BDE8181EF0A3F9D4F8483194F83C01D4
:10AFD000E3E700BF00B54FF4003083B001211DF05E
:10AFE00071FF02A94FF450634FF0000C41F8083D87
:10AFF000022269464FF090408DF806C08DF807C0D8
:10B000008DF804208DF805201DF0A0FC4FF0904035
:10B01000082105221DF012FE4FF090400A21052262
:10B020001DF00CFE4FF090400B2105221DF006FE96
:10B0300003B05DF804FB00BF30B5114C85B00D4680
:10B040004FF4804001211DF059FF20461DF0F2FF12
:10B0500000234FF4007220466946ADF80020ADF899
:10B060000230ADF80430ADF80630ADF80C30029582
:10B070001EF052F8204601211EF0BEF805B030BD8A
:10B08000003800402DE9F043224CDFF8948006465A
:10B0900001208DB00D4601461DF014FF2046002111
:10B0A0001DF048FB20461DF095FA06F1080100232B
:10B0B0004FF0100C4FF0800E4FEA850920460291A8
:10B0C0004FF4005201A94FF480754FF48067202699
:10B0D000CDF80CC005930B93CDF818E00A92ADF8AB
:10B0E0001090CDF804800795089709961DF0F4FAA2
:10B0F000204606210122084C1DF02AFB4FF4004196
:10B1000021600648022101221EF086F80DB0BDE83C
:10B11000F08300BF5800024000E100E0003800402A
:10B120000C38004070B50A4B1546002204461860E2
:10B130000E4642600560FFF74DFF20463146FFF79F
:10B140007BFF20462946BDE87040FFF79BBF00BF4C
:10B15000706800204160024801211DF0EBBA00BF79
:10B160005800024008B50E4B1A684FF4C0215960D0
:10B1700091030AD4530300D408BD0A48026892E838
:10B180000A0002F10800984708BD064B1B6893E8C7
:10B19000060001F1020C03EB8C00904708BD00BFD4
:10B1A000000002407068002008B505481DF01EFF31
:10B1B00004481DF01BFF0448BDE808401DF016BF01
:10B1C0000060014000640140006801402DE9F04F3B
:10B1D000012193B081464FF080501DF08FFE4FF457
:10B1E000007001211DF068FD4FF4806001211DF009
:10B1F00063FD4FF4006001211DF05EFD4FF0807093
:10B2000001211DF06DFE4FF0007001211DF068FE60
:10B2100001214FF080601DF063FE4FF028401DF0CB
:10B2200065FD022001211DF04DFE4FF4802001211B
:10B230001DF048FE4FF4801001211DF043FE012156
:10B240004FF400101DF03EFE634D00201DF0B8FECF
:10B25000002703214FF040624FF0804305F10804BE
:10B2600005F1B40A8DF80B708DF80A7004970697F3
:10B270008DF808100392059354F8080C01211DF075
:10B280008BFE54F8080C4FF400411DF0CDFE012850
:10B29000F7D0A86800280FDD2E464FF00008318B4C
:10B2A0007069019101A91DF051FBAA6808F101081C
:10B2B000424506F11006F2DC54F8080C01211DF09D
:10B2C00075FE54F8080C4FF000411DF0ADFE00284B
:10B2D000F7D054F8083CA968ADF8281007F1100B16
:10B2E00003F16002802109EB4B0300264FF4806ECE
:10B2F00054F8040C0792089320224FF400530C9149
:10B300004FF4807807A9CDF838E00F921093099692
:10B310000B961196CDF834801DF0DEF954F8080C28
:10B32000314603AA1DF014FEA868B042B34614DDEE
:10B33000A84698F80CC058F8103F54F8080C49F883
:10B340002C70002219464BEA030B1DF013FEAA686D
:10B350000136B24207F10107EBDC594654F8080CFC
:10B360001DF04AFE54F8080C00211DF049FE54F867
:10B37000080C04211DF02EFE54F8080C00211DF0CD
:10B3800015FE54F8080C4FF000411DF04DFE012849
:10B39000F7D054F8080C1DF023FE54F8080C0121D6
:10B3A0001DF042FE0028F8D054F8040C01211DF0D5
:10B3B000C1F93C3554F8080C4FF4803101221DF0DE
:10B3C00029FE554504F13C047FF456AF4846FFF78B
:10B3D000EBFE13B0BDE8F08F1CB803082DE9F04177
:10B3E000012188B005464FF480001DF06BFD4FF43D
:10B3F000003001211DF066FD08AF4FF4805001219F
:10B400001DF06EFD802347F81C3D002402264FF0FE
:10B410000108394632488DF808808DF809608DF8AA
:10B420000A408DF80B401DF091FA394640222C4815
:10B430008DF808608DF8096001928DF80A408DF84A
:10B440000B401DF083FA0522254806211DF0F6FB6E
:10B4500039464FF090404FF480578DF808608DF8D2
:10B4600009608DF80A408DF80B4001971DF06EFAC7
:10B470004FF090400C2106221DF0E0FB4FF40076C7
:10B480004FF4827E4FF4706C3822072303A91548CD
:10B49000ADF80EE0ADF810C0ADF81820ADF81C30D6
:10B4A000ADF80C40ADF81240ADF81440ADF81A40BC
:10B4B000ADF816601DF0F4FD4146A84609481DF0A0
:10B4C0008BFE48F8044B48F8044BC8F80040EC6089
:10B4D0002C616C61AC61EC6108B0BDE8F08100BF2B
:10B4E00000140048003001400246002370B442F8C6
:10B4F000043B42F8043B70BC1360C36003614361CA
:10B500008361C361704700BFD0F800C081694269A0
:10B5100003692DE9F0031CF47F0F47688668C5684E
:10B52000C469DFF800810CBF4FF000094FF001093A
:10B530001CF47F4F0CBF0020022017F47F0F49EA54
:10B5400000090CBF0020012017F47F4F40EA890C4E
:10B550000CBF0027022716F47F0F4CEA07090CBF27
:10B560000020012016F47F4F40EA89070CBF002617
:10B57000022615F47F0F47EA060C0CBF00200120BD
:10B5800015F47F4F40EA8C070CBF0025022514F408
:10B590007F0F47EA05060CBF0020012014F47F4FFF
:10B5A00040EA86070CBF0024022411F47F0F47EA0B
:10B5B00004050CBF0026012611F47F4F46EA8509D9
:10B5C0000CBF0021022112F47F0F49EA010C0CBFCD
:10B5D0000020012012F47F4F0CBF0027022740EA11
:10B5E0008C0213F47F0F0CBF0025012542EA0704EB
:10B5F00013F47F4F45EA84060CBF4FF000094FF06B
:10B600000209802346EA0900C8F8183000BF054A3D
:10B610004FF08008A2F8288000BF0349BDE8F0037E
:10B620008881704700140048003001402DE9F04344
:10B63000012193B007464FF400701DF051FC4FF408
:10B6400040401DF047FB4FF4003001211DF03AFC53
:10B65000012001461DF036FC00257F234FF0030832
:10B660004FF0904001A907240193DFF8A0918DF8D5
:10B670000B504FF480668DF80A508DF808801DF04D
:10B6800065F94FF0800C4FF4807E4FF40053202278
:10B690005C48CDF830C007A9CDF834E010930F9284
:10B6A000CDF81C900E96089709950B951195ADF85D
:10B6B00028401DF011F8534801211DF03BF84FF0D0
:10B6C00001094FF400625048059203A94FF4602627
:10B6D0008DF80D508DF818408DF80C9004961CF0E4
:10B6E000D5FE29464A46234647481CF007FF02215B
:10B6F0000A46234644481CF001FF41464246234681
:10B7000041481CF0FBFE494623463F4804221CF0FA
:10B71000F5FE23463C48062105221CF0EFFE234699
:10B720003948052106221CF0E9FE22462346364808
:10B7300004211CF0E3FE344849461CF0C9FE32489F
:10B740001CF0D6FE30481CF041FF0028FAD12E48EC
:10B750001CF0C8FE2C481CF035FF0028FAD12A48FE
:10B7600001211CF025FF38464FF4004120F8021B50
:10B770000E3787424FF006053ED03DB3012D1FD056
:10B78000022D19D0032D13D0042D0DD0052D07D077
:10B79000062D18BF20F8021B4FF4004420F8024B7E
:10B7A0004FF4004320F8023B4FF4004620F8026BB0
:10B7B0004FF4004820F8028B4FF4004C20F802CBE5
:10B7C0004FF4004E20F802EB874215D081464FF42B
:10B7D000004229F8022B103020F80E2CA9F8022084
:10B7E00020F80A2C20F8082C20F8062C20F8042C2D
:10B7F00020F8022C8742E9D103481CF0D3FE13B095
:10B80000BDE8F08308000240002401404C240140C0
:10B8100001481CF0C7BE00BF0024014070B50121E3
:10B8200082B005464FF480201DF04CFB174C0023DE
:10B83000A288E05800924FF0010C694602268DF86C
:10B8400007C08DF804308DF806308DF805601DF0C6
:10B850007DF8A189A068009169461DF077F8A38A58
:10B860002069009369461DF071F8A28BA0690092CF
:10B8700069461DF06BF82846FF2400F8014B00F8DC
:10B88000014B0470EC7002B070BD00BFD0B803086B
:10B890002DE9F041154C05460746A188206815F8AA
:10B8A000038B1DF0C5F93E4640EA480006F8010B3F
:10B8B000A068A18996F800801DF0BAF940EA480115
:10B8C00006F8011B2069A18A36781DF0B1F940EA1B
:10B8D000460205F8012CA18BA0692C781DF0A8F96F
:10B8E00040EA4403FB70BDE8F08100BFD0B8030814
:10B8F0002DE9F84F054600F5085342F23028303361
:10B90000DFEDDC7ADC4A9FEDDD7A05F61C5A05F5A1
:10B9100052690C4605F6245145F808A000264FF060
:10B920007E5E05F6B85B05F6BC5A85F8286DC9F849
:10B9300000E0C1F800E0C3F804B005F55C6185F8EB
:10B94000C46D05F5626BCAED007A05F6246AC1ED97
:10B95000007A05F61C690121C3F80890C3F80C9021
:10B9600000F5F85C85F8281E05F5F658CBF800E0E0
:10B97000CAF800E005F5F75A00F501570CF10C0B79
:10B9800008F11C08C3F81090C3F8148007F10809E7
:10B990008AF80860CAED007ACAED017AC3F818B0D7
:10B9A00005F1B00A4FF07C5B8CF81860CCF81020E1
:10B9B000CCF81420B248C3F81C9005F59E7CC7F85B
:10B9C0000CB0C7F810B03E7505F582791D6205F51B
:10B9D000E0782E736A60AA6005F51F77C3F824A08B
:10B9E00005F5317B05F2544A85F8BC60C5ED2D7A2A
:10B9F000C5F8B800C3F82890C5F80801C5F80C01CF
:10BA000085F8106105F25C49C3F82CC0C5F8440103
:10BA100085F84861C5ED507A05F58B6CC3F8308028
:10BA200085F8CC61C5F8C421C5F8C8215F63C5F8A5
:10BA30008002C5F8840285F8886205F2FC57C3F8D5
:10BA400038B085F8D062C5F8C822C5F8CC22C3F852
:10BA50003CA005F5C06A85F8606405F5BF688CED0B
:10BA6000007ADFF82CB2C9F8002005F20C6CC3F89C
:10BA7000408085F80466C7F800B0CAF800E005F514
:10BA8000D267C3F844C005F2946CBFEE000A05F516
:10BA9000C26005F2146805F28C694FF0404B85F8DE
:10BAA000186605F2747A80ED000A05F26C7088ED74
:10BAB000000AC3F8489005F5EE6885F89866C7F85F
:10BAC00000B0CCF800E005F50C6CD86405F6B807BA
:10BAD00085F8781705F6BC0988ED000A05F6FC1E06
:10BAE00005F5206005F60428CAF800201F6505F654
:10BAF000BC2A85F8C41805F6B82789ED000ACCF8E9
:10BB00000020C3F854E005F6DC3C05F53E6E85F8F0
:10BB1000081A05F6B42B026005F6D839C8F80020DB
:10BB2000182005F50A58C3F858B085F8C01A08F16E
:10BB3000100B3A60CAF800201F1FC3F85C9085F80C
:10BB4000E41BCCF80020CEF80020186657F8040F4C
:10BB500063680268E16823601368A1602146984722
:10BB6000DBF800300136B342F0DC5C1E05EE904A93
:10BB700005F5055E42F27C180022DFF818B1CEF818
:10BB80003420F7EE001AB8EEE51ACEF83820CEF8D9
:10BB90002820CEF82C20CEF83020CEED091A002433
:10BBA00045F8083042F29019CEF840B042F2941CA9
:10BBB00005F5085BCEF848208EED111ACEF84C4002
:10BBC00005F50651DE4605F507569FED2E6ADFEDB9
:10BBD0002E6ADFED2E0A05F809404FF0FF3745F8D1
:10BBE0000C70D946F046F4468A61F2638BED006A28
:10BBF000CBED016ACBED020ACBF81020CBF80C207C
:10BC00004FF07C5BC6F838B006F11003CEF8182070
:10BC10008EED076A42F2A01AC9ED086AC9ED090A59
:10BC2000C9F82C208E46C8F82820CCF814B08A63B6
:10BC3000C1ED101ACA63C1F844B08A6481F84C405F
:10BC400006F130018B4205F80A40CEF81C207363E0
:10BC50000AD01E4646F8042B46F8042B3260DA6000
:10BC60001A615A619A61DA6142F2F01400222A5193
:10BC7000BDE8F88F3333333FCDCC4C3F333333BF44
:10BC80009A99193F22BA003D0AD7233CCAAA7F3F9E
:10BC9000000040C0CDCC4C3D2DE9F04F044642F2AF
:10BCA000F01700F5075054F807E0D2F818A09FED00
:10BCB000E77ADFEDE76A00F130080EF10706D8F801
:10BCC000040006F0070600EB8E0B06F1050906F1ED
:10BCD000060C09F0070E0CF007082DED0C8B15462D
:10BCE00092F82320CBF800A000EB8E0A00EB88002E
:10BCF000DAED007A90ED006AD5ED04BAE65136EE41
:10BD0000670A8DB0E0EE077A0E46029395ED05BA0C
:10BD100095ED03CAD5ED078A95ED01AAF4EEE67A12
:10BD2000F1EE10FAF0EE670AD4BF00210121002ADB
:10BD300041F00A8242F2A01314F803A096F82C30C6
:10BD400095F8247096ED081A0397012B08BF96ED1D
:10BD50000A1A22B196F82E00012801F06F84B0EE85
:10BD6000E8DAB5EEC01AF1EE10FA01F1E882B7EEAA
:10BD7000009AB4EE491AF1EE10FAD8BFB0EE419A2B
:10BD800096F82D70D6ED091A012F04BFD5ED006A83
:10BD900071EEA61AF5EEC01AF1EE10FA01F1CB829F
:10BDA000B7EE008AF4EE481AF1EE10FAD8BFB0EE02
:10BDB000618ABAF1000F40F06A82002900F06F82B8
:10BDC00042F2A01703980123E35520B942F2CC12A6
:10BDD000A35495F8232004F5065BDE460BF13809E1
:10BDE000D5F800804FF07E51C9F800109346CEF888
:10BDF000188022B904F5065C2F68CCF8187096F804
:10BE00002D30D6ED072A002B41F09A8104F506501B
:10BE1000D0ED065A04F5055202F13C0E9EED023AB1
:10BE2000DEED033A9EED045A9EED014AE5EE833ABB
:10BE300042F27C11F8EEE24AF8EEC59A73EEA4AA3B
:10BE4000FFEE00CAF4EEE9AAF1EE10FAF7EE00DA1E
:10BE5000C8BFF0EE6CDAE4EE2DAAB6EE007A7AEE08
:10BE6000876AFDEEE67A17EE908AB8F1000FC1F20C
:10BE700031846758B84501DB07F1FF3842F294136B
:10BE800004F5085CE258CEF810800CF13000424511
:10BE900050F8287001F02B826E480278552A01F084
:10BEA0003182A8F10203022B01F24D826A4A52F854
:10BEB00023103868836838469847396838464A6896
:10BEC000904704F5075C04F5055B4FF07C50CCF817
:10BED0003800002342F2941242F29010CBF828303E
:10BEE000CBF82C30CBF83030CBF83430CBF83830BE
:10BEF0004FF07E510023CBF8241044F8028095F8CF
:10BF000023B0235442F2A01196F83100625C8DF800
:10BF10002C00002A01F011818AF0010A04F5065C68
:10BF20009CED076A8CED07AA3AEE060AF6EE000AC7
:10BF300060EE20CABBF1000F01F0FB80002A0CBFAD
:10BF40000021042141EA0A0005909FED44AA9FEDDB
:10BF5000441ADFED441A9FED442ADFED3D2A434A9F
:10BF60004349DFED495A99ED003AA9EE0A1A68EE05
:10BF7000828AFDEEC13A3DEE22DAB8EEE34AC8EE1F
:10BF80008D9A71EE444A13EE903A64EEA1AA02EB48
:10BF9000830EFDEEEA6A9EED005A16EE900A01EB62
:10BFA000800ADAED007A25EE276AB7EE007A26EEEF
:10BFB00025AAF0EE00DAF1EE4A8AB0EE470AA8EEC2
:10BFC000AD0AF5EEC09A60EE03AAF1EE10FAC9EDE3
:10BFD00000AA01F1A181F4EE479AF1EE10FAC8BF70
:10BFE000F0EE479AD6ED010A039B9FED221A3CEE34
:10BFF00020CA002BB5EEC0CA18BFB0EE691AF1EE28
:10C0000010FA4FF000028DED0A1A01F18D81F7EE62
:10C01000001AB4EEE1CAF1EE10FAC8BFB0EE61CA80
:10C020008DED09CAB8F10F0F01F02981B8F1070FA2
:10C0300001F08C81F7EE00DA95F821A095F82090B8
:10C0400095F82280B0EE6DDA2AE000BF0000000013
:10C050009A99993EFE7F000854D302080000C0C29E
:10C0600000000043000080436666A63F94F5030885
:10C0700098F90308CDCC4C3FCFF7DF400000404299
:10C080000000EEC20000F042CDCC4C3D6666863F1B
:10C0900000000000000000C30000FE42CDCCCC3DFB
:10C0A00096F82C0078B996ED0A3A5FED0D3A23EE3A
:10C0B000230A1DF047F9B0EE084A70EE444AB2EE8A
:10C0C000085AE4EE85CA96ED047A5FED117A1FED09
:10C0D000110AD6ED000A95ED026AF0EEC76A36EE57
:10C0E000E71A2DEE2ACAB4EEE71AF1EE10FA58BF9D
:10C0F000F0EE417A67EE271A7CEEA0CA21EE802A84
:10C10000B9F1000F09D1BBF1000F01F043806CEED3
:10C110002A2A5FED265A22EEA56AE2EE06CA1FED34
:10C1200028DAF4EECDCAF1EE10FA00F1FE871FED29
:10C130002B3AF4EE43CAF1EE10FAC8BFF0EE43CA50
:10C14000D6ED053A1FED304A5FED304ACDED06CA17
:10C15000B0EEE35A35EE447AD6ED027AB4EEC47A04
:10C16000F1EE10FA58BFB0EE474A23EE840A60EEB3
:10C17000240ABAF1000F05D1BBF1000F01F00680CF
:10C180006DEEAABAF0EE67AAE0EEABAAF5EEC0AA91
:10C19000F1EE10FA01F1CB80F7EE00DAF4EE6DAAC1
:10C1A000F1EE10FACCBFF0EE6D6AF0EE6A6A96ED31
:10C1B000061A5FED4B1A1FED4B2ACDED076AB0EE64
:10C1C000C16A76EE612AD6ED035AF4EEE12AF1EE69
:10C1D00010FA58BFF0EE621A21EE21DA2DEE023A83
:10C1E000B8F1000F06D11FED56BABBF1000F18BF12
:10C1F000B0EE4CBAF0EE65CAE3EE0BCAF5EEC0CA7B
:10C20000F1EE10FA01F18C80B7EE00CAF4EE4CCAE0
:10C21000F1EE10FAC8BFF0EE4CCA3968229B97F8CD
:10C220000CE000930DF1130204F50A5B04F50B58C2
:10C2300001920BF1140908F134084346D1F80CA01F
:10C24000CDED08CA4A468DF813E0384605A9D04717
:10C2500096F82F305BB3DDED063A1FED724AF2EE31
:10C26000024A33EEE45AB4EEC45AF1EE10FA01F188
:10C270009D801FED777AB4EEC75AF1EE10FA41F3C4
:10C28000F1814FF0000C4FF0FF0B01F092B81FED61
:10C290007D2AF4EEC20AF1EE10FA00F1E58704F50A
:10C2A000065C0CF138099346A3E5CEED001A229BFB
:10C2B000013B96F82DE096F82C20BEF1020CDCF143
:10C2C000000A5AEB0C01022A40F01C8796ED0A1A6C
:10C2D000002940F01C87B5EEC01AF1EE10FA00F10B
:10C2E0002087B7EE005AB4EE451AF1EE10FAC8BF37
:10C2F000B0EE451A229E002E00F0C78058ED181AA5
:10C30000D8ED00CA7CEEE17A04EB860BE1EE271A49
:10C310000BF50B5000F1340EC446C8EB0E02ECECEA
:10C32000011A111FF445C1F3820600F0AE80002E01
:10C3300053D0012E45D0022E39D0032E2DD0042EFD
:10C3400021D0052E15D0062E09D05CED18DA9CED13
:10C35000006A76EE6D2AE1EE22DAECEC01DA1CEDF1
:10C3600018DADCED005A35EECD3AA1EE03DAACEC8A
:10C3700001DA1CED187A9CED002A32EE47BAA1EEE4
:10C380000B7AACEC017A1CED18CADCED006A76EE93
:10C39000CC3AA1EE23CAACEC01CA5CED180A9CEDC4
:10C3A000004A74EE60BAE1EE2B0AECEC010A5CED97
:10C3B000184A9CED000A70EE64AAE1EE2A4AECEC01
:10C3C000014A1CED185ADCED001A71EEC5CAA1EE47
:10C3D0002C5AACEC015AF44557D05CED187ADCEDE0
:10C3E00000DA3DEEE76AE246E1EE067A0CF11C0067
:10C3F0000CF1200CEAEC017A5AED182A1CED07DA50
:10C400007DEE625AD346E1EE252AEBEC012A1BEDC4
:10C41000183A9AED012A1CED1D7A1CED05CA5CED57
:10C420001C6A5CED040A1CED1B4A5CED034A1CED22
:10C430001A0A5CED191A1CED025A5CED01CA32EEC3
:10C4400043BA7CEE473A70EEE6BA74EEC4AAA1EEA7
:10C450000B3AA1EE237AE1EE2B6AA1EE2A4A75EEA1
:10C46000407A7CEEE1DAA1EE270AE1EE2D1A0CED1E
:10C47000063A0CED057A4CED046A0CED034AF445DE
:10C4800000ED010A4CED011AA7D19DF81320002AF6
:10C4900040F0EF820399002940F0808695F8231040
:10C4A000002900F0E682F2EE082A28EE22DA9FED5B
:10C4B000E73A9FEDE72A9FEDE76AE74EE74A9DEDF1
:10C4C00006BADFEDE79ADFEDE75AA9EE03DAB2EE3E
:10C4D000029A3DEE02CA3BEE497AFDEECC6AB4EE1A
:10C4E000E97AF8EEE63A16EE905A7CEE630A06EB2D
:10C4F000850E60EE86BA9EED004ABDEEEB0AF1EEC7
:10C5000010FA10EE10CA02EB8C0ADAED004A64EE63
:10C5100024AAEAEEA58A01F19082DFEDD31AB4EEE7
:10C52000E17AF1EE10FA41F3748203984FF0FF0BB9
:10C5300004F5065101F13C0EC74EC8499EF8102083
:10C5400006EB8B0501EB800C95ED00DA9CED003AD3
:10C55000002A01F0EE802DEE034ADFEDC4BA9EED15
:10C56000002A24EE2B0AF2EE084A60EE24AAF0EE2E
:10C57000001AAAEEA12AF7EE003AB4EEE32AF1EE91
:10C5800010FA8EED002AC1F2A9800020DFEDB89AE2
:10C59000DFEDBC6A8EF81000B0EE637AB0EE632A6D
:10C5A000FFEE000AF7EE00DA3DEEC71AA8EE81AA08
:10C5B0000026E8EE236ADFEDAF8A97ED013AAAEE96
:10C5C000202AB0EE69AAA8EE28AA68EE262AB5EEBF
:10C5D000C03A28EE22DAF1EE10FAB0EE429AB0EE4E
:10C5E0004D8AB0EE4ABA8EED03DA8EED002A8EED5A
:10C5F000012A8EED02AA40F15882229DF1EE439A63
:10C60000002D01F087804A46B2EC016A9FED9ACA7C
:10C610009FED9A7A04F5075B0BF1380E69EE865AA6
:10C62000DEED006AF0EEE53A73EEE60AB7EE004A98
:10C63000F5EEC00AF1EE10FAC8BFB0EE4C7AE0EEAB
:10C64000876A03F00101F4EEC46AF1EE10FACEED50
:10C65000006A01D984EE264A03F1FF3A65EE84BAF6
:10C660009FED870A6BEE804A42ED014A002B00F0F5
:10C670008C8071B3F2EC01AADEED001ADFED7ECA08
:10C68000DFED7E7A9FED7EAA69EEAADAB7EE005A58
:10C69000B0EEED1A71EE618A0AF1FF3AF5EEC08A4A
:10C6A000F1EE10FAC8BFF0EE6C7AE8EEA71AF4EEDD
:10C6B000C51AF1EE10FA88BF85EE215A1AF1010071
:10C6C000CEED001A6DEE852A22EE8ADA02ED01DA4D
:10C6D0005BD09446BCEC013A9EED002A9FED666A61
:10C6E0009FED66CADFED660ADFED63BA9FED634A30
:10C6F00029EE837AF7EE005AF0EEC76A76EEC23A78
:10C700006246F5EEC03AF1EE10FAC8BFB0EE46CA86
:10C71000A3EE8C2A0AF1FF30F7EE004AB4EEE52AC8
:10C72000F1EE10FA88BFC5EE825A8EED002A27EE90
:10C73000250A60EE20AA4CED01AAF2EC011ADEED0A
:10C7400000CA69EEA17AF0EEE7DA3DEEEC5AB5EEFA
:10C75000C05AF1EE10FAC8BFB0EE6B4AE5EE04CA5B
:10C76000F4EEE4CAF1EE10FACEED00CA01D9C4EE3F
:10C77000AC4A00F1FF3A9FED421A67EEA48A68EED8
:10C78000812A42ED012A0028A3D104F5075595ED31
:10C79000013AD5ED02BAD5ED003ADFED3B9AAE464F
:10C7A000002E00F09181229A002A00F0B480B9ECAA
:10C7B000019A029D29EE898A03F00300BDEEC8BAF2
:10C7C000591E1BEE10CA0CF1010A0AF30F0B25F8D3
:10C7D00004BB2A1D002B00F09E8000285AD001289F
:10C7E00020D002280FD0B9EC01AA29EE8ADA01394B
:10C7F000BDEECD2A043212EE10EA0EF1010505F36A
:10C800000F0C22F808CCB9EC016A29EE86CA01396E
:10C81000BDEECC7A043217EE100A451C05F30F0A60
:10C8200022F808ACF9EC015A69EEA56A0139FDEE6F
:10C83000E60A4D1C10EE90BA02F104020BF1010E53
:10C840000EF30F0C22F808CC65D023E0000090C254
:10C85000000000430000804394F5030898F90308A2
:10C86000000000C30AD7A33B0000FE425196963950
:10C87000D1229B3E0AD7233DCDCC4C3DACC5A7373A
:10C88000CDCC4C3F0000000000FEFFC6D757394119
:10C89000DB0F49404846B0EC014A99ED020AD0ED61
:10C8A00000AAD9ED037A09F1100969EE841A69EE3C
:10C8B000AACAFDEEE1DABDEEEC5A69EE804A29EE35
:10C8C000A71A93461DEE90AA15EE105AFDEEE48AC3
:10C8D000FDEEC12A05F1010E0AF1010018EE90CA21
:10C8E0000EF30F0A00F30F0022F8040C2BF804AB30
:10C8F00012EE905A04390CF1010000F30F00ABF86E
:10C900000000481C05F1010E02F110020EF30F0A9F
:10C9100022F808ACBED197ED028AB5EEC08AF1EEDE
:10C9200010FA00F1EC8100F1B2821FED29BA28EE75
:10C930000B4A002E00F0B082229C002C00F0948064
:10C94000B8EC013A029D64EE033A03F00306FDEEF3
:10C95000E3BA05F10A0E1BEE90AA03F1FF390AF1C2
:10C96000010000F30F076F80002B7DD0E6B3012E8E
:10C9700025D0022E11D0F8EC01DA029A24EE2D0A0D
:10C9800009F1FF39BDEEC08A18EE103A5C1C04F3C1
:10C990000F062EF8046C02F10E0EB8EC01BA64EE2C
:10C9A0000BAA09F1FF39FDEEEA0A0EF1040E10EEB2
:10C9B00090BA0BF1010505F30F002EF8080CF8EC06
:10C9C00001CA64EE2C6A09F1FF39FDEEE64A19F15D
:10C9D000010414EE90CA0EF1040E0CF1010101F3F2
:10C9E0000F072EF8087C3FD0C246FAEC017A98ED8A
:10C9F000021ADAED008A98ED03AA08F1100824EE75
:10CA0000275A64EE282A24EE0A7ABDEEC5DABDEE76
:10CA1000E22A24EE01CABDEEC79A73461DEE104A03
:10CA200012EE106AFDEECC9A19EE100A621C751C0B
:10CA300002F30F0105F30F0B2EF8041C19EE90CA38
:10CA400023F804BBA9F10409461C06F30F0419F1ED
:10CA500001060CF101070EF1100E07F30F0AA3F8FF
:10CA600000A02EF8084CBFD10DB0BDEC0C8BBDE87A
:10CA7000F08F04F5065A1FED7D8A0026B7EE009A66
:10CA8000B6EE00BA8AF84C608AED0F8A8AED128AF7
:10CA90008AED109A8AED11BA012697ED013AB5EEAA
:10CAA000C03AF1EE10FA3FF5A8AD00F133861FED64
:10CAB0008A2AF0EE48BA63EE029AF0EE493AB0EEF6
:10CAC0004B3A002E7FF46FAE1FED90AA1FED90DA67
:10CAD0002BEE0A2AB7EE006AA2EE0BDA04F5075134
:10CAE00001F13C0CB0EE04CA2DEE0BBAB0EE467A62
:10CAF000ABEE0C7A04F50852DCED006A82ED00BA68
:10CB0000ABEE0B7AF0EE665A86EE074AD9EE895AFA
:10CB1000DDED229A82ED024AB8EE699A19EE905A3A
:10CB200082ED01CAC5EE89AA002D00F0DE80029DCB
:10CB300003F00101581ED2ED031AF9EC01CAD2ED3F
:10CB400004DA76EEAA6A2CEE610AF1EE4B0AACEE3C
:10CB5000A60AA0EEA10A70EE6D7A24EE275AEBEE3B
:10CB6000051AEBEE21DAF0EE614AB0EE6D1A9CEE9A
:10CB7000A61AF0EE6D2AE1EE08DAEBEE054AEBEECE
:10CB8000212ABDEEEDAAC2ED042A1AEE10BAC2EDBA
:10CB9000034A0BF1010E0EF30F0A25F804ABB0EEB9
:10CBA000649AF0EE62CA0435002B00F09E80A9B3AF
:10CBB000B9EC012A76EEAA6A2CEE64DAF0EE649AF9
:10CBC000A2EE26DA01380435B0EE626AA0EEA4DAED
:10CBD0003DEE62CA24EE0C7AEBEE079AABEE296AC0
:10CBE000B0EE699AF0EE465AD2EE265AF0EE46CAF8
:10CBF000A5EE886AABEE079AFDEEC6DAEBEE29CA1F
:10CC00001DEE901A01F1010B411CC2ED04CA82ED28
:10CC1000039A0BF30F0E25F808EC66D0B0EE040A69
:10CC2000B9EC011A76EEAA4A60EE497A74EEAA6A65
:10CC3000E1EE247A29460238E0EE897A37EEEC5AA2
:10CC400064EE058AABEE289AEBEE09CAF0EE492AAB
:10CC5000B0EE6CDAEBEE282AABEE09DAC2ED032A6D
:10CC600082ED04DAB9EC01CA20EE622AB0EE62AAC3
:10CC7000ACEE262AB0EE6C7AA0EEA22A91EE247ACF
:10CC800032EE4D6AE7EE08CA64EE065ABDEEEC9A43
:10CC9000ABEE25AA19EE10AAABEE0ADA0AF1010BE7
:10CCA0000BF30F0EF0EE4A1AF0EE4DDADCEE26DA58
:10CCB00025F804ECF0EE4DCAADEE88DAEBEE251A5D
:10CCC000EBEE0ACABDEECD0AC2ED04CA10EE105A50
:10CCD000C2ED031A05F1010A0AF30F0B21F804BB98
:10CCE0000D1D411CB0EE619A98D1CCED006A97ED14
:10CCF000028AB5EEC08AF1EE10FA7FF514AE229FDB
:10CD0000B1EE484A002F00F0C2804246F2EC01AA80
:10CD1000DFEDF20ADFEDF2CA04F5085909F1140C4F
:10CD200064EE2A6ADCED004AF0EEE67A37EEE41AA9
:10CD3000B7EE005AB5EEC01AF1EE10FAC8BFF0EE29
:10CD400060CAE1EE2C4A03F00100F4EEC54AF1EEB0
:10CD500010FACCED004A01D985EE245A03F1FF3ECA
:10CD600066EE858ADFEDDF2A28EEA2AA02ED01AA8F
:10CD7000002B00F08C8070B3B2EC01DA9CED002A3D
:10CD80009FEDD6CA9FEDD67ADFEDD6DA64EE0D9A26
:10CD9000B7EE006AB0EEE99A79EE425A0EF1FF3E24
:10CDA000F5EEC05AF1EE10FAC8BFB0EE4C7AA5EE1F
:10CDB000872AB4EEC62AF1EE10FA88BF86EE026A20
:10CDC0001EF101008CED002A69EE861A21EEAD0AF3
:10CDD00002ED010A5BD01146B1EC018A9CED00BA6C
:10CDE000DFEDBEAADFEDBE0A9FEDBE1ADFEDBB8A06
:10CDF0009FEDBB5A64EE08CAF7EE006AF0EEEC4A0B
:10CE000074EECB7A0A46F5EEC07AF1EE10FAC8BF9E
:10CE1000F0EE6A0AA7EEA0BA0EF1FF37B7EE009A5D
:10CE2000B4EEE6BAF1EE10FA88BFC6EE8B6A8CED6E
:10CE300000BA6CEEA62A22EE81AA01ED01AAB2EC9C
:10CE400001DA9CED002A24EE0DCAB0EECC7A77EE22
:10CE5000429AF5EEC09AF1EE10FAC8BFB0EE685AE9
:10CE6000A9EE852AB4EEC92AF1EE10FA8CED002A5B
:10CE700001D989EE029A07F1FF3E9FED9A6A6CEEA6
:10CE8000095A65EE861A42ED011A002FA3D19FEDD3
:10CE9000964A002E7FF450AD9FED946ADFED945AD0
:10CEA00063EE061AB7EE008AE1EE835A04F50859DC
:10CEB00009F11800F0EE04DA25EE83BAB0EE483A34
:10CEC000ABEE2D3A04F5085E0EF11C0BD0ED006AB6
:10CED0008BED00BAABEE0B3AF0EE66AAC8EE030A91
:10CEE000D4EE23AA9DED224ACBED020AF8EE443A95
:10CEF00014EE102ACBED01DACAEEA3CA002A00F024
:10CF0000E580029F03F0010607F10A0903F1FF3AE9
:10CF1000DBED038AF8EC014A9BED045A76EEAC6A2D
:10CF20002DEEE80AF1EE4B2AA4EEA60AA2EEA80A1C
:10CF300070EE457A20EEA71AEBEE018AABEE285A86
:10CF4000B0EE68AAB0EE45DA94EEA6DAB0EE45CAC5
:10CF5000ADEE2B5AABEE01AAABEE28CABDEEC57AF8
:10CF60008BED04CA17EE105A8BED03AA6C1CF0EE81
:10CF70004AAA04F30F0CB0EE4C4AA7F802C0002BEB
:10CF800000F0A480CEB3B8EC019A029976EEAC6AB8
:10CF90006DEECA9AF0EE4ADAE9EE269A0AF1FF3A05
:10CFA0001AF10105B0EE4C8AE2EE8A9A39EECC6AAB
:10CFB00060EE861AEBEE21DAABEE2D8AF0EE6DAA6A
:10CFC000F0EE485AD9EE265AB0EE484AA5EEAB8AA2
:10CFD000EBEE21AAABEE2D4AFDEEC83A8BED044AEA
:10CFE00013EE903ACBED03AA03F1010202F30F0610
:10CFF00029F8046C01F10E0968D0F0EE048AB8EC4F
:10D00000011A76EEAC4A28EEEA5A74EEAC6AA1EE4A
:10D01000245ACE46AAF1020AA2EEAA5A35EE440AD2
:10D0200060EE807AEBEE27AAABEE2A4AB0EE6AAA4F
:10D03000B0EE442AABEE27AAABEE2A2A8BED03AA68
:10D040008BED042AB8EC017A28EECACAB0EE4ADAAF
:10D05000A7EE26CAF0EE449AA2EE8ACAD1EE249A2E
:10D060003CEE426AA9EEAB4A60EE86DAFDEEC41AE7
:10D07000ABEE2DDA11EE907AABEE0D2A7D1C05F3A6
:10D080000F04B0EE4D8AF0EE425AD7EE265A29F838
:10D09000044C1AF10107B0EE424AA5EEAB2AABEE02
:10D0A0002D8AABEE0D4ABDEEC23A8BED044A13EE6B
:10D0B00010CA8BED038A0CF1010303F30F022EF863
:10D0C000042BF0EE48AA0EF1040996D1C0ED006AD7
:10D0D0000DB0BDEC0C8BBDE8F08F00BFCDCC4C3D4E
:10D0E000ACC5A737CDCC4C3F00FEFFC6D757394162
:10D0F000DB0F494000000000000090C20000004328
:10D100000000804300293FF4C0A9B6EE001AD5ED17
:10D1100000AA31EE2A1AB5EEC01AF1EE10FA7FF528
:10D12000E0A81FED0C1AFFF7E5B8F0EE4DCAFFF7C7
:10D1300007B802230593FEF708BF9246FEF7EEBE3E
:10D140005FED145AFEF766BE96F8327042F2A010F8
:10D15000012F14F800A07EF4F1AD04F50659CC4679
:10D16000CB46CE46C846BAF1000F40F0A782002950
:10D1700000F0A482C9ED09BA89ED0ABA89ED0BCA9B
:10D18000C9ED0C8A89ED0DAAFEF7D8BD5FED27BA6F
:10D19000FEF7F8BFB7EE006AFEF7BFBFB2EE081A9F
:10D1A00068EE012A1FED2C6A1FED2CDA1FED2C3AD8
:10D1B000734E74489FED742AE9EE062A04F5065E64
:10D1C0000EF13C0C9CED009A32EE8DBA79EEC99AC4
:10D1D000BDEECB7AF7EE005AB8EEC7CA17EE105A7A
:10D1E0007BEE4C6A06EB850A66EE830ADAED003ABE
:10D1F000FDEEE0BA29EE094A1BEE902A00EB820B05
:10D20000DBED004A35EEC90A63EEA4AAF5EEC09A3A
:10D21000F1EE10FA64EE041AEAEE828A60EE00CAB9
:10D2200040F347829FED59AAF7EE008A78EEEC7A38
:10D23000DFED57DA9FED57BA9FED571AE8EE27CA90
:10D240000026A1EEADBAA9EE8A9AA8EE01BA28EEA0
:10D250002CAA8CED009A28EE0A8A8CED019A8CEDAE
:10D26000038A8CED02BA18E442F2A010002104F502
:10D270000659215409F138099346FEF7BABD9DEDD0
:10D28000092AF1EE082AF0EE005AE2EE625AF5EEB3
:10D29000C05AF1EE10FA00F17F82B7EE00DAF4EE38
:10D2A0004D5AF1EE10FAD8BFB0EE65DABBF1000FBF
:10D2B00000F0CE8195F82030002B40F07882D6F82F
:10D2C00010A095F8222004F5BE61C1F800A0002A44
:10D2D00040F06982B0699946904604F2F45C95F892
:10D2E00021A0CCF80000F7EE00DAFEF7D9BE42F23A
:10D2F0009011635C002B3EF405AE28480278552A55
:10D300007EF4CFAD2649087808F1200B58457EF40D
:10D31000C8AD2449FEF7CDBDDFED239AFEF762BE0E
:10D32000DFED21CAFEF779BF0992FEF77BBEDFED84
:10D330001E6AFEF73CBF9FED1C8AFEF73ABD9FEDCB
:10D340001A9AFEF71DBD0021FEF7B3BDBBF1000F19
:10D3500000F09D8195F82100002840F06C8304F5D1
:10D36000055C726995F82090DFED0FDACCF8182093
:10D37000824695F82280B7EE00DAFEF791BE00BF34
:10D3800094F5030898F903080AD7A33B9A99193F23
:10D390009A99993EA69B443B0AD7233DFE7F0008FD
:10D3A000FF7F000800700008000000004FF0000C34
:10D3B000E346EC48EC4A9FEDED6A00EB8B0102EB93
:10D3C0008C0ED1ED001A9EED002A96F8300061EE29
:10D3D000822A012862EE865A00F0A681022804BF44
:10D3E000B5EE006A65EE865A012B00F0E381022B50
:10D3F0007EF45DAFB5EE003AF4EEC35AF1EE10FAEA
:10D4000080F21F839FEDDABA9FEDDACA65EE8BCA10
:10D41000F0EE003A2CEE8C4AECEEC43A6CEEA34AE5
:10D4200004F5055A0AF1240CDCED01CADCED007AA2
:10D430009DED225A6CEEAC0A04F50553E7EEA70AFF
:10D4400003F12C0B04F505519BED007A91ED0C2AAC
:10D45000F6EE00AA74EEC7BAB8EE450AF4EEEA0A90
:10D4600001F1300AF1EE10FACBEE80DA06D9B0EE17
:10D47000001AF4EEC10AF1EE10FA1CDB10EE902A4D
:10D480005008C0F1BE4E0EF55D1303F5CE51F6EE19
:10D49000001A01F11F0202EE902A20EEA16AF7EEB7
:10D4A000085A22EE86DAE2EECD5A22EEA53A67EE6F
:10D4B000837A6CEE83CA2298431E002800F0B48061
:10D4C00037EE2D7AC646E7EE2C7A03F00702591E96
:10D4D000E7EE67CAEEEC017A002B00F0A580002A87
:10D4E0004CD0012A3FD0022A34D0032A29D0042A62
:10D4F0001ED0052A13D0062A08D037EE2D7A01391E
:10D50000E7EE2C7AE7EE67CAEEEC017A37EE2D7A79
:10D510000139E7EE2C7AE7EE67CAEEEC017A37EED6
:10D520002D7A0139E7EE2C7AE7EE67CAEEEC017A44
:10D5300037EE2D7A0139E7EE2C7AE7EE67CAEEEC8A
:10D54000017A37EE2D7A0139E7EE2C7AE7EE67CAD9
:10D55000EEEC017A37EE2D7A0139E7EE2C7AE7EE20
:10D5600067CAEEEC017A37EE2D7A0139E7EE2C7AB4
:10D57000481CE7EE67CAEEEC017A55D037EE2DBABB
:10D580007046EBEE2C7A08390EF1200E3BEE2DCAD8
:10D59000EBEE67CAF0EE673AECEE2C3A7CEE2D6AC1
:10D5A000ECEE63CAF0EE63BAE6EEACBA76EEAD0A24
:10D5B000E6EEEBCAF0EE6BAAE0EEACAA30EEAD4AB6
:10D5C000E0EEEACAE0EC017AF0EE6A7AE4EE2C7A58
:10D5D000B0EE6C5AA4EE675A74EE2D4AF0EE671A5C
:10D5E000E4EE851AF0EE45CAE4EEE1CA34EEAD0A87
:10D5F000C0ED003A4EED047AF0EE617AE0EE2C7A5E
:10D60000481C30EE2D7AE0EE67CA4EED027AE7EE66
:10D610002C7A4EED06BA4EED05AA4EED031AE7EE52
:10D6200067CA4EED017AA9D1CCED007ACCED01CAE2
:10D630008AED002A8BED007AFEF73BBE9FED54DAAF
:10D64000002331EE281A0393F0EE4D8AFEF789BBD2
:10D6500004F5BE6E002095F8209095F82280CEF853
:10D6600000003AE6DFED447ADFED440A75EE27BAB2
:10D67000BDEEEB0AF8EEC0AA10EE10BA7BEEEADAC5
:10D680006DEEA06ABDEEE61A11EE10CA91E695F8AD
:10D6900021A004F50558F7EE00DA4FF0804195F827
:10D6A0002090C8F81810B0EE6DDA95F82280FEF7D9
:10D6B000F7BC35EEE15AA8EE85AAB5E5D9ED09BA71
:10D6C0009CED0ABA9BED0BCADEED0C8A98ED0DAA13
:10D6D000FEF734BB4FF00008FEF7D0BB62EE02CA83
:10D6E00073EEC27A9FED265ADFED269A2CEEAC7AC5
:10D6F00067EEA76AE7EE059A72EE420A73EEE63A23
:10D70000F5EEC00AF1EE10FA7EF74CAF9FED1EAABF
:10D71000FEF74EBFF0EE48BAB0EE4B3AF0EE493AA3
:10D72000DFED1A9AFFF73CB8B6EE00DA65EE8D5AD7
:10D730005AE69EED002A9FED12BADFED129A9FED98
:10D74000146AF7EE005A22EE029A35EEC2CA29EEAA
:10D75000097A6CEE0C6AE7EE0B9A75EEE63A76EE15
:10D76000420ACDE794F5030898F9030851969639D3
:10D77000DB0F49400AD7A33E00000043000080436E
:10D780009A99993EA69B443B9A99193F00FEFFC681
:10D7900000000000C937B53F1FED03DABBF1000FF1
:10D7A0003FF456AF86E500209946D84695E54FF000
:10D7B000000A86E504F50553F6EE00DAF4EE6D5A3C
:10D7C00003F1380EDDED222ADEED001AF1EE10FA3B
:10D7D00004F50B52B8BFF0EE65DA02F1380312EE31
:10D7E000902A3DEEE16AB8EE62DA12F0030AC6EE64
:10D7F0000D5A00F0D18004F5055101F1340B229847
:10D800000433421E9BED003A71EEA51AB7EE002AD2
:10D8100031EE837AB6EE00BAB4EEC27AF1EE10FAC7
:10D82000A8BF37EE427AB4EECB7AF1EE10FA8BED68
:10D83000007A5ABF4FF03F4B43F808BC03ED02BAE1
:10D84000BAF1010F00F0A880BAF1020F23D004F55D
:10D85000055C0CF1340A9AED00CA71EEA51AF7EED8
:10D86000003A71EE8C6AF6EE000AF4EEE36AF1EE2D
:10D8700010FAA8BF76EEE36A013AF4EEE06AF1EE40
:10D8800010FACAED006A5ABF4FF03F4A43F804ACA1
:10D8900043ED010A043304F5055101F1340B9BED0E
:10D8A000004A71EEA51AF7EE004A71EE84BAB6EEA0
:10D8B000000AF4EEE4BAF1EE10FAA8BF7BEEE4BA87
:10D8C000013AF4EEC0BAF1EE10FACBED00BA5ABF4D
:10D8D0004FF03F4B43F804BC03ED010A04335BE017
:10D8E00034EE634A8CED004AF6EE004AB4EEE44AA8
:10D8F000F1EE10FA58BF4FF03F4C04F5055254BFFB
:10D9000043F804CC43ED014A02F1340B9BED001ABD
:10D9100036EEA55AF7EE007A35EE010AB6EE00DAD9
:10D92000B4EEE70AF1EE10FAA8BF30EE670A03F191
:10D93000040AB4EECD0AF1EE10FA8BED000A04F5FC
:10D9400005515ABF4FF03F4B4AF804BC0AED01DACB
:10D9500001F1340C9CED002A75EE251AB7EE007A21
:10D9600031EE82CAB6EE006AB4EEC7CAF1EE10FA22
:10D97000A8BF3CEE47CAC21EB4EEC6CA03F10800F7
:10D98000F1EE10FA8CED00CA5ABF4FF03F4C40F850
:10D9900004CC00ED016A0C33501E002A3EF485AC25
:10D9A00004F5055B0BF1340A9AED00BA71EEA5BAE5
:10D9B000F7EE00CA7BEE8B0AF6EE002AF4EEEC0AD4
:10D9C000F1EE10FAA8BF70EEEC0A04F50551F4EE82
:10D9D000E20AF1EE10FACAED000A56BF4FF03F4AD4
:10D9E00043ED012A43F804AC01F1340C7BEEA56A47
:10D9F000DCED00AA36EEAA4AF7EE003AB4EEE34AAE
:10DA0000F1EE10FA03F10403BFF66AAF8CED004AA1
:10DA10006AE777EE02CABDEEEC5AF8EEC57A15EE6B
:10DA200010BA7CEEE7DA2DEE861AFDEEC12A12EE70
:10DA3000900AFEF77DBDDA462BE603988346FEF793
:10DA400077BD5FEDAC4AEBE42DE9F0070A9BD1ED21
:10DA5000007A04EE103AB6EE007AF8EE446AF4EE7C
:10DA6000C77AB7EE006AF1EE10FA86EE260A00F3E6
:10DA7000EB80DFED770A27EEA01AFCEEC11A11EE5B
:10DA8000906A92ED002AD0ED017AD0F80080F1EE94
:10DA9000002AB4EEE22AF1EE10FAD4BFF0EE424AC8
:10DAA000F0EE624A34EEE73A03F1FF3923EE000A62
:10DAB000002B00F0C2800899DFED665AF1EC013AC4
:10DAC0009FED656A654ADFED666A099B33EEA55AEC
:10DAD00008EB060425EE064A09F0010CBCEEC47AF8
