:020000040800F2
:108000000080002055920208BD840008C184000849
:10801000C5840008C9840008CD8400080000000061
:10802000000000000000000000000000D1840008F3
:10803000D584000800000000D9840008A592020839
:10804000A5920208A5920208A5920208A59202082C
:10805000A5920208A5920208A5920208A59202081C
:10806000A5920208A5920208A5920208A59202080C
:10807000A5920208A5920208A592020865B100081F
:10808000A5920208A5920208A5920208A5920208EC
:10809000A5920208A5920208A5920208A5920208DC
:1080A000A5920208A5920208A5920208A5920208CC
:1080B000A5920208A5920208A5920208A5920208BC
:1080C000A5920208A5920208A5920208A5920208AC
:1080D000A5920208A5920208A5920208A59202089C
:1080E000A5920208A5920208A5920208A59202088C
:1080F000A5920208A59202080000000000000000FE
:108100000000000000000000A5920208A5920208ED
:108110000000000000000000A5920208A5920208DD
:10812000A5920208A5920208A5920208A59202084B
:10813000A5920208A5920208A5920208A59202083B
:10814000A5920208000000000000000000000000EE
:10815000000000000000000000000000000000001F
:108160000000000000000000A5920208A59202088D
:10817000A592020800000000A5920208000000007D
:10818000A5920208000000000000000000000000AE
:1081900010B5054C237833B9044B13B10448AFF341
:1081A00000800123237010BD30000020000000007B
:1081B0009081000808B5064B1BB106480649AFF38D
:1081C00000800648036813B1054B03B1984708BD0A
:1081D00000000000908100083400002030000020E2
:1081E00000000000704700BF30B442F2480541F67D
:1081F0000C7441F6DC61154A4251C0F81C2EC0F8DF
:10820000B82DC0F81C2DC0F8D82BC0F8B42AC0F87F
:10821000FC29C0F8B828C0F86C27C0F88C26C0F834
:108220000C26C0F8F825C0F85424C0F8C422C0F8C1
:108230007C22C0F8C021C0F83C21C0F80421C0F85D
:10824000B02002600251425030BC7047389402089E
:10825000704700BF704700BF704700BF704700BF46
:108260002DE9F0478D4C82B00746884620F01CFD72
:10827000204602F01DFB8A4A92F8213083B9894DCD
:108280003B46CDF8008087488749854A42F29417DB
:1082900003F002FDED59C4F8C45102B0BDE8F08707
:1082A000824D92ED040A284602F00EFE05280CD0FD
:1082B000022820D00428E2D17D497A4D207040F276
:1082C000DC562167C4F8AC61DAE795ED522AD5EDAA
:1082D000512AF8EE426AB8EE623AF7EE003A86EEBC
:1082E000834AB4EE634AF1EE10FA25D06D4D6F4823
:1082F00002F0D4FDC4E795ED527AD5ED517AB8EE8F
:10830000470AF8EE670AF7EE001A80EE201A0420FA
:108310002070B4EE611AF1EE10FA84ED1C1A08D048
:10832000B5EEC01AF1EE10FA03D40022C4F8AC2165
:10833000A5E740F2DC52F9E7D5F84091594D99F89C
:10834000FE1F42F2941A55F80A308B42C0F2978011
:1083500099F8FF6FB34200F3928003F120004FF0D1
:10836000550C544E89F8FF0F89F8FECF53E0304684
:1083700059F8041B043620F0C7FAC6F30A01002995
:1083800077D03046D9F8001006F1040A20F0BCFA84
:10839000CAF30A03002B66D05046D9F8041006F140
:1083A000080A20F0B1FACAF30A00002855D0504656
:1083B000D9F8081006F10C0A20F0A6FACAF30A024E
:1083C000002A44D05046D9F80C1006F1100A20F0CB
:1083D0009BFACAF30A01A1B35046D9F8101006F16E
:1083E000140A20F091FACAF30A0323B35046D9F8CD
:1083F000141006F1180A20F087FACAF30A00A0B197
:1084000009F11C09504659F8041C20F07DFA2A4A4B
:108410001C3696423CD0C6F30A02002AA7D120F0AF
:10842000B3F9304620F052FAA1E720F0ADF95046FA
:1084300020F04CFAE4E720F0A7F9504620F046FA85
:10844000D4E720F0A1F9504620F040FAC4E720F02C
:108450009BF9504620F03AFAB4E720F095F95046DF
:1084600020F034FAA3E720F08FF9504620F02EFADE
:1084700092E720F089F9304620F028FA81E70420BD
:108480000B4A207040F2DC562267C4F8AC612EE73C
:1084900042F2901101236B5429E700BF4C000020E9
:1084A000486800206403002014680020180200209F
:1084B000000080BF0070000800800008704700BF07
:1084C000FEE700BFFEE700BFFEE700BFFEE700BF1C
:1084D000704700BF704700BF704700BFFEE700BF96
:1084E00010B54FF4004186B04FF0006020F0ECFB77
:1084F00045F2555020F0CCFB194C022020F0CEFB69
:108500004FF480431748059302A9049303940294FF
:1085100003F0EEF9144804F540514FF4805202F094
:1085200083FC1248019001994A1E01920029FAD158
:108530000F4800F0E7F80E4B0E480F490F4A00F0C5
:10854000FBFE0C220E484BF6803102F0EBFD0C488E
:108550000C4902F0FFFD20F0AFFB06B010BD00BFDC
:1085600010280020640300201802002040420F0061
:10857000802700204C00002014680020486800205C
:10858000B82600206182000808B5FFF7A9FFFEE7C2
:108590002DE9F84F384C394939483A4EDFF840B1A7
:1085A000DFF840A1DFF84091374DDFF84081374FC9
:1085B000224620F079FE22463549364820F074FEE6
:1085C00022463549354820F06FFE22463449354869
:1085D00020F06AFE22463449344820F065FE344BD0
:1085E000344AC3F85464344EDFF804C133481A6087
:1085F000C3F8B0B0C3F804A141F60C7B42F2480ABC
:10860000C3F83C91C3F8F855DFF8E8902C4DC3F857
:108610001C6D224641F6DC662A4C2B49C3F8C0810A
:10862000C3F87CC2DFF8D080C3F8C472C3F80C066C
:10863000264F2748C3F8B898C3F8D84BDFF8BC904A
:10864000C3F8B85D234C244DDFF8B4C0C3F88C16D2
:10865000C3F86C07C3F8FC891846C3F8B4CAC3F85A
:108660001C7E9C5143F80B5043F80A901B49BDE80F
:10867000F84F20F019BE00BF00000020E58100087F
:10868000B826002040C0030870C0030830BF0308AC
:108690005182000880270020558200084C000020ED
:1086A00059820008106800205D820008180200202E
:1086B00064030020A0C00308B0C20308F8BF030889
:1086C00030C10308C8BF030810C0030848C103082D
:1086D00058C00308C8C2030868C20308E98100083B
:1086E000B8C0030898BF0308B0BF030840BE030822
:1086F000D0C00308E0BF030858BE0308E8C0030861
:1087000028C003082DE9F04F0446C64BDFF868C3C4
:10871000DFF868E3C4492360C44BC54EDFF860B39B
:10872000C44DC548C4F804C00022C4F80CE0A362DC
:10873000A16400234FF27F41C04FC4F854B043F20C
:108740005F5A45F29B394FF008084FF0800C4FF00C
:10875000FF0E2661E661A26162622263E263226724
:10876000A4F850A0A4F85C9084F8748084F876C0D3
:1087700084F877E02381A382A38584F8753084F898
:10878000793084F87A3084F87B3084F87C30218426
:108790002187A4F8441065632564E064A06584F82B
:1087A0007E3084F87D3084F87F3084F880303E68F5
:1087B000A34AC4F8844004F1700B964285B0C4F813
:1087C00088B000F095811FF0DFFF9C4820F07EF814
:1087D0009C4820F07BF89C4820F078F89B4820F0DB
:1087E00075F89B4820F072F89A4820F06FF8D4F89A
:1087F0008480702608EB060B4346ADF80C60002120
:108800001A469F7812F8019B93F803E0167893F8C4
:1088100004C05D799879494416FA81F117FA81F21A
:1088200008331EFA82F71CFA87F615FA86F513F854
:1088300001AC10FA85F01AFA80F95B451FFA89F14C
:10884000DED1CA4347467E497C48ADF80E2020F071
:108850005BF803998048814E20F056F8C8EB0B086E
:1088600057F8041B7E48A8F10403C3F3820520F0E7
:108870004BF8BB456BD0002D38D0012D2DD0022DEB
:1088800025D0032D1DD0042D15D0052D0DD0062D7E
:1088900005D0304657F8041B724E20F035F83046AC
:1088A00057F8041B20F030F80436304657F8041B04
:1088B00020F02AF80436304657F8041B20F024F83C
:1088C0000436304657F8041B20F01EF804363046B4
:1088D00057F8041B20F018F8043657F8041B3046EC
:1088E00020F012F8BB4506F1040630D0BA463046F7
:1088F0005AF8041B06F1040920F006F87968484686
:1089000020F002F8DAF8041006F108001FF0FCFF6E
:10891000F96806F10C001FF0F7FF396906F1100045
:108920001FF0F2FF796906F114001FF0EDFFB9693D
:1089300006F118001FF0E8FF203757F8041C06F175
:108940001C001FF0E1FFBB4506F12006CED1D4F894
:10895000885014202F182B46ADF80C0000219B46A0
:1089600093F802901BF801AB93F803809BF800B0DA
:1089700093F804C093F805E09E79DA79187A5144A7
:108980001BFA81F119FA81F918FA89FA1CFA8AF8A6
:108990001EFA88FB0A3316FA8BF612FA86FC13F8D5
:1089A00001EC10FA8CF21EFA82F0BB4281B2D6D1F1
:1089B0006FEA01092C482D49ADF80E901FF0A4FF75
:1089C0002B4803992B4E1FF09FFF55F8041B304690
:1089D0001FF09AFFBD4206F10406F6D10225A4F865
:1089E0008C50002094F8747094F87830D4ED1C7A90
:1089F000172F84BF172784F87470BFEE007A012BFD
:108A000088BF0123F4EEC77A88BF84F87830F1EE8E
:108A100010FA37D4B7EE007AF4EEC77AF1EE10FA16
:108A200032DD2FE0CDCCCC3CCDCCCC3E000080BFA5
:108A3000000070C2CDCCCCBF9A9919BF004000088D
:108A400043414C4900480008005000080058000805
:108A50000060000800680008044000080C4000089E
:108A60000840000810400008784000085354415462
:108A70007C400008804000080AD783BF14AECD4177
:108A800048E1FA3E84ED1C7A94F87A2094F87B1041
:108A900094F87C6094F87D5094F87E7094F87F3060
:108AA000022A84BF022284F87A20022984BF02218C
:108AB00084F87B10012E84BF012684F87C60022D8F
:108AC00084BF022584F87D50022F84BF022784F8DA
:108AD0007E7094F88020022B84BF022384F87F30BC
:108AE000012A02D9012184F8801005B0BDE8F08F79
:108AF000BD88702D7FF467AE504A104692F802A0F0
:108B000010F8019BD77890F8008092F804C056794D
:108B100092F806E04A494B4418FA83F31AFA83F5AF
:108B200017FA85F008321CFA80F716FA87F612F861
:108B300001AC1EFA86F31AFA83F58A42ABB2DCD195
:108B40004049D843B1F8069082B291457FF43BAEDC
:108B500020463A497022012520F0E2FBA4F88C500F
:108B6000CDF804B08DB16F1EC7EBC706344B364D40
:108B70004FEA860B5B441968A9420BD0B4F88C50BD
:108B8000012D3FF420AE01202CE72E4B2E4D19680D
:108B9000A942F3D198881428F0D103F1080E724647
:108BA00003F11C050021944690781CF801AB92F863
:108BB00003809CF8009092F804B05679977951445C
:108BC00019FA81F110FA81F018FA80FC1BFA8CF185
:108BD00092F807A092F8088016FA81F00A3217FA84
:108BE00080F61AFA86F912F8017C18FA89F117FA58
:108BF00081F0AA4281B2D6D1B3F806B0CD43ABB270
:108C00009B45BBD1BEE80F00019E0D4F30607160E7
:108C1000F360B260DEF800203261B4F88CC00B491A
:108C20000CF1010085B2C5EBC5034FEA830A574436
:108C30008F42A4F88C5095D9A2E700BF08400008E5
:108C40007840000800400008535441540070000868
:108C50002DE9F04F83B006461FF096FD8B481FF0BC
:108C600035FE8B481FF032FE8A481FF02FFE8A48DF
:108C70001FF02CFE89481FF029FE89481FF026FEB0
:108C8000D6F88480702208EB02074346ADF8042032
:108C90000021184693F802E010F8019BDD7890F867
:108CA00000C01C7993F805A093F806B049441CFA5B
:108CB00081F11EFA81F2083315FA82F014FA80F578
:108CC0001AFA85F413F801EC1BFA84F91EFA89FCF0
:108CD000BB421FFA8CF1DCD1CA43C24671496B48D2
:108CE000ADF806201FF010FE01996F486F4D1FF080
:108CF0000BFEC8EB07085AF8041B6D48A8F10403E3
:108D0000C3F382041FF000FEBA4571D0002C38D0A6
:108D1000012C2DD0022C25D0032C1DD0042C15D0D5
:108D2000052C0DD0062C05D028465AF8041B614DA1
:108D30001FF0EAFD28465AF8041B1FF0E5FD043534
:108D400028465AF8041B1FF0DFFD043528465AF860
:108D5000041B1FF0D9FD043528465AF8041B1FF0E8
:108D6000D3FD043528465AF8041B1FF0CDFD043509
:108D70005AF8041B28461FF0C7FDBA4505F1040543
:108D800036D0D34628465BF8041B05F104091FF0D2
:108D9000BBFDDAF8041048461FF0B6FDDBF80410FE
:108DA00005F108001FF0B0FDDAF80C1005F10C0019
:108DB0001FF0AAFDDAF8101005F110001FF0A4FD55
:108DC000DAF8141005F114001FF09EFDDAF81810FF
:108DD00005F118001FF098FD0AF1200A5AF8041C4A
:108DE00005F11C001FF090FDBA4505F12005C8D122
:108DF000D6F88840142027182346ADF80400002137
:108E00009E4693F802901EF801AB93F803809EF8FB
:108E100000B093F804C093F805E09D79DA79187AE8
:108E200051441BFA81F119FA81F918FA89FA1CFAEE
:108E30008AF81EFA88FB0A3315FA8BF512FA85FCBC
:108E400013F801EC10FA8CF21EFA82F0BB4281B2E8
:108E5000D6D16FEA010918481849ADF806901FF0FD
:108E600053FD17480199174D1FF04EFD54F8041B90
:108E700028461FF049FDBC4205F10405F6D1022445
:108E8000A6F88C4003B0BDE8F08F00BF004000089A
:108E90000048000800500008005800080060000862
:108EA0000068000843414C49044000080C40000899
:108EB000084000081040000878400008535441540E
:108EC0007C40000880400008B0F88C20D14BD2498B
:108ED0002DE9F04F0646C2EBC200840023448B42CA
:108EE00083B040F218811FF04FFCCC481FF0EEFC1D
:108EF000CB481FF0EBFCCB481FF0E8FCCA481FF042
:108F0000E5FCCA481FF0E2FCC9481FF0DFFCD6F8B8
:108F100084A070200AEB00075346ADF8040000213E
:108F20009C4693F802E01CF8019BDD789CF80080D9
:108F30001C7993F805B09879494418FA81F11EFA22
:108F400081F2083315FA82F514FA85F41BFA84FCD1
:108F500013F801EC10FA8CF01EFA80F9BB421FFAEC
:108F600089F1DDD1CA43D346B249AC48ADF80620F9
:108F70001FF0CAFC0199B048B04D1FF0C5FCCAEB08
:108F8000070A5BF8041BAE48AAF10403C3F382048A
:108F90001FF0BAFCBB4571D0002C38D0012C2DD06D
:108FA000022C25D0032C1DD0042C15D0052C0DD05F
:108FB000062C05D028465BF8041BA24D1FF0A4FC2C
:108FC00028465BF8041B1FF09FFC043528465BF81D
:108FD000041B1FF099FC043528465BF8041B1FF0A6
:108FE00093FC043528465BF8041B1FF08DFC043508
:108FF00028465BF8041B1FF087FC04355BF8041B54
:1090000028461FF081FCBB4505F1040536D0D84643
:10901000284658F8041B05F104091FF075FCDBF81D
:10902000041048461FF070FCD8F8041005F1080041
:109030001FF06AFCDBF80C1005F10C001FF064FC5B
:10904000DBF8101005F110001FF05EFCDBF81410C7
:1090500005F114001FF058FCDBF8181005F118009A
:109060001FF052FC0BF1200B5BF8041C05F11C00F7
:109070001FF04AFCBB4505F12005C8D1D6F8884051
:10908000142027182346ADF8040000219C4693F8CD
:1090900002901CF801AB93F803809CF800B093F8A1
:1090A00004C093F805E09D79DA79187A51441BFAE7
:1090B00081F119FA81F918FA89FA1CFA8AF81EFA6C
:1090C00088FB0A3315FA8BF512FA85FC13F801ECCC
:1090D00010FA8CF21EFA82F0BB4281B2D6D16FEA4E
:1090E00001094C485849ADF806901FF00DFC57484F
:1090F0000199574D1FF008FC54F8041B28461FF037
:1091000003FCBC4205F10405F6D10224A6F88C400C
:1091100003B0BDE8F08F1FF037FBD6F88850B6F8E3
:109120008C704FF0140805EB08042B46ADF8048052
:1091300000219B4693F802901BF801AB93F8038043
:109140009BF800B093F804C0587993F806E0DA79F8
:1091500051441BFA81F119FA81F918FA89FA1CFABB
:109160008AF80A3313F802CC10FA88FB1EFA8BF047
:1091700012FA80FE13F8012C1CFA8EF112FA81F01B
:10918000A34281B2D5D1CC43ADF80640002F36D0F2
:10919000013FC7EBC7031F482B494FEA83094844E7
:1091A0001FF0B2FB2948019948441FF0ADFB09F1BB
:1091B000006A0AF581442D1B04F104082959204650
:1091C0001FF0A2FB55F8081040461FF09DFB04F16C
:1091D000080029581FF098FB04F10C0029581FF0D3
:1091E00093FB04F1100029581FF08EFBB6F88CB0E9
:1091F0000BF10102A6F88C2003B0BDE8F08F1249F4
:1092000006480F4C1FF080FB01990B481FF07CFBB8
:10921000D1E700BF78400008007000080040000857
:1092200000480008005000080058000800600008CE
:109230000068000843414C49044000080C40000805
:109240000840000810400008535441547C40000876
:109250008040000830B4D0F88C31C26F93F874109D
:10926000D16193F87540DFED337A07EE104AB8EE1E
:10927000470A60EE270AC2ED090A93F8765001EE1C
:10928000105AF8EE411A21EEA72A82ED082A93F827
:1092900077C002EE90CAB8EE623A63EE273AC0EDAC
:1092A0001E3A93F87810C1B190F888C01D6F0CF188
:1092B000FF34E1B201290DD9D0F8904054B1BCF18E
:1092C000030CDCF1000151EB0C0C012480F889C087
:1092D00080F88840D0F88C100D6093F8795004EE37
:1092E000105ABBEECC4A82ED0A4A93F87A4082F8D3
:1092F0002C40C26F93F87BC082F82DC0C56F93F8E5
:109300007C1085F82E10C46F93F87D2084F82F20F0
:10931000C56F93F87EC085F830C0C46F93F87F1096
:1093200084F83110C06F93F8803080F8323030BC50
:10933000704700BF0000803B2DE9F04F044685B028
:10934000C0F88020C0F88C31E16704300E4601F08F
:109350003DFF04F1340002F069F904F1440002F029
:109360003DF804F1640002F059FA06F1040906F12F
:10937000280006F1080C04F1740104F178080025B6
:109380000023984ADFF864E2C4F88C104FF080475D
:109390009549C4F8900006F1240B4FF07E5006F179
:1093A0000C0AC4F8B090C4F8B48006F1200906F1A4
:1093B0001408C4F8D4C006F1100C1836C4F8942070
:1093C000C4F8B820C4F89830C4F89C30C4F8A03071
:1093D000C4F8BC30C4F8C030C4F8C430C4F8CC30D1
:1093E000C4F8E030C4F8E430C4F8E830C4F8F03031
:1093F000C4F8DCE0C4F8A810C4F8D8B0C4F8A4706D
:10940000C4F8C800C4F8EC00A566E566257084F8C9
:10941000885084F8895084F8AC5084F8AD5084F8B2
:10942000D05084F8D15084F8F450C4F840C1C4F846
:1094300000E1C4F80431C4F80831C4F80C31C4F8B0
:109440001431C4F82421C4F82831C4F82C31C4F8EC
:109450003031C4F84821C4F84C31C4F85031C4F854
:109460005431C4F83811C4F85C11C4F8F8A0C4F839
:109470001001C4F83471C4F85871C4F81C81C4F8E0
:109480006461204684F8F55084F8185184F8195125
:10949000C4F8205184F83C5184F83D51C4F844513B
:1094A00084F8605184F86151C4F86851C4F8FC90A4
:1094B000C4F86C21C4F87031C4F87431C4F8783140
:1094C000C4F87C71C4F88011FFF7C4FE4FF400307B
:1094D0000121C4F89051C4F8A8511FF005FD04A95A
:1094E0004FF4007241F8082D02234FF090400127FD
:1094F0008DF80E508DF80F508DF80C708DF80D30E2
:109500001FF036FA04F5DE7104F5E07A01916FEA96
:109510000A0B04F5E27804F2C11C0198C4F89451D6
:10952000C344C445C4F89851C4F89C51C4F8A05130
:10953000C4F8A451C4F8AC51C4F8B051C4F8B45143
:10954000C4F8B8510BF007060560AA4684F8C0516C
:109550003DD02EB3012E1DD0022E17D0032E12D0D7
:10956000042E0DD0052E08D0062E1CBF8CF80050FE
:1095700004F5E17C00250CF8015B00220CF8012BBE
:1095800000270CF8017B00230CF8013B4FF0000989
:109590000CF8019B4FF0000A0CF801ABC44516D043
:1095A000E34600210BF8011B0CF1080C0CF8071C1A
:1095B0008BF801100CF8051C0CF8041C0CF8031CAB
:1095C0000CF8021C0CF8011CC4458A46E8D10026A0
:1095D000C4F8C4A1C4F88461C4F88861266705B0E2
:1095E000BDE8F08F0AD7A33B000080BF0AD7233C19
:1095F000C26FD0F88C31D16983F87410C26FDFED7F
:10960000317A92ED097A27EE270AFCEEC00A10EEB5
:10961000901A83F87510C26F92ED081A61EE271A3E
:10962000BCEEE12A12EE101A83F87610D0ED1E2A55
:1096300022EEA73AFCEEC33A13EE90CA83F877C045
:10964000D0F88C201168196790F888C00CF1FF32AF
:10965000D1B201298CBF0021012183F87810C26F9B
:1096600092ED0A4A64EE274ABCEEE45A15EE101A4F
:1096700083F87910C26F92F82C1083F87A10C26FB9
:1096800092F82D1083F87B10C26F92F82E1083F899
:109690007C10C26F92F82F1083F87D10C26F92F881
:1096A000301083F87E10C26F92F8311083F87F106B
:1096B000C26F92F8321083F88010D0F88C01FFF757
:1096C00003BC00BF000080432DE9F043044600F1D5
:1096D0004405284685B001F007FFD4F8AC31217865
:1096E0000133C3F304120F2AC4F8AC3103F00F00A6
:1096F000C8BFC2F11F02092949D8DFE811F00A00EA
:1097000033026000A500AF00D500D5006E017501E1
:109710004E00E36FB74FD3F81CE00EEA0707002FA7
:10972000C0F2F0828242B44E40F3C18296E8070054
:10973000BEF1000F0DF1040989E80700B8BF0EF172
:10974000070E4FEAEE0004A901EB800252F80C8CE0
:1097500096E80700D4F8C461002E3346B8BFF31D65
:1097600089E80700D810A34B0DF1100E0EEB800C0A
:109770001E40002E5CF80C1CC0F2BE8204EB86007A
:1097800004EB87044164676C47EA08036364284676
:1097900005B0BDE8F04301F0B7BE8242F7DD4FF4FB
:1097A0007F0128466164A164E16421656165A1656A
:1097B000E165216605B0BDE8F04301F0A5BE94ED7A
:1097C0001E4AF2EE044A24EE246A5210FDEEC61A36
:1097D00011EE903A002B00F09D81092B874A00F092
:1097E0003782012B0CBF91464FF00009022B14BFAA
:1097F0004FF0000E9646032B14BF4FF0000C94461A
:10980000042B14BF00271746052B14BF002616464D
:10981000062B14BF00201046072B14BF0021114651
:10982000082BC4F84490C4F848E0C4F84CC027653D
:109830006665A065E16518BF00222846226605B06E
:10984000BDE8F04301F060BE94F8888008F1FF366F
:10985000F7B2012FA3D94FF47F41A2E7D4ED1C7AD0
:10986000B7EE007AF4EE477AF1EE10FA40F0CC80D1
:1098700052104FF47F4600F0F681012A666400F032
:109880002782022AA66440F0F08100202665E06469
:109890004FF47F41052A616540F0EF810022E165C8
:1098A0000F46A26527662DE1E76FE06E97F82C2042
:1098B00004F14008002A00F05982032A00F0D08108
:1098C000012A00F03382042A00F03382022A4B4935
:1098D00006D0052A18BF002113F0800F18BF002101
:1098E00018B113F0070F18BF002148F8041F012218
:1098F000002A00F02382012A08BF97F82D6014D0B7
:10990000022A08BF97F82E600FD0032A08BF97F8E5
:109910002F600AD0042A08BF97F8306005D0052AC6
:109920000CBF97F8316097F83260002E00F01B8270
:10993000032E00F0B681012E00F0C181042E00F04C
:10994000C481022E2D4906D0052E18BF002113F028
:10995000800F18BF0021824203D013F0070F18BFF9
:1099600000210132C8F8041008F1040400F0E98174
:10997000012A00F0E981022A00F0EC81032A00F0BC
:10998000E681042A00F0E981052A14BF97F83260C5
:1099900097F83160002E00F0E381032E00F08481FF
:1099A000012E00F08981042E00F08C81022E1349D3
:1099B00006D0052E18BF002113F0800F18BF00211C
:1099C000824203D013F0070F18BF00210132072A8B
:1099D000616004F104088BD1D9E682427FF7D7AEEB
:1099E0004FF47F476764D2E682427FF7D0AE034EE2
:1099F0006664CCE6070000800894020800FFFF00C0
:109A00006F12833A00000043F5EEC07AF1EE10FACF
:109A100000F13B815FED066A1FED060A77EEE60A6C
:109A2000B4EE001A70EEC15A06EE100A75EEC14A85
:109A3000F8EEC61A34EEC12A20EE804A32EE415AC0
:109A400065EE803A75EE412AF4EEC41A24EE803AAF
:109A5000F1EE10FA62EE007AF4EEE31A32EEC17A19
:109A60004CBF4FF47F494FF0000965EE000AF1EE5C
:109A700010FAF4EEC31A4CBF4FF47F4E4FF0000EB5
:109A800062EE805AF1EE10FA77EE416AF4EEE71AD0
:109A90004CBF4FF47F4C4FF0000C27EE001AF1EE54
:109AA00010FAF4EEE01A4CBF4FF47F47002726EE81
:109AB000800AF1EE10FAF4EEE51A4CBF4FF47F463F
:109AC0000026F1EE10FAF4EEC11A4CBF4FF47F40BD
:109AD0000020F1EE10FAF4EEC01A4CBF4FF47F41B3
:109AE0000021F1EE10FA4CBF4FF47F420022C4F87F
:109AF0004490C4F848E0C4F84CC027656665A0658A
:109B0000E165226640F6B83083427FF740AE00231D
:109B100023703CE6002A00F09980964F6764012A82
:109B200000F0FC80934EA664022A00F0F580914874
:109B3000E064032A00F0EE808E492165042A00F0DB
:109B4000E7808C4F6765052A00F0EE80894EA66598
:109B5000062A00F0E780874BE365072A00F0E080E3
:109B6000844A6AE6E16F9FED842AD1ED093A91EDCE
:109B7000085ADFED822A7F4B33EEC23AB5EE007A07
:109B800073EE470A07EE900A30EEC71A75EE426A86
:109B9000F8EEE71A23EE220A20EEA26A76EEC75A02
:109BA00071EE474AF4EEC01A21EE224AF1EE10FAA5
:109BB00024EEA22AF4EEC61A75EEC73A4CBF9846B8
:109BC0004FF0000826EEA25AF1EE10FAF4EEC41A95
:109BD0004CBF99464FF0000925EEA23AF1EE10FA7B
:109BE00033EEC77AF4EEC21A4CBF1F46002763EE6D
:109BF000A20AF1EE10FAF4EEC51A4CBF1E4600267A
:109C000067EE222AF1EE10FAF4EEC31A4CBF1846A2
:109C10000020F1EE10FAF4EEE01A4CBF19460021D4
:109C2000F1EE10FAF4EEE21A4CBF1A460022F1EE01
:109C300010FA58BF0023C4F84480C4F84890E76481
:109C400026656065A1652366E265A0E5626469E753
:109C50006264A264E26422656265A265E265ECE585
:109C60004FF47F4138E66264A6644FF47F47032ACD
:109C7000E76430D10026676526654FF47F47062AE2
:109C8000A76531D10022E2650CE6824254DD4FF433
:109C90007F076764A764E76427656765A765E7656D
:109CA00000E64FF47F4152E64FF47F4184E64FF0E7
:109CB00000080DF104094BE54FF47F0180E64FF4F5
:109CC0007F0148E64FF47F0176E64FF47F013EE6E0
:109CD0000021E664A1644FF47F46042A26657FF4E0
:109CE000D7AD0020A66560654FF47F41072A14BFF9
:109CF0000F460027E165D5E5721E62F0070909F1FC
:109D000001063BE57E1E66F0070C0CF1010709E534
:109D100063651BE7236514E7E3640DE7A36406E7C7
:109D200000228AE5E3651BE7A36514E74FF47F0192
:109D3000D6E54FF47F01CFE50027AAE797F82C601E
:109D4000F3E597F82C6025E697F82D6022E697F862
:109D50002F601FE697F82E601CE697F8306019E632
:109D60004FF47F412CE64FF47F41F4E54FF47F41FF
:109D7000B6E500BF00FFFF006F12833A000080428B
:109D80000122002310B480F8C32180F8C22180F89A
:109D9000C12180F8C02180F8883080F8AC3080F88C
:109DA000D03080F8F430032913D8DFE801F0221C0A
:109DB0001602C26F124CD16901F1170C84FB0C140E
:109DC0004FEAEC71C1EBA40303EB4304ACEBC40119
:109DD000D1615DF8044BFFF70BBCC26F084CD3692F
:109DE00003F1080CEAE7C26F054CD16901F1100CD0
:109DF000E4E7C26F024CD36903F1010CDEE700BF58
:109E0000ABAAAA2AC368D0F88C21D0F8A811F0B464
:109E100000EB4304B2F92050B4F92470BD424FEA7C
:109E2000D176D4BF00270127B74204D0D0F89431AF
:109E30005D1CC0F894514469B2F9387000EB440CD1
:109E4000BCF924309F42D4BF00230123B34204D085
:109E5000D0F898516C1CC0F898418769B2F9443029
:109E600000EB470CBCF92450AB42D4BF00250125C0
:109E7000B54204D0D0F89C41671CC0F89C71C369FE
:109E8000B2F950C000EB4305B5F92440A445D4BF56
:109E900000240124B44204D0D0F8A0717B1CC0F887
:109EA000A031046AB2F95CC000EB4402B2F924505C
:109EB000AC45D4BF00250125B54204D0D0F8A4613B
:109EC000771CC0F8A471D0F890315C1C202CC0F82D
:109ED000904111D02A4F07FB01F101F5405606F1E0
:109EE0003905002DC0F8A85141DB4FF090404FF4E8
:109EF00000740485F0BC7047D0F89431D0F89871A4
:109F0000D0F89C61D0F8A051D0F8A441D0F88020BE
:109F1000012BD4BF4FF0000C4FF0010C012FD4BF28
:109F200000270127012ED4BF00260126012DD4BF12
:109F300000250125012C4FF00003D4BF002401248B
:109F4000C0F8903182F820C0C0F8943182F82170B6
:109F5000C0F8983182F82260C0F89C3182F8235012
:109F6000C0F8A03182F82440C0F8A431B2E74FF025
:109F7000904C4FF40072CCF81820F0BC704700BF32
:109F80006D4EC64130B4D0F88C21051D012100234F
:109F900002E0013301310C32012BFAD055F8234095
:109FA00092ED017A00EB440C0829BCF9244007EE3D
:109FB000904AFAEEE87A27EEC70A82ED000AE8D165
:109FC000D0F888310170C0F8C83130BC704700BF8C
:109FD00090ED727AD0ED627ADFED226A10B537EE3D
:109FE000C70A82B0B4EEE60AF1EE10FA044606DDC6
:109FF000DFED1D0AB4EEE00AF1EE10FA1ED40923DB
:10A0000023704FF4003001211EF06EFF02AA4FF4BE
:10A010000074002342F8084D4FF0010C02226946FB
:10A020004FF090408DF804C08DF806308DF8073061
:10A030008DF805201EF09CFC02B010BDB3EE081A8E
:10A04000C1EE001AD0F88C110846B2EE082AA7EE2D
:10A05000612AC1ED041A81ED032AFEF7F9FD002003
:10A060002070CEE79A9919BFCDCC4CBE70B504468E
:10A0700082B0643001F00CFC2378092B00F2B5802B
:10A08000DFE813F0D700F000F0002C01B300580116
:10A090008E019E01B5003C01002B00F0CE8294F8A9
:10A0A0006560002E00F001820020C4F8B00184F841
:10A0B000C00130460025C4F8B051802E00F049831D
:10A0C000002E00F0EC820026C4F8B46194F866100B
:10A0D000802900F04483002900F0F0820025C4F8B4
:10A0E000B851802B00F0E182002B40F0E382D4F8DD
:10A0F000BC610136C4F8BC61802A00F0E882802887
:10A1000094F8F40000F01083802994F8AC2000F05B
:10A11000F782022800F0D88294F8D000022800F0DC
:10A12000D382022A08BF2270B5F5FA6F29DBD4F872
:10A13000BC51B5F5FA6F24DB00260DF1080C07229F
:10A140004FF400736946C4F8BC61C4F8B86184F880
:10A15000886084F8AC6084F8D06084F8F460227081
:10A1600002254FF090404CF8083D8DF804608DF8C2
:10A1700006608DF807608DF805501EF0F9FB94F825
:10A180006730D4F8B001B0F5FA6F80F25982D4F894
:10A19000B411B1F5FA6F80F25382D4F8B861B6F514
:10A1A000FA6F0ADB00220225C4F8B821C4F8B421F2
:10A1B000C4F8B021C4F8BC2125707F2B00F0D582F3
:10A1C00094F864007F2800F0E28294F865107F29FB
:10A1D00000F0008394F866207F2A06D194F8C251DB
:10A1E0001DB920460221FFF7CBFD02B070BD94F8E7
:10A1F0006400802800F00E8394F86510802900F038
:10A200000B8394F86620802A00F00A8394F8675044
:10A21000802D08BF0325E8D105F16C0625440023F5
:10A22000012144F82630204685F8C011FFF7D0FE02
:10A23000DBE794F8642094F86730802A3FF42CAF71
:10A24000802B00F0F78194F86560802E00F02A8161
:10A250003046002A7FF42EAFD4F8B051691CC4F800
:10A26000B0112AE794F864207F2A00F0618194F805
:10A2700065107F2900F0BB8194F866307F2B00F0D9
:10A28000938194F867207F2AAFD194F8D060022E92
:10A2900000F0FD8194F8D110002940F0F88184F895
:10A2A000D01094F8F430022B00F0ED8194F8F550C2
:10A2B000002D40F0E88184F8F45094F8AC60022E50
:10A2C00000F0E98194F8AD10002940F0E48184F8B1
:10A2D000AC100023C4F8BC31237086E794F8640006
:10A2E0007F2804D094F865307F2B7FF47EAF002563
:10A2F000C4F8B451C4F8B051257076E794F86430CE
:10A30000802B00F0488194F86520802A00F03B8182
:10A3100094F86600802800F02E8194F86720802A47
:10A320007FF463AF00260121C4F8BC61267084F875
:10A33000C3115AE794F86730002B3FF456AF94F8F6
:10A340006420002A3FF451AF7F2A02D07F2B7FF494
:10A350004CAF94F8D050022D00F0E68094F8D16014
:10A36000002E40F0E18084F8D06094F8F4000228D8
:10A3700000F0D68094F8F530002B40F0D18084F8BE
:10A38000F43094F8AC50022D00F0C68094F8AD6023
:10A39000002E40F0C18084F8AC600620207024E7D5
:10A3A00094F8670080BB94F864508DBB012084F85A
:10A3B000C00184F8C3012046FFF71AF9257014E79D
:10A3C00094F86400802800F0238294F86520802AA5
:10A3D00000F0248294F86650802D00F0238294F8D7
:10A3E0006760802E08BF03267FF4FFAE06F16C0382
:10A3F000264400214FF0010C44F82310204686F833
:10A40000C0C1FFF7BFFDF0E67F2835D094F8645057
:10A410007F2D44D094F865207F2A00F0148194F8B1
:10A4200066107F297FF4E1AE4FF0010CE36E002B44
:10A4300000F01481012B00F0B781022B00F0D881CD
:10A44000032B00F0F181042B00F00482052B00F0B7
:10A450001782062B7FF4C9AEE06F90F832E00EF160
:10A460000205AC4480F832C0E46F94F8326006F024
:10A47000010284F83220B8E64FF0060EE66EC84AB4
:10A48000B6448EFB02230EEB03014FEAEE73C3EBDF
:10A49000A100C0EBC005C5EB0E06E666BAE74FF0BB
:10A4A000080EEBE7002A7FF4D3AE94F8D0004FF00B
:10A4B000010E022884F8C0E184F8C1E100F0CA80EE
:10A4C00094F8D130002B40F0C58084F8D03094F857
:10A4D000F460022E00F0BA8094F8F520002A40F0D3
:10A4E000B58084F8F42094F88800431ED9B201297D
:10A4F00040F24581D4F8906046B1C21E554255EBFA
:10A500000200012384F8890084F888300322227035
:10A510002046FFF76DF868E6032184F8AC103CE7AD
:10A52000032284F8F4202CE7032184F8D0101CE7E0
:10A5300094F8D060022E02D094F8D11001B103211A
:10A5400094F8F40084F8D010022802D094F8F53082
:10A5500003B1032394F8AC5084F8F430022D02D0F8
:10A5600094F8AD2002B10322002684F8AC20C4F890
:10A57000B06126707BE600230125C4F8B831237052
:10A5800084F8C251C9E600260121C4F8B4612670DE
:10A5900084F8C111BCE600254FF0010EC4F8B0519B
:10A5A000257084F8C0E1AEE694F8D050022D02D0B8
:10A5B00094F8D12002B1032294F8F46084F8D020FA
:10A5C000022E02D094F8F51001B1032194F8AC00EA
:10A5D00084F8F410022802D094F8AD3003B10323BC
:10A5E000002584F8AC30C4F8B851257049E694F8D9
:10A5F000D000022802D094F8D13003B1032394F89C
:10A60000F45084F8D030022D02D094F8F52002B135
:10A61000032294F8AC6084F8F420022E02D094F85F
:10A62000AD1001B10321002084F8AC10C4F8B401CE
:10A63000207021E6002A7FF406AE05252570D4E5BA
:10A6400000220125B0E54FF0FF3CEFE6032584F83A
:10A65000F45048E7032184F8D01038E7E66F5149F9
:10A6600096F82C00C21C944486F82CC0E46F94F831
:10A670002C30A1FB03054FEA550C0CEB4C06991B43
:10A6800084F82C10B1E5032284F8F42015E60320A9
:10A6900084F8D00005E6032084F8AC0019E6D4F86D
:10A6A000B461711CC4F8B41110E50026C4F8BC6193
:10A6B00084F8C3610026C4F8BC611DE5D4F8B85124
:10A6C0000135C4F8B8510CE50121217029E594F851
:10A6D000D0C00CF1FF32D6B2012E7FF610ADD4F807
:10A6E000D820002A3FF40BADBCF1030EDEF10006CA
:10A6F00056EB0E0C012284F8D1C084F8D020FEE481
:10A70000511ECEB2012E7FF604ADD4F8B41000294C
:10A710003FF4FFAC033A564256EB020E012284F896
:10A72000ADE084F8AC20F4E4461EF2B2012A7FF6D4
:10A73000EBACD4F8FC60002E3FF4E6AC0338D0F16B
:10A74000000E5EEB000C012084F8F5C084F8F400E4
:10A75000DAE40025C4F8B45184F8C151B3E400260A
:10A76000C4F8B86184F8C261B8E494F8C331002B2E
:10A770007FF426AD20460321FFF702FB35E50228D2
:10A7800032D094F8891079BB84F88810BEE694F82A
:10A79000C01100297FF419AD2046FFF7F1FA24E536
:10A7A00093244992ABAAAAAAE56F404E95F82D00D2
:10A7B000C11C8C4485F82DC0E46F94F82DC0A6FB15
:10A7C0000C024FEA520E0EEB4E03C3EB0C0584F85D
:10A7D0002D500AE594F8C161002E7FF4FBAC2046B1
:10A7E0000121FFF7CDFA00E5032684F888608DE6A5
:10A7F000E06F90F82E1001F1020EF44480F82EC0A4
:10A80000E46F94F82E2002F0010384F82E30ECE47B
:10A810000026EBE50025FFE40125FDE40126E5E542
:10A820000225F9E40226E1E5E66F204996F82F00BB
:10A8300000F1030EF44486F82FC0E46F94F82F2043
:10A84000A1FB02034FEA530C0CEB4C05561B84F89A
:10A850002F60CAE4E56F154995F8300000F1030E4A
:10A86000F44485F830C0E46F94F83060A1FB060230
:10A870004FEA520C0CEB4C03F51A84F83050B4E458
:10A88000E36F0A4993F8310000F1030EF44483F8B2
:10A8900031C0E56F95F83140A1FB04064FEA560C34
:10A8A0000CEB4C02A31A85F831309EE4ABAAAAAA9D
:10A8B000D0ED267A9FEDD47A2DE9F0410446808EC2
:10A8C000D4ED256A94F8883006EE100AB8EEC60A70
:10A8D000B0EE674A90EE074AE6EE847AC4ED267A37
:10A8E0004BB994ED291AD4ED2A1AD4F88C10E7EE5E
:10A8F000811AC1ED001AE28ED4ED2F2A9FEDC23AE3
:10A90000D4ED2E3A94F8AC5002EE102AF8EEC24A7A
:10A91000B0EE625A94EE835AE3EE852AC4ED2F2AF4
:10A920004DB9D4ED327A94ED336AD4F8B060A2EE2A
:10A93000A76A86ED006A278FD4ED380A9FEDB27AB8
:10A94000D4ED376A94F8D00000EE107AB8EEC01A51
:10A95000B0EE604A91EE074AE6EE840AC4ED380A8A
:10A9600048B994ED3B2AD4ED3C2AD4F8D430E0EE3B
:10A97000822AC3ED002A618FD4ED413ADFEDA24A6D
:10A9800094ED405A94F8F42003EE101AF8EEC35AEE
:10A99000F0EE637AD5EEA47AE5EE273AC4ED413ABB
:10A9A0004AB994ED440AD4ED450AD4F8F850E3EEE0
:10A9B000800AC5ED000AA68FD4ED4A1A9FED927A5F
:10A9C000D4ED496A94F8187101EE106AB8EEC12A04
:10A9D000B0EE614A92EE074AE6EE841AC4ED4A1AD6
:10A9E0004FB994ED4D3AD4ED4E3AD4F81C01E1EE56
:10A9F000833AC0ED003AE38F94ED535ADFED825A6B
:10AA0000D4ED527A94F83C1104EE903AB8EEE46A30
:10AA1000B0EE450A96EE250AA7EE805A84ED535A09
:10AA200049B994ED561AD4ED571AD4F84021E5EE01
:10AA3000011AC2ED001AB4F84050D4ED5C2A9FED23
:10AA4000727AD4ED5B6A94F8606102EE105AB8EE47
:10AA5000C23AB0EE624A93EE074AE6EE842AC4EDAB
:10AA60005C2A4EB9D4ED5F4A94ED605AD4F8647113
:10AA7000A2EEA45A87ED005A6768A668D4F88C3114
:10AA8000DFED627A93ED010AD3ED000AE568D4F8B0
:10AA900080209FED621ADFED5E1A5E4904EB4707E6
:10AAA00004EB4606B7F92470B6F9246006EE107A76
:10AAB000B8EEC62A05EE906A62EE272A04EB450539
:10AAC000E0EE220A04F1100898E80151F8EEE54A98
:10AAD000B5F92470C2ED000A93ED044A93ED037AB0
:10AAE00064EEA76A03EE907AA4EE267A04EB4000A7
:10AAF00004EB4808B8EEE35AB0F9246082ED017A1D
:10AB000093ED070AD3ED060AB8F9245025EE276A1B
:10AB100003EE106AE0EE060A04EB4C0C04EB4E0E5A
:10AB2000F8EEC32ABCF92400C2ED020A93ED0A4AEA
:10AB3000D3ED096ABEF9247062EEA73A05EE905A89
:10AB4000E4EE236AB8EEE50AC2ED036A93ED0D3A2E
:10AB5000D3ED0C0A60EE275A02EE100AE3EE250A46
:10AB6000B8EEC22AC2ED040AD3ED102AD3ED0F3A93
:10AB700022EE276A05EE107AE2EE863AB8EEC55A62
:10AB8000C2ED053A266A93ED134AD3ED126A04EB3F
:10AB9000460825EE270AB8F924C0E4EE006A05EE5F
:10ABA00090CAB8EEE52AC2ED066A93ED163AD3EDE7
:10ABB000150AA36E22EE276A5D1CE3EE060A05EA7B
:10ABC0000107002FC2ED070AD4ED622AD4ED613AE5
:10ABD000B0EE625A94EEA75A77EE634AE5EE012A88
:10ABE000B0EE631AA4EEA11AC4ED622A84ED611AD4
:10ABF00082ED011AC0F2F880A766032F21D8DFE8A2
:10AC000007F0E2DE481D00BF00008037000000387A
:10AC10003333333F03000080C520803FCDCCCC3D93
:10AC2000000000000AD7A33B8FC2F53CE17A41C285
:10AC300000004042000070426F12833A2046FFF746
:10AC4000E1F8201D00F0B0FA04F1340000F0E0FD5E
:10AC5000D4ED1E2AF2EE043A22EEA35AFDEEC57A96
:10AC600017EE902A002A00F0B280092A00F0C18075
:10AC7000B8EEE71AB2EE087AD4ED1D6AE46F21EE61
:10AC8000074AB1EE0C0AA6EE804A84ED004ABDE800
:10AC9000F08104F1A80E07231EF8206C032E0CD8B7
:10ACA000DFE806F0077002105EF8185C5EF8101C12
:10ACB00029605EF8105C4EF8085C013B0EF1240E32
:10ACC000EAD1BEE75EED041A1EED027A1FED2B4AB3
:10ACD00071EEC76AB0EEE60AB4EEC40AF1EE10FAFD
:10ACE000EBDDF5EEC06AF1EE10FA1EED033A40F32B
:10ACF0008D805FED372A72EEC73A32EEC35A85EE89
:10AD0000236A5FED3A7AB4EEE76AF1EE10FA08D4FE
:10AD1000F2EE047AB4EE676AF1EE10FAD8BFF0EE04
:10AD2000467AA6EEA73A5FED424AB4EEE43AF1EE77
:10AD300010FA74D4B7EE001AB4EEC13AF1EE10FA7C
:10AD4000D2BF0EED033AB0EE413A0EED031A1EEDFE
:10AD5000010ADEED000A1FED4D4A5EF81C0C4EEDB7
:10AD6000021A33EE617AE0EE030AF0EEC76AF4EEFF
:10AD7000C46AF1EE10FA44BF00260EF8206CC0ED54
:10AD8000000A9AE75EED041A1EED023A1FED5A2AF8
:10AD900071EEC35AB0EEE56AB4EEC26AF1EE10FA93
:10ADA0008BDD5EF8187C0EED033AC7ED001A5EF8F5
:10ADB000106C4EF8086C02200EF8200C7DE720463F
:10ADC000FFF754F93DE72046FEF77EFC39E794EDA6
:10ADD0001D2A5FED685A1FED6B6AE76FA2EE256AC8
:10ADE00087ED006ABDE8F0817A1E62F003014F1C16
:10ADF00002E7D4ED1D0A5FED721A1FED723AE16FA2
:10AE0000A0EEA13A81ED003ABDE8F0815FED760A4F
:10AE100037EE202A73EE205A85EE826A71E74EEDF6
:10AE2000034AB0EE643A92E72DE9F00100230024D2
:10AE3000DFF86080164FDFF860C0C0F84011FF26D1
:10AE40002025042146708570C0F82481C0F82C713B
:10AE5000C0F81041C0F81441C0F81841C0F81C41B6
:10AE6000C0F84421C0F83811C0F828C180F83C313E
:10AE7000A0F80E310370838080F83431C0F830318F
:10AE8000C0F8483180F82031BDE8F001704700BFBC
:10AE900009D7233A6F12833A0AD7A33B002310B491
:10AEA0002021FF24042244708170C0F83821A0F8CA
:10AEB0000E310370838080F83431C0F83031C0F82F
:10AEC00048315DF8044B704738B590F8203190ED6B
:10AED000477AD0ED4A6A80ED470A002BB7EE006A48
:10AEE000FFEE007A08BFF0EE467A66EEA70A30EE73
:10AEF000470A90F83411B4EEE00AF1EE10FA044675
:10AF0000D4BF00200120814284F8200131D0D4F840
:10AF1000301184F83401062929D8022994BF002170
:10AF20000121D4F838511DB16B1EC4F8383102210B
:10AF30000025C4F8305120461DF086F9022884F817
:10AF40003C011ED012D304283AD8FF21202204232A
:10AF5000A4F80E512570A58084F83451C4F83051FE
:10AF6000C4F848516170A270C4F8383138BD02216C
:10AF7000D7E7D4F8303194F83C015D1CC4F8305167
:10AF800038BDD4F84831D4F84451AB4209D24FF41B
:10AF90008072D4F84051E11D9AB903F58071C4F86C
:10AFA0004811FF252021002304226570A170237021
:10AFB000A38084F83431C4F83031C4F8382138BD66
:10AFC00038BDE8181EF0B5F9D4F8483194F83C01C2
:10AFD000E3E700BF00B54FF4003083B001211DF05E
:10AFE00083FF02A94FF450634FF0000C41F8083D75
:10AFF000022269464FF090408DF806C08DF807C0D8
:10B000008DF804208DF805201DF0B2FC4FF0904023
:10B01000082105221DF024FE4FF090400A21052250
:10B020001DF01EFE4FF090400B2105221DF018FE72
:10B0300003B05DF804FB00BF30B5114C85B00D4680
:10B040004FF4804001211DF06BFF20461EF004F8F4
:10B0500000234FF4007220466946ADF80020ADF899
:10B060000230ADF80430ADF80630ADF80C30029582
:10B070001EF064F8204601211EF0D0F805B030BD66
:10B08000003800402DE9F043224CDFF8948006465A
:10B0900001208DB00D4601461DF026FF20460021FF
:10B0A0001DF05AFB20461DF0A7FA06F10801002307
:10B0B0004FF0100C4FF0800E4FEA850920460291A8
:10B0C0004FF4005201A94FF480754FF48067202699
:10B0D000CDF80CC005930B93CDF818E00A92ADF8AB
:10B0E0001090CDF804800795089709961DF006FB8F
:10B0F000204606210122084C1DF03CFB4FF4004184
:10B1000021600648022101221EF098F80DB0BDE82A
:10B11000F08300BF5800024000E100E0003800402A
:10B120000C38004070B50A4B1546002204461860E2
:10B130000E4642600560FFF74DFF20463146FFF79F
:10B140007BFF20462946BDE87040FFF79BBF00BF4C
:10B15000706800204160024801211DF0FDBA00BF67
:10B160005800024008B50E4B1A684FF4C0215960D0
:10B1700091030AD4530300D408BD0A48026892E838
:10B180000A0002F10800984708BD064B1B6893E8C7
:10B19000060001F1020C03EB8C00904708BD00BFD4
:10B1A000000002407068002008B505481DF030FF1F
:10B1B00004481DF02DFF0448BDE808401DF028BFDD
:10B1C0000060014000640140006801402DE9F04F3B
:10B1D000012193B081464FF080501DF0A1FE4FF445
:10B1E000007001211DF07AFD4FF4806001211DF0F7
:10B1F00075FD4FF4006001211DF070FD4FF080706F
:10B2000001211DF07FFE4FF0007001211DF07AFE3C
:10B2100001214FF080601DF075FE4FF028401DF0B9
:10B2200077FD022001211DF05FFE4FF480200121F7
:10B230001DF05AFE4FF4801001211DF055FE012132
:10B240004FF400101DF050FE634D00201DF0CAFEAB
:10B25000002703214FF040624FF0804305F10804BE
:10B2600005F1B40A8DF80B708DF80A7004970697F3
:10B270008DF808100392059354F8080C01211DF075
:10B280009DFE54F8080C4FF400411DF0DFFE01282C
:10B29000F7D0A86800280FDD2E464FF00008318B4C
:10B2A0007069019101A91DF063FBAA6808F101080A
:10B2B000424506F11006F2DC54F8080C01211DF09D
:10B2C00087FE54F8080C4FF000411DF0BFFE002827
:10B2D000F7D054F8083CA968ADF8281007F1100B16
:10B2E00003F16002802109EB4B0300264FF4806ECE
:10B2F00054F8040C0792089320224FF400530C9149
:10B300004FF4807807A9CDF838E00F921093099692
:10B310000B961196CDF834801DF0F0F954F8080C16
:10B32000314603AA1DF026FEA868B042B34614DDDC
:10B33000A84698F80CC058F8103F54F8080C49F883
:10B340002C70002219464BEA030B1DF025FEAA685B
:10B350000136B24207F10107EBDC594654F8080CFC
:10B360001DF05CFE54F8080C00211DF05BFE54F843
:10B37000080C04211DF040FE54F8080C00211DF0BB
:10B3800027FE54F8080C4FF000411DF05FFE012825
:10B39000F7D054F8080C1DF035FE54F8080C0121C4
:10B3A0001DF054FE0028F8D054F8040C01211DF0C3
:10B3B000D3F93C3554F8080C4FF4803101221DF0CC
:10B3C0003BFE554504F13C047FF456AF4846FFF779
:10B3D000EBFE13B0BDE8F08F44B803082DE9F0414F
:10B3E000012188B005464FF480001DF07DFD4FF42B
:10B3F000003001211DF078FD08AF4FF4805001218D
:10B400001DF080FD802347F81C3D002402264FF0EC
:10B410000108394632488DF808808DF809608DF8AA
:10B420000A408DF80B401DF0A3FA394640222C4803
:10B430008DF808608DF8096001928DF80A408DF84A
:10B440000B401DF095FA0522254806211DF008FC49
:10B4500039464FF090404FF480578DF808608DF8D2
:10B4600009608DF80A408DF80B4001971DF080FAB5
:10B470004FF090400C2106221DF0F2FB4FF40076B5
:10B480004FF4827E4FF4706C3822072303A91548CD
:10B49000ADF80EE0ADF810C0ADF81820ADF81C30D6
:10B4A000ADF80C40ADF81240ADF81440ADF81A40BC
:10B4B000ADF816601DF006FE4146A84609481DF08D
:10B4C0009DFE48F8044B48F8044BC8F80040EC6077
:10B4D0002C616C61AC61EC6108B0BDE8F08100BF2B
:10B4E00000140048003001400246002370B442F8C6
:10B4F000043B42F8043B70BC1360C36003614361CA
:10B500008361C361704700BFD0F800C081694269A0
:10B5100003692DE9F0031CF47F0F47688668C5684E
:10B52000C469DFF800810CBF4FF000094FF001093A
:10B530001CF47F4F0CBF0020022017F47F0F49EA54
:10B5400000090CBF0020012017F47F4F40EA890C4E
:10B550000CBF0027022716F47F0F4CEA07090CBF27
:10B560000020012016F47F4F40EA89070CBF002617
:10B57000022615F47F0F47EA060C0CBF00200120BD
:10B5800015F47F4F40EA8C070CBF0025022514F408
:10B590007F0F47EA05060CBF0020012014F47F4FFF
:10B5A00040EA86070CBF0024022411F47F0F47EA0B
:10B5B00004050CBF0026012611F47F4F46EA8509D9
:10B5C0000CBF0021022112F47F0F49EA010C0CBFCD
:10B5D0000020012012F47F4F0CBF0027022740EA11
:10B5E0008C0213F47F0F0CBF0025012542EA0704EB
:10B5F00013F47F4F45EA84060CBF4FF000094FF06B
:10B600000209802346EA0900C8F8183000BF054A3D
:10B610004FF08008A2F8288000BF0349BDE8F0037E
:10B620008881704700140048003001402DE9F04344
:10B63000012193B007464FF400701DF063FC4FF4F6
:10B6400040401DF059FB4FF4003001211DF04CFC2F
:10B65000012001461DF048FC00257F234FF0030820
:10B660004FF0904001A907240193DFF8A0918DF8D5
:10B670000B504FF480668DF80A508DF808801DF04D
:10B6800077F94FF0800C4FF4807E4FF40053202266
:10B690005C48CDF830C007A9CDF834E010930F9284
:10B6A000CDF81C900E96089709950B951195ADF85D
:10B6B00028401DF023F8534801211DF04DF84FF0AC
:10B6C00001094FF400625048059203A94FF4602627
:10B6D0008DF80D508DF818408DF80C9004961CF0E4
:10B6E000E7FE29464A46234647481CF019FF022137
:10B6F0000A46234644481CF013FF4146424623466F
:10B7000041481CF00DFF494623463F4804221CF0E7
:10B7100007FF23463C48062105221CF001FF234673
:10B720003948052106221CF0FBFE224623463648F6
:10B7300004211CF0F5FE344849461CF0DBFE32487B
:10B740001CF0E8FE30481CF053FF0028FAD12E48C8
:10B750001CF0DAFE2C481CF047FF0028FAD12A48DA
:10B7600001211CF037FF38464FF4004120F8021B3E
:10B770000E3787424FF006053ED03DB3012D1FD056
:10B78000022D19D0032D13D0042D0DD0052D07D077
:10B79000062D18BF20F8021B4FF4004420F8024B7E
:10B7A0004FF4004320F8023B4FF4004620F8026BB0
:10B7B0004FF4004820F8028B4FF4004C20F802CBE5
:10B7C0004FF4004E20F802EB874215D081464FF42B
:10B7D000004229F8022B103020F80E2CA9F8022084
:10B7E00020F80A2C20F8082C20F8062C20F8042C2D
:10B7F00020F8022C8742E9D103481CF0E5FE13B083
:10B80000BDE8F08308000240002401404C240140C0
:10B8100001481CF0D9BE00BF0024014070B50121D1
:10B8200082B005464FF480201DF05EFB174C0023CC
:10B83000A288E05800924FF0010C694602268DF86C
:10B8400007C08DF804308DF806308DF805601DF0C6
:10B850008FF8A189A068009169461DF089F8A38A34
:10B860002069009369461DF083F8A28BA0690092BD
:10B8700069461DF07DF82846FF2400F8014B00F8CA
:10B88000014B0470EC7002B070BD00BFF8B8030843
:10B890002DE9F041154C05460746A188206815F8AA
:10B8A000038B1DF0D7F93E4640EA480006F8010B2D
:10B8B000A068A18996F800801DF0CCF940EA480103
:10B8C00006F8011B2069A18A36781DF0C3F940EA09
:10B8D000460205F8012CA18BA0692C781DF0BAF95D
:10B8E00040EA4403FB70BDE8F08100BFF8B80308EC
:10B8F0002DE9F84F054600F5085342F23028303361
:10B90000DFEDDC7ADC4A9FEDDD7A05F61C5A05F5A1
:10B9100052690C4605F6245145F808A000264FF060
:10B920007E5E05F6B85B05F6BC5A85F8286DC9F849
:10B9300000E0C1F800E0C3F804B005F55C6185F8EB
:10B94000C46D05F5626BCAED007A05F6246AC1ED97
:10B95000007A05F61C690121C3F80890C3F80C9021
:10B9600000F5F85C85F8281E05F5F658CBF800E0E0
:10B97000CAF800E005F5F75A00F501570CF10C0B79
:10B9800008F11C08C3F81090C3F8148007F10809E7
:10B990008AF80860CAED007ACAED017AC3F818B0D7
:10B9A00005F1B00A4FF07C5B8CF81860CCF81020E1
:10B9B000CCF81420B248C3F81C9005F59E7CC7F85B
:10B9C0000CB0C7F810B03E7505F582791D6205F51B
:10B9D000E0782E736A60AA6005F51F77C3F824A08B
:10B9E00005F5317B05F2544A85F8BC60C5ED2D7A2A
:10B9F000C5F8B800C3F82890C5F80801C5F80C01CF
:10BA000085F8106105F25C49C3F82CC0C5F8440103
:10BA100085F84861C5ED507A05F58B6CC3F8308028
:10BA200085F8CC61C5F8C421C5F8C8215F63C5F8A5
:10BA30008002C5F8840285F8886205F2FC57C3F8D5
:10BA400038B085F8D062C5F8C822C5F8CC22C3F852
:10BA50003CA005F5C06A85F8606405F5BF688CED0B
:10BA6000007ADFF82CB2C9F8002005F20C6CC3F89C
:10BA7000408085F80466C7F800B0CAF800E005F514
:10BA8000D267C3F844C005F2946CBFEE000A05F516
:10BA9000C26005F2146805F28C694FF0404B85F8DE
:10BAA000186605F2747A80ED000A05F26C7088ED74
:10BAB000000AC3F8489005F5EE6885F89866C7F85F
:10BAC00000B0CCF800E005F50C6CD86405F6B807BA
:10BAD00085F8781705F6BC0988ED000A05F6FC1E06
:10BAE00005F5206005F60428CAF800201F6505F654
:10BAF000BC2A85F8C41805F6B82789ED000ACCF8E9
:10BB00000020C3F854E005F6DC3C05F53E6E85F8F0
:10BB1000081A05F6B42B026005F6D839C8F80020DB
:10BB2000182005F50A58C3F858B085F8C01A08F16E
:10BB3000100B3A60CAF800201F1FC3F85C9085F80C
:10BB4000E41BCCF80020CEF80020186657F8040F4C
:10BB500063680268E16823601368A1602146984722
:10BB6000DBF800300136B342F0DC5C1E05EE904A93
:10BB700005F5055E42F27C180022DFF818B1CEF818
:10BB80003420F7EE001AB8EEE51ACEF83820CEF8D9
:10BB90002820CEF82C20CEF83020CEED091A002433
:10BBA00045F8083042F29019CEF840B042F2941CA9
:10BBB00005F5085BCEF848208EED111ACEF84C4002
:10BBC00005F50651DE4605F507569FED2E6ADFEDB9
:10BBD0002E6ADFED2E0A05F809404FF0FF3745F8D1
:10BBE0000C70D946F046F4468A61F2638BED006A28
:10BBF000CBED016ACBED020ACBF81020CBF80C207C
:10BC00004FF07C5BC6F838B006F11003CEF8182070
:10BC10008EED076A42F2A01AC9ED086AC9ED090A59
:10BC2000C9F82C208E46C8F82820CCF814B08A63B6
:10BC3000C1ED101ACA63C1F844B08A6481F84C405F
:10BC400006F130018B4205F80A40CEF81C207363E0
:10BC50000AD01E4646F8042B46F8042B3260DA6000
:10BC60001A615A619A61DA6142F2F01400222A5193
:10BC7000BDE8F88F3333333FCDCC4C3F333333BF44
:10BC80009A99193F22BA003D0AD7233CCAAA7F3F9E
:10BC9000000040C0CDCC4C3D2DE9F04F044642F2AF
:10BCA000F01700F5075054F807E0D2F818A09FED00
:10BCB000E67ADFEDE66A00F130080EF10706D8F803
:10BCC000040006F0070600EB8E0B06F1050906F1ED
:10BCD000060C09F0070E0CF007082DED0C8B15462D
:10BCE00092F82320CBF800A000EB8E0A00EB88002E
:10BCF000DAED007A90ED006AD5ED04BAE65136EE41
:10BD0000670A8DB0E0EE077A0E46029395ED05BA0C
:10BD100095ED03CAD5ED078A95ED01AAF4EEE67A12
:10BD2000F1EE10FAF0EE670AD4BF00210121002ADB
:10BD300001F01D8296F8320042F2A019012814F891
:10BD400009A001F0808496F82E0095F824700397DE
:10BD5000012896ED081A01F08D84B0EEE8DAB5EE10
:10BD6000C01AF1EE10FA01F1D182B7EE009AB4EEEA
:10BD7000491AF1EE10FAD8BFB0EE419A96F82D00AC
:10BD8000D6ED091A012804BFD5ED006A71EEA61A96
:10BD9000F5EEC01AF1EE10FA01F1C082B7EE008A9A
:10BDA000F4EE481AF1EE10FAD8BFB0EE618ABAF19B
:10BDB000000F40F06C82002900F0718242F2A01066
:10BDC000039F0123235427B942F2CC12A35495F8C0
:10BDD000232004F5065BDE460BF13809D5F8008018
:10BDE0004FF07E51C9F800109346CEF8188022B962
:10BDF00004F5065C2868CCF8180096F82D30D6EDCE
:10BE0000072A002B41F0AF8104F50657D7ED065AFB
:10BE100004F5055202F13C0E9EED023ADEED033AC6
:10BE20009EED045A9EED014AE5EE833A42F27C1102
:10BE3000F8EEE24AF8EEC59A73EEA4AAFFEE00CA45
:10BE4000F4EEE9AAF1EE10FAF7EE00DAC8BFF0EE70
:10BE50006CDAE4EE2DAAB6EE007A7AEE876AFDEE91
:10BE6000E67A17EE908AB8F1000FC1F24584605867
:10BE7000804501DB00F1FF3842F2941304F5085CC1
:10BE8000E258CEF810800CF13007424557F8287080
:10BE900001F0F1816E4B1A78552A01F0F781A8F173
:10BEA0000203022B01F242826A4A52F823103868D8
:10BEB000836838469847396838464A68904704F599
:10BEC000075C04F5055B4FF07C50CCF8380000238C
:10BED00042F2941242F29010CBF82830CBF82C307A
:10BEE000CBF83030CBF83430CBF838304FF07E51CF
:10BEF0000023CBF8241044F8028095F823B0235493
:10BF000042F2A01196F83100625C8DF82C00002AF4
:10BF100001F026818AF0010A04F5065C9CED076AAF
:10BF20008CED07AA3AEE060AF6EE000A60EE20CA89
:10BF3000BBF1000F01F01081002A0CBF0021042189
:10BF400041EA0A0005909FED441A9FED44AADFEDF7
:10BF5000441A9FED442ADFED3D2A434A4349DFED71
:10BF6000495A99ED003AA9EE01AA68EE828AFDEEDF
:10BF7000CA3A3DEE22DAB8EEE34AC8EE8D9A7AEE7E
:10BF8000444A13EE903A64EEA1AA02EB830EFDEE52
:10BF9000EA6A9EED005A16EE900A01EB800ADAED8D
:10BFA000007A25EE276AB7EE007A26EE25AAF0EE93
:10BFB00000DAF1EE4A8AB0EE470AA8EEAD0AF5EED5
:10BFC000C09A60EE03AAF1EE10FAC9ED00AA01F1E1
:10BFD000A981F4EE479AF1EE10FAC8BFF0EE479A45
:10BFE000D6ED010A039B9FED221A3CEE20CA002BDE
:10BFF000B5EEC0CA18BFB0EE691AF1EE10FA4FF0F4
:10C0000000028DED0A1A01F17A81F7EE001AB4EE02
:10C01000E1CAF1EE10FAC8BFB0EE61CA8DED09CAEF
:10C02000B8F10F0F01F03C81B8F1070F01F08181E9
:10C03000F7EE00DA95F821A095F8209095F8228087
:10C04000B0EE6DDA2AE000BF000000009A99993E38
:10C05000FE7F00087CD302080000C0C2000000433D
:10C06000000080436666A63FBCF50308C0F90308DC
:10C07000CDCC4C3FCFF7DF40000040420000EEC285
:10C080000000F042CDCC4C3D6666863F00000000CB
:10C09000000000C30000FE42CDCCCC3D96F82C0041
:10C0A000002841F04480D6ED0A6A1FED0E7A26EE94
:10C0B000870A1DF059F9F0EE087A30EE676AB2EEA1
:10C0C000080AE6EE00CAD6ED040A1FED121A1FEDAB
:10C0D00012CAD6ED001AD5ED023AB0EEE02A72EEA1
:10C0E000412A2DEE2ADAF4EEC12AF1EE10FA58BFF9
:10C0F000B0EE621A60EE815A7CEEA1CA25EE8C3A4F
:10C10000B9F1000F09D1BBF1000F01F03F802DEE16
:10C110002A4A5FED274A64EE243AE3EE23CA1FED74
:10C12000295AF4EEC5CAF1EE10FA00F1FC875FED72
:10C130002C6AF4EE66CAF1EE10FAC8BFF0EE66CAD9
:10C1400096ED057A5FED317A1FED310ACDED06CA25
:10C15000B0EEC76A76EE670A96ED021AF4EEE70AC9
:10C16000F1EE10FA58BFF0EE607A27EE27CA6CEEB7
:10C17000001ABAF1000F05D1BBF1000F01F00280E7
:10C180006DEEAABAF0EE41AAE1EEABAAF5EEC0AAB6
:10C19000F1EE10FA01F1BE80F7EE00BAF4EE6BAAF0
:10C1A000F1EE10FACCBFF0EE6BDAF0EE6ADA96ED53
:10C1B000062A5FED4C2A5FED4C5ACDED07DAB0EE62
:10C1C000C23A73EE623A96ED034AF4EEE23AF1EEC9
:10C1D00010FA58BFF0EE632A62EE224A24EEA55A06
:10C1E000B8F1000F06D11FED57BABBF1000F18BF11
:10C1F000B0EE4DBAB0EE44DAA5EE0BDAB5EEC0DA29
:10C20000F1EE10FA01F17E80B7EE00BAB4EE4BDA2F
:10C21000F1EE10FAC8BFB0EE4BDA3968229B97F8FE
:10C220000CE000930DF1130204F50A5B04F50B58C2
:10C2300001920BF1140908F134084346D1F80CA01F
:10C240008DED08DA4A468DF813E0384605A9D04747
:10C2500096F82F305BB3DDED066A5FED73CAB2EE80
:10C26000027A76EEC77AF4EEEC7AF1EE10FA01F18A
:10C270008F801FED780AF4EEC07AF1EE10FA41F3E8
:10C2800003824FF0000C4FF0FF0B01F084B81FED5C
:10C290007E2AF4EEC20AF1EE10FA00F1E18704F50D
:10C2A000065C0CF138099346A1E5CEED001A229BFD
:10C2B000013B96F82DE096F82C20BEF1020CDCF143
:10C2C000000A5AEB0C01022A40F01A87D6ED0ABA8E
:10C2D000002940F01A87F5EEC0BAF1EE10FA00F12D
:10C2E0001E87F7EE001AF4EE61BAF1EE10FAC8BF3D
:10C2F000F0EE61BA229E002E00F0C78058ED18DAE9
:10C3000098ED00BA7BEE6D7A04EB860BEBEEA7DAC4
:10C310000BF50B5000F1340EC446C8EB0E02ECECEA
:10C3200001DA111FF445C1F3820600F0AE80002E41
:10C3300053D0012E45D0022E39D0032E2DD0042EFD
:10C3400021D0052E15D0062E09D05CED18AADCED03
:10C35000002A32EEEA3AEBEE83AAECEC01AA5CED9D
:10C36000183ADCED005A35EEE34AEBEE843AECEC99
:10C37000013A1CED187A9CED002A72EE474AABEEAA
:10C38000A47AACEC017A1CED185A9CED00DA7DEE33
:10C3900045CAABEEAC5AACEC015A1CED180ADCED08
:10C3A000000A30EEC01AABEE810AACEC010A1CEDBB
:10C3B000186A9CED00CA7CEE466AABEEA66AACEC4D
:10C3C000016A5CED181ADCED00DA3DEEE1BAEBEE45
:10C3D0008B1AECEC011AF44557D05CED187ADCEDC1
:10C3E00000AA7AEEE72AE246EBEEA27A0CF11C00F4
:10C3F0000CF1200CEAEC017A1AED183A5CED073AE0
:10C4000073EEC35AD346ABEEA53AABEC013A1BED43
:10C41000184A9AED012A1CED1D7A1CED055A1CEDF7
:10C420001CDA1CED040A5CED1B0A1CED036A1CED12
:10C430001ACA5CED19DA5CED021A1CED01BA72EE53
:10C44000444A75EE47CA30EE4D1A76EE606AABEE9E
:10C45000A44AABEEAC7AABEE81DAEBEEA60A71EE53
:10C46000CC7A7BEE6DAAABEEA7CAEBEEAADA0CEDA6
:10C47000064A0CED057A0CED04DA4CED030AF4459E
:10C4800000ED01CA4CED01DAA7D19DF81320002A76
:10C4900040F0EB820399002940F07C8695F8231048
:10C4A000002900F0E282F2EE082A28EE223ADFEDBF
:10C4B000E53A9FEDE52ADFEDE55AE54DE54A9DEDCC
:10C4C000064A9FEDE55ADFEDE59AA9EE233AB2EE72
:10C4D000029A73EE024A34EE497ABDEEE4DAB4EE23
:10C4E000C57AF8EECDCA1DEE106A34EEEC0A05EB03
:10C4F000860E20EE251ADEED000ABDEEC16AF1EED1
:10C5000010FA16EE10CA02EB8C0A9AED00CA60EE21
:10C510008C1AE1EEA98A01F1A182DFEDD16AB4EEB5
:10C52000E67AF1EE10FA41F3858203984FF0FF0BA3
:10C5300004F5065101F13C0EC54DC6499EF8102088
:10C5400005EB8B0601EB800C96ED003ADCED003A32
:10C55000002A01F01A8163EE230A9FEDC21A9EEDB4
:10C56000002A20EE816AB2EE08CA66EE0C1AF0EEDE
:10C57000006AA1EEA62AF7EE00CAB4EEEC2AF1EEAC
:10C5800010FA8EED002AC1F2BB800020DFEDB69AD2
:10C590009FEDBADA8EF81000B0EE6C7AB0EE6C2A2D
:10C5A000BFEE000AF7EE00AA7AEEC7BAA8EEABAA71
:10C5B0000026A8EE2CDADFEDAD8AD7ED013AAAEE1F
:10C5C000002AB0EE69AAA8EE28AA68EE0D2AF5EEB8
:10C5D000C03A28EE223AF1EE10FAB0EE429AB0EEEE
:10C5E000438AB0EE4A7A8EED033A8EED002A8EED44
:10C5F000012A8EED02AA40F15482229AF1EE639A4A
:10C60000002A01F09980CA46FAEC015A9FED98DAA7
:10C610009FED984A04F5075B0BF1380E69EEA5CA49
:10C620009EED000AB0EEEC5A75EE400AF7EE004AB5
:10C63000F5EEC00AF1EE10FAC8BFB0EE4D4AA0EE1A
:10C64000840A03F00101B4EEE40AF1EE10FA8EED73
:10C65000000A01D9C4EE804A5D1E2CEEA41A9FED9B
:10C66000866A21EE06CA0AED01CA002B00F0888016
:10C6700061B3FAEC011ADEED006ADFED7DDA9FEDC1
:10C680007DBA9FED7DAA69EEA17AF7EE00AAF0EEE1
:10C69000E7BA7BEEE68A013DF5EEC08AF1EE10FACC
:10C6A000C8BFB0EE6DBAE8EE8B6AF4EEEA6AF1EE5E
:10C6B00010FA88BFCAEEA6AA681CCEED006A67EE23
:10C6C000AA2A22EE8A3A0AED013A59D0D446BCECA5
:10C6D000012A9EED00DADFED663A9FED664ADFED56
:10C6E000660A9FED631A9FED636A69EE825AF7EE60
:10C6F00000CAB0EEE50A30EE4D5AE246B5EEC05A39
:10C70000F1EE10FAC8BFB0EE634AA5EE04DA681E77
:10C71000F7EE00AAB4EEECDAF1EE10FA88BFCCEE38
:10C720008DCA8EED00DA65EEAC4A24EEA0CA0CED9F
:10C7300001CAFAEC011ADEED006A69EEA1DAB0EE88
:10C74000EDBA7BEE667AF5EEC07AF1EE10FAC8BF6C
:10C75000B0EE416AE7EE866AF4EEEA6AF1EE10FAAC
:10C76000CEED006A01D9CAEEA6AA451EDFED42BA97
:10C770006DEEAA8A68EEAB2A4AED012A0028A5D1FF
:10C7800004F5075B9BED013A9BED024ADBED003AB5
:10C79000DFED3B9ADE46002E00F0928122980028C1
:10C7A00000F0B580B9EC019A029D29EE898A03F068
:10C7B0000300BDEEC87A591E17EE10CA0CF1010233
:10C7C00002F30F0A25F804AB2A1D002B00F09F800E
:10C7D00000285BD0012821D002280FD0B9EC01AA93
:10C7E00029EE8A2A0139BDEEC2DA04321DEE10BAF2
:10C7F0000BF1010505F30F0E22F808ECF9EC015AD4
:10C8000069EEA5CA0139BDEEEC0A043210EE10CA79
:10C810000CF1010000F30F0522F8085CB9EC015A95
:10C8200069EE850A0139BDEEE01A4D1C11EE10AA21
:10C8300002F104020AF1010B0BF30F0E22F808ECCF
:10C8400065D023E0000090C2000000430000804358
:10C85000BCF50308C0F90308000000C30AD7A33BD6
:10C860000000FE4251969639D1229B3E0AD7233DC5
:10C87000CDCC4C3DACC5A737CDCC4C3F0000000023
:10C8800000FEFFC6D7573941DB0F4940CC46FCECD0
:10C89000014A99ED026A9CED00CAD9ED036A09F1DB
:10C8A000100969EEA41A69EE8CDABDEEE1BAFDEE6C
:10C8B000ED7A69EE86AA69EEA6BA10461BEE10AABA
:10C8C00017EE905AFDEEEA8AFDEEEB2A0AF1010B13
:10C8D00005F1010E0BF30F0C0EF30F0A22F804CC36
:10C8E00018EE90BA20F804AB12EE905A04390BF10E
:10C8F000010E0EF30F0CA0F800C0481C05F1010A50
:10C9000002F110020AF30F0B22F808BCBED197ED1A
:10C91000028AB5EEC08AF1EE10FA00F1EC8100F166
:10C92000B2821FED297A28EE07CA002E00F0B082ED
:10C93000229C002C00F09480B8EC013A029D6CEE31
:10C94000033A03F00306BDEEE34A05F10A0E14EEC6
:10C9500010AA03F1FF3C0AF1010707F30F006880FA
:10C96000002B7DD0E6B3012E25D0022E11D0F8EC9D
:10C97000014A029A2CEE240A0CF1FF3CBDEEC08A5B
:10C9800018EE103A5C1C04F30F062EF8046C02F14A
:10C990000E0EB8EC017A2CEE071A0CF1FF3CFDEEFE
:10C9A000C1DA0EF1040E1DEE909A09F1010505F3AE
:10C9B0000F072EF8087CB8EC01BA6CEE0B6A0CF18C
:10C9C000FF3CFDEEE6AA1CF101041AEE90BA0EF14E
:10C9D000040E0BF1010101F30F002EF8080C3FD0FB
:10C9E000C246FAEC01BAD8ED027A9AED006A98EDE7
:10C9F00003AA08F110086CEE2B8A6CEE062ABDEE35
:10CA0000E82ABDEEE2DA6CEE27CA6CEE0A0A73463B
:10CA100012EE104A1DEE106ABDEEEC5AFDEEE09AE1
:10CA2000621C751C02F30F0705F30F012EF8047C3E
:10CA300015EE109A23F8041B19EE90BAACF1040C11
:10CA400009F1010A0BF101000AF30F0400F30F06CC
:10CA50001C80AEF808601CF101060EF1100EBFD16B
:10CA60000DB0BDEC0C8BBDE8F08F04F5065A1FED40
:10CA70007D8A0025B7EE009AB6EE007A8AF84C500F
:10CA80008AED0F8A8AED128A8AED109A8AED117A60
:10CA90000126D7ED013AF5EEC03AF1EE10FA3FF576
:10CAA000ACAD00F149861FED8A2AB0EE484A63EE2C
:10CAB000829AB0EE473AF0EE493A002E7FF46EAE1D
:10CAC0001FED90AA1FED902A27EE0ADAB7EE005A62
:10CAD000ADEE072A04F5075101F13C0CF0EE04CA53
:10CAE00022EE077AF0EE455AE7EE2C5A04F508528A
:10CAF000DCED006A82ED007AE7EE075AF0EE660A96
:10CB000085EE25CAD9EE890ADDED229A82ED02CAA8
:10CB1000B8EE699A19EE900AC2ED01CA80EE891A40
:10CB2000002800F0DE80029D03F00101581ED2EDC6
:10CB3000031AF9EC014A92ED046A76EE816A2CEE52
:10CB4000E10AF1EE47DAA4EEA60AADEEA10A30EE54
:10CB500046BA6CEE0B7AE7EE271AA7EE216AF0EEE2
:10CB600061AAF0EE46BAD4EEA6BAF0EE462AABEED3
:10CB7000886AE7EE27AAE7EE212ABDEEC6AAC2ED33
:10CB8000042A1AEE10EAC2ED03AA0EF1010A0AF312
:10CB90000F0B25F804BBB0EE6A9AB0EE62BA04350A
:10CBA000002B00F09E80A9B3B9EC01DA76EE816A21
:10CBB0002CEEEA2AB0EE6A5AADEE262A0138043588
:10CBC000F0EE629AADEEAA2A72EE62CA6CEE2C0A00
:10CBD000A7EE205AE7EE059AB0EE459AF0EE695AB4
:10CBE000DDEE265AB0EE69BAE5EE889AA7EE209AF5
:10CBF000FDEEE94AA7EE05BA14EE901A01F1010E16
:10CC0000411C82ED04BA82ED039A0EF30F0A25F857
:10CC100008AC66D0B0EE040AF9EC01BA76EE81AA4F
:10CC200020EE496A7AEE816AABEEAA6AAB46023818
:10CC3000ADEE896A76EE4B7A6CEE278AA7EE289ADB
:10CC4000A7EE09BAF0EE492AB0EE4B2AE7EE282A01
:10CC5000A7EE092AC2ED032A82ED042AF9EC01CAE3
:10CC600020EE62DAB0EE62AAACEEA6DAF0EE4B0A83
:10CC7000ADEEA2DADBEEAA0A7DEE429AA0EE88BA09
:10CC80006CEE295ABDEECB9AA7EE25AA19EE101A22
:10CC9000A7EE0A2A013101F30F01F0EE4A1AF0EE75
:10CCA000424ADCEEA64A25F8041C411CB0EE42BA0A
:10CCB000A4EE882AE7EE251AA7EE0ABABDEEC20A4C
:10CCC00082ED04BA10EE10EAC2ED031A0EF1010A69
:10CCD0000AF30F052BF8045BB0EE619A0BF1040523
:10CCE00098D1CCED006A97ED028AB5EEC08AF1EEDC
:10CCF00010FA7FF514AE229FB1EE48CA002F00F063
:10CD0000C2804246B2EC011ADFEDF2DA9FEDF2BAD0
:10CD100004F5085909F1140C6CEE016ADCED00AA67
:10CD2000B0EEE66A76EE6ABAF7EE007AF5EEC0BAD1
:10CD3000F1EE10FAC8BFB0EE6DBAEBEE8BAA03F0BD
:10CD40000100F4EEE7AAF1EE10FACCED00AA01D949
:10CD5000C7EEAA7A03F1FF3E66EEA78ADFEDDF2A6F
:10CD600028EEA2AA02ED01AA002B00F08C8070B37D
:10CD7000B2EC012A9CED00DADFEDD6CADFEDD60A6F
:10CD8000DFEDD64A2CEE025AF7EE009AB0EEC59AC5
:10CD900079EE4D5A0EF1FF3EF5EEC05AF1EE10FA63
:10CDA000C8BFF0EE6C0AA5EEA0DAB4EEE9DAF1EE57
:10CDB00010FA88BFC9EE8D9A1EF101008CED00DAE1
:10CDC00065EE291A21EEA40A02ED010A5BD0934612
:10CDD000BBEC018A9CED007A9FEDBE1ADFEDBEDA56
:10CDE000DFEDBEBADFEDBB7ADFEDBB8A2CEE08BA11
:10CDF000F7EE006AF0EECBAA3AEEC76A5A46B5EEF5
:10CE0000C06AF1EE10FAC8BFF0EE41DAA6EE2D7A54
:10CE10000EF1FF31F7EE009AB4EEE67AF1EE10FA79
:10CE200088BFC6EE876A8CED007A6BEE262A22EE6A
:10CE3000ABAA0BED01AAB2EC012A9CED00DA6CEE74
:10CE400002CAF0EEEC0A30EECD5AB5EEC05AF1EE61
:10CE500010FAC8BFF0EE678AA5EE28DAB4EEE9DA78
:10CE6000F1EE10FA8CED00DA01D9C9EE8D9A01F1DC
:10CE7000FF3E9FED9A9A6CEEA95A65EE891A42ED33
:10CE8000011A0029A3D19FED96CA002E7FF450AD60
:10CE90009FED949ADFED945A63EE091AF7EE004A7B
:10CEA000E1EE835A04F5085C0CF11800B0EE048A38
:10CEB00025EE837AB0EE643AA7EE083A04F5085EF0
:10CEC0000EF11C09D0ED006A89ED007AA7EE073A51
:10CED000B0EE661AC4EE83DA9CEE231A9DED22CAE8
:10CEE000C9ED02DAF8EE4C3A1CEE102A89ED018AFF
:10CEF00081EE23BA002A00F0E580029F03F00104CE
:10CF000007F10A0C03F1FF3AD9ED03AAF8EC01BAD4
:10CF100099ED046A76EE8B6A28EE6A0AF1EE478A8A
:10CF2000ABEEA60AA8EEAA0A70EE467A6DEEA72A24
:10CF3000E7EE22AAA7EE2A6AB0EE6AAAB0EE462A67
:10CF40009BEEA62AF0EE46CAA2EE046AA7EE22AA3B
:10CF5000E7EE2ACAFDEEC60AC9ED04CA10EE905AE1
:10CF600089ED03AA6E1CB0EE4A1A06F30F0BB0EE61
:10CF70006CCAA7F802B0002B00F0A480CCB3F8EC88
:10CF8000019A029976EE8B6A28EE4A5AB0EE4A8AE6
:10CF9000A9EEA65A0AF1FF3A1AF10105B0EE6C3A71
:10CFA000A8EE8A5A35EE6C9A6DEE891AA7EE218AA0
:10CFB000A7EE083AB0EE481AF0EE435AD9EEA65A58
:10CFC000B0EE43CAA5EE843AA7EE211AA7EE08CA2E
:10CFD000FDEEC33A89ED04CA13EE903A89ED031AC7
:10CFE00003F1010202F30F042CF8044C01F10E0CC2
:10CFF00068D0F0EE04AAF8EC012A76EE8BBA2AEE9D
:10D00000C16A7BEE8B6AA2EEAB6AE646AAF1020A1F
:10D01000A8EE816A36EE4C0A6DEE807AA7EE271AEA
:10D02000A7EE01CAB0EE41AAB0EE4CDAA7EE27AAED
:10D03000A7EE01DA89ED03AA89ED04DAF8EC010A1A
:10D040006AEECACAB0EE4A2AE0EEA6CAB0EE4C5A60
:10D05000E8EE8ACA92EEAB5A3CEECD9AA5EE04CA2F
:10D060002DEE898AFDEECC1AA7EE082A11EE907AF1
:10D07000A7EE02DA7D1C05F30F06B0EE423AF0EEA1
:10D080004D5AD0EEA65A2CF8046C1AF10107B0EEF6
:10D090004DCAA5EE84DAA7EE083AA7EE02CAFDEE65
:10D0A000CD4A89ED04CA14EE90BA89ED033A0BF12A
:10D0B000010303F30F022EF8042BB0EE431A0EF116
:10D0C000040C96D1C0ED006A0DB0BDEC0C8BBDE830
:10D0D000F08F00BFCDCC4C3DACC5A737CDCC4C3F7D
:10D0E00000FEFFC6D7573941DB0F4940E7FB4F41F0
:10D0F00000000000000090C20000004300008043D8
:10D1000000293FF4C2A9F6EE00BAD5ED006A7BEE25
:10D11000A6BAF5EEC0BAF1EE10FA7FF5E2A85FED1F
:10D120000CBAFFF7E7B8F0EE45CAFFF709B80128D7
:10D130007EF4C9AF96ED0A3A5FED143A23EE230A66
:10D140001CF012F9B1EE084A70EE444AB1EE0C5AE6
:10D15000E4EE85CAFEF7B7BF02230593FEF7F3BEE0
:10D160009246FEF7D9BE5FED1E5AFEF751BE42F25F
:10D17000A01395F82470039714F803A096ED081AED
:10D18000FEF7EBBD5FED26BAFEF7FCBFF7EE003A07
:10D19000FEF7C3BFF2EE08BA68EE2B2A1FED2B3A5A
:10D1A0005FED2B3A1FED2B4A6E4E6F489FED6F2AB5
:10D1B000E9EE032A04F5065505F13C0E9EED009AB2
:10D1C00032EEA35A79EEC99ABDEEC57AF7EE005A4F
:10D1D000F8EEC74A17EE10CA35EE64DA06EB8C0A91
:10D1E0002DEE040ADAED00CABDEEC01A69EE090A96
:10D1F00011EE102A00EB820B9BED00CA35EEC96AD6
:10D200006CEE8C1AF5EEC09AF1EE10FA60EEA06AA0
:10D21000E1EE828A66EE06DA40F35D829FED54AA63
:10D22000F7EE008A78EEED7ADFED52AA9FED527AA2
:10D23000DFED52BAE8EE27DA0026A6EEAA7AA9EECA
:10D240008A9AA8EE2B7A28EE2DAA8EED009A28EE67
:10D250000A8A8EED019A8EED038A8EED027A18E429
:10D2600042F2A017002104F50659E15509F13809E9
:10D270009346FEF7BCBD42F29011605C00283EF47C
:10D280003FAE3F4B1A78552A7EF409AE3D490878E7
:10D2900008F1200B58457EF402AE3B49FEF707BE6D
:10D2A0009DED092AF1EE082AF0EE005AE2EE625AEC
:10D2B000F5EEC05AF1EE10FA00F18082B7EE00DA16
:10D2C000F4EE4D5AF1EE10FAD8BFB0EE65DABBF1CC
:10D2D000000F00F0A58195F82030002B40F07982F6
:10D2E000D6F810A095F8222004F5BE61C1F800A080
:10D2F000002A40F06A8299469046B06999E1099205
:10D30000FEF78EBE9FED21DAFEF787BF9FED1F9AD5
:10D31000FEF734BDDFED1DDAFEF749BF9FED1B8A36
:10D32000FEF745BDDFED199AFEF75ABE0021FEF764
:10D33000BEBDBBF1000F00F0BC8195F821000028B4
:10D3400040F08A8304F5055C726995F82090DFED62
:10D350000FDACCF81820824695F82280B7EE00DA72
:10D36000FEF79CBEBCF50308C0F903080AD7A33B2F
:10D370009A99193F9A99993EA69B443B0AD7233D17
:10D38000FE7F0008FF7F000800700008000000001A
:10D390004FF0000CE346ED48ED4ADFEDEE5A00EBAE
:10D3A0008B0102EB8C0E91ED002ADEED002A96F83F
:10D3B000300022EE223A012863EE253A00F0E081A7
:10D3C000022804BFF5EE005A63EEA53A012B00F0E7
:10D3D0000382022B7EF46BAFF5EE004AF4EEE43AE2
:10D3E000F1EE10FA80F23E839FEDDB5A9FEDDBBA3F
:10D3F00023EE85DAF0EE00CA6DEE0B6AEDEE66CA3A
:10D400002DEE2C0A04F5055A0AF1240C9CED01BA04
:10D41000DCED007A9DED226A6BEE0B0A04F50553F4
:10D42000E7EEA70A03F12C0B04F505519BED007AFA
:10D4300091ED0C2AF6EE001A30EE471AB8EE46CA05
:10D44000F4EEE10A01F1300AF1EE10FAC1EE0CAA95
:10D4500006D9F0EE00BAF4EEEB0AF1EE10FA1CDB9E
:10D4600010EE902A5008C0F1BE4E0EF55D1303F584
:10D47000CE51F6EE00DA01F11F0203EE102A60EE43
:10D48000AD2AF7EE085A63EE223AE3EE635A23EE32
:10D49000254A67EE847A2BEE04BA2298431E0028B0
:10D4A00000F0B48037EE2A7AC646E7EE0B7A03F036
:10D4B0000702591EA7EE67BAEEEC017A002B00F0C6
:10D4C000A580002A4CD0012A3FD0022A34D0032A5A
:10D4D00029D0042A1ED0052A13D0062A08D037EEF8
:10D4E0002A7A0139E7EE0B7AA7EE67BAEEEC017AF9
:10D4F00037EE2A7A0139E7EE0B7AA7EE67BAEEEC3F
:10D50000017A37EE2A7A0139E7EE0B7AA7EE67BA8D
:10D51000EEEC017A37EE2A7A0139E7EE0B7AA7EEC4
:10D5200067BAEEEC017A37EE2A7A0139E7EE0B7A28
:10D53000A7EE67BAEEEC017A37EE2A7A0139E7EE08
:10D540000B7AA7EE67BAEEEC017A37EE2A7A013948
:10D55000E7EE0B7A481CA7EE67BAEEEC017A55D0DD
:10D5600077EE2A4A7046E4EE8B7A08390EF1200EE7
:10D5700034EEAA5AA4EEE7BAF0EE67CAE5EE0BCA9B
:10D5800035EE2ADAA5EE6CBAB0EE6C1AADEE0B1AD7
:10D590003DEE2A0AADEE41BAF0EE416AE0EE0B6ACA
:10D5A00070EE2A0AA0EE66BAE0EC017AF0EE667A36
:10D5B000E0EE8B7AF0EE4B1AE0EEE71A30EEAA6A54
:10D5C000F0EE67DAE6EE21DAB0EE61BAA6EE6DBAF9
:10D5D00036EE2ACAC0ED00CA4EED047AF0EE6D7A3E
:10D5E000ECEE0B7A481C3CEE2A7AACEE67BA4EEDB4
:10D5F000027AE7EE0B7A0EED061A4EED056A4EED55
:10D6000003DAA7EE67BA4EED017AA9D1CCED007A24
:10D610008CED01BA8AED002A8BED007AFEF749BE47
:10D6200004F5BE6E002095F8209095F82280CEF883
:10D63000000004F2F45C95F821A0CCF80000F7EEAD
:10D6400000DAFEF72BBD04F5065CE346E646E0464D
:10D650006346BAF1000F43D1002941D0CCED09BA9D
:10D660008CED0ABA8CED0BCACCED0C8A8CED0DAAB0
:10D67000FEF769BB9FED40DA002331EE281A0393D1
:10D68000F0EE4D8AFEF76BBB9FED356ADFED350A94
:10D6900037EE861ABDEEC1CAF8EECC1A1CEE10BAEF
:10D6A00071EE61AA6AEEA0BAFDEEEBDA1DEE90CA49
:10D6B00071E695F821A004F50558F7EE00DA4FF071
:10D6C000804195F82090C8F81810B0EE6DDA95F802
:10D6D0002280FEF7E3BC35EEE6BAA8EE8BAA9FE502
:10D6E000DCED09BA9BED0ABA9EED0BCAD8ED0C8AA7
:10D6F00093ED0DAAFEF727BB4FF00008FEF7BCBB69
:10D7000062EE02DA7CEEC27A9FED19BADFED199A69
:10D710002DEEAD7A27EEA7DAE7EE0B9A32EE420A4B
:10D720007CEECDCAB5EEC00AF1EE10FA7EF73AAF44
:10D730009FED0DAAFEF73CBFB0EE484AB0EE473A67
:10D74000F0EE493ADFED099AFFF725B8BCF503087A
:10D75000C0F9030851969639DB0F49400AD7A33E1A
:10D7600000000043000080439A99193F00FEFFC665
:10D770009A99993EA69B443B00000000C937B53FEB
:10D78000B6EE004A63EE843A20E69EED002A1FEDD5
:10D79000084A5FED089A1FED089AF7EE005A22EE4C
:10D7A000025A75EEC24A25EE057A24EEA4DAE7EEB7
:10D7B000049A75EECDCA39EE420AB3E71FED12DACC
:10D7C000BBF1000F3FF42CAF85E500209946D84609
:10D7D0002FE74FF0000A85E504F50553F6EE00AAA1
:10D7E000F4EE6A3A03F1380E9DED223ADEED001AAE
:10D7F000F1EE10FA04F50B52B8BFF0EE63AA02F195
:10D80000380313EE102A7AEEE12AF8EE433A12F0CA
:10D81000030AC2EEA35A00F0D08004F5055101F1CD
:10D82000340B22980433421E9BED004A71EEA51A78
:10D83000B7EE002A31EE847AF6EE004AB4EEC27AF0
:10D84000F1EE10FAA8BF37EE427AB4EEE47AF1EEC8
:10D8500010FA8BED007A5ABF4FF03F4B43F808BCEB
:10D8600043ED024ABAF1010F00F0A780BAF1020FAE
:10D8700023D004F5055C0CF1340A9AED005A71EEE0
:10D88000A51AF7EE00CA31EE85DAB6EE000AB4EE5C
:10D89000ECDAF1EE10FAA8BF3DEE6CDA013AB4EE24
:10D8A000C0DAF1EE10FA8AED00DA5ABF4FF03F4AC3
:10D8B00043F804AC03ED010A043304F5055101F10A
:10D8C000340BDBED000A71EEA51AB7EE006A31EEFB
:10D8D000A01AB6EE00CAB4EEC61AF1EE10FAA8BF4E
:10D8E00031EE461A013AB4EECC1AF1EE10FA8BED95
:10D8F000001A5ABF4FF03F4B43F804BC03ED01CA76
:10D9000004335AE073EEEA3ACBED003AF6EE00BA91
:10D91000F4EEEB3AF1EE10FA58BF4FF03F4B04F53E
:10D92000055254BF43F804BC43ED01BA02F1340A76
:10D930009AED006A71EE252AF7EE007A32EE860A39
:10D94000B6EE002AB4EEE70AF1EE10FAA8BF30EE08
:10D95000670A191DB4EEC20AF1EE10FA8AED000A48
:10D9600004F5055C5ABF4FF03F4A41F804AC01EDA5
:10D97000012A0CF1340B9BED00DA72EEA51AF7EEDA
:10D98000000A71EE8DCAB6EE005AF4EEE0CAF1EE6E
:10D9900010FAA8BF7CEEE0CAC21EF4EEC5CA03F1BD
:10D9A0000800F1EE10FACBED00CA5ABF4FF03F4B22
:10D9B00040F804BC00ED015A0C33501E002A3EF41E
:10D9C00074AC04F5055A0AF1340191ED007A31EE98
:10D9D000A54AB7EE00BA74EE07DAF6EE006AF4EE86
:10D9E000CBDAF1EE10FAA8BF7DEECBDA04F5055CD8
:10D9F000F4EEE6DAF1EE10FAC1ED00DA56BF4FF0C0
:10DA00003F4143ED016A43F8041C0CF1340B34EE42
:10DA1000251A9BED00CA71EE0C3AF7EE00AAF4EE5F
:10DA2000EA3AF1EE10FA03F10403BFF66BAFCBED67
:10DA3000003A6BE777EE02DABDEEEDBAF8EECB7A9C
:10DA40001BEE10BA7DEEE7AA6AEEA5BAFDEEEB2A50
:10DA500012EE900AFEF76CBDDA462CE60398834678
:10DA6000FEF766BD1FEDBB0ACCE400BF2DE9F00751
:10DA70000A9BD1ED007A04EE103AB6EE007AF8EE89
:10DA8000446AF4EEC77AB7EE006AF1EE10FA86EE59
:10DA9000260A00F3EB80DFED770A27EEA01AFCEEF2
:10DAA000C11A11EE906A92ED002AD0ED017AD0F8F9
:10DAB0000080F1EE002AB4EEE22AF1EE10FAD4BFB3
:10DAC000F0EE424AF0EE624A34EEE73A03F1FF39F3
:10DAD00023EE000A002B00F0C2800899DFED665AA1
