:020000040800F2
:1080000000800020613E020845850008498500087F
:108010004D850008518500085585000800000000C6
:10802000000000000000000000000000598500086A
:108030005D8500080000000061850008A93E020877
:10804000A93E0208A93E0208A93E0208A93E02086C
:10805000A93E0208A93E0208A93E0208A93E02085C
:10806000A93E0208A93E0208A93E0208A93E02084C
:10807000A93E0208A93E0208A93E0208CDB00008A8
:10808000A93E0208A93E0208A93E0208A93E02082C
:10809000A93E0208A93E0208A93E0208A93E02081C
:1080A000A93E0208A93E0208A93E0208A93E02080C
:1080B000A93E0208A93E0208A93E0208A93E0208FC
:1080C000A93E0208A93E0208A93E0208A93E0208EC
:1080D000A93E0208A93E0208A93E0208A93E0208DC
:1080E000A93E0208A93E0208A93E0208A93E0208CC
:1080F000A93E0208A93E020800000000000000009E
:108100000000000000000000A93E0208A93E02088D
:108110000000000000000000A93E0208A93E02087D
:10812000A93E0208A93E0208A93E0208A93E02088B
:10813000A93E0208A93E0208A93E0208A93E02087B
:10814000A93E02080000000000000000000000003E
:10815000000000000000000000000000000000001F
:108160000000000000000000A93E0208A93E02082D
:10817000A93E020800000000A93E0208000000001D
:10818000A93E0208000000000000000000000000FE
:108190000548064B1B1AD90F01EBA301491002D069
:1081A000034B03B118477047100000201000002057
:1081B0000000000008B5054B1BB105490548AFF3A9
:1081C0000080BDE80840FFF7E3BF00BF00000000EB
:1081D00010000020908100082DE9F04FCD4E83B0B3
:1081E00081460F461BF0A6FB304602F0C9FA3378F1
:1081F000062B2CD0C84890F821207AB9DFF834A398
:10820000C54AC649C64800974B4603F019FCDAF840
:108210004433C6F8C03103B0BDE8F08FC14C90EDD7
:10822000040A204602F02CFE052800F08F80022868
:1082300000F04A810428E1D1BB4DDFF8F8A2356790
:10824000032140F2DC533170C6F8B031D8E7002F7B
:10825000E1D0DFF8E4A2DAF8006007F1FF3B17F0A5
:10826000030009F104053246DE4631D001281DD055
:1082700002280DD0F743320C06F1881E3C0C25F87D
:10828000022C25F8044C0EF5084204350BF1FF3E94
:10829000D143100C0B0C02F1881C25F8043C25F886
:1082A000020C0EF1FF3E0CF508420435D7430EF1E7
:1082B000FF3E110C3C0C02F18818BEF1FF3F25F87F
:1082C000044C25F8021C08F5084205F1040531D0DC
:1082D00002F1881909F50843AC46D043DC43070C8A
:1082E000210C100C03F1881825F8047C25F8020CE9
:1082F0008E4F2CF8041B08F50844E1431B0C2CF8A6
:10830000023CD0190B0C2CF8043B02F10872C74355
:10831000AEF1040E02F50839240C390C000CBEF144
:10832000FF3F2CF8024C09F508722981688105F19C
:108330001005CDD17E4A06F1881606F5084502FBE8
:108340000B53CAF8003003B0BDE8F08FD4ED521AD9
:10835000D4ED512AB8EE612AB8EE623AB7EE001AAF
:10836000C2EE033AF4EE413AF1EE10FA05D0DFF82E
:10837000C4A16C4802F070FD42E76E49D4F8405148
:10838000D1F8444395F8FE3F9C428A46C0F2B9803A
:1083900095F8FF0F844200F3B48020344FF0550865
:1083A000C5F1006C85F8FF4F85F8FE8F2C4605F56A
:1083B000805B0CF5E04551E054F8041B404604EBAB
:1083C00005081BF079F8C8F30A01002976D0404669
:1083D000A04658F8041BA8441BF06EF8C8F30A0323
:1083E000002B65D0404604F108086168A8441BF0E2
:1083F00063F8C8F30A00002854D0404604F10C0882
:10840000A168A8441BF058F8C8F30A02002A43D018
:10841000404604F11008E168A8441BF04DF8C8F389
:108420000A0199B3404604F114082169A8441BF0DD
:1084300043F8C8F30A031BB3404604F11808616906
:10844000A8441BF039F8C8F30A0098B11C34404620
:1084500054F8041C1BF030F85C456FD004EB0508A1
:10846000C8F30A02002AA7D11AF05CFF40461AF0AE
:1084700069FFA1E71AF056FF40461AF063FFE5E7EF
:108480001AF050FF40461AF05DFFD5E71AF04AFF98
:1084900040461AF057FFC5E71AF044FF40461AF06D
:1084A00051FFB5E71AF03EFF40461AF04BFFA4E734
:1084B0001AF038FF40461AF045FF93E71AF032FFF2
:1084C00040461AF03FFF82E794ED527AD4ED517A9C
:1084D000DFF860A0B8EE470AF8EE670AB7EE006A68
:1084E000C0EE206A40F2DC5003223270F4EE466A9D
:1084F000F1EE10FA18BF0020C6ED1C6AC6F8B001F4
:108500007EE6094A3267032540F2DC513570C6F831
:10851000B0112EE77C56002018590020E4580020A6
:108520002C40002030550020000080BF9899990110
:10853000888888002C5000202800002001248AF818
:10854000404316E7704700BFFEE700BFFEE700BFED
:10855000FEE700BFFEE700BF704700BF704700BFE7
:10856000704700BF10B54FF4004186B04FF0006077
:108570001BF0F0F945F255501BF0D0F91A4C0220CF
:108580001BF0D2F94FF480434FF48042174802A900
:10859000CDE90423CDE9024403F096F814484FF4E2
:1085A000805204F5405102F01FFC124B01930198D8
:1085B000421E01920028FAD10F4800F0B1F80E4B8C
:1085C0000E4A0F490F4800F03BFD0C220E484BF6B7
:1085D000803102F045FD0D490B4802F06FFD1BF0A4
:1085E000B1F906B010BD00BF2C0000202C400020C7
:1085F0003055002040420F005858002018590020E4
:10860000E45800207C56002040590020D981000801
:1086100008B5FFF7A7FFFEE7284B2949C3F8B010BC
:108620002849C3F83C112849C3F87C122749DFF8D0
:10863000D8C0C3F8541426492648C3F800C0C3F86C
:108640000C16DFF8C8C02449C3F80401C3F8C0C140
:108650002248DFF8BCC0C3F86C172149C3F8C40234
:10866000C3F8F8C51F48DFF8ACC0C3F8FC191E49B1
:10867000C3F88C06C3F8B8C81C48DFF89CC0C3F820
:10868000D81B1B49C3F8B40A03F580521948C3F834
:108690001CCDC3F8B81DDFF884C01749C3F81C0E01
:1086A000C3F8C41E15481649C3F870CF154BC2F85D
:1086B0008C00C2F8BC10C2F8F83170472C40002082
:1086C000683903086438030880390308F43803085C
:1086D000AC3803084C3803080C3903082437030866
:1086E0000C370308C43803087C380308DC38030857
:1086F0000C3A0308F4390308DC390308A03B0308EB
:108700003C3A0308983903083C39030874360308D7
:108710002439030894380308883B0308243A0308E3
:108720002DE9F04304460023AA4DAB49AB4E83B07C
:1087300000228367A0F87C306560A94DA9482160BC
:108740004FF27F47A26162622263E263A649A74AB1
:10875000206148F28008C4E91C58E660E061A44E3C
:10876000A44827842787A4F84470E26443F25F5743
:10877000A2654FF00409A04A666545F29B3C04F1EE
:108780007005A4F85070A064C4E920459B4F238174
:10879000A382A38584F87E90A4F85CC062632264FF
:1087A0000868974EA662B84227D18988702924D1DB
:1087B000944F97F8018097F803C038797E79F9795A
:1087C000BE4608371EF8019B9EF8012017F802EC00
:1087D0004B4443441344634403448B4A334473443B
:1087E0000B4497429BB2E4D132F8720C83F47F467B
:1087F00086F0FF01884200F062811AF093FD7A4D05
:10880000824E284605F500651AF09CFDB542F7D169
:10881000D4F880807022ADF8042008EB02054146B0
:1088200000238E4691F802901EF8017B91F803C058
:108830009EF800000A7991F805E08E793B440344E4
:108840004B446344134491F8079073443344083114
:108850004B448D429BB2E4D1DF4368496248ADF896
:10886000067046461AF028FE019969481AF024FE5F
:10887000A81B021F6349930801338F1B13F00701E4
:1088800031D0012928D0022921D003291AD0042966
:1088900013D005290CD0062905D0F019D8F80010FE
:1088A0001AF00AFE04363168F0191AF005FE043693
:1088B0003168F0191AF000FE04363168F0191AF028
:1088C000FBFD04363168F0191AF0F6FD0436316804
:1088D000F0191AF0F1FD04363168F01904361AF077
:1088E000EBFDB54231D03168F01906F104081AF0F9
:1088F000E3FD716808EB07001AF0DEFD06F10800E1
:10890000B16838441AF0D8FD06F10C00F16838441B
:108910001AF0D2FD06F11000316938441AF0CCFD8E
:1089200006F11400716938441AF0C6FD06F118000A
:10893000B16938441AF0C0FD06F11C00F1693844F1
:1089400020361AF0B9FDB542CDD1D4F8845095F84F
:1089500000E095F801C095F80290E8782B796A79E3
:10896000AF79E97995F80880F444CC4484449C4478
:1089700094441026BC44ADF804608C446E7A95F89B
:108980000AE095F80B90287B6B7BAF7BEA7BC444B5
:10899000B444F444CC4484449C44BC4412FA8CF166
:1089A000CE4319481B49ADF806601AF085FD1A48F8
:1089B00001991A4F1AF080FD384655F8041B1AF039
:1089C0007BFD174804378742F6D10225A4F888506A
:1089D000002027E00AD783BFCDCCCC3C14AECD41DC
:1089E000080080FF000070C2004000089A9919BF7B
:1089F00048E1FA3ECDCCCC3ECDCCCCBF43414C4936
:108A0000000080BF0840000878400008007000089F
:108A100004400008535441547C4000088040000842
:108A20009040000894F8703094F8762094F877100D
:108A300094F8786094F8797094F87A50172B84BF82
:108A4000172384F87030032A84BF032284F8762029
:108A5000022984BF022184F87710012E84BF0126E9
:108A600084F87860022F88BF022794F87B3088BF93
:108A700084F87970022D88BF022594F87C2088BF85
:108A800084F87A50022B88BF022394F87D1088BFA7
:108A900084F87B30012A88BF012294F87E6088BF69
:108AA00084F87C20012984BF012184F87D10082EE0
:108AB00084BF082684F87E6003B0BDE8F0834FF0E1
:108AC00001087E49702220461BF034FA4646A4F87D
:108AD0008880BC467A4ADCF8007097421FFA86FE0E
:108AE00005D0BEF1010F3FF488AE01209AE7BCF833
:108AF0000430102BF5D19CF809009CF808909CF8E4
:108B00000A109CF80B809CF80C209CF80D308144D6
:108B10008944C1449CF80E009CF80F109CF810800A
:108B20009144994481449CF811209CF812309CF89F
:108B300013008944C14491449CF814109CF815809A
:108B40009CF816209944814489449CF81730C1440C
:108B5000914413FA89F0C143BCF806908AB291455A
:108B6000BFD10CF1080898E80F0085E80F000EF15E
:108B70000109A4F88890DCF8189006F10108B945BD
:108B80001FFA88FEADD1BCF81C70102FA9D19CF83B
:108B900021009CF820309CF822109CF823209CF89F
:108BA000247003440B449CF825009CF826101344C1
:108BB0003B449CF827209CF8287003440B449CF805
:108BC00029009CF82A1013443B449CF82B209CF865
:108BD0002C7003440B449CF82D009CF82E10134479
:108BE0003B4403449CF82F200B4412FA83F3BCF857
:108BF0001E10DF43B8B281427FF473AF0CF1200244
:108C00000FCA85E80F00DCF830300EF101074B4544
:108C100008F1010E1FFA8EFEA4F888707FF461AF90
:108C2000BCF8340010287FF45CAF9CF839909CF8B5
:108C300038809CF83A109CF83B209CF83C709CF8DB
:108C40003D309CF83E00C84488449044B8449CF8A9
:108C50003F909CF840109CF841209CF8427098444A
:108C60008044C84488449CF843309CF844009CF8F5
:108C700045909CF846109044B844984480449CF831
:108C80004720BCF83600C844884412FA88F7FB43F2
:108C900099B288427FF425AF0CF1380898E80F00AC
:108CA00003360EF1010EB6F5FE7F85E80F000CF1DC
:108CB000480CA4F888E07FF40DAF16E708400008E0
:108CC00053544154B0F88830974A2DE9F0430133AA
:108CD000964C054603EB430004EBC001914283B080
:108CE00040F2F0801AF01EFBA4F1600738461AF03B
:108CF00029FB8D4B07F500679F42F7D1D5F880908F
:108D00007022ADF8042009EB0204494600238E4688
:108D100091F802801EF8016B91F803C09EF80000E4
:108D20000F794A7991F806E033440344434463449D
:108D30003B4491F8078013447344083143448C4208
:108D40009BB2E4D1DE437A497A48ADF806601AF066
:108D5000B3FB4E46019978481AF0AEFBA01B071FE3
:108D6000BA087649013212F00703A1EB060731D0A9
:108D7000012B28D0022B21D0032B1AD0042B13D087
:108D8000052B0CD0062B05D0F019D9F800101AF0DD
:108D900093FB04363168F0191AF08EFB0436316803
:108DA000F0191AF089FB04363168F0191AF084FBC7
:108DB00004363168F0191AF07FFB04363168F01977
:108DC0001AF07AFB04363168F01904361AF074FB95
:108DD000B44231D03168F01906F104091AF06CFB85
:108DE000716809EB07001AF067FB06F10800B1682B
:108DF00038441AF061FB06F10C00F16838441AF0AF
:108E00005BFB06F11000316938441AF055FB06F19E
:108E10001400716938441AF04FFB06F11800B1696B
:108E200038441AF049FB06F11C00F1693844203639
:108E30001AF042FBB442CDD1D5F8844094F80080BA
:108E400094F801E0A178E67820796279A779E3794E
:108E500094F80890C6448E44B644864496444FF035
:108E6000100CBE44ADF804C09E4494F809C094F8B8
:108E70000A80E17A267B607BA77BE27BCE44E644D6
:108E8000C6448E44B6448644BE4412FA8EF3DE4392
:108E90002B492C48ADF806601AF00EFB2A480199C0
:108EA0002A4F1AF009FB54F8041B38461AF004FB49
:108EB000274904378F42F6D10221A5F8881003B064
:108EC000BDE8F0831AF02EFAB5F888301C4ED5F8BC
:108ED0008470009623B31F4A03EB430004EBC004E5
:108EE00002EBC00904F10806E846204658F8041BC6
:108EF00004341AF0E1FAB442F7D13C46A9EB040677
:108F000010372168A01904341AF0D6FABC42F8D1FF
:108F1000B5F888100131A5F8881003B0BDE8F083DA
:108F2000DFF81890034CDDE700700008604000088F
:108F300043414C4900400008044000080840000834
:108F400053544154784000087C4000088040000899
:108F50009040000868400008D0F89031D0F8842094
:108F600093F87010D16193F871C09FED347A07EED9
:108F700090CAB8EE670A60EE070AC2ED090A93F8D4
:108F8000721001EE101AF8EE411A21EE872A82EDD6
:108F9000082A93F873C002EE90CAB8EE623A63EE04
:108FA000073AC0ED203A93F8741004EE101AF8EE68
:108FB000444A24EE875A80ED1D5A93F875C005EE99
:108FC00090CAB8EE656A66EE076AC0ED1E6A93F84D
:108FD000761082F82C10D0F8842093F877C082F8AD
:108FE0002DC0D0F8842093F8781082F82E10D0F895
:108FF000842093F879C082F82FC0D0F8842093F8A9
:109000007A1082F83010D0F8842093F87BC082F870
:1090100031C0D0F8842093F87C1082F8321093F895
:109020007D20A2F10102B2FA82F14A0980F8C4213E
:1090300093F87E3080F8C531704700BF0000803B58
:10904000F0B5044683B0C0E92112C0F89031043075
:109050000F4602F057F804F1340002F053FA04F11D
:10906000440002F065F904F16400002602F0F8FA09
:109070006F4D7048C4F8CC5109234FF03F41C4F8FC
:10908000C831C4F8D001C4F8D4112046C4E91A6626
:109090002670C4F8D861FFF75FFF07F1040EC4F82B
:1090A000B8E004F1800EC4F8BCE007F1080EC4F883
:1090B000DCE007F1240E04F17C0204F17403C4F82F
:1090C000E0E007F10C0E4FF080414FF07E50C4F805
:1090D0009420C4F89830584A584BC4F8E450C4F867
:1090E0000851C4F800E1002507F1200E07F1140C27
:1090F000C4F8B020C4F804E1C4F89C30C4F8C0300F
:10910000C4F8AC10C4F8D000C4F8F400A4F890601F
:10911000A4F8B460A4F8D860A4F8FC60C4F8A05027
:10912000C4F8A450C4F8A850C4F8C450C4F8C85037
:10913000C4F8CC50C4F8D450C4F8E850C4F8EC508B
:10914000C4F8F050C4F8F850C4F80C51C4F81051E9
:10915000C4F82C31C4F85031C4F8743107F110034D
:109160001837C4F86C7104F17807C4F81801C4F812
:1091700024C1C4F83C11C4F84021C4F86011C4F8FB
:109180008411C4F86421C4F88821C4F84831C4F8B3
:109190001451C4F81C51A4F82061C4F82861C4F823
:1091A0003051C4F83451C4F83851A4F84461C4F8BB
:1091B0005451C4F85851C4F85C51A4F86861C4F81B
:1091C0007061C4F87851C4F87C51C4F88051C4F877
:1091D0009461C4F8AC610121C4F84C714FF40030C3
:1091E0001AF0BEFC40F201224FF40071CDE90012EA
:1091F0004FF0904069461AF079FA0420C4E96C6691
:10920000C4F89861C4F89C61C4F8A061C4F8A46172
:10921000C4F8A861C4F8B861A4F8BC61C4F8C0611E
:10922000C4F88C51256784F8C50103B0F0BD00BFB8
:109230000AD7233C00001041000080BF0AD7A33B9F
:10924000D0F88420D0F89031D16983F87010D0F82C
:1092500084209FED367AD2ED097A27EE870AFCEE5C
:10926000C00A10EE901A83F87110D0F8842092EDA5
:10927000081A61EE071ABCEEE12A12EE101A83F802
:109280007210D0ED202A22EE873AFCEEC33A13EE9C
:1092900090CA83F873C090ED1D4A64EE074ABCEE95
:1092A000E45A15EE102A83F87420D0ED1E5A25EEEC
:1092B000876AFCEEC66A16EE901A83F87510D0F82D
:1092C000842092F82C1083F87610D0F8842092F83D
:1092D0002D1083F87710D0F8842092F82E1083F8A0
:1092E0007810D0F8842092F82F1083F87910D0F8F5
:1092F000842092F8301083F87A10D0F8842092F805
:10930000311083F87B10D0F8842092F8321083F863
:109310007C1090F8C4C183F87DC090F8C52183F813
:109320007E20D0F89001FFF7CDBC00BF0000804345
:109330002DE9F041044684B0443002F053F8D4F8EB
:10934000B0310133D8052078C4F8B031C3F304122A
:1093500003F00F0148BFC2F11F02072800F29480FA
:10936000DFE810F050010800A001DA01990099002F
:10937000E6004201D4F88400DFEDC54AD0ED093A99
:109380009FEDC45A73EEE42A03EE101A62EE857A5A
:10939000F8EEC30AF4EEE70AF1EE10FA40F10883A2
:1093A000BD499FEDBC7A2165F5EE006A72EEE65A82
:1093B00025EE870AB4EEE00AF1EE10FA40F3F682E9
:1093C000B54ADFEDB41AE264B5EE006A35EEC61AAE
:1093D00021EE214AB4EEE04AF1EE10FA40F3E482C5
:1093E000AD4DDFEDAC3AA564B5EE002A71EE424A10
:1093F00024EEA35AF4EEC50AF1EE10FA40F1D2823F
:10940000A54BD0ED082A9FEDA23ADFEDA26A636476
:1094100072EEC37A67EEA65AF4EEE50AF1EE10FAA0
:1094200040F1BE829C4F9FED9B6A2766B5EE007AA5
:1094300037EEC70A20EE061AF4EEC10AF1EE10FA72
:1094400040F1AC82944E9FED932AE665F5EE001A4A
:1094500030EE614A64EE024AF4EEE04AF1EE10FAB0
:1094600040F39A828C48DFED8B2AA065F5EE003A36
:1094700034EE635A25EE223AF4EEC30AF1EE10FA06
:1094800040F188828449616504F1440004B0BDE87C
:10949000F04101F0ABBF04F140050027082F00F2B6
:1094A0007F8101A151F827F0279500081D9500083C
:1094B0001395000809950008FF940008ED94000832
:1094C000CD940008A197000889940008D4F884601E
:1094D00096F8322082B1561E042E00F2DC84DFE8BA
:1094E00016F058015B01440155015D01D4F8840078
:1094F00090F83120002AEED14FF47F423BE1D4F8BE
:10950000841091F83020E5E7D4F8846096F82F2095
:10951000E0E7D4F8842092F82E20DBE7D4F884002A
:1095200090F82D20D6E7D4F8841091F82C20D1E7BC
:109530005A4D9E1285FB06E7A7EBE37808EB48003F
:10954000951C8A42A6EB000305F00F0680F23181DC
:10955000002B00F07882012B00F01A844FF47F0E6C
:10956000B142C4F844E000F33181151D05F00F0647
:109570004FF000088E42C4F84880C0F23182971D37
:1095800007F00F008142C4F84C8040F3708202F172
:10959000080606F00F074FF47F0EB942C4F850E0FA
:1095A00000F3318102F10A0808F00F004FF0000CBF
:1095B0008142C4F854C000F3318202F10C0505F079
:1095C0000F06B142C4F858C000F3FA8200270E32E9
:1095D00002F00F029142E76540F33382002B40F026
:1095E00030814FF47F4131E18A427FF74DAF4FF434
:1095F0007F03C4E91133C4E91333C4E91533C4E963
:10960000173341E7D4F88450EB695F4207F0070055
:1096100003F0070658BF46428A42B04640F399819C
:109620001F4A154607CA002B0DF1040C8CE80700F1
:10963000B8BF0733D9100DEB81035E683746D4F805
:10964000C03195E80700002B9E46B8BF03F1070E16
:109650008CE807005E424FEAEE000DEB800206F058
:10966000070003F0070358BF434204EB830C04EBED
:1096700088085168CCF84410D8F8445004F14400EC
:109680003D43C8F8445004B0BDE8F04101F0AEBE1F
:109690006F12833A0000804200FFFF005655555577
:1096A000503F020894ED201AF2EE061A21EE214AEC
:1096B000BDEEC42A12EE107A002F00F04F810A2F5F
:1096C00000F00D82092F00F04883012F00F0B583D0
:1096D0000021022F216600F043830020032FE06564
:1096E00040F0EE82B348A065092F00F031830025D9
:1096F000052F656540F0D882AE482065092F00F03F
:1097000022830022072FE26400F09483082FA264D2
:1097100000F03781002535E1D4ED1C7AB7EE007AF0
:10972000F4EE477AF1EE10FA40F0988057104FF4BB
:109730007F4200F0EB81012F626440F0AE82002690
:10974000C4E912624FF47F42904696469446104612
:10975000C4E91428C4E916EC206640F6B835AB42DB
:109760007FF792AE002323708EE64FF47F4213F012
:10977000800F18BF0022E06EB84203D013F0070F2D
:1097800018BF002245F8042F013787E64FF47F0207
:10979000EDE74FF47F02EEE7864AECE7854AE6E71D
:1097A00094F8C421002A14BF4FF47F024FF47F4283
:1097B000E1E74FF0000CB142C4F844C040F302812D
:1097C000002B00F0C681012B00F0F982151D05F079
:1097D0000F064FF47F0CB142C4F848C000F300817B
:1097E000971D07F00F0E4FF000087145C4F84C802C
:1097F0003FF7CDAE02F1080000F00F05A942C4F812
:10980000508040F30F8202F10A0707F00F084FF46F
:109810007F0C4145C4F854C000F3008102F10C00F4
:1098200000F00F054FF0000EA942C4F858E000F315
:10983000C7810E3202F00F029142C4F85CE040F39F
:109840000081012B00F03B814FF47F0104F14400C3
:10985000216604B0BDE8F04101F0C8BDF5EEC07A64
:10986000F1EE10FA00F12D81DFED536A9FED536A9E
:1098700077EEE60AB4EE000A70EEC05A01EE101A56
:1098800035EEC04AF8EEC11A74EE404A20EE862A40
:1098900034EEC05A65EE863A75EE402A24EE063A5A
:1098A000B4EEE12AF1EE10FA72EEC07A64EE866A46
:1098B000F4EEE13AC8BF4FF47F4265EE060AD8BF26
:1098C0000022F1EE10FAB4EEE13AC8BF4FF47F4146
:1098D00062EE865AD8BF002137EEC07AF1EE10FA58
:1098E000F4EEE16A626427EE860ACCBF4FF47F4251
:1098F0000022F1EE10FAF4EEE10AA16427EE066A06
:10990000CCBF4FF47F410021F1EE10FAF4EEE15AA2
:10991000E264CCBF4FF47F420022F1EE10FAB4EEC5
:10992000E10A2165CCBF4FF47F410021F1EE10FA2E
:10993000B4EEE16A6265CCBF4FF47F420022F1EEE3
:1099400010FAC4E91612CCBF4FF47F4200222266FF
:1099500003E71B4D00270DF1040C70E6551000F0D5
:10996000C780144B2366012D40F07D81C4E9163772
:109970006365104E2665052D40F088810027C4E9F7
:1099800012670C4D656404F1440004B0BDE8F04179
:1099900001F02CBD002176E5002064E5002652E5AB
:1099A000002740E500232CE500251AE5002208E504
:1099B0000021F6E400FFFF006F12833A000000432D
:1099C000503F0208171D07F00F0E7145C4F848C03C
:1099D00040F38381002B00F01181012B00F00B82FA
:1099E000961D06F00F074FF47F0CB942C4F84CC027
:1099F0003FF7CDAD02F1080E0EF00F084FF0000C4E
:109A00004145C4F850C03FF7FEAE02F10A0000F035
:109A10000F05A942C4F854C040F3C28002F10C0003
:109A200000F00F054FF47F07A942A7653FF7CFADC0
:109A30000E3202F00F06B1424FF00002E2653FF72E
:109A400000AF002102E74FF47F488E42C4F8448003
:109A50007FDB161D06F00F07B942A36400F3CE802A
:109A6000901D00F00F05A942E36400F3858002F128
:109A7000080606F00F074FF0000EB942C4F850E098
:109A800040F3D080002B45D0012B7FF4BCAE02F117
:109A90000A0000F00F05B64B6365A94200F3D180C0
:109AA00002F10C0707F00F0800264145A66500F3F8
:109AB00040810E3202F00F0C6145E665C1DDAC4914
:109AC000C4E68A42CCBF4FF47F050025C4E9115596
:109AD000C4E91355C4E91555C4E917553DE6A44A30
:109AE000A264C4E91722C4E91522C4E9132248E795
:109AF0009F4FA765C4E917759D496165042D7FF4E3
:109B000038AF0026C4E91316A1643AE7C4E911721C
:109B1000E26417E602F10A0808F00F004FF47F4CE8
:109B20008142C4F854C056DC02F10C0505F00F0662
:109B30004FF0000EB142C4F858E07FF747AD0E3247
:109B400002F00F024FF47F439142E3653FF749ADC6
:109B500077E7161D06F00F074FF47F4CB942C4F8A3
:109B600048C04BDC901D00F00F054FF0000EA942DD
:109B7000C4F84CE07FF77BAF02F1080505F00F0653
:109B80004FF47F48B142C4F85080C3DC02F10A07A9
:109B900007F00F004FF0000C8842C4F854C01ADBE5
:109BA00002F10C0707F00F084FF0000C4145C4F814
:109BB00058C07FF70BAD002BC1D0012B00F0B9804E
:109BC00002F10E0000F00F064FF47F05B142E5658B
:109BD0003FF73AAE35E702F10C0000F00F054FF405
:109BE0007F43A942A365AADC02F10E0606F00F0727
:109BF0000022B942E2657FF724AFF2E4961D06F039
:109C00000F074FF47F48B942C4F84C80B4DC02F12E
:109C1000080C0CF00F004FF0000E8142C4F850E029
:109C20003FF778AF02F10A0E0EF00F084FF0000C6C
:109C30004145C4F854C0B3DD002BCCD0012B7FF4D8
:109C4000EDAE02F10C0000F00F05494BA365A942EF
:109C50006FDC02F10E0606F00F0200279142E76565
:109C60003FF72DAFEDE6022DE3650CD0032DA36584
:109C70007FF442AFC4E91437E3643D4AA264072D80
:109C80003FF448AD7DE6C4E9153723653848E06404
:109C9000062DF2D10023A36473E6022FA26440F0E4
:109CA000D1800021E1644DE50026062F26657FF472
:109CB00028AD2F4BE364092F5CD00021A16429E576
:109CC0000026042FA6657FF412AD29496165092F8E
:109CD000EAD1D0103FF411AD0EE5901D00F00F0554
:109CE000A942C4F84CC07FF7C2AE002B3FF444AF8A
:109CF000012B7FF44CAC02F1080707F00F0EDFF8E0
:109D00007080C4F8508071453FF7C1AE02F10A0C73
:109D10000CF00F004FF0000E8142C4F854E090DCCC
:109D200002F10C0505F00F06B142C4F858E07FF7C8
:109D30004DAC02F10E0E0EF00F080D48E0654145E6
:109D40003FF7BDAE7DE6D510012DB2D10023B1E7BE
:109D5000D310012BB9D10021B8E7D51012D1256657
:109D60000349E165092FABD1D0103FF4BCACB9E495
:109D700000FFFF00D61063D04848A064012E7FF496
:109D800000AEC7E4454B2366012DE9D10021E8E789
:109D9000DFF808E1C4F844E0B14210DC171D07F019
:109DA0000F084FF0000C8845C4F848C023DB901D15
:109DB00000F00F05A942C4F84CC09CDC57E6161D04
:109DC00006F00F07DFF8D480C4F84880B94212DCEF
:109DD000901D00F00F054FF0000CA942C4F84CC0D4
:109DE00089DC02F1080606F00F07B942C4F850C03A
:109DF0003FF74DAE16E7971D07F00F0EDFF89C807A
:109E0000C4F84C8071453FF776AF02F1080C0CF0B6
:109E10000F004FF0000E8142C4F850E03FF737AE1C
:109E200002F10A0505F00F06B142C4F854E03FF70D
:109E300008AFB5E6194FA7646CE4184E26664CE4EB
:109E400030469AE7032FE26405D19046C6460022C9
:109E5000C44640467CE4042F07D0052F0BD1904622
:109E60004FF0000E9446104672E44FF000089646FC
:109E7000944610466CE4062F05D1904696464FF066
:109E8000000C104664E4072F7FF45CAC90469646C5
:109E9000944600205CE4002269E400BF00FFFF005C
:109EA000D0F884C0002340F2011200B5A0F8BC2114
:109EB00090F8C4E1DCF81C2080F8903080F8B430D1
:109EC00080F8D83080F8FC30C9B9BEF1000F1FD03F
:109ED000104B1340072B14BF012311230E491344C9
:109EE00081FB032EDA17C2EBAE0101EB410EA3EBAF
:109EF000CE03CCF81C305DF804EBFFF7A1B9BEF13E
:109F0000000F03D00129E3D10823E7E70123E5E7A8
:109F10001723E3E707000080ABAAAA2A30B504465E
:109F200083B0643001F0BCFB2378072B16D8DFE840
:109F300013F078002E002E001500EB00080017002B
:109F4000170094F8641094F86520002940F02F81E0
:109F5000002A00F0DE827F2A00F0C38103B030BD0A
:109F600094F86400802806D100210122C4F8B411BD
:109F700084F8BC21217094F86550802DEED1002327
:109F80000120C4F8B83184F8BD012370E6E794F8E5
:109F900064507F2D00F0158194F865307F2BDDD162
:109FA00094F8D800022840F05681032594F8FC204C
:109FB00084F8D850022A00F0BE8294F8FD000028F0
:109FC00014BF0322002294F8B43084F8FC20022B42
:109FD00000F0B58294F8B510002914BF03220022C6
:109FE00094F8905084F8B420022D00F0A68294F8E2
:109FF0009100002814BF0322002294F8443184F811
:10A000009020022B00F09D8294F84511002914BF86
:10A0100003220022002584F84421C4F8B851257099
:10A020009CE794F8642094F86530802A00F0198148
:10A03000802B00F02782002A40F08D82D4F8B401F2
:10A040000130C4F8B401002B40F05581D4F8B811A8
:10A0500094F8FCC094F8B4000131C4F8B811BCF114
:10A06000020F00F0F58194F8D850022D00F0F08135
:10A07000022800F0EA8194F89000022800F0E581BF
:10A0800094F84451022D00F0E081D4F8B451B5F5B4
:10A09000FA6FC0F2E08119B90120C4F8B411207040
:10A0A0007F2A00F0E4817F2B7FF458AF94F8BD3114
:10A0B000002B7FF453AFD4F884E094F8C421DEF889
:10A0C0001C50C34984F890309A4214BF08220122E0
:10A0D0002A4440F2011C81FB020584F8B43084F864
:10A0E000D83084F8FC30A4F8BCC12046D417C4EBA7
:10A0F000A50303EB4301A2EBC102CEF81C2003B081
:10A10000BDE83040FFF79CB894F86450002D3FF450
:10A1100025AF94F86520002A3FF420AF7F2D02D0B0
:10A120007F2A7FF41BAF94F8D830022B00F02082F6
:10A1300094F8D900002814BF0322002294F8FC10E0
:10A1400084F8D820022900F0118294F8FD50002DE7
:10A1500014BF0322002294F8B43084F8FC20022BB0
:10A1600000F0028294F8B500002814BF03220022F8
:10A1700094F8901084F8B420022900F0F38194F848
:10A180009150002D14BF0322002294F8443184F82A
:10A190009020022B00F0E48194F84501002814BFC0
:10A1A00003220022052184F844212170D6E67F296C
:10A1B0007FF4D1AEE56E0135072D00F31F81E56612
:10A1C000C9E694F8D820022A00F09D8094F8D910AE
:10A1D000002914BF0321002194F8FC5084F8D81002
:10A1E000022D00F0B68194F8FD30002B14BF03233C
:10A1F000002394F8B40084F8FC30022800F0A78112
:10A2000094F8B510002914BF0321002194F8902080
:10A2100084F8B410022A00F0988194F89150002D2F
:10A2200014BF0325002594F8440184F890500228B7
:10A2300000F0898194F84531002B14BF03200020E1
:10A2400094F8651084F8440100227F29C4F8B421F1
:10A2500022707FF483AE94F8D950002D7FF4A5AE20
:10A26000A4E6DBB394F8D8100025802B08BF84F84F
:10A27000BD5184F8BC51C4F8B4514D1E0020012DCD
:10A28000C4F8B8010DD9D4F8E00050B1A1F1030130
:10A29000B1FA81F14D094FF0010E84F8D95084F8DC
:10A2A000D8E094F8FCC00CF1FF30012840F23C816A
:10A2B000D4F8041151B1ACF10305B5FA85F04509A4
:10A2C0004FF0010C84F8FD5084F8FCC0802B00F0A6
:10A2D0004481D4F8B81194F8B400C4E60420207086
:10A2E0003CE6E06E07283FF639AEDFE800F08C75FB
:10A2F0005D4B3927150E002194F8FCC094F8B4008A
:10A30000C4F8B811ABE6032166E794F8C41181F0F4
:10A31000010284F8C42121E6D4F8845095F8323043
:10A32000013385F83230D4F8844094F832000128A3
:10A330007FF614AE002184F832100FE6D4F88420A2
:10A3400092F83150013582F83150D4F8843093F8C6
:10A350003140022C7FF602AE002083F83100FDE58B
:10A36000D4F8841091F83020013281F83020D4F8EC
:10A37000845095F83030022B7FF6F0AD002485F83C
:10A380003040EBE5D4F8840090F82F10013180F8CC
:10A390002F10D4F8845095F82F20022A7FF6DEADD6
:10A3A000002385F82F30D9E5D4F8840090F82E10DA
:10A3B000013180F82E10D4F8844094F82E50012DED
:10A3C0007FF6CCAD4FF0000C84F82EC0C6E500BF80
:10A3D000ABAAAA2A00000000D4F8842092F82D30FD
:10A3E000013382F82D30D4F8840090F82D10022922
:10A3F0007FF6B4AD002480F82D40AFE500237F2A1E
:10A40000E3667FF4ABADD4F8845095F82C30002B84
:10A4100040F0B080D4ED207AB2EE067A27EE870ABB
:10A42000FDEEC00A10EE900A092800F0AC8001335E
:10A4300085F82C30D4F8844094F82C50032D7FF606
:10A440008DAD002384F82C3088E5022020701CE6B6
:10A45000012525700CE6B1F5FA6FFFF621AE002D4F
:10A460007FF41EAE0221C4F8B851217018E694F8AA
:10A47000BC1100297FF417AE204603B0BDE8304080
:10A48000FFF70EBD002A3FF429AF002194F8FCC06D
:10A49000C4F8B41184F8BD11C4F8B81194F8905000
:10A4A000691E01290CD9D4F8980048B1A5F103051B
:10A4B000B5FA85F56909012084F8911084F89000B7
:10A4C00094F8B400451E012D0CD9D4F8BC1049B144
:10A4D000A0F10300B0FA80F04509012084F8B550DE
:10A4E00084F8B40094F8441101F1FF3EBEF1010F6D
:10A4F0000CD9D4F84C514DB1A1F10301B1FA81F15D
:10A500004D09012184F8455184F84411D4F8B8115B
:10A51000A5E540F20110A4F8BC0120460192FEF727
:10A520008FFE0199217019E5802BB7D0D4F8B811AE
:10A5300094F8B40093E5032245E503225DE5032288
:10A540004EE5032266E503207AE603256BE6032148
:10A550005CE603234DE6002073E594F8FCC09DE71C
:10A5600003221FE6032210E6032201E60322F2E59E
:10A570000322E3E5012B7FF45AAF042284F8C521BE
:10A5800095F82C3053E7F6EE001A94ED1F1A94ED6F
:10A59000746A94ED752A5FED716A94ED763AD4EDA4
:10A5A000732AF0EE615AE1EE215AF8EEC33AA5EEB5
:10A5B000862AFFEE004A32EE264AB7EE005AB4EE83
:10A5C000E34AF1EE10FAD8BFF0EE454AA2EEA44AF3
:10A5D00074EE217ABDEEE77A17EE102A9A420BDB71
:10A5E000D4F8C8118A4200DB4A1EC4F8D82184F886
:10A5F000C52195F82C301AE71A46F6E7C268D0F85C
:10A60000903100EB420130B5B1F92450B3F920404C
:10A61000D0F8AC11A542ACBF00250125B5EBD17F28
:10A620004FEAD17205D0D0F8984104F1010CC0F87E
:10A6300098C1456900EB450EB3F93850BEF9244086
:10A64000AC42ACBF00240124944205D0D0F89C4118
:10A6500004F1010CC0F89CC1856900EB450EB3F90B
:10A660004450BEF92440AC42ACBF002401249442C3
:10A6700005D0D0F8A04104F1010CC0F8A0C1C56913
:10A6800000EB450EBEF92440B3F950E07445ACBF71
:10A6900000240124944205D0D0F8A45105F1010C06
:10A6A000C0F8A4C1046AB3F95C3000EB4405B5F905
:10A6B00024C06345D4BF00230123934204D0D0F8C3
:10A6C000A8210132C0F8A821D0F894311F2B03F142
:10A6D000010411D0C0F89441284A43F2390C02FB1E
:10A6E00001C1C0F8AC114FF0904000294FF4007345
:10A6F000B4BF8361038530BDD0F89841D0F89C5138
:10A70000D0F88820012C4FF00003D4BF002401248E
:10A71000012DD0F8A051C0F8943182F82040D0F833
:10A72000A441C0F89831D4BF4FF0000E4FF0010E95
:10A73000012DD0F8A85182F821E0D4BF4FF0000CD1
:10A740004FF0010C012CC0F89C3182F822C0D4BF1C
:10A750004FF0000C4FF0010C012DC0F8A03182F831
:10A7600023C0D4BF4FF0000C4FF0010CC0F8A4314F
:10A7700082F824C0C0F8A831AEE700BF6D4EC641D4
:10A78000838ED0ED287ADFEDCE5A90ED276A90F8CF
:10A79000901007EE103AB8EEC70AF0EE676AD0EEF6
:10A7A000256A10B5E6EE267A0446C0ED287A49B946
:10A7B000D0ED2B0A90ED2C1AD0F89400A7EEA01A39
:10A7C00080ED001AE28E94ED312A9FEDBD3AD4ED72
:10A7D000303A94F8B43001EE902AF8EEE12AB0EE67
:10A7E000424A92EE834AA3EE842A84ED312A4BB981
:10A7F000D4ED344A94ED355AD4F8B810A2EE245A68
:10A8000081ED005A208FD4ED3A7ADFEDAD5A94ED08
:10A81000396A94F8D82007EE100AB8EEC70AF0EEAD
:10A82000676AD0EE256AE6EE267AC4ED3A7A4AB92E
:10A83000D4ED3D0A94ED3E1AD4F8DC30A7EEA01A10
:10A8400083ED001A618F94ED432A9FED9D3AD4ED7C
:10A85000423A94F8FC0001EE901AF8EEE12AB0EECC
:10A86000424A92EE834AA3EE842A84ED432A48B9F1
:10A87000D4ED464A94ED475AD4F80021A2EE245A6A
:10A8800082ED005AB4F83CC0D4ED4C7ADFED8C5A1E
:10A8900094ED4B6A94F8203107EE10CAB8EEC70A5F
:10A8A000F0EE676AD0EE256AE6EE267AC4ED4C7AC1
:10A8B0004BB9D4ED4F0A94ED501AD4F82411A7EEF9
:10A8C000A01A81ED001AE08F94ED552A9FED7C3A95
:10A8D000D4ED543A94F8442101EE900AF8EEE12ABE
:10A8E000B0EE424A92EE834AA3EE842A84ED552AC2
:10A8F0004AB9D4ED584A94ED595AD4F84831A2EEE9
:10A90000245A83ED005AB4F84010D4ED5E7ADFED9E
:10A910006C5A94ED5D6A94F8680107EE101AB8EE6F
:10A92000C70AF0EE676AD0EE256AE6EE267AC4ED35
:10A930005E7A48B9D4ED610A94ED621AD4F86C21BC
:10A94000A7EEA01A82ED001A6168A268D4F89031CF
:10A95000DFED5C1A93ED013AD3ED003ADFED5A0AD0
:10A9600004EB410E04EB420CBEF92400BCF92410A8
:10A9700002EE100AF8EEC22A04EE901A22EEA14A64
:10A98000D4F88810E068E3EE043A04EB400E206946
:10A99000BEF92420C1ED003AB8EEE45AD3ED047AB2
:10A9A00093ED037A25EE210A05EE902AA7EE807A30
:10A9B00004EB400C6269BCF924E081ED017AF8EE09
:10A9C000E56A93ED071A93ED066A26EEA12A02EED8
:10A9D00090EAA1EE026A04EB4200A269B0F924C039
:10A9E00081ED026AB8EEE23AD3ED0A3A93ED094AF4
:10A9F00063EE214A05EE10CAA3EEA44A04EB420E10
:10AA0000F8EEC57A81ED034A93ED0D0AD3ED0C5AA9
:10AA1000BEF9240067EEA16A01EE100AE6EE805A44
:10AA2000B8EEC12AC1ED045AD3ED102A93ED0F6A96
:10AA300022EE213AA3EE226A81ED056AD4E907C22B
:10AA400004EB4C0E04EB420CBEF92400D3ED133A98
:10AA5000D3ED124ABCF9242004EE100AB8EEC45A11
:10AA600000EE102A65EE217AF8EEC05AE7EEA34A0E
:10AA7000A06E65EEA11AC1ED064A93ED161AD3ED4C
:10AA8000156AE1EE216A431CD3F1000E0EF00302B9
:10AA9000C1ED076A94ED632A37EE427A03F00300B2
:10AAA000A7EE202A58BF504284ED632A81ED012A87
:10AAB000A06603282BD8DFE800F0DEDA625E00BF74
:10AAC00000008037000000383333333FE17A41C261
:10AAD000C520803FCDCCCC3D8FC2F53C0000544218
:10AAE00000004042000070426F12833A0AD7A33B35
:10AAF00000000000000040C2D3F89800D3F8A0E0A6
:10AB0000C0F800E0C3F8A8E0243399423AD1201DF0
:10AB100000F0FCFB04F1340000F09CFDD4ED201AA1
:10AB2000D4F88420F2EE065A21EEA51AFDEEC16A91
:10AB300016EE903A53B994ED1F4A5FED164A1FED99
:10AB40001D0AA4EE240A82ED000A10BD092B00F0B4
:10AB500096800A2B94ED1F2A00F0BA80B8EEE67AB0
:10AB6000F2EE082A27EE226AB1EE0C3AA2EE036A50
:10AB700082ED006A10BD2046FFF740FDC7E723467F
:10AB800004F1FC0193F890C0BCF1030FBCD801A004
:10AB900050F82CF065AC000827AC0008F9AA0008B2
:10ABA000A5AB0008D3ED280AD3ED2A2A1FED316AA0
:10ABB00030EEE23AF0EEC33AF4EEC63AF1EE10FAB5
:10ABC000A2DDB5EEC03AF1EE10FAD3ED297A40F3EA
:10ABD00088805FED415A75EEE71A35EEE21A81EE94
:10ABE000815A5FED446AB4EEE65AF1EE10FA08D4E9
:10ABF000F2EE046AB4EEE65AF1EE10FAD8BFF0EEC7
:10AC0000456AE3EE267AF5EEC07AF1EE10FA71D4D9
:10AC1000B7EE002AF4EEC27AF1EE10FA40F3D080DB
:10AC2000F0EE427A6AE0D3ED280A93ED2A4A5FED0E
:10AC3000564A30EEC40AB0EEC05AB4EEE45AF1EE11
:10AC400010FA7FF761AFD3F8982083ED294AC2ED5F
:10AC5000000AD3F8A0C0C3F8A8C04FF0020E83F8D2
:10AC600090E051E7D3F8A000C3F8A8004CE72046D5
:10AC7000FFF754F94BE72046FEF75AFB47E794ED00
:10AC80001D4A5FED6A4A94ED1E5A92F82C10B2EEFE
:10AC90000C0AE4EE004A74EE851AC2ED001A00298F
:10ACA00049D094F8C5C1ACF1040001EE100AB8EE29
:10ACB000C12AF2EE085AE2EE251AF6EE006AC2ED5B
:10ACC000001AD4ED1F7AE7EEA66AC2ED0A6A10BD3B
:10ACD0005FED7D3A5FED7D0AE2EE230AC2ED000AE8
:10ACE00010BD1FED7F4A77EE844A32EE840A84EE6F
:10ACF000805A76E71FED822AF0EE427A37EEE07A4C
:10AD00005FED862A83ED292AB0EEC76AB4EEE26AC7
:10AD1000F1EE10FA02D5002083F8900093ED2B3A63
:10AD2000D3ED2C3AD3F89420C3ED2A0AE3EE273A68
:10AD3000C2ED003AE8E6F6EE002A94ED1F7AD4ED73
:10AD4000743AD4ED750A1FED966AD4ED764A94ED07
:10AD5000734AB0EE623AA7EE223AB8EEE40AE3EEA6
:10AD6000230ABFEE001A30EE865AF7EE005AB4EE10
:10AD7000C05AF1EE10FAD8BFB0EE651AA4EE015A2F
:10AD800035EE222AFDEEC26A16EE903A8B421ADBAD
:10AD9000D4F8C8118B421ADA181F07EE900AB8EEE1
:10ADA000E77AF2EE082A27EE226A71EE861A4FF051
:10ADB000000CC4F8D831C2ED001AC2F828C010BD8A
:10ADC000B0EE672A9AE71FEDB56A0B46EDE7A1F1F1
:10ADD000050E03EE10EAF8EEC33AF2EE080A23EE8F
:10ADE000A06A4B1EE1E700BF00B50023DFF864E076
:10ADF000C0F840111549C0F824E14FF0000C4FF4A1
:10AE00007F4EC0F82811C0F84421114980F83C3128
:10AE1000A0F80E31838080F83431C0F83031C0F8AA
:10AE2000483180F8203120220423A0F800E0C0F847
:10AE300010C1C0F814C1C0F818C1C0F81CC1C0F8D6
:10AE40002C118270C0F8383100BD00BF0AD7A33B77
:10AE500009D7233A6F12833A00234FF47F4C202105
:10AE60000422A0F80E318380A0F800C0817080F821
:10AE70003431C0F83031C0F83821C0F8483170475B
:10AE8000D0ED477A90F8202190ED4A7A80ED470A7C
:10AE900070EE670A03460AB1B1EE477AF4EEC70ACC
:10AEA000F1EE10FA93F83401D3F83011CCBF01223F
:10AEB0000022904283F8202137D000B5062983B0C4
:10AEC00083F834212FD8022994BF00210121D3F81F
:10AED00038211AB1511EC3F8381102210020C3F8DD
:10AEE00030011846019317F093FF019B022883F865
:10AEF0003C0120D0C21ED1B2012912D8202100224B
:10AF00004FF47F4C99700421A3F80E219A80A3F886
:10AF100000C083F83421C3F83021C3F83811C3F8D6
:10AF2000482103B000BD0221D1E7013193F83C0173
:10AF3000C3F830117047D3E951ECF44510D3202108
:10AF400000224FF47F4E997004219A80A3F800E00C
:10AF500083F83421C3F83021C3F8381103B000BDA1
:10AF6000D3F840010193D91D4FF48072604418F06A
:10AF70009CFF019BD3F8482193F83C0102F58071B6
:10AF8000C3F84811DBE700BF00B5012183B04FF4DF
:10AF9000003018F0E5FD4FF4506340F2022269469C
:10AFA0004FF09040CDE9003218F0A0FB05220821B7
:10AFB0004FF0904018F09EFC05220A214FF090407F
:10AFC00018F098FC05220B214FF0904018F092FCED
:10AFD00003B000BD30B50D4601218DB004460846D2
:10AFE00018F0BEFD00211A4818F086F9184818F02C
:10AFF000CFF804F10802AB001025CDE901250021AE
:10B00000144800904FF480624FF4807CADF80C300F
:10B0100004914FF400530A910792694620220C488C
:10B020008024CDE90823CDE9054C18F045F90848FE
:10B030000122062118F06CF9074908484FF4004333
:10B040000B600122022118F001FF0DB030BD00BFDE
:10B05000580002400C38004000E100E00038004099
:10B0600070B5144B86B000251860456002600192EF
:10B0700004460E46FFF788FF01214FF4804018F088
:10B0800087FD0D4818F012FE4FF4007002A90290DF
:10B09000094804960395ADF8145018F06DFE064863
:10B0A000012118F0C9FE0199204606B0BDE87040A4
:10B0B000FFF790BF085A00200038004003460248BE
:10B0C0005960012118F018B9580002400B4B1A685A
:10B0D0004FF4C0215960910307D509490B68D3E9A2
:10B0E0000012881C03EB80001047530305D5044869
:10B0F0000068436850F8081B18477047000002407A
:10B10000085A00202DE9F04F012193B007464FF077
:10B11000805018F03DFD01214FF4007018F024FC20
:10B1200001214FF4806018F01FFC01214FF40060F2
:10B1300018F01AFC01214FF0807018F01DFD01215C
:10B140004FF0007018F018FD01214FF0806018F0EA
:10B1500013FD4FF0284018F01FFC0121022018F0C9
:10B16000FFFC01214FF4802018F0FAFC01214FF47C
:10B17000801018F0F5FC01214FF4001018F0F0FCDD
:10B18000002018F059FD00254FF08040CDE9045013
:10B1900003224FF04063584EADF80A508DF8082056
:10B1A0000393069534680121204618F031FD4FF4D1
:10B1B0000041204618F074FD0128F8D0D6F808A008
:10B1C000BAF1000F10DDB1464FF0000BB9F81820AE
:10B1D000D9F81400019201A90BF1010B18F086FABD
:10B1E000D34509F11009F1D10121204618F01AFDCB
:10B1F0004FF00041204618F053FD0028F8D0D6F853
:10B200000490ADF828A005F1100304F1600107EBEC
:10B210004300079120234FF400514FF00008CDE97F
:10B220000F314FF0800C4FF4807E4FF48062089015
:10B2300007A94846CDE90DE2CDE90B8CCDF8248075
:10B24000CDF8448018F038F803AA4146204618F09B
:10B25000C3FCC2454DDD0AEB050BC246B04698F86B
:10B260000C0058F8101F47F82050002201352046E6
:10B270004AEA010A18F0BEFC5D45F0D1514620466D
:10B2800018F0F6FC0021204618F0F6FC04212046B8
:10B2900018F0DCFC0021204618F0C4FC4FF00041FF
:10B2A000204618F0FDFC0128F8D0204618F0D4FC08
:10B2B0000121204618F0F4FC0028F9D0012148466D
:10B2C00018F01AF820460D4C01224FF480313C361C
:10B2D00018F0DCFCA6427FF465AF094818F0C2FC08
:10B2E000084818F0BFFC084818F0BCFC13B0BDE8D3
:10B2F000F08FC246C2E700BF4C3303080034030896
:10B3000000600140006401400068014008B5054844
:10B3100018F0A8FC044818F0A5FCBDE80840034854
:10B3200018F0A0BC006001400064014000680140CA
:10B3300030B5012189B005464FF4800018F010FCAB
:10B3400001214FF4003018F00BFC01214FF4805024
:10B3500018F012FC802340F2012201A91F4801933A
:10B36000029240F2022418F0C1F94020CDE9010414
:10B3700001A91A4818F0BAF918480522062118F050
:10B38000B9FA4FF4805201A94FF09040CDE9012461
:10B3900018F0ACF906220C214FF0904018F0AAFAF0
:10B3A00038244FF470634FF082704FF00071CDE994
:10B3B00003030722CDE905140948ADF81C2003A9B1
:10B3C00018F0AAFC0648012118F02CFD20220021CB
:10B3D000284609B0BDE8304018F080BD0014004890
:10B3E000003001402022002118F078BDD0E9003162
:10B3F00013F47F4F30B514BF0125002513F47F0FE0
:10B40000D0E9022414BF0123002311F47F4F43EA43
:10B41000450C14BF0125002511F47F0F14BF012135
:10B42000002141EA450312F47F4F43EA8C0E14BF1A
:10B430004FF0010C4FF0000C12F47F0F14BF0122EB
:10B44000002214F47F4F14BF0125002514F47F0F50
:10B4500042EA4C0114BF4FF0010C4FF0000C4CEAD3
:10B46000450441EA8E0244EA8203C26984692349A1
:10B4700012F47F4FD0E9040E14BF0125002512F409
:10B480007F0F14BF0122002214F47F4F42EA4502CD
:10B4900014BF0125002514F47F0F42EA830214BF74
:10B4A000012300231EF47F4F14BF0124002443EA2C
:10B4B00045051EF47F0F45EA820314BF01220022D6
:10B4C00010F47F4F42EA440214BF0124002410F418
:10B4D0007F0F42EA830514BF012300234FF0800C45
:10B4E00043EA4404C1F818C044EA850000BFA1F84B
:10B4F00028C000BF0249888130BD00BF0014004849
:10B50000003001402DE9F041012192B005464FF491
:10B51000007018F031FB4FF4404018F031FA01216F
:10B520004FF4003018F01CFB0121084618F018FBFE
:10B5300000267F234FF0030801A94FF090400193AC
:10B54000ADF80A608DF8088018F0D0F83E480996EA
:10B550008022CDE907054FF480714FF40050072495
:10B560002023CDE90C214FF48067109007A93748BC
:10B57000ADF82840CDE90E730B96119617F09CFE9E
:10B580003248012117F0B8FE4FF460224FF40061F9
:10B590000127CDE904212E48ADF80C7003A98DF8E0
:10B5A000184017F059FD2A4823463A46314617F00D
:10B5B0008BFD022211462648234617F085FD2448BC
:10B5C00023464246414617F07FFD21482346042288
:10B5D000394617F079FD1E4823460522062117F04B
:10B5E00073FD1B4823460622052117F06DFD184800
:10B5F00023462246042117F067FD1548394617F007
:10B600004DFD134817F05AFD114817F0BDFD0028F5
:10B61000FAD10F4817F04CFD0D4817F0B1FD002886
:10B62000FAD14FF08026012109484FF4004417F069
:10B630009DFD07482E606E60AE60AC8117F090FDF6
:10B6400012B0BDE8F08100BF4C2401400800024068
:10B6500000240140014817F083BD00BF00240140D1
:10B6600010B5012182B004464FF4802018F078FA1A
:10B670008023094A094801926946009318F036F878
:10B68000402206480092694618F030F84FF6FF70E5
:10B69000208002B010BD00BF00020001000400487D
:10B6A000F8B5084D441E461CA98855F8080B14F837
:10B6B000017F18F019F9A64240EA47002070F3D143
:10B6C000F8BD00BF003403082DE9F04F00F58054A9
:10B6D00003469FEDD16ADFEDD14ADFEDD17ADFED90
:10B6E000D16A9FEDD14A00F5526600F61C5083B036
:10B6F0000022C4F8E003F7EE005A03F6BC5A03F642
:10B70000B85083F8282D03F56269C6ED005AC6EDDE
:10B71000015A0D46C4F8E40303F58F5183F8C42D94
:10B720008AED006A8AED016A03F61C6AC4F8E8A390
:10B7300003F6C86883F8282E1831C9ED004AC9ED10
:10B74000014A03F6C469C4F8EC93BFEE007A83F8AB
:10B75000D02E0191C8ED007AC8ED017A03F6747716
:10B7600003F5776803F5845E03F5855CC4F8F08320
:10B770000EF10C0E83F87C2F0CF11C0C87ED007A77
:10B7800087ED017AB6EE005A019FC4F8FC7303F10D
:10B79000B000C4E9FDEC84F8982084F8C82003F5D3
:10B7A000827784ED246A84ED256AC4ED307A84F8CA
:10B7B0000422C4ED317A84ED7F5A84ED805AC4F8B6
:10B7C00000341A73C3ED017AC3ED027AC4F804049D
:10B7D00003F59E7083F8BC2083ED2D6AC3ED2E6ABD
:10B7E000C4F8087483F81021C3ED426AC3ED436ABC
:10B7F00003F5E077C4F80C0403F51F7083F84821C3
:10B8000083ED506AC3ED516A03F58B66C4F810747A
:10B8100083F8CC21C3ED717AC3ED727A03F53177E9
:10B82000C4F8140403F2544003F2FC5B83F888224A
:10B83000C3EDA06AC3EDA16AC4F8187483F8D022DE
:10B84000C3EDB27AC3EDB37AC4F81C0483F8602464
:10B8500086ED004AC6ED017A03F5BF66C4F82064A0
:10B8600003F5C26E714F83F8042603F20C6003F2F5
:10B870008C6603F5D26CCBF80070CBED015A012138
:10B88000C4F8240403F5EE6B83F8182603F26C77F2
:10B890008EED007A8EED017A03F6B800C4F82864C4
:10B8A00083F8982616464FF04042CCF80020CCEDA5
:10B8B000015A03F6BC0AC4F82C7403F6FC1283F890
:10B8C000781703F520698BED007ACBED017A03F64A
:10B8D000B828C4F8300403F6B42703F6D83083F848
:10B8E000C41803F59E5E8AED007ACAED017AC4F8A9
:10B8F000342483F8081A1822C9ED007AC9ED017AB8
:10B90000C4F8387483F8C01AC8ED007AC8ED017A1B
:10B91000C4F83C0483F8E41B03F6DC31C1ED007A83
:10B92000C1ED017A0EF11C0BC4F840249A465BF875
:10B93000040FE96803686F681B68A9602F602946D7
:10B940009847D4F8402401369642F0DB571E00EEAB
:10B95000107A3749374FC4F8B013F8EEC00A4FF0E9
:10B960007E564FF0FF3300250AF59C50C4F814634F
:10B97000C4F87063C4F8443300262F4BC4F8CC13CA
:10B98000C4F8B473C4F8D0732C49C4F82C234FF016
:10B990007C57C4EDCD0AC4F8B833C4F8D433C4F826
:10B9A0003013C4F82453C4F82853C4F81853C4F807
:10B9B0001C53C4F82053C4F83853C4F83C6384F8CB
:10B9C0004063C4F84853C4F8AC53C4F8C053C4F837
:10B9D000BC53C4F8C853C4F8DC53C4F8D853C4F8F3
:10B9E0006853C4F86C532022C4F8A873C4F8C47315
:10B9F000C4F874733146C4F8785384F87C6384F8CF
:10BA00005063C4F84C53C4F8A40318F067FAC4F8A0
:10BA1000A06303B0BDE8F08F3333333F6666663F03
:10BA2000CDCC4C3F9A99193F333333BF000040C00F
:10BA300022BA003D0AD7233CCAAA7F3FCDCC4C3D59
:10BA40002DE9F04F2DED048B00F580540D46814615
:10BA5000D4E9E80193B0904601EB800A0493C31D3A
:10BA600003F00707D8F8186092F82320CAF800609E
:10BA7000C4F8A0737E1D063706F0070B07F0070C0D
:10BA800001EB8B0E01EB8C00DEED007A90ED007A7D
:10BA90009FED514AD8ED045AD8ED056A98ED036A36
:10BAA00098ED079AD8ED014A95ED085A94F850732D
:10BAB00098F824B095F82C3037EE670AE0EE047A57
:10BAC000002A40F05F83012BF0EEC99A01F0168145
:10BAD000B5EEC05AF1EE10FA00F16A83F7EE008A73
:10BAE000B4EEE85AF1EE10FAD8BFF0EE458A95F8B8
:10BAF0002D0095ED091A012804BF98ED005A31EE8A
:10BB0000051AB5EEC01AF1EE10FA00F10685B7EE8F
:10BB1000008AB4EEC81AF1EE10FAD8BFB0EE418A2E
:10BB2000002F40F023839FED312AF4EEC27AF1EE2C
:10BB300010FA00F342831AB9D8F80010C4F8481379
:10BB4000D5ED072A002840F00E8394EDD23A94ED0B
:10BB5000CD4A94EDCE0A94EDCF5AD4EDCC3AA3EE73
:10BB6000040AF8EEE27AB8EEC52A77EE801ABFEE44
:10BB7000007AF4EEC21AF1EE10FAF7EE000AD8BF1E
:10BB8000B0EE607AE3EE871AB6EE001A71EE812A03
:10BB9000BDEEE23A13EE106A002EC0F2C284D4F871
:10BBA0002C03864280F20783D4F84413C4F83C6324
:10BBB00004EB8603B142D3F8E0A300F0B584074B51
:10BBC00093F8FE20552A15D193F8FF1006F12000B6
:10BBD00088420FD102490EE000000000007F0008FB
:10BBE000007000080000C0C2000000439A99993E0E
:10BBF0006666A63F0021DAF80030CDED075A9A6854
:10BC0000CDED066ACDED054A8DED036A50469047AD
:10BC1000DAF8001050464B6898474FF07C520020ED
:10BC2000C4F8A8234FF07E51002398F82320DDEDBF
:10BC3000075ADDED066ADDED054A9DED036AC4F89D
:10BC40004463C4F81803C4F81C03C4F82003C4F800
:10BC50002403C4F82803C4F8141384F8403395F877
:10BC60002C0094EDD34A94F8501395F831C08DF818
:10BC700044C0032834EE840A08BFA86AC4EDD34A3E
:10BC800018BF4FF07C50F6EE007A20EE277A109025
:10BC9000002900F05F82002F40F05C82002A41F012
:10BCA0006280022300225FED313A5FED310A1FED21
:10BCB000301A5FED321AE24F0A93E8EEA30AE14B25
:10BCC00029EE019ABDEEE02A79EEA19AB8EEC25AA9
:10BCD000C9EE292A30EEC54A12EE101ABEEECC4A41
:10BCE00003EB810014EE10EA07EB8E0CDCED003A5A
:10BCF000D0ED007ADFEDD44A94EDDA0A63EEA70ABC
:10BD0000F7EE009A20EEA49AB0EE003AB0EE691A6F
:10BD1000A9EE431AF5EEC02A21EE004AF1EE10FA20
:10BD200084EDDA4A00F1F683F4EEE92AF1EE10FA36
:10BD3000D8BFF0EE629AD5ED011A9FEDC42A36EE17
:10BD4000216ABBF1000FB5EEC06A18BFB0EE692AD8
:10BD5000F1EE10FA8DED0F2A8DED0E6A4FF0000016
:10BD600000F1A783F7EE002AB4EEE26AF1EE10FAD2
:10BD700040F335820F2ECDED0E2A01F00E82072EF4
:10BD800095ED053A95ED040AD5ED060A98F8207070
:10BD900098F8223098F8211000F03485B0EE445A1B
:10BDA0009FEDA91AD5ED003A9FEDA96AF0EEC01AF1
:10BDB00031EEC12A37EE237AB4EEC21AF1EE10FA50
:10BDC000D8BFB0EE421A21EE000A60EE067A002FCC
:10BDD00000F05F8398ED022A67EE827A77EE273AC9
:10BDE0009FED9C7AF4EEC73AF1EE10FA08D49FED7D
:10BDF0009A7AF4EEC73AF1EE10FAD8BFB0EE637A51
:10BE00009FED910A9FED921AD5ED022A8DED0B7AE6
:10BE1000B0EEC36A76EE404AB4EEE40AF1EE10FAF0
:10BE2000D8BFB0EE640A20EE033A63EE011A29B9D6
:10BE3000DFED8A5A8A4218BFF0EE445AB0EE624AE9
:10BE4000A1EEA54AB5EEC04AF1EE10FA00F11E834C
:10BE5000B7EE002AB4EEC24AF1EE10FAD8BFB0EE47
:10BE6000442ADFED797A9FED7A0A95ED036A8DED2C
:10BE70000C2AF0EEE03A33EEE77AF4EEC77AF1EE10
:10BE800010FAD8BFF0EE477A67EEA00A60EE804A5B
:10BE90002BB9DFED726A9A4218BFF0EE456AA6EE42
:10BEA000A46AB5EEC06AF1EE10FA00F1EC82B7EECA
:10BEB000005AB4EEC56AF1EE10FAD8BFB0EE465A99
:10BEC000DAF8007020989AF80C6000900DF12701C4
:10BED00009F5A25209F5A5530432043301918DF8F6
:10BEE00027600AA95046039207920693FF688DEDDA
:10BEF0000D5A1E46B847209A95F82F000590511EFE
:10BF0000DDE90632002849D09DED0B1ADFED541A09
:10BF1000B2EE023A71EE432AF4EEE12AF1EE10FAA3
:10BF200000F11384DFED4F5A9FED4F4AF4EEE52AFE
:10BF3000F1EE10FAD8BFF0EE625A35EE842AFDEE2B
:10BF4000C27AF8EEE73A17EE90CA32EE637ABEEEA6
:10BF5000CC7A17EE10EA3B4F9FED446A07EB8C005A
:10BF6000374F90ED000A95F8300007EB8E0EDEEDAE
:10BF7000000A60EE204A012824EE861A00F04A8763
:10BF80000228059F04BFB5EE006A21EE061A012FB4
:10BF900000F048870598022801F06B8195F82C7015
:10BFA00095F82DE09DF827C0022F01F05580BEF1D5
:10BFB000020F00F06384BCF1000F40F04381BBF13D
:10BFC000000F40F0D98698F82370002F00F03A81D6
:10BFD000F2EE086A28EE263A9FED252ADFED223A96
:10BFE0009DED0B4A05989FED1E0A164FA8EE823A6A
:10BFF0008BF0010C00280CBF4FF0000C0CF0010C72
:10C00000F2EE025A73EE231A74EE650AFDEEE19A1F
:10C010000B48B8EEE95A19EE908A71EEC57AF4EE43
:10C02000C00AFEEECC7A07EB880B17EE909AF1EE81
:10C0300010FA00EB8905DBED004A95ED004A19E0A6
:10C04000946E030898720308CDCC4C3DCDCC4C3F88
:10C050006666863F0000EEC20000F042000000006D
:10C06000000000C30000FE420000004351969639D4
:10C07000000090C241F1B780002702EE907A94F858
:10C080007C0394EDDB2A002801F08B805F4DDFED0F
:10C09000606A12EE900A05EB87085E4F98ED001A71
:10C0A00007EB800BDBED008A68EE812AB2EE083ADE
:10C0B00062EEA63AF0EE005A23EE837AF7EE000A1B
:10C0C000A7EE252AB4EEE02AF1EE10FAC1F2A28022
:10C0D00000259FED516ADFED555A84F87C53F0EE50
:10C0E000601AF0EE487AB0EE602ABFEE005A24EEF5
:10C0F000241ADFED4A8AF0EE492AD1EE282AF7EE1B
:10C10000006A36EEE13AA3EE229ADFED453ADAED27
:10C11000010A77EEA55AA9EE052AA8EE236A25EEB4
:10C12000885AF5EEC00A25EE084AF1EE10FA84EDC1
:10C13000DB2A84EDDC2A84EDDD6A84EDDE4A40F101
:10C14000D884209F0025002F40F09387DFED3A0A26
:10C1500000F0D3BC002A3FF4A4AD002747EA8100D9
:10C16000C3B201229FE59FED313AF0E4DFED2D1AD5
:10C17000F4EEE17AF1EE10FA7FF5DDAC002384F8FD
:10C180005033D8E495F83210012900F0988595F8DD
:10C190002E60012B08BF95ED0A5A012E00F0A485F0
:10C1A000B5EEC05AF1EE10FAF0EEC99A7FF596ACF2
:10C1B000DFED1E8A9BE4461EF6E44FF0010A84F888
:10C1C00050A3BBF1000F01D184F87CA3D8F800C0C4
:10C1D000C4F848C34FF07E5EC4F868E3ABE40F2EAA
:10C1E0007FF4CDADB1EE085AF0EE003AE6EE453AF6
:10C1F000F5EEC03AF1EE10FA00F1CF87F4EEE23A34
:10C20000F1EE10FACCBF0120002059E1946E030832
:10C210005196963998720308D1229B3E0AD7A33BC8
:10C220000AD7233DCDCCCC3D0000404200000000A9
:10C23000CDCC4C3DCDCC4C3F00FEFFC6D75739414D
:10C24000DB0F4940DAED010A1FED084AF4EEC40A9B
:10C25000B7EE002AB6EE006A4FF0000CF1EE10FACD
:10C2600084EDDB4A84EDDC2A84EDDD6A84EDDE4A70
:10C2700084F87CC300F1F7861FED112A20EE822A94
:10C280004FF0010C2098002800F0D98704984F1C2B
:10C2900017F0030E00F104000D462BD0BEF1010F84
:10C2A00014D0BEF1020F40F04385039AF2EC010A6C
:10C2B00022EE200A0392FDEEC09A013D19EE907A1B
:10C2C0000430013707F30F0B20F808BC039AF2EC97
:10C2D000014A22EE248A013DBDEEC89A043019EECF
:10C2E000107A03926A1C07F1010707F30F0920F87F
:10C2F000089C3DD0039F97ED021A97ED033ABE4686
:10C30000FEEC012ADEED006A62EE223A62EE265A67
:10C31000BDEEE37A62EE018A17EE102ABDEEE54A21
:10C32000013262EE037A02F30F08BDEEE86A14EE02
:10C33000102AFDEEE71A013202F30F0B16EE102A57
:10C340008646013202F30F0911EE902A20F8048C80
:10C35000043D2EF804BB013202F30F086A1CAEF84C
:10C36000009007F11007A0F8088000F11000C2D17A
:10C370009AED029A049AD4EDDC8A94EDDD0AD4EDAC
:10C38000DE4AB5EEC09AF1EE10FA02F1020200F1B7
:10C39000D2801FED574A69EE045ABCF1000F00F03D
:10C3A0000181209C002C69D04D1C15F0030702F17F
:10C3B000040225D0012F11D0022F40F0A784F6EC03
:10C3C000014A25EEA44A0139FDEEC42A043212EED8
:10C3D000904A013404F30F0522F8085CB6EC017AA8
:10C3E00065EE877A0139BDEEE75A043215EE107A10
:10C3F000481C07F1010707F30F0C22F808CC3DD0C9
:10C40000B146F9EC019A96ED028A99ED001A96ED83
:10C41000032A65EEA93A65EE816ABDEEE36AFDEE98
:10C42000E61A25EE883A65EE820A904616EE104A24
:10C4300011EE903ABDEEC39AFDEEE08A013419EE9A
:10C44000100A04F30F05013322F8045C03F30F070D
:10C4500018EE904A28F8047B043910324F1C00F182
:10C46000010004F1010400F30F0A04F30F0BA8F814
:10C4700000A006F1100622F808BCC1D113B0BDEC33
:10C48000048BBDE8F08F1FED975A19E51FED992A2F
:10C49000E7E4002A3FF4A2ACF0EE444A24EE051A89
:10C4A0005FED9F2A61EE221AB0EE644A67EEA17A30
:10C4B00094E40F2E0E907FF462ACF0EE003A01206F
:10C4C0000028F7EE002A18BFF0EE623A95ED040A54
:10C4D000D5ED060A98F8207098F82230002A00F06E
:10C4E00072845FEDAE7A002F14BFF0EE674AF0EE73
:10C4F000404A002B08BFF0EE607A09F2544E95EDE9
:10C50000053A98F82110CEED674A23EE845ACEED15
:10C51000687A45E45FEDBB9A0DE41FEDBC8AFFF736
:10C52000FFBA0026FFF740BB94F8400300283FF411
:10C5300096ABFFF744BBCD079A468B4600F14D8181
:10C54000BAEC017AD4EDF12A69EE475AB0EEE55A19
:10C5500075EE629AF5EEC09AF1EE10FA40F3B087EC
:10C560001FEDCD8AE9EE882AB7EE001AF4EEC12A53
:10C57000F1EE10FAC4EDF12A03D981EE222A65EE1C
:10C58000825A5FEDD43A25EEA36A01F1FF3B0AED32
:10C59000016A002940F02181BCF1000F40F0B28314
:10C5A0005FEDDB5A1FEDDB4A5FEDDB2A2098D4ED0F
:10C5B000F23A60EE047AB7EE005AE7EE802AB0EE67
:10C5C000047A22EE800AF0EE459AE0EE079A84EDB6
:10C5D000F47AE0EE009A84EDF30A85EE298A84ED80
:10C5E000F58A002800F0AA80B0EE636A01EE100A16
:10C5F00095EEA86AC80702F10402F8EE416AD4ED8C
:10C60000F77AD4EDF62A86EE262A33D41E4601396F
:10C610000432F6EC011A27EE623A73EE823AF0EE3B
:10C62000628AA1EEA33AA0EE623A73EE670A20EEA8
:10C63000889AE0EE098AE0EE287AF0EE682AB0EEF9
:10C64000674A91EEA34AF0EE675AE4EE245AE0EE10
:10C65000092AE0EE287ABDEEE57AC4EDF62A17EE57
:10C66000103AC4EDF77A013303F30F0522F8085CA2
:10C670004D1C63D0B0EE045AF6EC019A33EE821AE8
:10C6800065EE626A71EE023AE9EE816A1746023996
:10C690004B1CE0EE626A36EEE76A66EE081AE0EEE0
:10C6A000212AE0EE227AB0EE623AF0EE670AA0EEBE
:10C6B000213AE0EE220A84EDF63AC4EDF70AF6ECF0
:10C6C000015A25EE439AF0EE678AA5EEA39AD9EEB9
:10C6D000818AA0EE439AE8EEA47A79EE602AFDEE14
:10C6E000E77A22EE884A17EE900AA0EE043A00F1AB
:10C6F000010000F30F0C22F804CCE0EE030AF0EE88
:10C70000432AB0EE607A95EEA37AF0EE607AE7EE17
:10C71000240AE0EE042AE0EE037ABDEEE05AC4ED0E
:10C72000F62A15EE102AC4EDF77A02F1010202F39F
:10C730000F0927F8049B07F104029BD1C4EDF23ADC
:10C7400013B0BDEC048BBDE8F08F4FF0000EF44643
:10C7500001E49FED424AE0EE841AF7EE002AF4EE7F
:10C76000E21AF1EE10FAC4EDF11A03D982EEA17AC1
:10C7700067EE877A9FED3A5A67EE859A0BF1FF30A4
:10C780004AED019ABAEC018A94EDF11A69EE481A61
:10C79000B0EEE12A72EE415AF5EEC05AF1EE10FA0F
:10C7A0002DDDDFED2E3AA5EEA31AF7EE006AB4EE0A
:10C7B000E61AF1EE10FA84EDF11A03D986EE816AD9
:10C7C00061EE861A9FED263A61EE830A00F1FF3B87
:10C7D0004AED010A00283FF4DFAEFAEC016AD4ED1D
:10C7E000F11A69EE667AB0EEE73A73EE610AF5EE99
:10C7F000C00AF1EE10FAACDC9FED1A4AABE7DFEDB0
:10C80000193AD0E7002A00F0B182002940F0AE8248
:10C81000DFED123AD5ED001A9FED141A9FED126A62
:10C8200084EDC23AF0EEC04A74EEE37A37EE217A34
:10C83000F4EEE73AF1EE10FAD8BFF0EE673A23EEE5
:10C84000802A64EE014A62EE067AB0EE445A002F66
:10C850003FF424AEB0EE644AFFF7BCBACDCC4C3DF9
:10C86000CDCC4C3FACC5A7376666863F00000000C4
:10C87000000090C2000000430AD7A33BF6EE006A16
:10C8800098ED006A76EE866AF5EEC06AF1EE10FA6F
:10C8900040F10B825FED0B7A2098002800F0BB80FE
:10C8A000209F09EB870909F5A55505F10409A9EBB6
:10C8B0000300071FBD08013515F00707184653D0C0
:10C8C000012F45D0022F39D0032F2DD0042F21D096
:10C8D000052F15D0062F09D013ED180AD3ED004A05
:10C8E00034EEC01AA7EE810AA0EC010A50ED182A16
:10C8F00090ED007A37EE623AE7EE832AE0EC012A07
:10C9000010ED182A90ED004A74EE425AA7EEA52ABF
:10C91000A0EC012A50ED183A90ED005A75EE630A2A
:10C92000E7EEA03AE0EC013A50ED181A90ED006AFB
:10C9300076EE616AE7EEA61AE0EC011A10ED180A2D
:10C94000D0ED004A34EEC01AA7EE810AA0EC010A2D
:10C9500050ED182A90ED007A37EE623AE7EE832A1E
:10C96000E0EC012A814556D0039F10ED182A90ED86
:10C97000004A74EE425A0546A7EEA52A2030A5ECDF
:10C98000012A55ED183A10ED075A75EE630AAE46C6
:10C99000E7EEA03AEEEC013A5EED181A95ED010AC9
:10C9A00010ED1D6A10ED051A50ED1C6A50ED044A99
:10C9B00050ED1B2A10ED037A50ED1A3A10ED025A91
:10C9C00050ED190A30EE613A31EE462AE7EE831A4D
:10C9D000A7EE826A40ED061A34EEE64A50ED011ADF
:10C9E00000ED056A77EE625A35EE630AE7EE846A77
:10C9F000E7EEA52AE7EE803A31EEE06A40ED046A00
:10CA0000E7EE860A40ED032A40ED023A814540ED0B
:10CA1000010AAAD10397BCF1000F7FF413ACBBF15C
:10CA2000000F00F09781F2EE087A28EE271A5FEDEA
:10CA3000706A5FED704AA8EEA61A5FED718AE5484C
:10CA400071EE242AF7EE000ABDEEE27AB0EE495A02
:10CA5000B8EEC73A17EE107A32EEC34A00EB8708F9
:10CA6000BEEECC4ADC4898ED002A14EE10BA00EB7A
:10CA70008B09D9ED005A65EE823A94EDDB2A79EE06
:10CA8000C29A62EE021A30EEC20AF5EEC09AF1EED8
:10CA900010FA93EEA85A61EEA17A20EE001A40F344
:10CAA000F5849FEDCE9ADFEDCE8A9FEDCE6A9FEDA5
:10CAB000CE7ADAED010AF7EE004A74EEC12AA7EE4B
:10CAC000A86AA8EE221AA9EE892AA8EE076A21EE22
:10CAD000089AF5EEC00A29EE084AF1EE10FA84ED44
:10CAE000DB2A84EDDC2A84EDDD6A84EDDE4A00F188
:10CAF000DC849FEDBE7A60EE870A9FEDBD5A9FED04
:10CB0000BD0A2098D4EDEB2A66EE059AF7EE004AAE
:10CB1000A9EE860AB0EE048A20EE069AB0EE641AF8
:10CB2000A9EE081A84EDED8AA9EE091A84EDEC9AB3
:10CB3000C4EE818AC4EDEE8A002800F08083F0EE16
:10CB4000621AD2EE201A049D00EE900AB8EE605AE6
:10CB5000CF0781EE850A05F1040E8B46D4EDF07AFD
:10CB6000D4EDEF4A35D4F2EC019A72EE802A28EE29
:10CB7000648AF0EE645AA9EEA28A0EF1040E0392C2
:10CB800001F1FF3BA9EE648A38EE671A21EE282AEC
:10CB9000E9EE025AE9EE257AF0EE654AF0EE673AE0
:10CBA000D9EEA23AF0EE676AE3EE846AE9EE024A51
:10CBB000E9EE257ABDEEE66AC4EDEF4A16EE107A8C
:10CBC000C4EDF07A013707F30F092EF8089C00290D
:10CBD00067D00398B0EC013AF0EE041A72EE800AC6
:10CBE00021EEE47A70EE802AA3EE207AF046ABF1D3
:10CBF000020BA9EE647A37EE675A65EE289AE9EEE1
:10CC0000294AE9EE247AB0EE648AB0EE671AA9EEFA
:10CC1000298AA9EE241A84EDEF8A84EDF01AF0EC4B
:10CC2000013A21EEC82AF0EE675AD3EE205AA3EE5D
:10CC3000A22AE5EE847AA9EE482AB0EE676A72EE7F
:10CC4000417ABDEEC63A67EEA86A13EE102AA9EE45
:10CC5000268A013202F30F052EF8045CA9EE081AA9
:10CC60001BF10105F0EE484AF0EE411AD3EEA21A8C
:10CC7000F0EE417AA1EE841AE9EE264AE9EE087A4E
:10CC8000FDEEC10AC4EDEF4A10EE907AC4EDF07AE1
:10CC900007F1010707F30F0E28F804EB08F1040E63
:10CCA00098D1C4EDEB2AFFF763BBF7EE007AF4EE00
:10CCB000E76AF1EE10FAD8BFF0EE667AECE5002FE5
:10CCC0006DD1DFED470AF4EEE07AF1EE10FA66DDA1
:10CCD000C4EDD55AC4EDD66A84EDD76A84EDD89AEE
:10CCE000C4EDD94AFFF753BADFED439A35EE095A3E
:10CCF0004FF0000BB0EE699AFEF7EABE95ED0A5AC6
:10CD0000FEF7E6BEDFED395AFFF74EBB1E46B6EC26
:10CD1000019A65EE898A0139BDEEE80A043210EE07
:10CD2000103A013303F30F0022F8080CFFF747BB5A
:10CD3000B2EC016A62EE061A0392BDEEE15A4D1E94
:10CD400015EE102A0430013202F30F0720F8087C98
:10CD5000FFF7ABBA98F823704FF0010B002F3FF4A8
:10CD600071AAFFF735B90127FFF7F8B94FF08046F0
:10CD7000C4F80863FFF712B8059DDFED201ADFED58
:10CD8000204AF2EE080A28EE201AB5EB0C0CA8EEA9
:10CD9000A11A18BF4FF0010CDFED1A8A4FE695F883
:10CDA0002E60D4EDD55AD4EDD66A94EDD76A94EDC1
:10CDB000D89AD4EDD94A012B08BF95ED0A5A012E15
:10CDC0007FF4EEA990E7DFED0C4AF0EE647AFFF70E
:10CDD00094BB00BF98720308946E03089A99193F98
:10CDE0009A99993EA69B443B0AD7233D00FEFFC675
:10CDF000D7573941DB0F494000000000000090C2C6
:10CE0000000000430AD7A33BCDCC4C3DCDCC4C3FDA
:10CE1000ACC5A737059FF6EE006A012F21EE261A52
:10CE20007FF4B8A8209894EDCA7A002800F0098110
:10CE3000F6EE001AB4EEE11A06EE900AF1EE10FAE0
:10CE4000A8BFB0EE611A71EE477AB8EE660A4F1CC1
:10CE500017F00300C7EE800A9E468C4668D0012872
:10CE600042D0022820D037EE207AD4EDC94A77EE9E
:10CE7000242AB7EE001AF4EEC12AF1EE10FA01DB13
:10CE800072EEC12AB6EE003AB4EEE23AFEEE005A75
:10CE9000F1EE10FAD8BFB0EE653A9E46C4EDC92A4D
:10CEA00001F1FF3CAEEC013A37EE207A94EDC92A4D
:10CEB00077EE023AB7EE004AF4EEC43AF1EE10FA19
:10CEC00001DB73EEC43AB6EE005AB4EEE35ABEEE9E
:10CED000006AF1EE10FAD8BFB0EE465AC4EDC93A76
:10CEE0000CF1FF3CAEEC015A37EE207AD4EDC91AB2
:10CEF00077EE217AF7EE006AF4EEE67AF1EE10FAB8
:10CF000001DB77EEE67AB6EE000AB4EEE70AF1EE60
:10CF100010FAFEEE004A0CF1FF3CD8BFB0EE640AF6
:10CF2000BCF1FF3FC4EDC97AAEEC010A00F0898084
:10CF3000039FCDF818B037EE207A94EDC93A77EE1A
:10CF4000033AB7EE002AF4EEC23AF1EE10FA37EEE9
:10CF5000204AB6EE001AFEEE002A7046F0EE425A63
:10CF60000CF1FF3B01DB73EEC23AB4EEE31AF1EED3
:10CF700010FAD8BFB0EE621AC4EDC93AA0EC011A9B
:10CF800094EDC95A74EE051AF4EEE51AF1EE10FAB2
:10CF900001DB71EEE51AB6EE006AB4EEE16AF1EE7D
:10CFA00010FAFEEE007AF0EE466AD8BFB0EE676A7D
:10CFB000C4EDC91A80ED006A34EE201AD4EDC94AD6
:10CFC00071EE245AB7EE003AF4EEC35AF1EE10FABD
:10CFD00031EE207AB0EE670AF0EE662AB0EE432A10
:10CFE000B0EE674A00F10C0EABF1030C01DB75EEFD
:10CFF000C35AF4EEE56AF1EE10FAD8BFF0EE406ADB
:10D00000C4EDC95AC0ED016AD4EDC93A37EE235ACE
:10D01000B4EEC25AF1EE10FA01DB35EE425AF4EEEC
:10D02000C52AF1EE10FAD8BFF0EE442ABBF1020F88
:10D0300084EDC95AC0ED022A7FF47DAFDDF818B047
:10D04000039784EDCA7A95F82C7095F82DE09DF839
:10D0500027C0022F7EF4ABAFBEF1020FD5ED0A6AF6
:10D060007FF412AC0CE4209800283FF407AA0125B5
:10D07000AC46F1EE601ACF0791468E462AD4F9EC01
:10D08000019A94EDEA0A61EEA97AF0EEE74A34EEED
:10D09000C08AB5EEC08AF1EE10FA40F30E821FEDA1
:10D0A000A69AA8EE090AB7EE001AB4EEC10AF1EE8C
:10D0B00010FA84EDEA0A03D9C1EE008A67EEA87A75
:10D0C0005FEDAE6A67EEA62A01F1FF3E49ED012A47
:10D0D00000295BD0039F984641E01FEDB55AE7EE6B
:10D0E000053AF7EE000AF4EEE03AF1EE10FAC4ED7C
:10D0F000EA3A03D980EEA30A69EE809A5FEDBD4A51
:10D1000029EEA48A0EF1FF3309ED018AB9EC019AE8
:10D1100094EDEA1A61EE897AF0EEE78A78EEC16A58
:10D12000F5EEC06AF1EE10FA2BDD5FEDC92AA6EE2E
:10D13000A21AB7EE003AB4EEC31AF1EE10FA84ED7B
:10D14000EA1A03D9C3EE013A67EEA37A5FEDD15A2A
:10D1500027EEA57A03F1FF3E09ED017AA3B1B9EC00
:10D16000013AD4EDEA3A61EE839AF0EEE95A35EEEF
:10D17000E37AB5EEC07AF1EE10FAAEDC1FEDDC5AC0
:10D18000ADE75FEDDD2AD2E703974346002D3EF47D
:10D19000DDAF9FEDDF2AFFF775B8DFEDDE3AFFF771
:10D1A00095B9B7EE003A73EE423A22EE027A63EE98
:10D1B000A35A67EE071ADFEDD89A9FEDD86ADFED24
:10D1C000D50A33EE650AA1EEA96A30EEC25A68EEBE
:10D1D000007AB5EEC05AF1EE10FA7EF788AF9FEDF7
:10D1E000D09AFEF792BF9FEDCF1AF4EEC10AF1EE8E
:10D1F00010FAD8BFB0EE601A31EE236AFDEEC62AEF
:10D20000F8EEE28A76EE686AFEEECC6A16EE907A66
:10D21000FEF735BF70EEC21A22EE020A61EEA15A85
:10D22000DFEDBD9A9FEDBD6A60EE001A70EEE57A03
:10D23000A1EEA96A32EE425A67EE887AC9E79AED02
:10D24000022A94EDDD0AB5EEC02AF1EE10FA00F1E3
:10D250003B81BCF1000F7FF411A9DFEDAD2A049AE8
:10D26000D4EDDC8AD4EDDE4A62EE225A0232FFF7B8
:10D2700099B994EDC67AD4EDC50AD4EDC76AD4ED58
:10D28000C81A27EE073AB6EE005AA0EEA03AB4EE5E
:10D29000C53AF1EE10FA00F2FF80A34813EE10CA6F
:10D2A000F6EE005AA0EB5C0702EE107A23EE254A58
:10D2B000F7EE083A64EE027AE2EE673A23EE820A6B
:10D2C00060EE800A27EE007A2098002800F0D480D3
:10D2D000B5EE006AB4EEC61AF1EE10FADFED934A2D
:10D2E0009FED933ADDED205AA8BFB0EE461A21EE2D
:10D2F000241AF0EE002A21EE035AB0EE662AE1EE7F
:10D30000452A4F1C17F00707B8EE654A91EE222A0E
:10D310008E461846C2EE047A54D0012F45D0022F13
:10D3200039D0032F2DD0042F21D0052F15D0062F53
:10D3300009D076EEA76A01F1FF3EE7EE260AA6EED7
:10D34000E07AE0EC010A76EEA76A0EF1FF3EE7EE26
:10D35000260AA6EEE07AE0EC010A76EEA76A0EF164
:10D36000FF3EE7EE260AA6EEE07AE0EC010A76EE52
:10D37000A76A0EF1FF3EE7EE260AA6EEE07AE0ECA1
:10D38000010A76EEA76A0EF1FF3EE7EE260AA6EE48
:10D39000E07AE0EC010A76EEA76A0EF1FF3EE7EED6
:10D3A000260AA6EEE07AE0EC010A76EEA76A0EF114
:10D3B000FF3EE7EE260ABEF1FF3FA6EEE07AE0EC84
:10D3C000010A59D0039F76EEA73A8446E7EE230A76
:10D3D000AEF1080EBEF1FF3F00F12000B0EE600A92
:10D3E000A3EEC07A73EEA70AF0EE402AE7EE202AF9
:10D3F00030EEA76AA0EEE27AB0EE623AA7EE063A05
:10D4000076EE274AA6EE437AB0EE434AA7EE244AC8
:10D4100034EEA71AA4EEC47AF0EE443AE7EE013AED
:10D4200071EE275AA1EE637AB0EE635AA7EE255A41
:10D4300035EEA72AA5EEC57AB0EE456AA7EE026AD8
:10D4400072EE276AA2EE467AF0EE460AE7EE260A68
:10D45000ACEC010ACCED002AA6EEE07A00ED063A2B
:10D4600000ED054A40ED043A00ED035A00ED026A72
:10D4700040ED010AA7D10397C4EDC81AC4EDC50A4F
:10D4800084EDC67AC4EDC76AFEF788BD30EEE76A60
:10D49000A6EE059AFFF707BBF0EE002AB4EEE23ADB
:10D4A000F1EE10FAFFF610AFF7E6209D002D3EF4E6
:10D4B0004DAEF1EE601A0025DDE59FED1E9AF0E518
:10D4C0009FED1C8AFFF74EB8BCF1000F7EF4D6AF7B
:10D4D000DFED196ADFED155A60EE263AB7EE006A05
:10D4E000E3EE805AB0EE044A25EE803AB0EE467A7A
:10D4F000A3EE047AD4EDF23A84EDF44AA3EE037A73
:10D5000084EDF33AC6EE077AC4EDF57AFFF716B963
:10D5100000FEFFC6000000009A99993EA69B443B7E
:10D520009A99193F0000FE42DF59375FDB0F4940EF
:10D530000AD7A33EACC5A737D7573941531E70B59C
:10D54000154603EBD372B1EB620F0C4605F00106F2
:10D5500052DA52108C460CF1010300EBC30EDEEDE3
:10D56000007A1EED017AF4EEC77AF1EE10FA4FEA76
:10D57000430300EB8C0104D5013B00EB830EDEED91
:10D58000007AC1ED007A93429C46E4DB06B3591E53
:10D5900001EBD175A3424FEA650C06DC15E064454A
:10D5A000CEED000A24DA4FEA610C00EB8C06D6EDD2
:10D5B000000AB4EEE00A0CF1FF32F1EE10FA00EBD3
:10D5C000830E02EBD2716346E9DC8EED000A70BD7A
:10D5D000023DB3EB650FDAD1013300EBC3025E000D
:10D5E00052F8043CCEF80030731E00EB830ECEE7F9
:10D5F000B6468EED000A70BD00EB810E002EE4D120
:10D60000A91EB4EB610FE0D12346E5E788423DD087
:10D6100070B5041DA1422DED028B30D00E4605469B
:10D620000DE0421BC2EB82710431042A084429DD5B
:10D63000294616F03AFCB44285ED008A1FD0D5ED9C
:10D64000007A2046B4EC018AB4EEE78AF1EE10FAD3
:10D65000E7D414ED020AB4EEC08AF1EE10FA0AD54E
:10D66000031F83ED010A184633ED010AB4EEC08AA8
:10D67000F1EE10FAF5D4B44280ED008ADFD1BDECB2
:10D68000028B70BD08BFC0ED007AD4E7704700BFC1
:10D690000B1A402B40F385812DE9F04117464FEAE4
:10D6A000A30882B005460E46DB10002F6BD005EBB9
:10D6B0008302D5ED017AD2ED006A16ED016A95ED8F
:10D6C000007AF4EEE67AF1EE10FA07F1FF3705F191
:10D6D000040040F1A680F4EEC66AF1EE10FA00F103
:10D6E000AB80F4EEC67AF1EE10FA38D585ED006A1B
:10D6F00006ED017A95ED017AD5ED007AB4EEE77A80
:10D70000F1EE10FAB44628D504300446B0EC017AA4
:10D71000B4EEE77AF1EE10FAF7D41CED010AB4EE9C
:10D72000E70AF1EE10FAACF1040C06DD3CED010A5B
:10D73000B4EEE70AF1EE10FAF8DC644514D22046A4
:10D74000A0EC010A8CED007A94ED017AD5ED007A17
:10D75000B4EEE77AF1EE10FAD6D40446DDE7C5ED73
:10D76000007A85ED017AC9E73A4631462046FFF74F
:10D770008FFF631B402B40F311814FEAA30826461D
:10D78000DB10002F93D15F1E17F0070105EB830418
:10D7900000F0898001914246394634ED010A28465D
:10D7A000FFF7CCFE019A012A07F1FF377BD0022A4E
:10D7B0002ED0032A24D0042A1AD0052A10D0062AF3
:10D7C00006D0394634ED010A4246FFF7B7FE013F65
:10D7D000394634ED010A42462846FFF7AFFE013FC5
:10D7E000394634ED010A42462846FFF7A7FE013FBD
:10D7F000394634ED010A42462846FFF79FFE013FB5
:10D80000394634ED010A42462846FFF797FE013FAC
:10D81000394634ED010A42462846FFF78FFE013FA4
:10D8200041E0F4EEC67AF1EE10FA98D4F4EEC66A4E
:10D83000F1EE10FA3FF55AAFC5ED006A82ED007ABD
:10D8400095ED017AD5ED007A58E713ED010A791EBE
:10D8500042460191FFF772FE019914ED030A013966
:10D860004246FFF76BFE14ED040AF91E4246FFF72D
:10D8700065FE14ED050A391F4246FFF75FFE14ED01
:10D88000060A791F4246FFF759FE203CB91F94ED66
:10D89000010A4246FFF752FEF91F94ED000A424684
:10D8A000FFF74CFE083F201F019014ED010A42468D
:10D8B00039462846FFF742FE019B002FC5D1721B57
:10D8C000042A6BDD36ED010AD5F80080C6F8008029
:10D8D000A6EB0508A2F1050E39464FEAA802CEF3E1
:10D8E0008104FFF72BFEB8F1040F57DD24B3012CA0
:10D8F00016D0022C0AD036ED010AD5F800C0C6F8C1
:10D9000000C0731B9A103946FFF718FE36ED010A66
:10D910002F683760701B821000212846FFF70EFE2B
:10D9200036ED010A29683160741BA21000212846D7
:10D93000FFF704FE042C31DD321FD5F800E016EDB0
:10D94000010A46F804EC531B9A1028460021FFF701
:10D95000F5FDA6F108012F6816ED020A46F8087CCD
:10D960004C1BA2100021FFF7E9FDA6F10C02531B8E
:10D97000D5F8008016ED030A46F80C8C9A10103E7C
:10D980000021FFF7DBFD741B2F6896ED000A37605E
:10D99000A2100021FFF7D2FD042CCDDC02B0BDE8BF
:10D9A000F08170478B68B3F50C7F00B53BD30A68F4
:10D9B000A3F50C7302F50C7C8B2BC1F800C08B60B7
:10D9C000026434D90A688C3B02F18C0E0F2BC1F82B
:10D9D00000E08B6082642ED9D1F800C0103B0CF1BE
:10D9E00010020A608B60154941604FF03F420023EE
:10D9F0008161C1621249C0F844C04FF00B0EDFF8DC
:10DA000048C0C26003610262436201634263836390
:10DA10000C4AC0F800E011211223C0F808C041618F
:10DA2000C261836200BD00228B2B0264CAD800222F
:10DA30000F2B8264D0D84FF0000CD4E79A99993D0F
:10DA4000000090410000884100003041F8B5A24A32
:10DA5000066C846CDFF898E2DFF898C2074631461E
:10DA6000043C02F50C75D0E0DFED9C2AF4EE626A0E
:10DA7000F1EE10FA00F0EF809FED993AF4EE436A70
:10DA8000F1EE10FA00F0E780F2EE083AF4EE636A85
:10DA9000F1EE10FA14BF0120002092ED014ADFEDF3
:10DAA000914A9FED915A74EE246AB4EE454AFDEE18
:10DAB000E67AF1EE10FAB8EEE76A17EE903A36EE33
:10DAC000C60A0CEB8303BEEECC0A93ED007A10EE8F
:10DAD000103A0EEB8303D3ED005A65EE870AC1EDD1
